{
  "address": "0x83a3B639aC9d598A36d627c301B70a6673Ba4E07",
  "abi": [
    {
      "anonymous": false,
      "inputs": [
        {
          "indexed": true,
          "internalType": "address",
          "name": "owner",
          "type": "address"
        },
        {
          "indexed": true,
          "internalType": "address",
          "name": "spender",
          "type": "address"
        },
        {
          "indexed": false,
          "internalType": "uint256",
          "name": "value",
          "type": "uint256"
        }
      ],
      "name": "Approval",
      "type": "event"
    },
    {
      "anonymous": false,
      "inputs": [
        {
          "indexed": true,
          "internalType": "uint16",
          "name": "_srcChainId",
          "type": "uint16"
        },
        {
          "indexed": false,
          "internalType": "bytes",
          "name": "_srcAddress",
          "type": "bytes"
        },
        {
          "indexed": false,
          "internalType": "uint64",
          "name": "_nonce",
          "type": "uint64"
        },
        {
          "indexed": false,
          "internalType": "bytes32",
          "name": "_hash",
          "type": "bytes32"
        }
      ],
      "name": "CallOFTReceivedSuccess",
      "type": "event"
    },
    {
      "anonymous": false,
      "inputs": [
        {
          "indexed": true,
          "internalType": "address",
          "name": "_dst",
          "type": "address"
        },
        {
          "indexed": false,
          "internalType": "uint256",
          "name": "_amount",
          "type": "uint256"
        }
      ],
      "name": "Deposit",
      "type": "event"
    },
    {
      "anonymous": false,
      "inputs": [
        {
          "indexed": false,
          "internalType": "uint8",
          "name": "version",
          "type": "uint8"
        }
      ],
      "name": "Initialized",
      "type": "event"
    },
    {
      "anonymous": false,
      "inputs": [
        {
          "indexed": false,
          "internalType": "uint16",
          "name": "_srcChainId",
          "type": "uint16"
        },
        {
          "indexed": false,
          "internalType": "bytes",
          "name": "_srcAddress",
          "type": "bytes"
        },
        {
          "indexed": false,
          "internalType": "uint64",
          "name": "_nonce",
          "type": "uint64"
        },
        {
          "indexed": false,
          "internalType": "bytes",
          "name": "_payload",
          "type": "bytes"
        },
        {
          "indexed": false,
          "internalType": "bytes",
          "name": "_reason",
          "type": "bytes"
        }
      ],
      "name": "MessageFailed",
      "type": "event"
    },
    {
      "anonymous": false,
      "inputs": [
        {
          "indexed": false,
          "internalType": "address",
          "name": "_address",
          "type": "address"
        }
      ],
      "name": "NonContractAddress",
      "type": "event"
    },
    {
      "anonymous": false,
      "inputs": [
        {
          "indexed": true,
          "internalType": "address",
          "name": "previousOwner",
          "type": "address"
        },
        {
          "indexed": true,
          "internalType": "address",
          "name": "newOwner",
          "type": "address"
        }
      ],
      "name": "OwnershipTransferred",
      "type": "event"
    },
    {
      "anonymous": false,
      "inputs": [
        {
          "indexed": true,
          "internalType": "uint16",
          "name": "_srcChainId",
          "type": "uint16"
        },
        {
          "indexed": true,
          "internalType": "address",
          "name": "_to",
          "type": "address"
        },
        {
          "indexed": false,
          "internalType": "uint256",
          "name": "_amount",
          "type": "uint256"
        }
      ],
      "name": "ReceiveFromChain",
      "type": "event"
    },
    {
      "anonymous": false,
      "inputs": [
        {
          "indexed": false,
          "internalType": "uint16",
          "name": "_srcChainId",
          "type": "uint16"
        },
        {
          "indexed": false,
          "internalType": "bytes",
          "name": "_srcAddress",
          "type": "bytes"
        },
        {
          "indexed": false,
          "internalType": "uint64",
          "name": "_nonce",
          "type": "uint64"
        },
        {
          "indexed": false,
          "internalType": "bytes32",
          "name": "_payloadHash",
          "type": "bytes32"
        }
      ],
      "name": "RetryMessageSuccess",
      "type": "event"
    },
    {
      "anonymous": false,
      "inputs": [
        {
          "indexed": true,
          "internalType": "uint16",
          "name": "_dstChainId",
          "type": "uint16"
        },
        {
          "indexed": true,
          "internalType": "address",
          "name": "_from",
          "type": "address"
        },
        {
          "indexed": true,
          "internalType": "bytes32",
          "name": "_toAddress",
          "type": "bytes32"
        },
        {
          "indexed": false,
          "internalType": "uint256",
          "name": "_amount",
          "type": "uint256"
        }
      ],
      "name": "SendToChain",
      "type": "event"
    },
    {
      "anonymous": false,
      "inputs": [
        {
          "indexed": false,
          "internalType": "uint16",
          "name": "feeBp",
          "type": "uint16"
        }
      ],
      "name": "SetDefaultFeeBp",
      "type": "event"
    },
    {
      "anonymous": false,
      "inputs": [
        {
          "indexed": false,
          "internalType": "uint16",
          "name": "dstchainId",
          "type": "uint16"
        },
        {
          "indexed": false,
          "internalType": "bool",
          "name": "enabled",
          "type": "bool"
        },
        {
          "indexed": false,
          "internalType": "uint16",
          "name": "feeBp",
          "type": "uint16"
        }
      ],
      "name": "SetFeeBp",
      "type": "event"
    },
    {
      "anonymous": false,
      "inputs": [
        {
          "indexed": false,
          "internalType": "address",
          "name": "feeOwner",
          "type": "address"
        }
      ],
      "name": "SetFeeOwner",
      "type": "event"
    },
    {
      "anonymous": false,
      "inputs": [
        {
          "indexed": false,
          "internalType": "uint16",
          "name": "_dstChainId",
          "type": "uint16"
        },
        {
          "indexed": false,
          "internalType": "uint16",
          "name": "_type",
          "type": "uint16"
        },
        {
          "indexed": false,
          "internalType": "uint256",
          "name": "_minDstGas",
          "type": "uint256"
        }
      ],
      "name": "SetMinDstGas",
      "type": "event"
    },
    {
      "anonymous": false,
      "inputs": [
        {
          "indexed": false,
          "internalType": "address",
          "name": "precrime",
          "type": "address"
        }
      ],
      "name": "SetPrecrime",
      "type": "event"
    },
    {
      "anonymous": false,
      "inputs": [
        {
          "indexed": false,
          "internalType": "uint16",
          "name": "_remoteChainId",
          "type": "uint16"
        },
        {
          "indexed": false,
          "internalType": "bytes",
          "name": "_path",
          "type": "bytes"
        }
      ],
      "name": "SetTrustedRemote",
      "type": "event"
    },
    {
      "anonymous": false,
      "inputs": [
        {
          "indexed": false,
          "internalType": "uint16",
          "name": "_remoteChainId",
          "type": "uint16"
        },
        {
          "indexed": false,
          "internalType": "bytes",
          "name": "_remoteAddress",
          "type": "bytes"
        }
      ],
      "name": "SetTrustedRemoteAddress",
      "type": "event"
    },
    {
      "anonymous": false,
      "inputs": [
        {
          "indexed": false,
          "internalType": "bool",
          "name": "_useCustomAdapterParams",
          "type": "bool"
        }
      ],
      "name": "SetUseCustomAdapterParams",
      "type": "event"
    },
    {
      "anonymous": false,
      "inputs": [
        {
          "indexed": true,
          "internalType": "address",
          "name": "from",
          "type": "address"
        },
        {
          "indexed": true,
          "internalType": "address",
          "name": "to",
          "type": "address"
        },
        {
          "indexed": false,
          "internalType": "uint256",
          "name": "value",
          "type": "uint256"
        }
      ],
      "name": "Transfer",
      "type": "event"
    },
    {
      "anonymous": false,
      "inputs": [
        {
          "indexed": true,
          "internalType": "address",
          "name": "_src",
          "type": "address"
        },
        {
          "indexed": false,
          "internalType": "uint256",
          "name": "_amount",
          "type": "uint256"
        }
      ],
      "name": "Withdrawal",
      "type": "event"
    },
    {
      "inputs": [],
      "name": "BP_DENOMINATOR",
      "outputs": [
        {
          "internalType": "uint256",
          "name": "",
          "type": "uint256"
        }
      ],
      "stateMutability": "view",
      "type": "function"
    },
    {
      "inputs": [],
      "name": "DEFAULT_PAYLOAD_SIZE_LIMIT",
      "outputs": [
        {
          "internalType": "uint256",
          "name": "",
          "type": "uint256"
        }
      ],
      "stateMutability": "view",
      "type": "function"
    },
    {
      "inputs": [],
      "name": "NO_EXTRA_GAS",
      "outputs": [
        {
          "internalType": "uint256",
          "name": "",
          "type": "uint256"
        }
      ],
      "stateMutability": "view",
      "type": "function"
    },
    {
      "inputs": [],
      "name": "PT_SEND",
      "outputs": [
        {
          "internalType": "uint8",
          "name": "",
          "type": "uint8"
        }
      ],
      "stateMutability": "view",
      "type": "function"
    },
    {
      "inputs": [],
      "name": "PT_SEND_AND_CALL",
      "outputs": [
        {
          "internalType": "uint8",
          "name": "",
          "type": "uint8"
        }
      ],
      "stateMutability": "view",
      "type": "function"
    },
    {
      "inputs": [
        {
          "internalType": "address",
          "name": "owner",
          "type": "address"
        },
        {
          "internalType": "address",
          "name": "spender",
          "type": "address"
        }
      ],
      "name": "allowance",
      "outputs": [
        {
          "internalType": "uint256",
          "name": "",
          "type": "uint256"
        }
      ],
      "stateMutability": "view",
      "type": "function"
    },
    {
      "inputs": [
        {
          "internalType": "address",
          "name": "spender",
          "type": "address"
        },
        {
          "internalType": "uint256",
          "name": "amount",
          "type": "uint256"
        }
      ],
      "name": "approve",
      "outputs": [
        {
          "internalType": "bool",
          "name": "",
          "type": "bool"
        }
      ],
      "stateMutability": "nonpayable",
      "type": "function"
    },
    {
      "inputs": [
        {
          "internalType": "address",
          "name": "account",
          "type": "address"
        }
      ],
      "name": "balanceOf",
      "outputs": [
        {
          "internalType": "uint256",
          "name": "",
          "type": "uint256"
        }
      ],
      "stateMutability": "view",
      "type": "function"
    },
    {
      "inputs": [
        {
          "internalType": "uint16",
          "name": "_srcChainId",
          "type": "uint16"
        },
        {
          "internalType": "bytes",
          "name": "_srcAddress",
          "type": "bytes"
        },
        {
          "internalType": "uint64",
          "name": "_nonce",
          "type": "uint64"
        },
        {
          "internalType": "bytes32",
          "name": "_from",
          "type": "bytes32"
        },
        {
          "internalType": "address",
          "name": "_to",
          "type": "address"
        },
        {
          "internalType": "uint256",
          "name": "_amount",
          "type": "uint256"
        },
        {
          "internalType": "bytes",
          "name": "_payload",
          "type": "bytes"
        },
        {
          "internalType": "uint256",
          "name": "_gasForCall",
          "type": "uint256"
        }
      ],
      "name": "callOnOFTReceived",
      "outputs": [],
      "stateMutability": "nonpayable",
      "type": "function"
    },
    {
      "inputs": [
        {
          "internalType": "uint16",
          "name": "",
          "type": "uint16"
        }
      ],
      "name": "chainIdToFeeBps",
      "outputs": [
        {
          "internalType": "uint16",
          "name": "feeBP",
          "type": "uint16"
        },
        {
          "internalType": "bool",
          "name": "enabled",
          "type": "bool"
        }
      ],
      "stateMutability": "view",
      "type": "function"
    },
    {
      "inputs": [],
      "name": "circulatingSupply",
      "outputs": [
        {
          "internalType": "uint256",
          "name": "",
          "type": "uint256"
        }
      ],
      "stateMutability": "view",
      "type": "function"
    },
    {
      "inputs": [
        {
          "internalType": "uint16",
          "name": "",
          "type": "uint16"
        },
        {
          "internalType": "bytes",
          "name": "",
          "type": "bytes"
        },
        {
          "internalType": "uint64",
          "name": "",
          "type": "uint64"
        }
      ],
      "name": "creditedPackets",
      "outputs": [
        {
          "internalType": "bool",
          "name": "",
          "type": "bool"
        }
      ],
      "stateMutability": "view",
      "type": "function"
    },
    {
      "inputs": [],
      "name": "decimals",
      "outputs": [
        {
          "internalType": "uint8",
          "name": "",
          "type": "uint8"
        }
      ],
      "stateMutability": "view",
      "type": "function"
    },
    {
      "inputs": [
        {
          "internalType": "address",
          "name": "spender",
          "type": "address"
        },
        {
          "internalType": "uint256",
          "name": "subtractedValue",
          "type": "uint256"
        }
      ],
      "name": "decreaseAllowance",
      "outputs": [
        {
          "internalType": "bool",
          "name": "",
          "type": "bool"
        }
      ],
      "stateMutability": "nonpayable",
      "type": "function"
    },
    {
      "inputs": [],
      "name": "defaultFeeBp",
      "outputs": [
        {
          "internalType": "uint16",
          "name": "",
          "type": "uint16"
        }
      ],
      "stateMutability": "view",
      "type": "function"
    },
    {
      "inputs": [],
      "name": "deposit",
      "outputs": [],
      "stateMutability": "payable",
      "type": "function"
    },
    {
      "inputs": [
        {
          "internalType": "uint16",
          "name": "_dstChainId",
          "type": "uint16"
        },
        {
          "internalType": "bytes32",
          "name": "_toAddress",
          "type": "bytes32"
        },
        {
          "internalType": "uint256",
          "name": "_amount",
          "type": "uint256"
        },
        {
          "internalType": "bytes",
          "name": "_payload",
          "type": "bytes"
        },
        {
          "internalType": "uint64",
          "name": "_dstGasForCall",
          "type": "uint64"
        },
        {
          "internalType": "bool",
          "name": "_useZro",
          "type": "bool"
        },
        {
          "internalType": "bytes",
          "name": "_adapterParams",
          "type": "bytes"
        }
      ],
      "name": "estimateSendAndCallFee",
      "outputs": [
        {
          "internalType": "uint256",
          "name": "nativeFee",
          "type": "uint256"
        },
        {
          "internalType": "uint256",
          "name": "zroFee",
          "type": "uint256"
        }
      ],
      "stateMutability": "view",
      "type": "function"
    },
    {
      "inputs": [
        {
          "internalType": "uint16",
          "name": "_dstChainId",
          "type": "uint16"
        },
        {
          "internalType": "bytes32",
          "name": "_toAddress",
          "type": "bytes32"
        },
        {
          "internalType": "uint256",
          "name": "_amount",
          "type": "uint256"
        },
        {
          "internalType": "bool",
          "name": "_useZro",
          "type": "bool"
        },
        {
          "internalType": "bytes",
          "name": "_adapterParams",
          "type": "bytes"
        }
      ],
      "name": "estimateSendFee",
      "outputs": [
        {
          "internalType": "uint256",
          "name": "nativeFee",
          "type": "uint256"
        },
        {
          "internalType": "uint256",
          "name": "zroFee",
          "type": "uint256"
        }
      ],
      "stateMutability": "view",
      "type": "function"
    },
    {
      "inputs": [
        {
          "internalType": "uint16",
          "name": "",
          "type": "uint16"
        },
        {
          "internalType": "bytes",
          "name": "",
          "type": "bytes"
        },
        {
          "internalType": "uint64",
          "name": "",
          "type": "uint64"
        }
      ],
      "name": "failedMessages",
      "outputs": [
        {
          "internalType": "bytes32",
          "name": "",
          "type": "bytes32"
        }
      ],
      "stateMutability": "view",
      "type": "function"
    },
    {
      "inputs": [],
      "name": "feeOwner",
      "outputs": [
        {
          "internalType": "address",
          "name": "",
          "type": "address"
        }
      ],
      "stateMutability": "view",
      "type": "function"
    },
    {
      "inputs": [
        {
          "internalType": "uint16",
          "name": "_srcChainId",
          "type": "uint16"
        },
        {
          "internalType": "bytes",
          "name": "_srcAddress",
          "type": "bytes"
        }
      ],
      "name": "forceResumeReceive",
      "outputs": [],
      "stateMutability": "nonpayable",
      "type": "function"
    },
    {
      "inputs": [
        {
          "internalType": "uint16",
          "name": "_version",
          "type": "uint16"
        },
        {
          "internalType": "uint16",
          "name": "_chainId",
          "type": "uint16"
        },
        {
          "internalType": "address",
          "name": "",
          "type": "address"
        },
        {
          "internalType": "uint256",
          "name": "_configType",
          "type": "uint256"
        }
      ],
      "name": "getConfig",
      "outputs": [
        {
          "internalType": "bytes",
          "name": "",
          "type": "bytes"
        }
      ],
      "stateMutability": "view",
      "type": "function"
    },
    {
      "inputs": [
        {
          "internalType": "uint16",
          "name": "_remoteChainId",
          "type": "uint16"
        }
      ],
      "name": "getTrustedRemoteAddress",
      "outputs": [
        {
          "internalType": "bytes",
          "name": "",
          "type": "bytes"
        }
      ],
      "stateMutability": "view",
      "type": "function"
    },
    {
      "inputs": [
        {
          "internalType": "address",
          "name": "spender",
          "type": "address"
        },
        {
          "internalType": "uint256",
          "name": "addedValue",
          "type": "uint256"
        }
      ],
      "name": "increaseAllowance",
      "outputs": [
        {
          "internalType": "bool",
          "name": "",
          "type": "bool"
        }
      ],
      "stateMutability": "nonpayable",
      "type": "function"
    },
    {
      "inputs": [
        {
          "internalType": "string",
          "name": "_name",
          "type": "string"
        },
        {
          "internalType": "string",
          "name": "_symbol",
          "type": "string"
        },
        {
          "internalType": "uint8",
          "name": "_sharedDecimals",
          "type": "uint8"
        },
        {
          "internalType": "address",
          "name": "_lzEndpoint",
          "type": "address"
        }
      ],
      "name": "initialize",
      "outputs": [],
      "stateMutability": "nonpayable",
      "type": "function"
    },
    {
      "inputs": [
        {
          "internalType": "uint16",
          "name": "_srcChainId",
          "type": "uint16"
        },
        {
          "internalType": "bytes",
          "name": "_srcAddress",
          "type": "bytes"
        }
      ],
      "name": "isTrustedRemote",
      "outputs": [
        {
          "internalType": "bool",
          "name": "",
          "type": "bool"
        }
      ],
      "stateMutability": "view",
      "type": "function"
    },
    {
      "inputs": [],
      "name": "lzEndpoint",
      "outputs": [
        {
          "internalType": "contract ILayerZeroEndpointUpgradeable",
          "name": "",
          "type": "address"
        }
      ],
      "stateMutability": "view",
      "type": "function"
    },
    {
      "inputs": [
        {
          "internalType": "uint16",
          "name": "_srcChainId",
          "type": "uint16"
        },
        {
          "internalType": "bytes",
          "name": "_srcAddress",
          "type": "bytes"
        },
        {
          "internalType": "uint64",
          "name": "_nonce",
          "type": "uint64"
        },
        {
          "internalType": "bytes",
          "name": "_payload",
          "type": "bytes"
        }
      ],
      "name": "lzReceive",
      "outputs": [],
      "stateMutability": "nonpayable",
      "type": "function"
    },
    {
      "inputs": [
        {
          "internalType": "uint16",
          "name": "",
          "type": "uint16"
        },
        {
          "internalType": "uint16",
          "name": "",
          "type": "uint16"
        }
      ],
      "name": "minDstGasLookup",
      "outputs": [
        {
          "internalType": "uint256",
          "name": "",
          "type": "uint256"
        }
      ],
      "stateMutability": "view",
      "type": "function"
    },
    {
      "inputs": [],
      "name": "name",
      "outputs": [
        {
          "internalType": "string",
          "name": "",
          "type": "string"
        }
      ],
      "stateMutability": "view",
      "type": "function"
    },
    {
      "inputs": [
        {
          "internalType": "uint16",
          "name": "_srcChainId",
          "type": "uint16"
        },
        {
          "internalType": "bytes",
          "name": "_srcAddress",
          "type": "bytes"
        },
        {
          "internalType": "uint64",
          "name": "_nonce",
          "type": "uint64"
        },
        {
          "internalType": "bytes",
          "name": "_payload",
          "type": "bytes"
        }
      ],
      "name": "nonblockingLzReceive",
      "outputs": [],
      "stateMutability": "nonpayable",
      "type": "function"
    },
    {
      "inputs": [],
      "name": "owner",
      "outputs": [
        {
          "internalType": "address",
          "name": "",
          "type": "address"
        }
      ],
      "stateMutability": "view",
      "type": "function"
    },
    {
      "inputs": [
        {
          "internalType": "uint16",
          "name": "",
          "type": "uint16"
        }
      ],
      "name": "payloadSizeLimitLookup",
      "outputs": [
        {
          "internalType": "uint256",
          "name": "",
          "type": "uint256"
        }
      ],
      "stateMutability": "view",
      "type": "function"
    },
    {
      "inputs": [],
      "name": "precrime",
      "outputs": [
        {
          "internalType": "address",
          "name": "",
          "type": "address"
        }
      ],
      "stateMutability": "view",
      "type": "function"
    },
    {
      "inputs": [
        {
          "internalType": "uint16",
          "name": "_dstChainId",
          "type": "uint16"
        },
        {
          "internalType": "uint256",
          "name": "_amount",
          "type": "uint256"
        }
      ],
      "name": "quoteOFTFee",
      "outputs": [
        {
          "internalType": "uint256",
          "name": "fee",
          "type": "uint256"
        }
      ],
      "stateMutability": "view",
      "type": "function"
    },
    {
      "inputs": [],
      "name": "renounceOwnership",
      "outputs": [],
      "stateMutability": "nonpayable",
      "type": "function"
    },
    {
      "inputs": [
        {
          "internalType": "uint16",
          "name": "_srcChainId",
          "type": "uint16"
        },
        {
          "internalType": "bytes",
          "name": "_srcAddress",
          "type": "bytes"
        },
        {
          "internalType": "uint64",
          "name": "_nonce",
          "type": "uint64"
        },
        {
          "internalType": "bytes",
          "name": "_payload",
          "type": "bytes"
        }
      ],
      "name": "retryMessage",
      "outputs": [],
      "stateMutability": "payable",
      "type": "function"
    },
    {
      "inputs": [
        {
          "internalType": "address",
          "name": "_from",
          "type": "address"
        },
        {
          "internalType": "uint16",
          "name": "_dstChainId",
          "type": "uint16"
        },
        {
          "internalType": "bytes32",
          "name": "_toAddress",
          "type": "bytes32"
        },
        {
          "internalType": "uint256",
          "name": "_amount",
          "type": "uint256"
        },
        {
          "internalType": "uint256",
          "name": "_minAmount",
          "type": "uint256"
        },
        {
          "internalType": "bytes",
          "name": "_payload",
          "type": "bytes"
        },
        {
          "internalType": "uint64",
          "name": "_dstGasForCall",
          "type": "uint64"
        },
        {
          "components": [
            {
              "internalType": "address payable",
              "name": "refundAddress",
              "type": "address"
            },
            {
              "internalType": "address",
              "name": "zroPaymentAddress",
              "type": "address"
            },
            {
              "internalType": "bytes",
              "name": "adapterParams",
              "type": "bytes"
            }
          ],
          "internalType": "struct ICommonOFTUpgradeable.LzCallParams",
          "name": "_callParams",
          "type": "tuple"
        }
      ],
      "name": "sendAndCall",
      "outputs": [],
      "stateMutability": "payable",
      "type": "function"
    },
    {
      "inputs": [
        {
          "internalType": "address",
          "name": "_from",
          "type": "address"
        },
        {
          "internalType": "uint16",
          "name": "_dstChainId",
          "type": "uint16"
        },
        {
          "internalType": "bytes32",
          "name": "_toAddress",
          "type": "bytes32"
        },
        {
          "internalType": "uint256",
          "name": "_amount",
          "type": "uint256"
        },
        {
          "internalType": "uint256",
          "name": "_minAmount",
          "type": "uint256"
        },
        {
          "components": [
            {
              "internalType": "address payable",
              "name": "refundAddress",
              "type": "address"
            },
            {
              "internalType": "address",
              "name": "zroPaymentAddress",
              "type": "address"
            },
            {
              "internalType": "bytes",
              "name": "adapterParams",
              "type": "bytes"
            }
          ],
          "internalType": "struct ICommonOFTUpgradeable.LzCallParams",
          "name": "_callParams",
          "type": "tuple"
        }
      ],
      "name": "sendFrom",
      "outputs": [],
      "stateMutability": "payable",
      "type": "function"
    },
    {
      "inputs": [
        {
          "internalType": "uint16",
          "name": "_version",
          "type": "uint16"
        },
        {
          "internalType": "uint16",
          "name": "_chainId",
          "type": "uint16"
        },
        {
          "internalType": "uint256",
          "name": "_configType",
          "type": "uint256"
        },
        {
          "internalType": "bytes",
          "name": "_config",
          "type": "bytes"
        }
      ],
      "name": "setConfig",
      "outputs": [],
      "stateMutability": "nonpayable",
      "type": "function"
    },
    {
      "inputs": [
        {
          "internalType": "uint16",
          "name": "_feeBp",
          "type": "uint16"
        }
      ],
      "name": "setDefaultFeeBp",
      "outputs": [],
      "stateMutability": "nonpayable",
      "type": "function"
    },
    {
      "inputs": [
        {
          "internalType": "uint16",
          "name": "_dstChainId",
          "type": "uint16"
        },
        {
          "internalType": "bool",
          "name": "_enabled",
          "type": "bool"
        },
        {
          "internalType": "uint16",
          "name": "_feeBp",
          "type": "uint16"
        }
      ],
      "name": "setFeeBp",
      "outputs": [],
      "stateMutability": "nonpayable",
      "type": "function"
    },
    {
      "inputs": [
        {
          "internalType": "address",
          "name": "_feeOwner",
          "type": "address"
        }
      ],
      "name": "setFeeOwner",
      "outputs": [],
      "stateMutability": "nonpayable",
      "type": "function"
    },
    {
      "inputs": [
        {
          "internalType": "uint16",
          "name": "_dstChainId",
          "type": "uint16"
        },
        {
          "internalType": "uint16",
          "name": "_packetType",
          "type": "uint16"
        },
        {
          "internalType": "uint256",
          "name": "_minGas",
          "type": "uint256"
        }
      ],
      "name": "setMinDstGas",
      "outputs": [],
      "stateMutability": "nonpayable",
      "type": "function"
    },
    {
      "inputs": [
        {
          "internalType": "uint16",
          "name": "_dstChainId",
          "type": "uint16"
        },
        {
          "internalType": "uint256",
          "name": "_size",
          "type": "uint256"
        }
      ],
      "name": "setPayloadSizeLimit",
      "outputs": [],
      "stateMutability": "nonpayable",
      "type": "function"
    },
    {
      "inputs": [
        {
          "internalType": "address",
          "name": "_precrime",
          "type": "address"
        }
      ],
      "name": "setPrecrime",
      "outputs": [],
      "stateMutability": "nonpayable",
      "type": "function"
    },
    {
      "inputs": [
        {
          "internalType": "uint16",
          "name": "_version",
          "type": "uint16"
        }
      ],
      "name": "setReceiveVersion",
      "outputs": [],
      "stateMutability": "nonpayable",
      "type": "function"
    },
    {
      "inputs": [
        {
          "internalType": "uint16",
          "name": "_version",
          "type": "uint16"
        }
      ],
      "name": "setSendVersion",
      "outputs": [],
      "stateMutability": "nonpayable",
      "type": "function"
    },
    {
      "inputs": [
        {
          "internalType": "uint16",
          "name": "_srcChainId",
          "type": "uint16"
        },
        {
          "internalType": "bytes",
          "name": "_path",
          "type": "bytes"
        }
      ],
      "name": "setTrustedRemote",
      "outputs": [],
      "stateMutability": "nonpayable",
      "type": "function"
    },
    {
      "inputs": [
        {
          "internalType": "uint16",
          "name": "_remoteChainId",
          "type": "uint16"
        },
        {
          "internalType": "bytes",
          "name": "_remoteAddress",
          "type": "bytes"
        }
      ],
      "name": "setTrustedRemoteAddress",
      "outputs": [],
      "stateMutability": "nonpayable",
      "type": "function"
    },
    {
      "inputs": [
        {
          "internalType": "bool",
          "name": "_useCustomAdapterParams",
          "type": "bool"
        }
      ],
      "name": "setUseCustomAdapterParams",
      "outputs": [],
      "stateMutability": "nonpayable",
      "type": "function"
    },
    {
      "inputs": [],
      "name": "sharedDecimals",
      "outputs": [
        {
          "internalType": "uint8",
          "name": "",
          "type": "uint8"
        }
      ],
      "stateMutability": "view",
      "type": "function"
    },
    {
      "inputs": [
        {
          "internalType": "bytes4",
          "name": "interfaceId",
          "type": "bytes4"
        }
      ],
      "name": "supportsInterface",
      "outputs": [
        {
          "internalType": "bool",
          "name": "",
          "type": "bool"
        }
      ],
      "stateMutability": "view",
      "type": "function"
    },
    {
      "inputs": [],
      "name": "symbol",
      "outputs": [
        {
          "internalType": "string",
          "name": "",
          "type": "string"
        }
      ],
      "stateMutability": "view",
      "type": "function"
    },
    {
      "inputs": [],
      "name": "token",
      "outputs": [
        {
          "internalType": "address",
          "name": "",
          "type": "address"
        }
      ],
      "stateMutability": "view",
      "type": "function"
    },
    {
      "inputs": [],
      "name": "totalSupply",
      "outputs": [
        {
          "internalType": "uint256",
          "name": "",
          "type": "uint256"
        }
      ],
      "stateMutability": "view",
      "type": "function"
    },
    {
      "inputs": [
        {
          "internalType": "address",
          "name": "to",
          "type": "address"
        },
        {
          "internalType": "uint256",
          "name": "amount",
          "type": "uint256"
        }
      ],
      "name": "transfer",
      "outputs": [
        {
          "internalType": "bool",
          "name": "",
          "type": "bool"
        }
      ],
      "stateMutability": "nonpayable",
      "type": "function"
    },
    {
      "inputs": [
        {
          "internalType": "address",
          "name": "from",
          "type": "address"
        },
        {
          "internalType": "address",
          "name": "to",
          "type": "address"
        },
        {
          "internalType": "uint256",
          "name": "amount",
          "type": "uint256"
        }
      ],
      "name": "transferFrom",
      "outputs": [
        {
          "internalType": "bool",
          "name": "",
          "type": "bool"
        }
      ],
      "stateMutability": "nonpayable",
      "type": "function"
    },
    {
      "inputs": [
        {
          "internalType": "address",
          "name": "newOwner",
          "type": "address"
        }
      ],
      "name": "transferOwnership",
      "outputs": [],
      "stateMutability": "nonpayable",
      "type": "function"
    },
    {
      "inputs": [
        {
          "internalType": "uint16",
          "name": "",
          "type": "uint16"
        }
      ],
      "name": "trustedRemoteLookup",
      "outputs": [
        {
          "internalType": "bytes",
          "name": "",
          "type": "bytes"
        }
      ],
      "stateMutability": "view",
      "type": "function"
    },
    {
      "inputs": [],
      "name": "useCustomAdapterParams",
      "outputs": [
        {
          "internalType": "bool",
          "name": "",
          "type": "bool"
        }
      ],
      "stateMutability": "view",
      "type": "function"
    },
    {
      "inputs": [
        {
          "internalType": "uint256",
          "name": "_amount",
          "type": "uint256"
        }
      ],
      "name": "withdraw",
      "outputs": [],
      "stateMutability": "nonpayable",
      "type": "function"
    },
    {
      "stateMutability": "payable",
      "type": "receive"
    }
  ],
  "transactionHash": "0x5e2c4a5c0db87f6d9dd1e4e8b6217a271258e23c03c71e2f661bc6c8d673a8c1",
  "args": [],
  "numDeployments": 1,
  "solcInputHash": "e088b77536c8801c97be108f39a58f78",
  "bytecode": "0x60806040523480156200001157600080fd5b506200001c62000022565b620000e3565b600054610100900460ff16156200008f5760405162461bcd60e51b815260206004820152602760248201527f496e697469616c697a61626c653a20636f6e747261637420697320696e697469604482015266616c697a696e6760c81b606482015260840160405180910390fd5b60005460ff90811614620000e1576000805460ff191660ff9081179091556040519081527f7f26b83ff96e1f2b6a682f133852f6798a09c465da95921460cefb38474024989060200160405180910390a15b565b61518a80620000f36000396000f3fe6080604052600436106103b05760003560e01c80639358928b116101e7578063cbed8b9c1161010d578063eab45d9c116100a0578063ed629c5c1161006f578063ed629c5c14610b7a578063f2fde38b14610b99578063f5ecbdbc14610bb9578063fc0c546a14610bd957600080fd5b8063eab45d9c14610afa578063eaffd49a14610b1a578063eb8d72b714610b3a578063ecd8f21214610b5a57600080fd5b8063dd62ed3e116100dc578063dd62ed3e14610a85578063de7ea79d14610aa5578063df2a5b3b14610ac5578063e6a20ae614610ae557600080fd5b8063cbed8b9c14610a1c578063d0e30db014610a3c578063d1deba1f14610a44578063d888296814610a5757600080fd5b8063a6c3d16511610185578063b9818be111610154578063b9818be114610980578063baf3292d146109a6578063c44618341461094a578063c83330ce146109c657600080fd5b8063a6c3d1651461090a578063a9059cbb1461092a578063abe685cd1461094a578063b353aaa71461096057600080fd5b80639bdb9812116101c15780639bdb9812146108585780639f38369a146108aa578063a457c2d7146108ca578063a4c51df5146108ea57600080fd5b80639358928b1461080e578063950c8a741461082357806395d89b411461084357600080fd5b80633f1f4fa4116102d757806366ad5c8a1161026a57806379c0ad4b1161023957806379c0ad4b1461076a578063857749b01461078a5780638cfd8f5c146107a45780638da5cb5b146107dc57600080fd5b806366ad5c8a146106de57806370a08231146106fe578063715018a6146107355780637533d7881461074a57600080fd5b80634b104eff116102a65780634b104eff1461063a5780634c42899a1461065a5780635a359dc51461066f5780635b8c41e61461068f57600080fd5b80633f1f4fa4146105c557806342d65a8d146105f25780634477051514610612578063455ba27d1461062757600080fd5b806318160ddd1161034f578063313ce5671161031e578063313ce5671461052e578063365260b41461055057806339509351146105855780633d8b38f6146105a557600080fd5b806318160ddd146104bb57806323b872dd146104db5780632cdf0b95146104fb5780632e1a7d4d1461050e57600080fd5b806307e0db171161038b57806307e0db171461043b578063095ea7b31461045b5780630df374831461047b57806310ddb1371461049b57600080fd5b80621d3567146103c457806301ffc9a7146103e457806306fdde031461041957600080fd5b366103bf576103bd610bec565b005b600080fd5b3480156103d057600080fd5b506103bd6103df366004613ea9565b610c2d565b3480156103f057600080fd5b506104046103ff366004613f3c565b610e49565b60405190151581526020015b60405180910390f35b34801561042557600080fd5b5061042e610e80565b6040516104109190613fb6565b34801561044757600080fd5b506103bd610456366004613fc9565b610f13565b34801561046757600080fd5b50610404610476366004613ff9565b610f80565b34801561048757600080fd5b506103bd610496366004614025565b610f98565b3480156104a757600080fd5b506103bd6104b6366004613fc9565b610fb7565b3480156104c757600080fd5b5061018c545b604051908152602001610410565b3480156104e757600080fd5b506104046104f6366004614041565b610ff3565b6103bd610509366004614094565b611017565b34801561051a57600080fd5b506103bd61052936600461410f565b6110ba565b34801561053a57600080fd5b5060125b60405160ff9091168152602001610410565b34801561055c57600080fd5b5061057061056b366004614138565b611223565b60408051928352602083019190915201610410565b34801561059157600080fd5b506104046105a0366004613ff9565b611278565b3480156105b157600080fd5b506104046105c036600461419d565b61129a565b3480156105d157600080fd5b506104cd6105e0366004613fc9565b60686020526000908152604090205481565b3480156105fe57600080fd5b506103bd61060d36600461419d565b611366565b34801561061e57600080fd5b506104cd600081565b6103bd6106353660046141ef565b6113d0565b34801561064657600080fd5b506103bd6106553660046142ab565b6114b1565b34801561066657600080fd5b5061053e600081565b34801561067b57600080fd5b506103bd61068a366004613fc9565b61156e565b34801561069b57600080fd5b506104cd6106aa366004614373565b6097602090815260009384526040808520845180860184018051928152908401958401959095209452929052825290205481565b3480156106ea57600080fd5b506103bd6106f9366004613ea9565b6115e0565b34801561070a57600080fd5b506104cd6107193660046142ab565b6001600160a01b0316600090815261018a602052604090205490565b34801561074157600080fd5b506103bd6116b4565b34801561075657600080fd5b5061042e610765366004613fc9565b6116c8565b34801561077657600080fd5b506103bd6107853660046143e4565b611762565b34801561079657600080fd5b5060c95461053e9060ff1681565b3480156107b057600080fd5b506104cd6107bf36600461441e565b606760209081526000928352604080842090915290825290205481565b3480156107e857600080fd5b506033546001600160a01b03165b6040516001600160a01b039091168152602001610410565b34801561081a57600080fd5b506104cd61181e565b34801561082f57600080fd5b506069546107f6906001600160a01b031681565b34801561084f57600080fd5b5061042e61182f565b34801561086457600080fd5b50610404610873366004614373565b60ca602090815260009384526040808520845180860184018051928152908401958401959095209452929052825290205460ff1681565b3480156108b657600080fd5b5061042e6108c5366004613fc9565b61183f565b3480156108d657600080fd5b506104046108e5366004613ff9565b611955565b3480156108f657600080fd5b50610570610905366004614451565b6119d0565b34801561091657600080fd5b506103bd61092536600461419d565b611a5f565b34801561093657600080fd5b50610404610945366004613ff9565b611adb565b34801561095657600080fd5b506104cd61271081565b34801561096c57600080fd5b506065546107f6906001600160a01b031681565b34801561098c57600080fd5b5060f8546107f6906201000090046001600160a01b031681565b3480156109b257600080fd5b506103bd6109c13660046142ab565b611ae9565b3480156109d257600080fd5b50610a026109e1366004613fc9565b60f76020526000908152604090205461ffff81169062010000900460ff1682565b6040805161ffff9093168352901515602083015201610410565b348015610a2857600080fd5b506103bd610a3736600461450a565b611b3f565b6103bd610bec565b6103bd610a52366004613ea9565b611bad565b348015610a6357600080fd5b5060f854610a729061ffff1681565b60405161ffff9091168152602001610410565b348015610a9157600080fd5b506104cd610aa0366004614578565b611dc3565b348015610ab157600080fd5b506103bd610ac03660046145d1565b611def565b348015610ad157600080fd5b506103bd610ae036600461465f565b611f08565b348015610af157600080fd5b5061053e600181565b348015610b0657600080fd5b506103bd610b1536600461469b565b611fba565b348015610b2657600080fd5b506103bd610b353660046146b6565b61200b565b348015610b4657600080fd5b506103bd610b5536600461419d565b61212a565b348015610b6657600080fd5b506104cd610b75366004614025565b612184565b348015610b8657600080fd5b5060c95461040490610100900460ff1681565b348015610ba557600080fd5b506103bd610bb43660046142ab565b612216565b348015610bc557600080fd5b5061042e610bd436600461477e565b61228c565b348015610be557600080fd5b50306107f6565b610bf6333461231f565b60405134815233907fe1fffcc4923d04b559f4d29a8bfc6cda04eb5b0d3c460751c2402c5c5cc9109c9060200160405180910390a2565b6065546001600160a01b0316336001600160a01b031614610c955760405162461bcd60e51b815260206004820152601e60248201527f4c7a4170703a20696e76616c696420656e64706f696e742063616c6c6572000060448201526064015b60405180910390fd5b61ffff861660009081526066602052604081208054610cb3906147cb565b80601f0160208091040260200160405190810160405280929190818152602001828054610cdf906147cb565b8015610d2c5780601f10610d0157610100808354040283529160200191610d2c565b820191906000526020600020905b815481529060010190602001808311610d0f57829003601f168201915b50505050509050805186869050148015610d47575060008151115b8015610d6f575080516020820120604051610d6590889088906147ff565b6040518091039020145b610dca5760405162461bcd60e51b815260206004820152602660248201527f4c7a4170703a20696e76616c696420736f757263652073656e64696e6720636f6044820152651b9d1c9858dd60d21b6064820152608401610c8c565b610e408787878080601f01602080910402602001604051908101604052809392919081815260200183838082843760009201919091525050604080516020601f8a018190048102820181019092528881528a9350915088908890819084018382808284376000920191909152506123e292505050565b50505050505050565b60006001600160e01b03198216630d30953d60e31b1480610e7a57506301ffc9a760e01b6001600160e01b03198316145b92915050565b606061018d8054610e90906147cb565b80601f0160208091040260200160405190810160405280929190818152602001828054610ebc906147cb565b8015610f095780601f10610ede57610100808354040283529160200191610f09565b820191906000526020600020905b815481529060010190602001808311610eec57829003601f168201915b5050505050905090565b610f1b61245b565b6065546040516307e0db1760e01b815261ffff831660048201526001600160a01b03909116906307e0db17906024015b600060405180830381600087803b158015610f6557600080fd5b505af1158015610f79573d6000803e3d6000fd5b5050505050565b600033610f8e8185856124b5565b5060019392505050565b610fa061245b565b61ffff909116600090815260686020526040902055565b610fbf61245b565b6065546040516310ddb13760e01b815261ffff831660048201526001600160a01b03909116906310ddb13790602401610f4b565b6000336110018582856125db565b61100c858585612655565b506001949350505050565b611022868685612802565b5092506110908686868661103960208701876142ab565b61104960408801602089016142ab565b611056604089018961480f565b8080601f01602080910402602001604051908101604052809392919081815260200183838082843760009201919091525061284b92505050565b9250818310156110b25760405162461bcd60e51b8152600401610c8c90614855565b505050505050565b6110c2612941565b33600090815261018a60205260409020548111156111325760405162461bcd60e51b815260206004820152602760248201527f4e61746976654f4654576974684665653a20496e73756666696369656e74206260448201526630b630b731b29760c91b6064820152608401610c8c565b61113c338261299c565b604051600090339083908381818185875af1925050503d806000811461117e576040519150601f19603f3d011682016040523d82523d6000602084013e611183565b606091505b50509050806111df5760405162461bcd60e51b815260206004820152602260248201527f4e61746976654f4654576974684665653a206661696c656420746f20756e7772604482015261061760f41b6064820152608401610c8c565b60405182815233907f7fcf532c15f0a6db0bd6d0e038bea71d30d808c7d98cb3bf7268a95bf5081b659060200160405180910390a25061122060016101bd55565b50565b6000806112698888888888888080601f016020809104026020016040519081016040528093929190818152602001838380828437600092019190915250612ad092505050565b91509150965096945050505050565b600033610f8e81858561128b8383611dc3565b61129591906148b8565b6124b5565b61ffff8316600090815260666020526040812080548291906112bb906147cb565b80601f01602080910402602001604051908101604052809291908181526020018280546112e7906147cb565b80156113345780601f1061130957610100808354040283529160200191611334565b820191906000526020600020905b81548152906001019060200180831161131757829003601f168201915b50505050509050838360405161134b9291906147ff565b60405180910390208180519060200120149150509392505050565b61136e61245b565b6065546040516342d65a8d60e01b81526001600160a01b03909116906342d65a8d906113a2908690869086906004016148f4565b600060405180830381600087803b1580156113bc57600080fd5b505af1158015610e40573d6000803e3d6000fd5b6113db898988612802565b50809650506114848989898988888080601f0160208091040260200160405190810160405280939291908181526020018383808284376000920191909152508a925061142d91505060208901896142ab565b61143d60408a0160208b016142ab565b61144a60408b018b61480f565b8080601f016020809104026020016040519081016040528093929190818152602001838380828437600092019190915250612b6a92505050565b9550848610156114a65760405162461bcd60e51b8152600401610c8c90614855565b505050505050505050565b6114b961245b565b6001600160a01b03811661150f5760405162461bcd60e51b815260206004820152601a60248201527f4665653a206665654f776e65722063616e6e6f742062652030780000000000006044820152606401610c8c565b60f8805462010000600160b01b031916620100006001600160a01b038416908102919091179091556040519081527f047912631afa564eebd3db2efe191a0dec62da1fede6bbbc1ffc89d87845b1b5906020015b60405180910390a150565b61157661245b565b6127108161ffff16111561159c5760405162461bcd60e51b8152600401610c8c90614912565b60f8805461ffff191661ffff83169081179091556040519081527fd26030ef4a8c225ee12b646eb4466acb41fb96b6cd4660b22d0ba0124e7bdc7490602001611563565b33301461163e5760405162461bcd60e51b815260206004820152602660248201527f4e6f6e626c6f636b696e674c7a4170703a2063616c6c6572206d7573742062656044820152650204c7a4170760d41b6064820152608401610c8c565b6110b28686868080601f01602080910402602001604051908101604052809392919081815260200183838082843760009201919091525050604080516020601f890181900481028201810190925287815289935091508790879081908401838280828437600092019190915250612c3892505050565b6116bc61245b565b6116c66000612cbf565b565b606660205260009081526040902080546116e1906147cb565b80601f016020809104026020016040519081016040528092919081815260200182805461170d906147cb565b801561175a5780601f1061172f5761010080835404028352916020019161175a565b820191906000526020600020905b81548152906001019060200180831161173d57829003601f168201915b505050505081565b61176a61245b565b6127108161ffff1611156117905760405162461bcd60e51b8152600401610c8c90614912565b60408051808201825261ffff8381168083528515156020808501828152898516600081815260f784528890209651875492511515620100000262ffffff1990931696169590951717909455845192835292820192909252918201527fdd9c9685af3e6dcb56d8f4b88d2595d4add6837a150034e7781c46b6dcf8aaab906060015b60405180910390a1505050565b600061182a61018c5490565b905090565b606061018e8054610e90906147cb565b61ffff8116600090815260666020526040812080546060929190611862906147cb565b80601f016020809104026020016040519081016040528092919081815260200182805461188e906147cb565b80156118db5780601f106118b0576101008083540402835291602001916118db565b820191906000526020600020905b8154815290600101906020018083116118be57829003601f168201915b5050505050905080516000036119335760405162461bcd60e51b815260206004820152601d60248201527f4c7a4170703a206e6f20747275737465642070617468207265636f72640000006044820152606401610c8c565b61194e6000601483516119469190614957565b839190612d11565b9392505050565b600033816119638286611dc3565b9050838110156119c35760405162461bcd60e51b815260206004820152602560248201527f45524332303a2064656372656173656420616c6c6f77616e63652062656c6f77604482015264207a65726f60d81b6064820152608401610c8c565b61100c82868684036124b5565b600080611a4d8b8b8b8b8b8080601f01602080910402602001604051908101604052809392919081815260200183838082843760009201919091525050604080516020601f8d018190048102820181019092528b81528e93508d9250908c908c9081908401838280828437600092019190915250612e1e92505050565b91509150995099975050505050505050565b611a6761245b565b818130604051602001611a7c9392919061496a565b60408051601f1981840301815291815261ffff8516600090815260666020522090611aa790826149d6565b507f8c0400cfe2d1199b1a725c78960bcc2a344d869b80590d0f2bd005db15a572ce838383604051611811939291906148f4565b600033610f8e818585612655565b611af161245b565b606980546001600160a01b0319166001600160a01b0383169081179091556040519081527f5db758e995a17ec1ad84bdef7e8c3293a0bd6179bcce400dff5d4c3d87db726b90602001611563565b611b4761245b565b6065546040516332fb62e760e21b81526001600160a01b039091169063cbed8b9c90611b7f9088908890889088908890600401614a95565b600060405180830381600087803b158015611b9957600080fd5b505af11580156114a6573d6000803e3d6000fd5b61ffff86166000908152609760205260408082209051611bd090889088906147ff565b90815260408051602092819003830190206001600160401b03871660009081529252902054905080611c505760405162461bcd60e51b815260206004820152602360248201527f4e6f6e626c6f636b696e674c7a4170703a206e6f2073746f726564206d65737360448201526261676560e81b6064820152608401610c8c565b808383604051611c619291906147ff565b604051809103902014611cc05760405162461bcd60e51b815260206004820152602160248201527f4e6f6e626c6f636b696e674c7a4170703a20696e76616c6964207061796c6f616044820152601960fa1b6064820152608401610c8c565b61ffff87166000908152609760205260408082209051611ce390899089906147ff565b90815260408051602092819003830181206001600160401b038916600090815290845282902093909355601f88018290048202830182019052868252611d7b918991899089908190840183828082843760009201919091525050604080516020601f8a018190048102820181019092528881528a935091508890889081908401838280828437600092019190915250612c3892505050565b7fc264d91f3adc5588250e1551f547752ca0cfa8f6b530d243b9f9f4cab10ea8e58787878785604051611db2959493929190614ace565b60405180910390a150505050505050565b6001600160a01b03918216600090815261018b6020908152604080832093909416825291909152205490565b600054610100900460ff1615808015611e0f5750600054600160ff909116105b80611e295750303b158015611e29575060005460ff166001145b611e8c5760405162461bcd60e51b815260206004820152602e60248201527f496e697469616c697a61626c653a20636f6e747261637420697320616c72656160448201526d191e481a5b9a5d1a585b1a5e995960921b6064820152608401610c8c565b6000805460ff191660011790558015611eaf576000805461ff0019166101001790555b611ebb85858585612ec2565b8015610f79576000805461ff0019169055604051600181527f7f26b83ff96e1f2b6a682f133852f6798a09c465da95921460cefb3847402498906020015b60405180910390a15050505050565b611f1061245b565b60008111611f585760405162461bcd60e51b81526020600482015260156024820152744c7a4170703a20696e76616c6964206d696e47617360581b6044820152606401610c8c565b61ffff83811660008181526067602090815260408083209487168084529482529182902085905581519283528201929092529081018290527f9d5c7c0b934da8fefa9c7760c98383778a12dfbfc0c3b3106518f43fb9508ac090606001611811565b611fc261245b565b60c980548215156101000261ff00199091161790556040517f1584ad594a70cbe1e6515592e1272a987d922b097ead875069cebe8b40c004a49061156390831515815260200190565b33301461205a5760405162461bcd60e51b815260206004820152601f60248201527f4f4654436f72653a2063616c6c6572206d757374206265204f4654436f7265006044820152606401610c8c565b612065308686612f16565b9350846001600160a01b03168a61ffff167fbf551ec93859b170f9b2141bd9298bf3f64322c6f7beb2543a0cb669834118bf866040516120a791815260200190565b60405180910390a3604051633fe79aed60e11b81526001600160a01b03861690637fcf35da9083906120eb908e908e908e908e908e908d908d908d90600401614b09565b600060405180830381600088803b15801561210557600080fd5b5087f1158015612119573d6000803e3d6000fd5b505050505050505050505050505050565b61213261245b565b61ffff83166000908152606660205260409020612150828483614b64565b507ffa41487ad5d6728f0b19276fa1eddc16558578f5109fc39d2dc33c3230470dab838383604051611811939291906148f4565b61ffff828116600090815260f76020908152604080832081518083019092525493841681526201000090930460ff16158015918401919091529091906121e9578051612710906121d89061ffff1685614c23565b6121e29190614c50565b915061220f565b60f85461ffff161561220a5760f854612710906121d89061ffff1685614c23565b600091505b5092915050565b61221e61245b565b6001600160a01b0381166122835760405162461bcd60e51b815260206004820152602660248201527f4f776e61626c653a206e6577206f776e657220697320746865207a65726f206160448201526564647265737360d01b6064820152608401610c8c565b61122081612cbf565b606554604051633d7b2f6f60e21b815261ffff808716600483015285166024820152306044820152606481018390526060916001600160a01b03169063f5ecbdbc90608401600060405180830381865afa1580156122ee573d6000803e3d6000fd5b505050506040513d6000823e601f3d908101601f191682016040526123169190810190614c64565b95945050505050565b6001600160a01b0382166123755760405162461bcd60e51b815260206004820152601f60248201527f45524332303a206d696e7420746f20746865207a65726f2061646472657373006044820152606401610c8c565b8061018c600082825461238891906148b8565b90915550506001600160a01b038216600081815261018a60209081526040808320805486019055518481527fddf252ad1be2c89b69c2b068fc378daa952ba7f163c4a11628f55a4df523b3ef910160405180910390a35050565b6000806124455a60966366ad5c8a60e01b8989898960405160240161240a9493929190614cd1565b60408051601f198184030181529190526020810180516001600160e01b03166001600160e01b03199093169290921790915230929190612f68565b91509150816110b2576110b28686868685612ff2565b6033546001600160a01b031633146116c65760405162461bcd60e51b815260206004820181905260248201527f4f776e61626c653a2063616c6c6572206973206e6f7420746865206f776e65726044820152606401610c8c565b6001600160a01b0383166125175760405162461bcd60e51b8152602060048201526024808201527f45524332303a20617070726f76652066726f6d20746865207a65726f206164646044820152637265737360e01b6064820152608401610c8c565b6001600160a01b0382166125785760405162461bcd60e51b815260206004820152602260248201527f45524332303a20617070726f766520746f20746865207a65726f206164647265604482015261737360f01b6064820152608401610c8c565b6001600160a01b03838116600081815261018b602090815260408083209487168084529482529182902085905590518481527f8c5be1e5ebec7d5bd14f71427d1e84f3dd0314c0f7b2291e5b200ac8c7c3b92591015b60405180910390a3505050565b60006125e78484611dc3565b9050600019811461264f57818110156126425760405162461bcd60e51b815260206004820152601d60248201527f45524332303a20696e73756666696369656e7420616c6c6f77616e63650000006044820152606401610c8c565b61264f84848484036124b5565b50505050565b6001600160a01b0383166126b95760405162461bcd60e51b815260206004820152602560248201527f45524332303a207472616e736665722066726f6d20746865207a65726f206164604482015264647265737360d81b6064820152608401610c8c565b6001600160a01b03821661271b5760405162461bcd60e51b815260206004820152602360248201527f45524332303a207472616e7366657220746f20746865207a65726f206164647260448201526265737360e81b6064820152608401610c8c565b6001600160a01b038316600090815261018a6020526040902054818110156127945760405162461bcd60e51b815260206004820152602660248201527f45524332303a207472616e7366657220616d6f756e7420657863656564732062604482015265616c616e636560d01b6064820152608401610c8c565b6001600160a01b03808516600081815261018a602052604080822086860390559286168082529083902080548601905591517fddf252ad1be2c89b69c2b068fc378daa952ba7f163c4a11628f55a4df523b3ef906127f59086815260200190565b60405180910390a361264f565b60008061280f8484612184565b905061281b8184614957565b915080156128435760f8546128419086906201000090046001600160a01b031683612f16565b505b935093915050565b600061285987828481613080565b612862856130ff565b509050806128825760405162461bcd60e51b8152600401610c8c90614d0f565b600061288e8983613129565b905060006128db8861289f85613153565b6040805160006020820152602181019390935260c09190911b6001600160c01b0319166041830152805160298184030181526049909201905290565b90506128eb8982888888876131c3565b878a6001600160a01b03168a61ffff167fd81fc9b8523134ed613870ed029d6170cbb73aa6a6bc311b9a642689fb9df59a8660405161292c91815260200190565b60405180910390a45050979650505050505050565b60026101bd54036129945760405162461bcd60e51b815260206004820152601f60248201527f5265656e7472616e637947756172643a207265656e7472616e742063616c6c006044820152606401610c8c565b60026101bd55565b6001600160a01b0382166129fc5760405162461bcd60e51b815260206004820152602160248201527f45524332303a206275726e2066726f6d20746865207a65726f206164647265736044820152607360f81b6064820152608401610c8c565b6001600160a01b038216600090815261018a602052604090205481811015612a715760405162461bcd60e51b815260206004820152602260248201527f45524332303a206275726e20616d6f756e7420657863656564732062616c616e604482015261636560f01b6064820152608401610c8c565b6001600160a01b038316600081815261018a60209081526040808320868603905561018c80548790039055518581529192917fddf252ad1be2c89b69c2b068fc378daa952ba7f163c4a11628f55a4df523b3ef91016125ce565b505050565b6000806000612ae28761289f88613153565b60655460405163040a7bb160e41b81529192506001600160a01b0316906340a7bb1090612b1b908b90309086908b908b90600401614d51565b6040805180830381865afa158015612b37573d6000803e3d6000fd5b505050506040513d601f19601f82011682018060405250810190612b5b9190614da5565b92509250509550959350505050565b6000612b82896001846001600160401b038916613080565b612b8b876130ff565b50905080612bab5760405162461bcd60e51b8152600401610c8c90614d0f565b6000612bb78b83613129565b90506000612bd0338b612bc986613153565b8b8b61334c565b9050612be08b82888888876131c3565b898c6001600160a01b03168c61ffff167fd81fc9b8523134ed613870ed029d6170cbb73aa6a6bc311b9a642689fb9df59a86604051612c2191815260200190565b60405180910390a450509998505050505050505050565b6000612c44828261338d565b905060ff8116612c5f57612c5a858585856133e9565b610f79565b60001960ff821601612c7757612c5a85858585613479565b60405162461bcd60e51b815260206004820152601c60248201527f4f4654436f72653a20756e6b6e6f776e207061636b65742074797065000000006044820152606401610c8c565b603380546001600160a01b038381166001600160a01b0319831681179093556040519116919082907f8be0079c531659141344cd1fd0a4f28419497f9722a3daafe3b4186f6b6457e090600090a35050565b606081612d1f81601f6148b8565b1015612d5e5760405162461bcd60e51b815260206004820152600e60248201526d736c6963655f6f766572666c6f7760901b6044820152606401610c8c565b612d6882846148b8565b84511015612dac5760405162461bcd60e51b8152602060048201526011602482015270736c6963655f6f75744f66426f756e647360781b6044820152606401610c8c565b606082158015612dcb5760405191506000825260208201604052612e15565b6040519150601f8416801560200281840101858101878315602002848b0101015b81831015612e04578051835260209283019201612dec565b5050858452601f01601f1916604052505b50949350505050565b6000806000612e38338a612e318b613153565b8a8a61334c565b60655460405163040a7bb160e41b81529192506001600160a01b0316906340a7bb1090612e71908d90309086908b908b90600401614d51565b6040805180830381865afa158015612e8d573d6000803e3d6000fd5b505050506040513d601f19601f82011682018060405250810190612eb19190614da5565b925092505097509795505050505050565b600054610100900460ff16612ee95760405162461bcd60e51b8152600401610c8c90614dc9565b612ef1613687565b612efa816136b7565b612f0382613700565b612f0d848461373d565b61264f8261377f565b600033306001600160a01b03861614801590612f445750806001600160a01b0316856001600160a01b031614155b15612f5457612f548582856125db565b612f5f858585612655565b50909392505050565b6000606060008060008661ffff166001600160401b03811115612f8d57612f8d6142c8565b6040519080825280601f01601f191660200182016040528015612fb7576020820181803683370190505b50905060008087516020890160008d8df191503d925086831115612fd9578692505b828152826000602083013e909890975095505050505050565b8180519060200120609760008761ffff1661ffff168152602001908152602001600020856040516130239190614e14565b9081526040805191829003602090810183206001600160401b0388166000908152915220919091557fe183f33de2837795525b4792ca4cd60535bd77c53b7e7030060bfcf5734d6b0c90611ef99087908790879087908790614e30565b60c954610100900460ff16156130a15761309c8484848461382f565b61264f565b81511561264f5760405162461bcd60e51b815260206004820152602660248201527f4f4654436f72653a205f61646170746572506172616d73206d7573742062652060448201526532b6b83a3c9760d11b6064820152608401610c8c565b60008061310c6101bc5490565b6131169084614e82565b90506131228184614957565b9150915091565b6000336001600160a01b0384161461314a57613145838361390e565b61194e565b61194e826139ad565b6000806131606101bc5490565b61316a9084614c50565b90506001600160401b03811115610e7a5760405162461bcd60e51b815260206004820152601a60248201527f4f4654436f72653a20616d6f756e745344206f766572666c6f770000000000006044820152606401610c8c565b61ffff8616600090815260666020526040812080546131e1906147cb565b80601f016020809104026020016040519081016040528092919081815260200182805461320d906147cb565b801561325a5780601f1061322f5761010080835404028352916020019161325a565b820191906000526020600020905b81548152906001019060200180831161323d57829003601f168201915b5050505050905080516000036132cb5760405162461bcd60e51b815260206004820152603060248201527f4c7a4170703a2064657374696e6174696f6e20636861696e206973206e6f742060448201526f61207472757374656420736f7572636560801b6064820152608401610c8c565b6132d6878751613a2e565b60655460405162c5803160e81b81526001600160a01b039091169063c5803100908490613311908b9086908c908c908c908c90600401614e96565b6000604051808303818588803b15801561332a57600080fd5b505af115801561333e573d6000803e3d6000fd5b505050505050505050505050565b6060600185856001600160a01b038916858760405160200161337396959493929190614efd565b604051602081830303815290604052905095945050505050565b600061339a8260016148b8565b835110156133e05760405162461bcd60e51b8152602060048201526013602482015272746f55696e74385f6f75744f66426f756e647360681b6044820152606401610c8c565b50016001015190565b6000806133f583613a9f565b90925090506001600160a01b03821661340e5761dead91505b600061341982613b24565b9050613426878483613b43565b9050826001600160a01b03168761ffff167fbf551ec93859b170f9b2141bd9298bf3f64322c6f7beb2543a0cb669834118bf8360405161346891815260200190565b60405180910390a350505050505050565b600080600080600061348a86613c00565b94509450945094509450600060ca60008b61ffff1661ffff168152602001908152602001600020896040516134bf9190614e14565b90815260408051602092819003830190206001600160401b038b166000908152925281205460ff1691506134f285613b24565b905081613560576135048b3083613b43565b61ffff8c16600090815260ca602052604090819020905191925060019161352c908d90614e14565b90815260408051602092819003830190206001600160401b038d16600090815292529020805460ff19169115159190911790555b6001600160a01b0386163b6135b7576040516001600160a01b03871681527f9aedf5fdba8716db3b6705ca00150643309995d4f818a249ed6dde6677e7792d9060200160405180910390a15050505050505061264f565b8a8a8a8a8a8a868a60008a6135d5578b6001600160401b03166135d7565b5a5b90506000806136095a609663eaffd49a60e01b8e8e8e8d8d8d8d8d60405160240161240a989796959493929190614f5e565b915091508115613662578751602089012060405161ffff8d16907fb8890edbfc1c74692f527444645f95489c3703cc2df42e4a366f5d06fa6cd88490613654908e908e908690614fd2565b60405180910390a25061366f565b61366f8b8b8b8b85612ff2565b50505050505050505050505050505050505050505050565b600054610100900460ff166136ae5760405162461bcd60e51b8152600401610c8c90614dc9565b6116c633612cbf565b600054610100900460ff166136de5760405162461bcd60e51b8152600401610c8c90614dc9565b606580546001600160a01b0319166001600160a01b0392909216919091179055565b600054610100900460ff166137275760405162461bcd60e51b8152600401610c8c90614dc9565b60c9805460ff191660ff92909216919091179055565b600054610100900460ff166137645760405162461bcd60e51b8152600401610c8c90614dc9565b61018d61377183826149d6565b5061018e612acb82826149d6565b600054610100900460ff166137a65760405162461bcd60e51b8152600401610c8c90614dc9565b601260ff82168110156138125760405162461bcd60e51b815260206004820152602e60248201527f4f4654576974684665653a20736861726564446563696d616c73206d7573742060448201526d6265203c3d20646563696d616c7360901b6064820152608401610c8c565b61381c8282615000565b61382790600a6150fd565b6101bc555050565b600061383a83613cb7565b61ffff80871660009081526067602090815260408083209389168352929052908120549192509061386c9084906148b8565b9050600081116138be5760405162461bcd60e51b815260206004820152601a60248201527f4c7a4170703a206d696e4761734c696d6974206e6f74207365740000000000006044820152606401610c8c565b808210156110b25760405162461bcd60e51b815260206004820152601b60248201527f4c7a4170703a20676173206c696d697420697320746f6f206c6f7700000000006044820152606401610c8c565b6001600160a01b038216600090815261018a602052604081205482811015613993578261393b34836148b8565b10156139595760405162461bcd60e51b8152600401610c8c9061510c565b60006139658285614957565b9050613971338261231f565b61397c333083612655565b819350803461398b9190614957565b925050613997565b3491505b6139a28433856125db565b61220f843085612655565b33600090815261018a602052604081205482811015613a1957826139d134836148b8565b10156139ef5760405162461bcd60e51b8152600401610c8c9061510c565b60006139fb8285614957565b9050613a07338261231f565b613a118134614957565b925050613a1d565b3491505b613a28333085612655565b50919050565b61ffff821660009081526068602052604081205490819003613a4f57506127105b80821115612acb5760405162461bcd60e51b815260206004820181905260248201527f4c7a4170703a207061796c6f61642073697a6520697320746f6f206c617267656044820152606401610c8c565b60008080613aad848261338d565b60ff16148015613abe575082516029145b613b055760405162461bcd60e51b815260206004820152601860248201527713d19510dbdc994e881a5b9d985b1a59081c185e5b1bd85960421b6044820152606401610c8c565b613b1083600d613d13565b9150613b1d836021613d78565b9050915091565b6000613b306101bc5490565b610e7a906001600160401b038416614c23565b6000613b4f308361299c565b6000836001600160a01b03168360405160006040518083038185875af1925050503d8060008114613b9c576040519150601f19603f3d011682016040523d82523d6000602084013e613ba1565b606091505b5050905080612f5f5760405162461bcd60e51b815260206004820152602560248201527f4e61746976654f4654576974684665653a206661696c656420746f205f637265604482015264646974546f60d81b6064820152608401610c8c565b600080806060816001613c13878361338d565b60ff1614613c5e5760405162461bcd60e51b815260206004820152601860248201527713d19510dbdc994e881a5b9d985b1a59081c185e5b1bd85960421b6044820152606401610c8c565b613c6986600d613d13565b9350613c76866021613d78565b9250613c83866029613dd5565b9450613c90866049613d78565b9050613cac6051808851613ca49190614957565b889190612d11565b915091939590929450565b6000602282511015613d0b5760405162461bcd60e51b815260206004820152601c60248201527f4c7a4170703a20696e76616c69642061646170746572506172616d73000000006044820152606401610c8c565b506022015190565b6000613d208260146148b8565b83511015613d685760405162461bcd60e51b8152602060048201526015602482015274746f416464726573735f6f75744f66426f756e647360581b6044820152606401610c8c565b500160200151600160601b900490565b6000613d858260086148b8565b83511015613dcc5760405162461bcd60e51b8152602060048201526014602482015273746f55696e7436345f6f75744f66426f756e647360601b6044820152606401610c8c565b50016008015190565b6000613de28260206148b8565b83511015613e2a5760405162461bcd60e51b8152602060048201526015602482015274746f427974657333325f6f75744f66426f756e647360581b6044820152606401610c8c565b50016020015190565b803561ffff81168114613e4557600080fd5b919050565b60008083601f840112613e5c57600080fd5b5081356001600160401b03811115613e7357600080fd5b602083019150836020828501011115613e8b57600080fd5b9250929050565b80356001600160401b0381168114613e4557600080fd5b60008060008060008060808789031215613ec257600080fd5b613ecb87613e33565b955060208701356001600160401b0380821115613ee757600080fd5b613ef38a838b01613e4a565b9097509550859150613f0760408a01613e92565b94506060890135915080821115613f1d57600080fd5b50613f2a89828a01613e4a565b979a9699509497509295939492505050565b600060208284031215613f4e57600080fd5b81356001600160e01b03198116811461194e57600080fd5b60005b83811015613f81578181015183820152602001613f69565b50506000910152565b60008151808452613fa2816020860160208601613f66565b601f01601f19169290920160200192915050565b60208152600061194e6020830184613f8a565b600060208284031215613fdb57600080fd5b61194e82613e33565b6001600160a01b038116811461122057600080fd5b6000806040838503121561400c57600080fd5b823561401781613fe4565b946020939093013593505050565b6000806040838503121561403857600080fd5b61401783613e33565b60008060006060848603121561405657600080fd5b833561406181613fe4565b9250602084013561407181613fe4565b929592945050506040919091013590565b600060608284031215613a2857600080fd5b60008060008060008060c087890312156140ad57600080fd5b86356140b881613fe4565b95506140c660208801613e33565b945060408701359350606087013592506080870135915060a08701356001600160401b038111156140f657600080fd5b61410289828a01614082565b9150509295509295509295565b60006020828403121561412157600080fd5b5035919050565b80358015158114613e4557600080fd5b60008060008060008060a0878903121561415157600080fd5b61415a87613e33565b9550602087013594506040870135935061417660608801614128565b925060808701356001600160401b0381111561419157600080fd5b613f2a89828a01613e4a565b6000806000604084860312156141b257600080fd5b6141bb84613e33565b925060208401356001600160401b038111156141d657600080fd5b6141e286828701613e4a565b9497909650939450505050565b60008060008060008060008060006101008a8c03121561420e57600080fd5b893561421981613fe4565b985061422760208b01613e33565b975060408a0135965060608a0135955060808a0135945060a08a01356001600160401b038082111561425857600080fd5b6142648d838e01613e4a565b909650945084915061427860c08d01613e92565b935060e08c013591508082111561428e57600080fd5b5061429b8c828d01614082565b9150509295985092959850929598565b6000602082840312156142bd57600080fd5b813561194e81613fe4565b634e487b7160e01b600052604160045260246000fd5b604051601f8201601f191681016001600160401b0381118282101715614306576143066142c8565b604052919050565b60006001600160401b03821115614327576143276142c8565b50601f01601f191660200190565b60006143486143438461430e565b6142de565b905082815283838301111561435c57600080fd5b828260208301376000602084830101529392505050565b60008060006060848603121561438857600080fd5b61439184613e33565b925060208401356001600160401b038111156143ac57600080fd5b8401601f810186136143bd57600080fd5b6143cc86823560208401614335565b9250506143db60408501613e92565b90509250925092565b6000806000606084860312156143f957600080fd5b61440284613e33565b925061441060208501614128565b91506143db60408501613e33565b6000806040838503121561443157600080fd5b61443a83613e33565b915061444860208401613e33565b90509250929050565b600080600080600080600080600060e08a8c03121561446f57600080fd5b6144788a613e33565b985060208a0135975060408a0135965060608a01356001600160401b03808211156144a257600080fd5b6144ae8d838e01613e4a565b90985096508691506144c260808d01613e92565b95506144d060a08d01614128565b945060c08c01359150808211156144e657600080fd5b506144f38c828d01613e4a565b915080935050809150509295985092959850929598565b60008060008060006080868803121561452257600080fd5b61452b86613e33565b945061453960208701613e33565b93506040860135925060608601356001600160401b0381111561455b57600080fd5b61456788828901613e4a565b969995985093965092949392505050565b6000806040838503121561458b57600080fd5b823561459681613fe4565b915060208301356145a681613fe4565b809150509250929050565b600082601f8301126145c257600080fd5b61194e83833560208501614335565b600080600080608085870312156145e757600080fd5b84356001600160401b03808211156145fe57600080fd5b61460a888389016145b1565b9550602087013591508082111561462057600080fd5b5061462d878288016145b1565b935050604085013560ff8116811461464457600080fd5b9150606085013561465481613fe4565b939692955090935050565b60008060006060848603121561467457600080fd5b61467d84613e33565b925061468b60208501613e33565b9150604084013590509250925092565b6000602082840312156146ad57600080fd5b61194e82614128565b6000806000806000806000806000806101008b8d0312156146d657600080fd5b6146df8b613e33565b995060208b01356001600160401b03808211156146fb57600080fd5b6147078e838f01613e4a565b909b50995089915061471b60408e01613e92565b985060608d0135975060808d0135915061473482613fe4565b90955060a08c0135945060c08c0135908082111561475157600080fd5b5061475e8d828e01613e4a565b9150809450508092505060e08b013590509295989b9194979a5092959850565b6000806000806080858703121561479457600080fd5b61479d85613e33565b93506147ab60208601613e33565b925060408501356147bb81613fe4565b9396929550929360600135925050565b600181811c908216806147df57607f821691505b602082108103613a2857634e487b7160e01b600052602260045260246000fd5b8183823760009101908152919050565b6000808335601e1984360301811261482657600080fd5b8301803591506001600160401b0382111561484057600080fd5b602001915036819003821315613e8b57600080fd5b6020808252602d908201527f426173654f4654576974684665653a20616d6f756e74206973206c657373207460408201526c1a185b881b5a5b905b5bdd5b9d609a1b606082015260800190565b634e487b7160e01b600052601160045260246000fd5b80820180821115610e7a57610e7a6148a2565b81835281816020850137506000828201602090810191909152601f909101601f19169091010190565b61ffff841681526040602082015260006123166040830184866148cb565b60208082526025908201527f4665653a20666565206270206d757374206265203c3d2042505f44454e4f4d496040820152642720aa27a960d91b606082015260800190565b81810381811115610e7a57610e7a6148a2565b8284823760609190911b6bffffffffffffffffffffffff19169101908152601401919050565b601f821115612acb57600081815260208120601f850160051c810160208610156149b75750805b601f850160051c820191505b818110156110b2578281556001016149c3565b81516001600160401b038111156149ef576149ef6142c8565b614a03816149fd84546147cb565b84614990565b602080601f831160018114614a385760008415614a205750858301515b600019600386901b1c1916600185901b1785556110b2565b600085815260208120601f198616915b82811015614a6757888601518255948401946001909101908401614a48565b5085821015614a855787850151600019600388901b60f8161c191681555b5050505050600190811b01905550565b600061ffff808816835280871660208401525084604083015260806060830152614ac36080830184866148cb565b979650505050505050565b61ffff86168152608060208201526000614aec6080830186886148cb565b6001600160401b0394909416604083015250606001529392505050565b61ffff8916815260c060208201526000614b2760c08301898b6148cb565b6001600160401b038816604084015286606084015285608084015282810360a0840152614b558185876148cb565b9b9a5050505050505050505050565b6001600160401b03831115614b7b57614b7b6142c8565b614b8f83614b8983546147cb565b83614990565b6000601f841160018114614bc35760008515614bab5750838201355b600019600387901b1c1916600186901b178355610f79565b600083815260209020601f19861690835b82811015614bf45786850135825560209485019460019092019101614bd4565b5086821015614c115760001960f88860031b161c19848701351681555b505060018560011b0183555050505050565b8082028115828204841417610e7a57610e7a6148a2565b634e487b7160e01b600052601260045260246000fd5b600082614c5f57614c5f614c3a565b500490565b600060208284031215614c7657600080fd5b81516001600160401b03811115614c8c57600080fd5b8201601f81018413614c9d57600080fd5b8051614cab6143438261430e565b818152856020838501011115614cc057600080fd5b612316826020830160208601613f66565b61ffff85168152608060208201526000614cee6080830186613f8a565b6001600160401b03851660408401528281036060840152614ac38185613f8a565b60208082526022908201527f4e61746976654f4654576974684665653a20616d6f756e7420746f6f20736d616040820152611b1b60f21b606082015260800190565b61ffff861681526001600160a01b038516602082015260a060408201819052600090614d7f90830186613f8a565b84151560608401528281036080840152614d998185613f8a565b98975050505050505050565b60008060408385031215614db857600080fd5b505080516020909101519092909150565b6020808252602b908201527f496e697469616c697a61626c653a20636f6e7472616374206973206e6f74206960408201526a6e697469616c697a696e6760a81b606082015260800190565b60008251614e26818460208701613f66565b9190910192915050565b61ffff8616815260a060208201526000614e4d60a0830187613f8a565b6001600160401b03861660408401528281036060840152614e6e8186613f8a565b90508281036080840152614d998185613f8a565b600082614e9157614e91614c3a565b500690565b61ffff8716815260c060208201526000614eb360c0830188613f8a565b8281036040840152614ec58188613f8a565b6001600160a01b0387811660608601528616608085015283810360a08501529050614ef08185613f8a565b9998505050505050505050565b60ff60f81b8760f81b16815285600182015260006001600160401b0360c01b808760c01b166021840152856029840152808560c01b166049840152508251614f4c816051850160208701613f66565b91909101605101979650505050505050565b600061010061ffff8b168352806020840152614f7c8184018b613f8a565b6001600160401b038a166040850152606084018990526001600160a01b038816608085015260a0840187905283810360c08501529050614fbc8186613f8a565b9150508260e08301529998505050505050505050565b606081526000614fe56060830186613f8a565b6001600160401b039490941660208301525060400152919050565b60ff8281168282160390811115610e7a57610e7a6148a2565b600181815b8085111561505457816000190482111561503a5761503a6148a2565b8085161561504757918102915b93841c939080029061501e565b509250929050565b60008261506b57506001610e7a565b8161507857506000610e7a565b816001811461508e5760028114615098576150b4565b6001915050610e7a565b60ff8411156150a9576150a96148a2565b50506001821b610e7a565b5060208310610133831016604e8410600b84101617156150d7575081810a610e7a565b6150e18383615019565b80600019048211156150f5576150f56148a2565b029392505050565b600061194e60ff84168361505c565b60208082526028908201527f4e61746976654f4654576974684665653a20496e73756666696369656e74206d60408201526773672e76616c756560c01b60608201526080019056fea264697066735822122073ef7fb09a4366fcf1cfef6230dbf681ecf389ad85edae209590e6def3014fbe64736f6c63430008120033",
  "devdoc": {
    "events": {
      "Approval(address,address,uint256)": {
        "details": "Emitted when the allowance of a `spender` for an `owner` is set by a call to {approve}. `value` is the new allowance."
      },
      "Initialized(uint8)": {
        "details": "Triggered when the contract has been initialized or reinitialized."
      },
      "ReceiveFromChain(uint16,address,uint256)": {
        "details": "Emitted when `_amount` tokens are received from `_srcChainId` into the `_toAddress` on the local chain. `_nonce` is the inbound nonce."
      },
      "SendToChain(uint16,address,bytes32,uint256)": {
        "details": "Emitted when `_amount` tokens are moved from the `_sender` to (`_dstChainId`, `_toAddress`) `_nonce` is the outbound nonce"
      },
      "Transfer(address,address,uint256)": {
        "details": "Emitted when `value` tokens are moved from one account (`from`) to another (`to`). Note that `value` may be zero."
      }
    },
    "kind": "dev",
    "methods": {
      "allowance(address,address)": {
        "details": "See {IERC20-allowance}."
      },
      "approve(address,uint256)": {
        "details": "See {IERC20-approve}. NOTE: If `amount` is the maximum `uint256`, the allowance is not updated on `transferFrom`. This is semantically equivalent to an infinite approval. Requirements: - `spender` cannot be the zero address."
      },
      "balanceOf(address)": {
        "details": "See {IERC20-balanceOf}."
      },
      "circulatingSupply()": {
        "details": "returns the circulating amount of tokens on current chain"
      },
      "decimals()": {
        "details": "Returns the number of decimals used to get its user representation. For example, if `decimals` equals `2`, a balance of `505` tokens should be displayed to a user as `5.05` (`505 / 10 ** 2`). Tokens usually opt for a value of 18, imitating the relationship between Ether and Wei. This is the default value returned by this function, unless it's overridden. NOTE: This information is only used for _display_ purposes: it in no way affects any of the arithmetic of the contract, including {IERC20-balanceOf} and {IERC20-transfer}."
      },
      "decreaseAllowance(address,uint256)": {
        "details": "Atomically decreases the allowance granted to `spender` by the caller. This is an alternative to {approve} that can be used as a mitigation for problems described in {IERC20-approve}. Emits an {Approval} event indicating the updated allowance. Requirements: - `spender` cannot be the zero address. - `spender` must have allowance for the caller of at least `subtractedValue`."
      },
      "estimateSendFee(uint16,bytes32,uint256,bool,bytes)": {
        "details": "estimate send token `_tokenId` to (`_dstChainId`, `_toAddress`) _dstChainId - L0 defined chain id to send tokens too _toAddress - dynamic bytes array which contains the address to whom you are sending tokens to on the dstChain _amount - amount of the tokens to transfer _useZro - indicates to use zro to pay L0 fees _adapterParam - flexible bytes array to indicate messaging adapter services in L0"
      },
      "increaseAllowance(address,uint256)": {
        "details": "Atomically increases the allowance granted to `spender` by the caller. This is an alternative to {approve} that can be used as a mitigation for problems described in {IERC20-approve}. Emits an {Approval} event indicating the updated allowance. Requirements: - `spender` cannot be the zero address."
      },
      "name()": {
        "details": "Returns the name of the token."
      },
      "owner()": {
        "details": "Returns the address of the current owner."
      },
      "renounceOwnership()": {
        "details": "Leaves the contract without owner. It will not be possible to call `onlyOwner` functions. Can only be called by the current owner. NOTE: Renouncing ownership will leave the contract without an owner, thereby disabling any functionality that is only available to the owner."
      },
      "sendFrom(address,uint16,bytes32,uint256,uint256,(address,address,bytes))": {
        "details": "send `_amount` amount of token to (`_dstChainId`, `_toAddress`) from `_from` `_from` the owner of token `_dstChainId` the destination chain identifier `_toAddress` can be any size depending on the `dstChainId`. `_amount` the quantity of tokens in wei `_minAmount` the minimum amount of tokens to receive on dstChain `_refundAddress` the address LayerZero refunds if too much message fee is sent `_zroPaymentAddress` set to address(0x0) if not paying in ZRO (LayerZero Token) `_adapterParams` is a flexible bytes array to indicate messaging adapter services"
      },
      "symbol()": {
        "details": "Returns the symbol of the token, usually a shorter version of the name."
      },
      "token()": {
        "details": "returns the address of the ERC20 token"
      },
      "totalSupply()": {
        "details": "See {IERC20-totalSupply}."
      },
      "transfer(address,uint256)": {
        "details": "See {IERC20-transfer}. Requirements: - `to` cannot be the zero address. - the caller must have a balance of at least `amount`."
      },
      "transferFrom(address,address,uint256)": {
        "details": "See {IERC20-transferFrom}. Emits an {Approval} event indicating the updated allowance. This is not required by the EIP. See the note at the beginning of {ERC20}. NOTE: Does not update the allowance if the current allowance is the maximum `uint256`. Requirements: - `from` and `to` cannot be the zero address. - `from` must have a balance of at least `amount`. - the caller must have allowance for ``from``'s tokens of at least `amount`."
      },
      "transferOwnership(address)": {
        "details": "Transfers ownership of the contract to a new account (`newOwner`). Can only be called by the current owner."
      }
    },
    "version": 1
  },
  "userdoc": {
    "kind": "user",
    "methods": {},
    "version": 1
  },
  "storageLayout": {
    "storage": [
      {
        "astId": 566,
        "contract": "contracts/contracts-upgradable/examples/BeamBridge.sol:BeamNativeOFT",
        "label": "_initialized",
        "offset": 0,
        "slot": "0",
        "type": "t_uint8"
      },
      {
        "astId": 569,
        "contract": "contracts/contracts-upgradable/examples/BeamBridge.sol:BeamNativeOFT",
        "label": "_initializing",
        "offset": 1,
        "slot": "0",
        "type": "t_bool"
      },
      {
        "astId": 5978,
        "contract": "contracts/contracts-upgradable/examples/BeamBridge.sol:BeamNativeOFT",
        "label": "__gap",
        "offset": 0,
        "slot": "1",
        "type": "t_array(t_uint256)50_storage"
      },
      {
        "astId": 419,
        "contract": "contracts/contracts-upgradable/examples/BeamBridge.sol:BeamNativeOFT",
        "label": "_owner",
        "offset": 0,
        "slot": "51",
        "type": "t_address"
      },
      {
        "astId": 539,
        "contract": "contracts/contracts-upgradable/examples/BeamBridge.sol:BeamNativeOFT",
        "label": "__gap",
        "offset": 0,
        "slot": "52",
        "type": "t_array(t_uint256)49_storage"
      },
      {
        "astId": 14477,
        "contract": "contracts/contracts-upgradable/examples/BeamBridge.sol:BeamNativeOFT",
        "label": "lzEndpoint",
        "offset": 0,
        "slot": "101",
        "type": "t_contract(ILayerZeroEndpointUpgradeable)15433"
      },
      {
        "astId": 14481,
        "contract": "contracts/contracts-upgradable/examples/BeamBridge.sol:BeamNativeOFT",
        "label": "trustedRemoteLookup",
        "offset": 0,
        "slot": "102",
        "type": "t_mapping(t_uint16,t_bytes_storage)"
      },
      {
        "astId": 14487,
        "contract": "contracts/contracts-upgradable/examples/BeamBridge.sol:BeamNativeOFT",
        "label": "minDstGasLookup",
        "offset": 0,
        "slot": "103",
        "type": "t_mapping(t_uint16,t_mapping(t_uint16,t_uint256))"
      },
      {
        "astId": 14491,
        "contract": "contracts/contracts-upgradable/examples/BeamBridge.sol:BeamNativeOFT",
        "label": "payloadSizeLimitLookup",
        "offset": 0,
        "slot": "104",
        "type": "t_mapping(t_uint16,t_uint256)"
      },
      {
        "astId": 14493,
        "contract": "contracts/contracts-upgradable/examples/BeamBridge.sol:BeamNativeOFT",
        "label": "precrime",
        "offset": 0,
        "slot": "105",
        "type": "t_address"
      },
      {
        "astId": 15025,
        "contract": "contracts/contracts-upgradable/examples/BeamBridge.sol:BeamNativeOFT",
        "label": "__gap",
        "offset": 0,
        "slot": "106",
        "type": "t_array(t_uint256)45_storage"
      },
      {
        "astId": 15068,
        "contract": "contracts/contracts-upgradable/examples/BeamBridge.sol:BeamNativeOFT",
        "label": "failedMessages",
        "offset": 0,
        "slot": "151",
        "type": "t_mapping(t_uint16,t_mapping(t_bytes_memory_ptr,t_mapping(t_uint64,t_bytes32)))"
      },
      {
        "astId": 15287,
        "contract": "contracts/contracts-upgradable/examples/BeamBridge.sol:BeamNativeOFT",
        "label": "__gap",
        "offset": 0,
        "slot": "152",
        "type": "t_array(t_uint256)49_storage"
      },
      {
        "astId": 16240,
        "contract": "contracts/contracts-upgradable/examples/BeamBridge.sol:BeamNativeOFT",
        "label": "sharedDecimals",
        "offset": 0,
        "slot": "201",
        "type": "t_uint8"
      },
      {
        "astId": 16242,
        "contract": "contracts/contracts-upgradable/examples/BeamBridge.sol:BeamNativeOFT",
        "label": "useCustomAdapterParams",
        "offset": 1,
        "slot": "201",
        "type": "t_bool"
      },
      {
        "astId": 16250,
        "contract": "contracts/contracts-upgradable/examples/BeamBridge.sol:BeamNativeOFT",
        "label": "creditedPackets",
        "offset": 0,
        "slot": "202",
        "type": "t_mapping(t_uint16,t_mapping(t_bytes_memory_ptr,t_mapping(t_uint64,t_bool)))"
      },
      {
        "astId": 17245,
        "contract": "contracts/contracts-upgradable/examples/BeamBridge.sol:BeamNativeOFT",
        "label": "__gap",
        "offset": 0,
        "slot": "203",
        "type": "t_array(t_uint256)44_storage"
      },
      {
        "astId": 18614,
        "contract": "contracts/contracts-upgradable/examples/BeamBridge.sol:BeamNativeOFT",
        "label": "chainIdToFeeBps",
        "offset": 0,
        "slot": "247",
        "type": "t_mapping(t_uint16,t_struct(FeeConfig)18623_storage)"
      },
      {
        "astId": 18616,
        "contract": "contracts/contracts-upgradable/examples/BeamBridge.sol:BeamNativeOFT",
        "label": "defaultFeeBp",
        "offset": 0,
        "slot": "248",
        "type": "t_uint16"
      },
      {
        "astId": 18618,
        "contract": "contracts/contracts-upgradable/examples/BeamBridge.sol:BeamNativeOFT",
        "label": "feeOwner",
        "offset": 2,
        "slot": "248",
        "type": "t_address"
      },
      {
        "astId": 18841,
        "contract": "contracts/contracts-upgradable/examples/BeamBridge.sol:BeamNativeOFT",
        "label": "__gap",
        "offset": 0,
        "slot": "249",
        "type": "t_array(t_uint256)45_storage"
      },
      {
        "astId": 6445,
        "contract": "contracts/contracts-upgradable/examples/BeamBridge.sol:BeamNativeOFT",
        "label": "__gap",
        "offset": 0,
        "slot": "294",
        "type": "t_array(t_uint256)50_storage"
      },
      {
        "astId": 18600,
        "contract": "contracts/contracts-upgradable/examples/BeamBridge.sol:BeamNativeOFT",
        "label": "__gap",
        "offset": 0,
        "slot": "344",
        "type": "t_array(t_uint256)50_storage"
      },
      {
        "astId": 2647,
        "contract": "contracts/contracts-upgradable/examples/BeamBridge.sol:BeamNativeOFT",
        "label": "_balances",
        "offset": 0,
        "slot": "394",
        "type": "t_mapping(t_address,t_uint256)"
      },
      {
        "astId": 2653,
        "contract": "contracts/contracts-upgradable/examples/BeamBridge.sol:BeamNativeOFT",
        "label": "_allowances",
        "offset": 0,
        "slot": "395",
        "type": "t_mapping(t_address,t_mapping(t_address,t_uint256))"
      },
      {
        "astId": 2655,
        "contract": "contracts/contracts-upgradable/examples/BeamBridge.sol:BeamNativeOFT",
        "label": "_totalSupply",
        "offset": 0,
        "slot": "396",
        "type": "t_uint256"
      },
      {
        "astId": 2657,
        "contract": "contracts/contracts-upgradable/examples/BeamBridge.sol:BeamNativeOFT",
        "label": "_name",
        "offset": 0,
        "slot": "397",
        "type": "t_string_storage"
      },
      {
        "astId": 2659,
        "contract": "contracts/contracts-upgradable/examples/BeamBridge.sol:BeamNativeOFT",
        "label": "_symbol",
        "offset": 0,
        "slot": "398",
        "type": "t_string_storage"
      },
      {
        "astId": 3239,
        "contract": "contracts/contracts-upgradable/examples/BeamBridge.sol:BeamNativeOFT",
        "label": "__gap",
        "offset": 0,
        "slot": "399",
        "type": "t_array(t_uint256)45_storage"
      },
      {
        "astId": 19371,
        "contract": "contracts/contracts-upgradable/examples/BeamBridge.sol:BeamNativeOFT",
        "label": "ld2sdRate",
        "offset": 0,
        "slot": "444",
        "type": "t_uint256"
      },
      {
        "astId": 869,
        "contract": "contracts/contracts-upgradable/examples/BeamBridge.sol:BeamNativeOFT",
        "label": "_status",
        "offset": 0,
        "slot": "445",
        "type": "t_uint256"
      },
      {
        "astId": 938,
        "contract": "contracts/contracts-upgradable/examples/BeamBridge.sol:BeamNativeOFT",
        "label": "__gap",
        "offset": 0,
        "slot": "446",
        "type": "t_array(t_uint256)49_storage"
      }
    ],
    "types": {
      "t_address": {
        "encoding": "inplace",
        "label": "address",
        "numberOfBytes": "20"
      },
      "t_array(t_uint256)44_storage": {
        "base": "t_uint256",
        "encoding": "inplace",
        "label": "uint256[44]",
        "numberOfBytes": "1408"
      },
      "t_array(t_uint256)45_storage": {
        "base": "t_uint256",
        "encoding": "inplace",
        "label": "uint256[45]",
        "numberOfBytes": "1440"
      },
      "t_array(t_uint256)49_storage": {
        "base": "t_uint256",
        "encoding": "inplace",
        "label": "uint256[49]",
        "numberOfBytes": "1568"
      },
      "t_array(t_uint256)50_storage": {
        "base": "t_uint256",
        "encoding": "inplace",
        "label": "uint256[50]",
        "numberOfBytes": "1600"
      },
      "t_bool": {
        "encoding": "inplace",
        "label": "bool",
        "numberOfBytes": "1"
      },
      "t_bytes32": {
        "encoding": "inplace",
        "label": "bytes32",
        "numberOfBytes": "32"
      },
      "t_bytes_memory_ptr": {
        "encoding": "bytes",
        "label": "bytes",
        "numberOfBytes": "32"
      },
      "t_bytes_storage": {
        "encoding": "bytes",
        "label": "bytes",
        "numberOfBytes": "32"
      },
      "t_contract(ILayerZeroEndpointUpgradeable)15433": {
        "encoding": "inplace",
        "label": "contract ILayerZeroEndpointUpgradeable",
        "numberOfBytes": "20"
      },
      "t_mapping(t_address,t_mapping(t_address,t_uint256))": {
        "encoding": "mapping",
        "key": "t_address",
        "label": "mapping(address => mapping(address => uint256))",
        "numberOfBytes": "32",
        "value": "t_mapping(t_address,t_uint256)"
      },
      "t_mapping(t_address,t_uint256)": {
        "encoding": "mapping",
        "key": "t_address",
        "label": "mapping(address => uint256)",
        "numberOfBytes": "32",
        "value": "t_uint256"
      },
      "t_mapping(t_bytes_memory_ptr,t_mapping(t_uint64,t_bool))": {
        "encoding": "mapping",
        "key": "t_bytes_memory_ptr",
        "label": "mapping(bytes => mapping(uint64 => bool))",
        "numberOfBytes": "32",
        "value": "t_mapping(t_uint64,t_bool)"
      },
      "t_mapping(t_bytes_memory_ptr,t_mapping(t_uint64,t_bytes32))": {
        "encoding": "mapping",
        "key": "t_bytes_memory_ptr",
        "label": "mapping(bytes => mapping(uint64 => bytes32))",
        "numberOfBytes": "32",
        "value": "t_mapping(t_uint64,t_bytes32)"
      },
      "t_mapping(t_uint16,t_bytes_storage)": {
        "encoding": "mapping",
        "key": "t_uint16",
        "label": "mapping(uint16 => bytes)",
        "numberOfBytes": "32",
        "value": "t_bytes_storage"
      },
      "t_mapping(t_uint16,t_mapping(t_bytes_memory_ptr,t_mapping(t_uint64,t_bool)))": {
        "encoding": "mapping",
        "key": "t_uint16",
        "label": "mapping(uint16 => mapping(bytes => mapping(uint64 => bool)))",
        "numberOfBytes": "32",
        "value": "t_mapping(t_bytes_memory_ptr,t_mapping(t_uint64,t_bool))"
      },
      "t_mapping(t_uint16,t_mapping(t_bytes_memory_ptr,t_mapping(t_uint64,t_bytes32)))": {
        "encoding": "mapping",
        "key": "t_uint16",
        "label": "mapping(uint16 => mapping(bytes => mapping(uint64 => bytes32)))",
        "numberOfBytes": "32",
        "value": "t_mapping(t_bytes_memory_ptr,t_mapping(t_uint64,t_bytes32))"
      },
      "t_mapping(t_uint16,t_mapping(t_uint16,t_uint256))": {
        "encoding": "mapping",
        "key": "t_uint16",
        "label": "mapping(uint16 => mapping(uint16 => uint256))",
        "numberOfBytes": "32",
        "value": "t_mapping(t_uint16,t_uint256)"
      },
      "t_mapping(t_uint16,t_struct(FeeConfig)18623_storage)": {
        "encoding": "mapping",
        "key": "t_uint16",
        "label": "mapping(uint16 => struct FeeUpgradeable.FeeConfig)",
        "numberOfBytes": "32",
        "value": "t_struct(FeeConfig)18623_storage"
      },
      "t_mapping(t_uint16,t_uint256)": {
        "encoding": "mapping",
        "key": "t_uint16",
        "label": "mapping(uint16 => uint256)",
        "numberOfBytes": "32",
        "value": "t_uint256"
      },
      "t_mapping(t_uint64,t_bool)": {
        "encoding": "mapping",
        "key": "t_uint64",
        "label": "mapping(uint64 => bool)",
        "numberOfBytes": "32",
        "value": "t_bool"
      },
      "t_mapping(t_uint64,t_bytes32)": {
        "encoding": "mapping",
        "key": "t_uint64",
        "label": "mapping(uint64 => bytes32)",
        "numberOfBytes": "32",
        "value": "t_bytes32"
      },
      "t_string_storage": {
        "encoding": "bytes",
        "label": "string",
        "numberOfBytes": "32"
      },
      "t_struct(FeeConfig)18623_storage": {
        "encoding": "inplace",
        "label": "struct FeeUpgradeable.FeeConfig",
        "members": [
          {
            "astId": 18620,
            "contract": "contracts/contracts-upgradable/examples/BeamBridge.sol:BeamNativeOFT",
            "label": "feeBP",
            "offset": 0,
            "slot": "0",
            "type": "t_uint16"
          },
          {
            "astId": 18622,
            "contract": "contracts/contracts-upgradable/examples/BeamBridge.sol:BeamNativeOFT",
            "label": "enabled",
            "offset": 2,
            "slot": "0",
            "type": "t_bool"
          }
        ],
        "numberOfBytes": "32"
      },
      "t_uint16": {
        "encoding": "inplace",
        "label": "uint16",
        "numberOfBytes": "2"
      },
      "t_uint256": {
        "encoding": "inplace",
        "label": "uint256",
        "numberOfBytes": "32"
      },
      "t_uint64": {
        "encoding": "inplace",
        "label": "uint64",
        "numberOfBytes": "8"
      },
      "t_uint8": {
        "encoding": "inplace",
        "label": "uint8",
        "numberOfBytes": "1"
      }
    }
  }
}