{
  "address": "0xE3c3a57E4747A2e2454ec175840b6fDdC2E2c5AB",
  "abi": [
    {
      "inputs": [],
      "stateMutability": "nonpayable",
      "type": "constructor"
    },
    {
      "anonymous": false,
      "inputs": [
        {
          "indexed": true,
          "internalType": "address",
          "name": "owner",
          "type": "address"
        },
        {
          "indexed": true,
          "internalType": "address",
          "name": "approved",
          "type": "address"
        },
        {
          "indexed": true,
          "internalType": "uint256",
          "name": "tokenId",
          "type": "uint256"
        }
      ],
      "name": "Approval",
      "type": "event"
    },
    {
      "anonymous": false,
      "inputs": [
        {
          "indexed": true,
          "internalType": "address",
          "name": "owner",
          "type": "address"
        },
        {
          "indexed": true,
          "internalType": "address",
          "name": "operator",
          "type": "address"
        },
        {
          "indexed": false,
          "internalType": "bool",
          "name": "approved",
          "type": "bool"
        }
      ],
      "name": "ApprovalForAll",
      "type": "event"
    },
    {
      "anonymous": false,
      "inputs": [
        {
          "indexed": false,
          "internalType": "bytes32",
          "name": "_hashedPayload",
          "type": "bytes32"
        }
      ],
      "name": "CreditCleared",
      "type": "event"
    },
    {
      "anonymous": false,
      "inputs": [
        {
          "indexed": false,
          "internalType": "bytes32",
          "name": "_hashedPayload",
          "type": "bytes32"
        },
        {
          "indexed": false,
          "internalType": "bytes",
          "name": "_payload",
          "type": "bytes"
        }
      ],
      "name": "CreditStored",
      "type": "event"
    },
    {
      "anonymous": false,
      "inputs": [
        {
          "indexed": false,
          "internalType": "uint8",
          "name": "version",
          "type": "uint8"
        }
      ],
      "name": "Initialized",
      "type": "event"
    },
    {
      "anonymous": false,
      "inputs": [
        {
          "indexed": false,
          "internalType": "uint16",
          "name": "_srcChainId",
          "type": "uint16"
        },
        {
          "indexed": false,
          "internalType": "bytes",
          "name": "_srcAddress",
          "type": "bytes"
        },
        {
          "indexed": false,
          "internalType": "uint64",
          "name": "_nonce",
          "type": "uint64"
        },
        {
          "indexed": false,
          "internalType": "bytes",
          "name": "_payload",
          "type": "bytes"
        },
        {
          "indexed": false,
          "internalType": "bytes",
          "name": "_reason",
          "type": "bytes"
        }
      ],
      "name": "MessageFailed",
      "type": "event"
    },
    {
      "anonymous": false,
      "inputs": [
        {
          "indexed": true,
          "internalType": "address",
          "name": "previousOwner",
          "type": "address"
        },
        {
          "indexed": true,
          "internalType": "address",
          "name": "newOwner",
          "type": "address"
        }
      ],
      "name": "OwnershipTransferred",
      "type": "event"
    },
    {
      "anonymous": false,
      "inputs": [
        {
          "indexed": true,
          "internalType": "uint16",
          "name": "_srcChainId",
          "type": "uint16"
        },
        {
          "indexed": true,
          "internalType": "bytes",
          "name": "_srcAddress",
          "type": "bytes"
        },
        {
          "indexed": true,
          "internalType": "address",
          "name": "_toAddress",
          "type": "address"
        },
        {
          "indexed": false,
          "internalType": "uint256[]",
          "name": "_tokenIds",
          "type": "uint256[]"
        }
      ],
      "name": "ReceiveFromChain",
      "type": "event"
    },
    {
      "anonymous": false,
      "inputs": [
        {
          "indexed": false,
          "internalType": "uint16",
          "name": "_srcChainId",
          "type": "uint16"
        },
        {
          "indexed": false,
          "internalType": "bytes",
          "name": "_srcAddress",
          "type": "bytes"
        },
        {
          "indexed": false,
          "internalType": "uint64",
          "name": "_nonce",
          "type": "uint64"
        },
        {
          "indexed": false,
          "internalType": "bytes32",
          "name": "_payloadHash",
          "type": "bytes32"
        }
      ],
      "name": "RetryMessageSuccess",
      "type": "event"
    },
    {
      "anonymous": false,
      "inputs": [
        {
          "indexed": true,
          "internalType": "bytes32",
          "name": "role",
          "type": "bytes32"
        },
        {
          "indexed": true,
          "internalType": "bytes32",
          "name": "previousAdminRole",
          "type": "bytes32"
        },
        {
          "indexed": true,
          "internalType": "bytes32",
          "name": "newAdminRole",
          "type": "bytes32"
        }
      ],
      "name": "RoleAdminChanged",
      "type": "event"
    },
    {
      "anonymous": false,
      "inputs": [
        {
          "indexed": true,
          "internalType": "bytes32",
          "name": "role",
          "type": "bytes32"
        },
        {
          "indexed": true,
          "internalType": "address",
          "name": "account",
          "type": "address"
        },
        {
          "indexed": true,
          "internalType": "address",
          "name": "sender",
          "type": "address"
        }
      ],
      "name": "RoleGranted",
      "type": "event"
    },
    {
      "anonymous": false,
      "inputs": [
        {
          "indexed": true,
          "internalType": "bytes32",
          "name": "role",
          "type": "bytes32"
        },
        {
          "indexed": true,
          "internalType": "address",
          "name": "account",
          "type": "address"
        },
        {
          "indexed": true,
          "internalType": "address",
          "name": "sender",
          "type": "address"
        }
      ],
      "name": "RoleRevoked",
      "type": "event"
    },
    {
      "anonymous": false,
      "inputs": [
        {
          "indexed": true,
          "internalType": "uint16",
          "name": "_dstChainId",
          "type": "uint16"
        },
        {
          "indexed": true,
          "internalType": "address",
          "name": "_from",
          "type": "address"
        },
        {
          "indexed": true,
          "internalType": "bytes",
          "name": "_toAddress",
          "type": "bytes"
        },
        {
          "indexed": false,
          "internalType": "uint256[]",
          "name": "_tokenIds",
          "type": "uint256[]"
        }
      ],
      "name": "SendToChain",
      "type": "event"
    },
    {
      "anonymous": false,
      "inputs": [
        {
          "indexed": false,
          "internalType": "uint16",
          "name": "_dstChainId",
          "type": "uint16"
        },
        {
          "indexed": false,
          "internalType": "uint16",
          "name": "_type",
          "type": "uint16"
        },
        {
          "indexed": false,
          "internalType": "uint256",
          "name": "_minDstGas",
          "type": "uint256"
        }
      ],
      "name": "SetMinDstGas",
      "type": "event"
    },
    {
      "anonymous": false,
      "inputs": [
        {
          "indexed": false,
          "internalType": "address",
          "name": "precrime",
          "type": "address"
        }
      ],
      "name": "SetPrecrime",
      "type": "event"
    },
    {
      "anonymous": false,
      "inputs": [
        {
          "indexed": false,
          "internalType": "uint16",
          "name": "_remoteChainId",
          "type": "uint16"
        },
        {
          "indexed": false,
          "internalType": "bytes",
          "name": "_path",
          "type": "bytes"
        }
      ],
      "name": "SetTrustedRemote",
      "type": "event"
    },
    {
      "anonymous": false,
      "inputs": [
        {
          "indexed": false,
          "internalType": "uint16",
          "name": "_remoteChainId",
          "type": "uint16"
        },
        {
          "indexed": false,
          "internalType": "bytes",
          "name": "_remoteAddress",
          "type": "bytes"
        }
      ],
      "name": "SetTrustedRemoteAddress",
      "type": "event"
    },
    {
      "anonymous": false,
      "inputs": [
        {
          "indexed": true,
          "internalType": "address",
          "name": "from",
          "type": "address"
        },
        {
          "indexed": true,
          "internalType": "address",
          "name": "to",
          "type": "address"
        },
        {
          "indexed": true,
          "internalType": "uint256",
          "name": "tokenId",
          "type": "uint256"
        }
      ],
      "name": "Transfer",
      "type": "event"
    },
    {
      "inputs": [],
      "name": "DEFAULT_ADMIN_ROLE",
      "outputs": [
        {
          "internalType": "bytes32",
          "name": "",
          "type": "bytes32"
        }
      ],
      "stateMutability": "view",
      "type": "function"
    },
    {
      "inputs": [],
      "name": "DEFAULT_PAYLOAD_SIZE_LIMIT",
      "outputs": [
        {
          "internalType": "uint256",
          "name": "",
          "type": "uint256"
        }
      ],
      "stateMutability": "view",
      "type": "function"
    },
    {
      "inputs": [],
      "name": "FUNCTION_TYPE_SEND",
      "outputs": [
        {
          "internalType": "uint16",
          "name": "",
          "type": "uint16"
        }
      ],
      "stateMutability": "view",
      "type": "function"
    },
    {
      "inputs": [
        {
          "internalType": "address",
          "name": "to",
          "type": "address"
        },
        {
          "internalType": "uint256",
          "name": "tokenId",
          "type": "uint256"
        }
      ],
      "name": "approve",
      "outputs": [],
      "stateMutability": "nonpayable",
      "type": "function"
    },
    {
      "inputs": [
        {
          "internalType": "address",
          "name": "owner",
          "type": "address"
        }
      ],
      "name": "balanceOf",
      "outputs": [
        {
          "internalType": "uint256",
          "name": "",
          "type": "uint256"
        }
      ],
      "stateMutability": "view",
      "type": "function"
    },
    {
      "inputs": [
        {
          "internalType": "uint256",
          "name": "tokenId",
          "type": "uint256"
        }
      ],
      "name": "burn",
      "outputs": [],
      "stateMutability": "nonpayable",
      "type": "function"
    },
    {
      "inputs": [
        {
          "internalType": "bytes",
          "name": "_payload",
          "type": "bytes"
        }
      ],
      "name": "clearCredits",
      "outputs": [],
      "stateMutability": "nonpayable",
      "type": "function"
    },
    {
      "inputs": [
        {
          "internalType": "uint16",
          "name": "",
          "type": "uint16"
        }
      ],
      "name": "dstChainIdToBatchLimit",
      "outputs": [
        {
          "internalType": "uint256",
          "name": "",
          "type": "uint256"
        }
      ],
      "stateMutability": "view",
      "type": "function"
    },
    {
      "inputs": [
        {
          "internalType": "uint16",
          "name": "",
          "type": "uint16"
        }
      ],
      "name": "dstChainIdToTransferGas",
      "outputs": [
        {
          "internalType": "uint256",
          "name": "",
          "type": "uint256"
        }
      ],
      "stateMutability": "view",
      "type": "function"
    },
    {
      "inputs": [
        {
          "internalType": "uint16",
          "name": "_dstChainId",
          "type": "uint16"
        },
        {
          "internalType": "bytes",
          "name": "_toAddress",
          "type": "bytes"
        },
        {
          "internalType": "uint256[]",
          "name": "_tokenIds",
          "type": "uint256[]"
        },
        {
          "internalType": "bool",
          "name": "_useZro",
          "type": "bool"
        },
        {
          "internalType": "bytes",
          "name": "_adapterParams",
          "type": "bytes"
        }
      ],
      "name": "estimateSendBatchFee",
      "outputs": [
        {
          "internalType": "uint256",
          "name": "nativeFee",
          "type": "uint256"
        },
        {
          "internalType": "uint256",
          "name": "zroFee",
          "type": "uint256"
        }
      ],
      "stateMutability": "view",
      "type": "function"
    },
    {
      "inputs": [
        {
          "internalType": "uint16",
          "name": "_dstChainId",
          "type": "uint16"
        },
        {
          "internalType": "bytes",
          "name": "_toAddress",
          "type": "bytes"
        },
        {
          "internalType": "uint256",
          "name": "_tokenId",
          "type": "uint256"
        },
        {
          "internalType": "bool",
          "name": "_useZro",
          "type": "bool"
        },
        {
          "internalType": "bytes",
          "name": "_adapterParams",
          "type": "bytes"
        }
      ],
      "name": "estimateSendFee",
      "outputs": [
        {
          "internalType": "uint256",
          "name": "nativeFee",
          "type": "uint256"
        },
        {
          "internalType": "uint256",
          "name": "zroFee",
          "type": "uint256"
        }
      ],
      "stateMutability": "view",
      "type": "function"
    },
    {
      "inputs": [
        {
          "internalType": "uint16",
          "name": "",
          "type": "uint16"
        },
        {
          "internalType": "bytes",
          "name": "",
          "type": "bytes"
        },
        {
          "internalType": "uint64",
          "name": "",
          "type": "uint64"
        }
      ],
      "name": "failedMessages",
      "outputs": [
        {
          "internalType": "bytes32",
          "name": "",
          "type": "bytes32"
        }
      ],
      "stateMutability": "view",
      "type": "function"
    },
    {
      "inputs": [
        {
          "internalType": "uint16",
          "name": "_srcChainId",
          "type": "uint16"
        },
        {
          "internalType": "bytes",
          "name": "_srcAddress",
          "type": "bytes"
        }
      ],
      "name": "forceResumeReceive",
      "outputs": [],
      "stateMutability": "nonpayable",
      "type": "function"
    },
    {
      "inputs": [
        {
          "internalType": "uint256",
          "name": "tokenId",
          "type": "uint256"
        }
      ],
      "name": "getApproved",
      "outputs": [
        {
          "internalType": "address",
          "name": "",
          "type": "address"
        }
      ],
      "stateMutability": "view",
      "type": "function"
    },
    {
      "inputs": [
        {
          "internalType": "uint16",
          "name": "_version",
          "type": "uint16"
        },
        {
          "internalType": "uint16",
          "name": "_chainId",
          "type": "uint16"
        },
        {
          "internalType": "address",
          "name": "",
          "type": "address"
        },
        {
          "internalType": "uint256",
          "name": "_configType",
          "type": "uint256"
        }
      ],
      "name": "getConfig",
      "outputs": [
        {
          "internalType": "bytes",
          "name": "",
          "type": "bytes"
        }
      ],
      "stateMutability": "view",
      "type": "function"
    },
    {
      "inputs": [
        {
          "internalType": "bytes32",
          "name": "role",
          "type": "bytes32"
        }
      ],
      "name": "getRoleAdmin",
      "outputs": [
        {
          "internalType": "bytes32",
          "name": "",
          "type": "bytes32"
        }
      ],
      "stateMutability": "view",
      "type": "function"
    },
    {
      "inputs": [
        {
          "internalType": "uint16",
          "name": "_remoteChainId",
          "type": "uint16"
        }
      ],
      "name": "getTrustedRemoteAddress",
      "outputs": [
        {
          "internalType": "bytes",
          "name": "",
          "type": "bytes"
        }
      ],
      "stateMutability": "view",
      "type": "function"
    },
    {
      "inputs": [
        {
          "internalType": "bytes32",
          "name": "role",
          "type": "bytes32"
        },
        {
          "internalType": "address",
          "name": "account",
          "type": "address"
        }
      ],
      "name": "grantRole",
      "outputs": [],
      "stateMutability": "nonpayable",
      "type": "function"
    },
    {
      "inputs": [
        {
          "internalType": "bytes32",
          "name": "role",
          "type": "bytes32"
        },
        {
          "internalType": "address",
          "name": "account",
          "type": "address"
        }
      ],
      "name": "hasRole",
      "outputs": [
        {
          "internalType": "bool",
          "name": "",
          "type": "bool"
        }
      ],
      "stateMutability": "view",
      "type": "function"
    },
    {
      "inputs": [
        {
          "internalType": "string",
          "name": "_name",
          "type": "string"
        },
        {
          "internalType": "string",
          "name": "_symbol",
          "type": "string"
        },
        {
          "internalType": "string",
          "name": "_baseUri",
          "type": "string"
        },
        {
          "internalType": "uint96",
          "name": "_royaltyBasePoints",
          "type": "uint96"
        },
        {
          "internalType": "uint256",
          "name": "_minGasToTransfer",
          "type": "uint256"
        },
        {
          "internalType": "address",
          "name": "_lzEndpoint",
          "type": "address"
        }
      ],
      "name": "initialize",
      "outputs": [],
      "stateMutability": "nonpayable",
      "type": "function"
    },
    {
      "inputs": [
        {
          "internalType": "address",
          "name": "owner",
          "type": "address"
        },
        {
          "internalType": "address",
          "name": "operator",
          "type": "address"
        }
      ],
      "name": "isApprovedForAll",
      "outputs": [
        {
          "internalType": "bool",
          "name": "",
          "type": "bool"
        }
      ],
      "stateMutability": "view",
      "type": "function"
    },
    {
      "inputs": [
        {
          "internalType": "uint16",
          "name": "_srcChainId",
          "type": "uint16"
        },
        {
          "internalType": "bytes",
          "name": "_srcAddress",
          "type": "bytes"
        }
      ],
      "name": "isTrustedRemote",
      "outputs": [
        {
          "internalType": "bool",
          "name": "",
          "type": "bool"
        }
      ],
      "stateMutability": "view",
      "type": "function"
    },
    {
      "inputs": [],
      "name": "lzEndpoint",
      "outputs": [
        {
          "internalType": "contract ILayerZeroEndpointUpgradeable",
          "name": "",
          "type": "address"
        }
      ],
      "stateMutability": "view",
      "type": "function"
    },
    {
      "inputs": [
        {
          "internalType": "uint16",
          "name": "_srcChainId",
          "type": "uint16"
        },
        {
          "internalType": "bytes",
          "name": "_srcAddress",
          "type": "bytes"
        },
        {
          "internalType": "uint64",
          "name": "_nonce",
          "type": "uint64"
        },
        {
          "internalType": "bytes",
          "name": "_payload",
          "type": "bytes"
        }
      ],
      "name": "lzReceive",
      "outputs": [],
      "stateMutability": "nonpayable",
      "type": "function"
    },
    {
      "inputs": [
        {
          "internalType": "uint16",
          "name": "",
          "type": "uint16"
        },
        {
          "internalType": "uint16",
          "name": "",
          "type": "uint16"
        }
      ],
      "name": "minDstGasLookup",
      "outputs": [
        {
          "internalType": "uint256",
          "name": "",
          "type": "uint256"
        }
      ],
      "stateMutability": "view",
      "type": "function"
    },
    {
      "inputs": [],
      "name": "minGasToTransferAndStore",
      "outputs": [
        {
          "internalType": "uint256",
          "name": "",
          "type": "uint256"
        }
      ],
      "stateMutability": "view",
      "type": "function"
    },
    {
      "inputs": [],
      "name": "name",
      "outputs": [
        {
          "internalType": "string",
          "name": "",
          "type": "string"
        }
      ],
      "stateMutability": "view",
      "type": "function"
    },
    {
      "inputs": [
        {
          "internalType": "uint16",
          "name": "_srcChainId",
          "type": "uint16"
        },
        {
          "internalType": "bytes",
          "name": "_srcAddress",
          "type": "bytes"
        },
        {
          "internalType": "uint64",
          "name": "_nonce",
          "type": "uint64"
        },
        {
          "internalType": "bytes",
          "name": "_payload",
          "type": "bytes"
        }
      ],
      "name": "nonblockingLzReceive",
      "outputs": [],
      "stateMutability": "nonpayable",
      "type": "function"
    },
    {
      "inputs": [],
      "name": "owner",
      "outputs": [
        {
          "internalType": "address",
          "name": "",
          "type": "address"
        }
      ],
      "stateMutability": "view",
      "type": "function"
    },
    {
      "inputs": [
        {
          "internalType": "uint256",
          "name": "tokenId",
          "type": "uint256"
        }
      ],
      "name": "ownerOf",
      "outputs": [
        {
          "internalType": "address",
          "name": "",
          "type": "address"
        }
      ],
      "stateMutability": "view",
      "type": "function"
    },
    {
      "inputs": [
        {
          "internalType": "uint16",
          "name": "",
          "type": "uint16"
        }
      ],
      "name": "payloadSizeLimitLookup",
      "outputs": [
        {
          "internalType": "uint256",
          "name": "",
          "type": "uint256"
        }
      ],
      "stateMutability": "view",
      "type": "function"
    },
    {
      "inputs": [],
      "name": "precrime",
      "outputs": [
        {
          "internalType": "address",
          "name": "",
          "type": "address"
        }
      ],
      "stateMutability": "view",
      "type": "function"
    },
    {
      "inputs": [],
      "name": "renounceOwnership",
      "outputs": [],
      "stateMutability": "nonpayable",
      "type": "function"
    },
    {
      "inputs": [
        {
          "internalType": "bytes32",
          "name": "role",
          "type": "bytes32"
        },
        {
          "internalType": "address",
          "name": "account",
          "type": "address"
        }
      ],
      "name": "renounceRole",
      "outputs": [],
      "stateMutability": "nonpayable",
      "type": "function"
    },
    {
      "inputs": [
        {
          "internalType": "uint16",
          "name": "_srcChainId",
          "type": "uint16"
        },
        {
          "internalType": "bytes",
          "name": "_srcAddress",
          "type": "bytes"
        },
        {
          "internalType": "uint64",
          "name": "_nonce",
          "type": "uint64"
        },
        {
          "internalType": "bytes",
          "name": "_payload",
          "type": "bytes"
        }
      ],
      "name": "retryMessage",
      "outputs": [],
      "stateMutability": "payable",
      "type": "function"
    },
    {
      "inputs": [
        {
          "internalType": "bytes32",
          "name": "role",
          "type": "bytes32"
        },
        {
          "internalType": "address",
          "name": "account",
          "type": "address"
        }
      ],
      "name": "revokeRole",
      "outputs": [],
      "stateMutability": "nonpayable",
      "type": "function"
    },
    {
      "inputs": [
        {
          "internalType": "uint256",
          "name": "tokenId",
          "type": "uint256"
        },
        {
          "internalType": "uint256",
          "name": "salePrice",
          "type": "uint256"
        }
      ],
      "name": "royaltyInfo",
      "outputs": [
        {
          "internalType": "address",
          "name": "",
          "type": "address"
        },
        {
          "internalType": "uint256",
          "name": "",
          "type": "uint256"
        }
      ],
      "stateMutability": "view",
      "type": "function"
    },
    {
      "inputs": [
        {
          "internalType": "address",
          "name": "from",
          "type": "address"
        },
        {
          "internalType": "address",
          "name": "to",
          "type": "address"
        },
        {
          "internalType": "uint256",
          "name": "tokenId",
          "type": "uint256"
        }
      ],
      "name": "safeTransferFrom",
      "outputs": [],
      "stateMutability": "nonpayable",
      "type": "function"
    },
    {
      "inputs": [
        {
          "internalType": "address",
          "name": "from",
          "type": "address"
        },
        {
          "internalType": "address",
          "name": "to",
          "type": "address"
        },
        {
          "internalType": "uint256",
          "name": "tokenId",
          "type": "uint256"
        },
        {
          "internalType": "bytes",
          "name": "data",
          "type": "bytes"
        }
      ],
      "name": "safeTransferFrom",
      "outputs": [],
      "stateMutability": "nonpayable",
      "type": "function"
    },
    {
      "inputs": [
        {
          "internalType": "address",
          "name": "_from",
          "type": "address"
        },
        {
          "internalType": "uint16",
          "name": "_dstChainId",
          "type": "uint16"
        },
        {
          "internalType": "bytes",
          "name": "_toAddress",
          "type": "bytes"
        },
        {
          "internalType": "uint256[]",
          "name": "_tokenIds",
          "type": "uint256[]"
        },
        {
          "internalType": "address payable",
          "name": "_refundAddress",
          "type": "address"
        },
        {
          "internalType": "address",
          "name": "_zroPaymentAddress",
          "type": "address"
        },
        {
          "internalType": "bytes",
          "name": "_adapterParams",
          "type": "bytes"
        }
      ],
      "name": "sendBatchFrom",
      "outputs": [],
      "stateMutability": "payable",
      "type": "function"
    },
    {
      "inputs": [
        {
          "internalType": "address",
          "name": "_from",
          "type": "address"
        },
        {
          "internalType": "uint16",
          "name": "_dstChainId",
          "type": "uint16"
        },
        {
          "internalType": "bytes",
          "name": "_toAddress",
          "type": "bytes"
        },
        {
          "internalType": "uint256",
          "name": "_tokenId",
          "type": "uint256"
        },
        {
          "internalType": "address payable",
          "name": "_refundAddress",
          "type": "address"
        },
        {
          "internalType": "address",
          "name": "_zroPaymentAddress",
          "type": "address"
        },
        {
          "internalType": "bytes",
          "name": "_adapterParams",
          "type": "bytes"
        }
      ],
      "name": "sendFrom",
      "outputs": [],
      "stateMutability": "payable",
      "type": "function"
    },
    {
      "inputs": [
        {
          "internalType": "address",
          "name": "operator",
          "type": "address"
        },
        {
          "internalType": "bool",
          "name": "approved",
          "type": "bool"
        }
      ],
      "name": "setApprovalForAll",
      "outputs": [],
      "stateMutability": "nonpayable",
      "type": "function"
    },
    {
      "inputs": [
        {
          "internalType": "string",
          "name": "_baseUri",
          "type": "string"
        }
      ],
      "name": "setBaseURI",
      "outputs": [],
      "stateMutability": "nonpayable",
      "type": "function"
    },
    {
      "inputs": [
        {
          "internalType": "uint16",
          "name": "_version",
          "type": "uint16"
        },
        {
          "internalType": "uint16",
          "name": "_chainId",
          "type": "uint16"
        },
        {
          "internalType": "uint256",
          "name": "_configType",
          "type": "uint256"
        },
        {
          "internalType": "bytes",
          "name": "_config",
          "type": "bytes"
        }
      ],
      "name": "setConfig",
      "outputs": [],
      "stateMutability": "nonpayable",
      "type": "function"
    },
    {
      "inputs": [
        {
          "internalType": "uint16",
          "name": "_dstChainId",
          "type": "uint16"
        },
        {
          "internalType": "uint256",
          "name": "_dstChainIdToBatchLimit",
          "type": "uint256"
        }
      ],
      "name": "setDstChainIdToBatchLimit",
      "outputs": [],
      "stateMutability": "nonpayable",
      "type": "function"
    },
    {
      "inputs": [
        {
          "internalType": "uint16",
          "name": "_dstChainId",
          "type": "uint16"
        },
        {
          "internalType": "uint256",
          "name": "_dstChainIdToTransferGas",
          "type": "uint256"
        }
      ],
      "name": "setDstChainIdToTransferGas",
      "outputs": [],
      "stateMutability": "nonpayable",
      "type": "function"
    },
    {
      "inputs": [
        {
          "internalType": "uint16",
          "name": "_dstChainId",
          "type": "uint16"
        },
        {
          "internalType": "uint16",
          "name": "_packetType",
          "type": "uint16"
        },
        {
          "internalType": "uint256",
          "name": "_minGas",
          "type": "uint256"
        }
      ],
      "name": "setMinDstGas",
      "outputs": [],
      "stateMutability": "nonpayable",
      "type": "function"
    },
    {
      "inputs": [
        {
          "internalType": "uint256",
          "name": "_minGasToTransferAndStore",
          "type": "uint256"
        }
      ],
      "name": "setMinGasToTransferAndStore",
      "outputs": [],
      "stateMutability": "nonpayable",
      "type": "function"
    },
    {
      "inputs": [
        {
          "internalType": "uint16",
          "name": "_dstChainId",
          "type": "uint16"
        },
        {
          "internalType": "uint256",
          "name": "_size",
          "type": "uint256"
        }
      ],
      "name": "setPayloadSizeLimit",
      "outputs": [],
      "stateMutability": "nonpayable",
      "type": "function"
    },
    {
      "inputs": [
        {
          "internalType": "address",
          "name": "_precrime",
          "type": "address"
        }
      ],
      "name": "setPrecrime",
      "outputs": [],
      "stateMutability": "nonpayable",
      "type": "function"
    },
    {
      "inputs": [
        {
          "internalType": "uint16",
          "name": "_version",
          "type": "uint16"
        }
      ],
      "name": "setReceiveVersion",
      "outputs": [],
      "stateMutability": "nonpayable",
      "type": "function"
    },
    {
      "inputs": [
        {
          "internalType": "uint16",
          "name": "_version",
          "type": "uint16"
        }
      ],
      "name": "setSendVersion",
      "outputs": [],
      "stateMutability": "nonpayable",
      "type": "function"
    },
    {
      "inputs": [
        {
          "internalType": "uint16",
          "name": "_srcChainId",
          "type": "uint16"
        },
        {
          "internalType": "bytes",
          "name": "_path",
          "type": "bytes"
        }
      ],
      "name": "setTrustedRemote",
      "outputs": [],
      "stateMutability": "nonpayable",
      "type": "function"
    },
    {
      "inputs": [
        {
          "internalType": "uint16",
          "name": "_remoteChainId",
          "type": "uint16"
        },
        {
          "internalType": "bytes",
          "name": "_remoteAddress",
          "type": "bytes"
        }
      ],
      "name": "setTrustedRemoteAddress",
      "outputs": [],
      "stateMutability": "nonpayable",
      "type": "function"
    },
    {
      "inputs": [
        {
          "internalType": "bytes32",
          "name": "",
          "type": "bytes32"
        }
      ],
      "name": "storedCredits",
      "outputs": [
        {
          "internalType": "uint16",
          "name": "srcChainId",
          "type": "uint16"
        },
        {
          "internalType": "address",
          "name": "toAddress",
          "type": "address"
        },
        {
          "internalType": "uint256",
          "name": "index",
          "type": "uint256"
        },
        {
          "internalType": "bool",
          "name": "creditsRemain",
          "type": "bool"
        }
      ],
      "stateMutability": "view",
      "type": "function"
    },
    {
      "inputs": [
        {
          "internalType": "bytes4",
          "name": "interfaceId",
          "type": "bytes4"
        }
      ],
      "name": "supportsInterface",
      "outputs": [
        {
          "internalType": "bool",
          "name": "",
          "type": "bool"
        }
      ],
      "stateMutability": "view",
      "type": "function"
    },
    {
      "inputs": [],
      "name": "symbol",
      "outputs": [
        {
          "internalType": "string",
          "name": "",
          "type": "string"
        }
      ],
      "stateMutability": "view",
      "type": "function"
    },
    {
      "inputs": [
        {
          "internalType": "uint256",
          "name": "index",
          "type": "uint256"
        }
      ],
      "name": "tokenByIndex",
      "outputs": [
        {
          "internalType": "uint256",
          "name": "",
          "type": "uint256"
        }
      ],
      "stateMutability": "view",
      "type": "function"
    },
    {
      "inputs": [
        {
          "internalType": "address",
          "name": "owner",
          "type": "address"
        },
        {
          "internalType": "uint256",
          "name": "index",
          "type": "uint256"
        }
      ],
      "name": "tokenOfOwnerByIndex",
      "outputs": [
        {
          "internalType": "uint256",
          "name": "",
          "type": "uint256"
        }
      ],
      "stateMutability": "view",
      "type": "function"
    },
    {
      "inputs": [
        {
          "internalType": "uint256",
          "name": "tokenId",
          "type": "uint256"
        }
      ],
      "name": "tokenURI",
      "outputs": [
        {
          "internalType": "string",
          "name": "",
          "type": "string"
        }
      ],
      "stateMutability": "view",
      "type": "function"
    },
    {
      "inputs": [],
      "name": "totalSupply",
      "outputs": [
        {
          "internalType": "uint256",
          "name": "",
          "type": "uint256"
        }
      ],
      "stateMutability": "view",
      "type": "function"
    },
    {
      "inputs": [
        {
          "internalType": "address",
          "name": "from",
          "type": "address"
        },
        {
          "internalType": "address",
          "name": "to",
          "type": "address"
        },
        {
          "internalType": "uint256[]",
          "name": "tokenIds",
          "type": "uint256[]"
        }
      ],
      "name": "transferBatch",
      "outputs": [],
      "stateMutability": "nonpayable",
      "type": "function"
    },
    {
      "inputs": [
        {
          "internalType": "address",
          "name": "from",
          "type": "address"
        },
        {
          "internalType": "address",
          "name": "to",
          "type": "address"
        },
        {
          "internalType": "uint256",
          "name": "tokenId",
          "type": "uint256"
        }
      ],
      "name": "transferFrom",
      "outputs": [],
      "stateMutability": "nonpayable",
      "type": "function"
    },
    {
      "inputs": [
        {
          "internalType": "address",
          "name": "from",
          "type": "address"
        },
        {
          "internalType": "address[]",
          "name": "recipients",
          "type": "address[]"
        },
        {
          "internalType": "uint256[]",
          "name": "tokenIds",
          "type": "uint256[]"
        }
      ],
      "name": "transferMulti",
      "outputs": [],
      "stateMutability": "nonpayable",
      "type": "function"
    },
    {
      "inputs": [
        {
          "internalType": "address",
          "name": "newOwner",
          "type": "address"
        }
      ],
      "name": "transferOwnership",
      "outputs": [],
      "stateMutability": "nonpayable",
      "type": "function"
    },
    {
      "inputs": [
        {
          "internalType": "uint16",
          "name": "",
          "type": "uint16"
        }
      ],
      "name": "trustedRemoteLookup",
      "outputs": [
        {
          "internalType": "bytes",
          "name": "",
          "type": "bytes"
        }
      ],
      "stateMutability": "view",
      "type": "function"
    }
  ],
  "transactionHash": "0x3a4224d4049aa08ee2ac21fc85ff7e3f4325c3ccf19a85539f0e7f8ac41b4a20",
  "args": [],
  "numDeployments": 1,
  "solcInputHash": "31b97f86ef6ce96f8e0fb0048c04f300",
  "bytecode": "0x60806040523480156200001157600080fd5b506200001c62000022565b620000e3565b600054610100900460ff16156200008f5760405162461bcd60e51b815260206004820152602760248201527f496e697469616c697a61626c653a20636f6e747261637420697320696e697469604482015266616c697a696e6760c81b606482015260840160405180910390fd5b60005460ff90811614620000e1576000805460ff191660ff9081179091556040519081527f7f26b83ff96e1f2b6a682f133852f6798a09c465da95921460cefb38474024989060200160405180910390a15b565b615b1980620000f36000396000f3fe6080604052600436106103d85760003560e01c80637533d788116101fd578063b353aaa711610118578063d1deba1f116100ab578063eb8d72b71161007a578063eb8d72b714610c8d578063f235364114610cad578063f2fde38b14610ccd578063f5ecbdbc14610ced578063fa25f9b614610d0d57600080fd5b8063d1deba1f14610bf0578063d547741f14610c03578063df2a5b3b14610c23578063e985e9c514610c4357600080fd5b8063c4461834116100e7578063c446183414610b7a578063c87b56dd14610b90578063cbed8b9c14610bb0578063d12473a514610bd057600080fd5b8063b353aaa714610afa578063b88d4fde14610b1a578063baf3292d14610b3a578063c042314514610b5a57600080fd5b806398d2fb5511610190578063a22cb4651161015f578063a22cb46514610a7f578063a6c3d16514610a9f578063ab3ffb9314610abf578063af3fb21c14610ad257600080fd5b806398d2fb5514610a0a5780639ea5d6b114610a2a5780639f38369a14610a4a578063a217fddf14610a6a57600080fd5b80638ffa1f2a116101cc5780638ffa1f2a1461099557806391d14854146109b5578063950c8a74146109d557806395d89b41146109f557600080fd5b80637533d788146108ff5780638ca6c3fc1461091f5780638cfd8f5c1461093f5780638da5cb5b1461097757600080fd5b80632f745c59116102f85780634ac3f4ff1161028b5780635b8c41e61161025a5780635b8c41e61461083b5780636352211e1461088a57806366ad5c8a146108aa57806370a08231146108ca578063715018a6146108ea57600080fd5b80634ac3f4ff146107ba5780634f6ccce7146107e8578063519056361461080857806355f804b31461081b57600080fd5b806342842e0e116102c757806342842e0e1461074357806342966c681461076357806342d65a8d1461078357806348288190146107a357600080fd5b80632f745c59146106b657806336568abe146106d65780633d8b38f6146106f65780633f1f4fa41461071657600080fd5b806310ddb13711610370578063248a9ca31161033f578063248a9ca3146105f25780632a205e3d146106225780632a55205a146106575780632f2ff15d1461069657600080fd5b806310ddb1371461050e57806318160ddd1461052e57806322a3ecf91461054e57806323b872dd146105d257600080fd5b8063081812fc116103ac578063081812fc14610476578063095ea7b3146104ae5780630b4cad4c146104ce5780630df37483146104ee57600080fd5b80621d3567146103dd57806301ffc9a7146103ff57806306fdde031461043457806307e0db1714610456575b600080fd5b3480156103e957600080fd5b506103fd6103f836600461466f565b610d3b565b005b34801561040b57600080fd5b5061041f61041a366004614718565b610f57565b60405190151581526020015b60405180910390f35b34801561044057600080fd5b50610449610f68565b60405161042b9190614785565b34801561046257600080fd5b506103fd610471366004614798565b610ffb565b34801561048257600080fd5b506104966104913660046147b3565b611068565b6040516001600160a01b03909116815260200161042b565b3480156104ba57600080fd5b506103fd6104c93660046147ec565b611090565b3480156104da57600080fd5b506103fd6104e93660046147b3565b6111a5565b3480156104fa57600080fd5b506103fd610509366004614818565b611219565b34801561051a57600080fd5b506103fd610529366004614798565b611238565b34801561053a57600080fd5b50610229545b60405190815260200161042b565b34801561055a57600080fd5b506105a36105693660046147b3565b6101946020526000908152604090208054600182015460029092015461ffff821692620100009092046001600160a01b0316919060ff1684565b6040805161ffff90951685526001600160a01b039093166020850152918301521515606082015260800161042b565b3480156105de57600080fd5b506103fd6105ed366004614834565b611274565b3480156105fe57600080fd5b5061054061060d3660046147b3565b600090815260fb602052604090206001015490565b34801561062e57600080fd5b5061064261063d366004614948565b6112a6565b6040805192835260208301919091520161042b565b34801561066357600080fd5b506106776106723660046149d6565b6112cc565b604080516001600160a01b03909316835260208301919091520161042b565b3480156106a257600080fd5b506103fd6106b13660046149f8565b61137c565b3480156106c257600080fd5b506105406106d13660046147ec565b6113a1565b3480156106e257600080fd5b506103fd6106f13660046149f8565b611438565b34801561070257600080fd5b5061041f610711366004614a28565b6114b6565b34801561072257600080fd5b50610540610731366004614798565b60686020526000908152604090205481565b34801561074f57600080fd5b506103fd61075e366004614834565b611582565b34801561076f57600080fd5b506103fd61077e3660046147b3565b61159d565b34801561078f57600080fd5b506103fd61079e366004614a28565b6115ce565b3480156107af57600080fd5b506105406101915481565b3480156107c657600080fd5b506105406107d5366004614798565b6101926020526000908152604090205481565b3480156107f457600080fd5b506105406108033660046147b3565b611638565b6103fd610816366004614a7a565b6116cd565b34801561082757600080fd5b506103fd610836366004614b33565b6116e4565b34801561084757600080fd5b50610540610856366004614b67565b6097602090815260009384526040808520845180860184018051928152908401958401959095209452929052825290205481565b34801561089657600080fd5b506104966108a53660046147b3565b6116fc565b3480156108b657600080fd5b506103fd6108c536600461466f565b61175d565b3480156108d657600080fd5b506105406108e5366004614bc4565b611839565b3480156108f657600080fd5b506103fd6118c0565b34801561090b57600080fd5b5061044961091a366004614798565b6118d4565b34801561092b57600080fd5b506103fd61093a366004614be1565b61196e565b34801561094b57600080fd5b5061054061095a366004614ca0565b606760209081526000928352604080842090915290825290205481565b34801561098357600080fd5b506033546001600160a01b0316610496565b3480156109a157600080fd5b506103fd6109b0366004614b33565b611a8b565b3480156109c157600080fd5b5061041f6109d03660046149f8565b611cee565b3480156109e157600080fd5b50606954610496906001600160a01b031681565b348015610a0157600080fd5b50610449611d19565b348015610a1657600080fd5b506103fd610a25366004614d5c565b611d29565b348015610a3657600080fd5b506103fd610a45366004614818565b611e04565b348015610a5657600080fd5b50610449610a65366004614798565b611e88565b348015610a7657600080fd5b50610540600081565b348015610a8b57600080fd5b506103fd610a9a366004614e31565b611f9e565b348015610aab57600080fd5b506103fd610aba366004614a28565b611fa9565b6103fd610acd366004614e5d565b612032565b348015610ade57600080fd5b50610ae7600181565b60405161ffff909116815260200161042b565b348015610b0657600080fd5b50606554610496906001600160a01b031681565b348015610b2657600080fd5b506103fd610b35366004614f12565b612041565b348015610b4657600080fd5b506103fd610b55366004614bc4565b612073565b348015610b6657600080fd5b506103fd610b75366004614f7d565b6120cf565b348015610b8657600080fd5b5061054061271081565b348015610b9c57600080fd5b50610449610bab3660046147b3565b61215d565b348015610bbc57600080fd5b506103fd610bcb366004614fd4565b6121c3565b348015610bdc57600080fd5b506103fd610beb366004614818565b61223c565b6103fd610bfe36600461466f565b6122c1565b348015610c0f57600080fd5b506103fd610c1e3660046149f8565b6124c6565b348015610c2f57600080fd5b506103fd610c3e366004615042565b6124eb565b348015610c4f57600080fd5b5061041f610c5e36600461507e565b6001600160a01b0391821660009081526101c86020908152604080832093909416825291909152205460ff1690565b348015610c9957600080fd5b506103fd610ca8366004614a28565b61259d565b348015610cb957600080fd5b50610642610cc83660046150ac565b6125f7565b348015610cd957600080fd5b506103fd610ce8366004614bc4565b6126a5565b348015610cf957600080fd5b50610449610d08366004615125565b61271b565b348015610d1957600080fd5b50610540610d28366004614798565b6101936020526000908152604090205481565b6065546001600160a01b0316336001600160a01b031614610da35760405162461bcd60e51b815260206004820152601e60248201527f4c7a4170703a20696e76616c696420656e64706f696e742063616c6c6572000060448201526064015b60405180910390fd5b61ffff861660009081526066602052604081208054610dc190615172565b80601f0160208091040260200160405190810160405280929190818152602001828054610ded90615172565b8015610e3a5780601f10610e0f57610100808354040283529160200191610e3a565b820191906000526020600020905b815481529060010190602001808311610e1d57829003601f168201915b50505050509050805186869050148015610e55575060008151115b8015610e7d575080516020820120604051610e7390889088906151ac565b6040518091039020145b610ed85760405162461bcd60e51b815260206004820152602660248201527f4c7a4170703a20696e76616c696420736f757263652073656e64696e6720636f6044820152651b9d1c9858dd60d21b6064820152608401610d9a565b610f4e8787878080601f01602080910402602001604051908101604052809392919081815260200183838082843760009201919091525050604080516020601f8a018190048102820181019092528881528a9350915088908890819084018382808284376000920191909152506127b092505050565b50505050505050565b6000610f6282612829565b92915050565b60606101c38054610f7890615172565b80601f0160208091040260200160405190810160405280929190818152602001828054610fa490615172565b8015610ff15780601f10610fc657610100808354040283529160200191610ff1565b820191906000526020600020905b815481529060010190602001808311610fd457829003601f168201915b5050505050905090565b611003612846565b6065546040516307e0db1760e01b815261ffff831660048201526001600160a01b03909116906307e0db17906024015b600060405180830381600087803b15801561104d57600080fd5b505af1158015611061573d6000803e3d6000fd5b5050505050565b6000611073826128a0565b5060009081526101c760205260409020546001600160a01b031690565b600061109b826116fc565b9050806001600160a01b0316836001600160a01b0316036111085760405162461bcd60e51b815260206004820152602160248201527f4552433732313a20617070726f76616c20746f2063757272656e74206f776e656044820152603960f91b6064820152608401610d9a565b336001600160a01b038216148061112457506111248133610c5e565b6111965760405162461bcd60e51b815260206004820152603d60248201527f4552433732313a20617070726f76652063616c6c6572206973206e6f7420746f60448201527f6b656e206f776e6572206f7220617070726f76656420666f7220616c6c0000006064820152608401610d9a565b6111a083836128f0565b505050565b6111ad612846565b600081116112135760405162461bcd60e51b815260206004820152602d60248201527f4f4e46543732313a206d696e476173546f5472616e73666572416e6453746f7260448201526c065206d757374206265203e203609c1b6064820152608401610d9a565b61019155565b611221612846565b61ffff909116600090815260686020526040902055565b611240612846565b6065546040516310ddb13760e01b815261ffff831660048201526001600160a01b03909116906310ddb13790602401611033565b61127f335b8261295f565b61129b5760405162461bcd60e51b8152600401610d9a906151bc565b6111a08383836129de565b6000806112be87876112b788612b52565b87876125f7565b915091509550959350505050565b600082815261012e602090815260408083208151808301909252546001600160a01b038116808352600160a01b9091046001600160601b031692820192909252829161134357506040805180820190915261012d546001600160a01b0381168252600160a01b90046001600160601b031660208201525b602081015160009061271090611362906001600160601b03168761521f565b61136c9190615236565b91519350909150505b9250929050565b600082815260fb602052604090206001015461139781612b9d565b6111a08383612ba7565b60006113ac83611839565b821061140e5760405162461bcd60e51b815260206004820152602b60248201527f455243373231456e756d657261626c653a206f776e657220696e646578206f7560448201526a74206f6620626f756e647360a81b6064820152608401610d9a565b506001600160a01b0391909116600090815261022760209081526040808320938352929052205490565b6001600160a01b03811633146114a85760405162461bcd60e51b815260206004820152602f60248201527f416363657373436f6e74726f6c3a2063616e206f6e6c792072656e6f756e636560448201526e103937b632b9903337b91039b2b63360891b6064820152608401610d9a565b6114b28282612c2d565b5050565b61ffff8316600090815260666020526040812080548291906114d790615172565b80601f016020809104026020016040519081016040528092919081815260200182805461150390615172565b80156115505780601f1061152557610100808354040283529160200191611550565b820191906000526020600020905b81548152906001019060200180831161153357829003601f168201915b5050505050905083836040516115679291906151ac565b60405180910390208180519060200120149150509392505050565b6111a083838360405180602001604052806000815250612041565b6115a633611279565b6115c25760405162461bcd60e51b8152600401610d9a906151bc565b6115cb81612c94565b50565b6115d6612846565b6065546040516342d65a8d60e01b81526001600160a01b03909116906342d65a8d9061160a90869086908690600401615281565b600060405180830381600087803b15801561162457600080fd5b505af1158015610f4e573d6000803e3d6000fd5b60006116446102295490565b82106116a75760405162461bcd60e51b815260206004820152602c60248201527f455243373231456e756d657261626c653a20676c6f62616c20696e646578206f60448201526b7574206f6620626f756e647360a01b6064820152608401610d9a565b61022982815481106116bb576116bb61529f565b90600052602060002001549050919050565b610f4e8787876116dc88612b52565b878787612c9d565b60006116ef81612b9d565b6102bd6111a083826152fb565b60008181526101c560205260408120546001600160a01b031680610f625760405162461bcd60e51b8152602060048201526018602482015277115490cdcc8c4e881a5b9d985b1a59081d1bdad95b88125160421b6044820152606401610d9a565b3330146117bb5760405162461bcd60e51b815260206004820152602660248201527f4e6f6e626c6f636b696e674c7a4170703a2063616c6c6572206d7573742062656044820152650204c7a4170760d41b6064820152608401610d9a565b6118318686868080601f01602080910402602001604051908101604052809392919081815260200183838082843760009201919091525050604080516020601f890181900481028201810190925287815289935091508790879081908401838280828437600092019190915250612e8692505050565b505050505050565b60006001600160a01b0382166118a35760405162461bcd60e51b815260206004820152602960248201527f4552433732313a2061646472657373207a65726f206973206e6f7420612076616044820152683634b21037bbb732b960b91b6064820152608401610d9a565b506001600160a01b031660009081526101c6602052604090205490565b6118c8612846565b6118d26000612fde565b565b606660205260009081526040902080546118ed90615172565b80601f016020809104026020016040519081016040528092919081815260200182805461191990615172565b80156119665780601f1061193b57610100808354040283529160200191611966565b820191906000526020600020905b81548152906001019060200180831161194957829003601f168201915b505050505081565b600054610100900460ff161580801561198e5750600054600160ff909116105b806119a85750303b1580156119a8575060005460ff166001145b611a0b5760405162461bcd60e51b815260206004820152602e60248201527f496e697469616c697a61626c653a20636f6e747261637420697320616c72656160448201526d191e481a5b9a5d1a585b1a5e995960921b6064820152608401610d9a565b6000805460ff191660011790558015611a2e576000805461ff0019166101001790555b611a3c878787878787613030565b8015610f4e576000805461ff0019169055604051600181527f7f26b83ff96e1f2b6a682f133852f6798a09c465da95921460cefb3847402498906020015b60405180910390a150505050505050565b611a93613085565b8051602080830191909120600081815261019490925260409091206002015460ff16611b015760405162461bcd60e51b815260206004820152601a60248201527f4f4e46543732313a206e6f20637265646974732073746f7265640000000000006044820152606401610d9a565b600082806020019051810190611b1791906153ff565b6000848152610194602052604081208054600190910154929450909250611b549161ffff8216916201000090046001600160a01b031690856130e0565b600084815261019460205260409020600101549091508111611bd35760405162461bcd60e51b815260206004820152603260248201527f4f4e46543732313a206e6f7420656e6f7567682067617320746f2070726f636560448201527139b99031b932b234ba103a3930b739b332b960711b6064820152608401610d9a565b81518103611c4b576000838152610194602052604080822080546001600160b01b031916815560018101929092556002909101805460ff19169055517fd7be02b8dd0d27bd0517a9cb4d7469ce27df4313821ae5ec1ff69acc594ba23390611c3e9085815260200190565b60405180910390a1611ce0565b6040805160808101825260008581526101946020818152848320805461ffff80821687526001600160a01b03620100008084048216868a019081529989018b8152600160608b01818152998f90529790965297519851169096026001600160b01b03199091169690951695909517939093178455915191830191909155516002909101805491151560ff199092169190911790555b5050506115cb600161015f55565b600091825260fb602090815260408084206001600160a01b0393909316845291905290205460ff1690565b60606101c48054610f7890615172565b60008251118015611d3b575080518251145b611d875760405162461bcd60e51b815260206004820152601d60248201527f4552433732313a20696e707574206c656e677468206d69736d617463680000006044820152606401610d9a565b60005b81518161ffff161015611dfe57611dec84848361ffff1681518110611db157611db161529f565b6020026020010151848461ffff1681518110611dcf57611dcf61529f565b602002602001015160405180602001604052806000815250612041565b80611df6816154b9565b915050611d8a565b50505050565b611e0c612846565b60008111611e705760405162461bcd60e51b815260206004820152602b60248201527f4f4e46543732313a20647374436861696e4964546f42617463684c696d69742060448201526a06d757374206265203e20360ac1b6064820152608401610d9a565b61ffff90911660009081526101926020526040902055565b61ffff8116600090815260666020526040812080546060929190611eab90615172565b80601f0160208091040260200160405190810160405280929190818152602001828054611ed790615172565b8015611f245780601f10611ef957610100808354040283529160200191611f24565b820191906000526020600020905b815481529060010190602001808311611f0757829003601f168201915b505050505090508051600003611f7c5760405162461bcd60e51b815260206004820152601d60248201527f4c7a4170703a206e6f20747275737465642070617468207265636f72640000006044820152606401610d9a565b611f97600060148351611f8f91906154da565b83919061312d565b9392505050565b6114b233838361323a565b611fb1612846565b818130604051602001611fc6939291906154ed565b60408051601f1981840301815291815261ffff8516600090815260666020522090611ff190826152fb565b507f8c0400cfe2d1199b1a725c78960bcc2a344d869b80590d0f2bd005db15a572ce83838360405161202593929190615281565b60405180910390a1505050565b610f4e87878787878787612c9d565b61204b338361295f565b6120675760405162461bcd60e51b8152600401610d9a906151bc565b611dfe84848484613309565b61207b612846565b606980546001600160a01b0319166001600160a01b0383169081179091556040519081527f5db758e995a17ec1ad84bdef7e8c3293a0bd6179bcce400dff5d4c3d87db726b9060200160405180910390a150565b60008151116121205760405162461bcd60e51b815260206004820152601f60248201527f4552433732313a20746f6b656e4964732063616e277420626520656d707479006044820152606401610d9a565b60005b81518161ffff161015611dfe5761214b8484848461ffff1681518110611dcf57611dcf61529f565b80612155816154b9565b915050612123565b6060612168826128a0565b600061217261333c565b905060008151116121925760405180602001604052806000815250611f97565b8061219c8461334c565b6040516020016121ad929190615513565b6040516020818303038152906040529392505050565b6121cb612846565b6065546040516332fb62e760e21b81526001600160a01b039091169063cbed8b9c906122039088908890889088908890600401615552565b600060405180830381600087803b15801561221d57600080fd5b505af1158015612231573d6000803e3d6000fd5b505050505050505050565b612244612846565b600081116122a95760405162461bcd60e51b815260206004820152602c60248201527f4f4e46543732313a20647374436861696e4964546f5472616e7366657247617360448201526b0206d757374206265203e20360a41b6064820152608401610d9a565b61ffff90911660009081526101936020526040902055565b61ffff861660009081526097602052604080822090516122e490889088906151ac565b90815260408051602092819003830190206001600160401b038716600090815292529020549050806123645760405162461bcd60e51b815260206004820152602360248201527f4e6f6e626c6f636b696e674c7a4170703a206e6f2073746f726564206d65737360448201526261676560e81b6064820152608401610d9a565b8083836040516123759291906151ac565b6040518091039020146123d45760405162461bcd60e51b815260206004820152602160248201527f4e6f6e626c6f636b696e674c7a4170703a20696e76616c6964207061796c6f616044820152601960fa1b6064820152608401610d9a565b61ffff871660009081526097602052604080822090516123f790899089906151ac565b90815260408051602092819003830181206001600160401b038916600090815290845282902093909355601f8801829004820283018201905286825261248f918991899089908190840183828082843760009201919091525050604080516020601f8a018190048102820181019092528881528a935091508890889081908401838280828437600092019190915250612e8692505050565b7fc264d91f3adc5588250e1551f547752ca0cfa8f6b530d243b9f9f4cab10ea8e58787878785604051611a7a95949392919061558b565b600082815260fb60205260409020600101546124e181612b9d565b6111a08383612c2d565b6124f3612846565b6000811161253b5760405162461bcd60e51b81526020600482015260156024820152744c7a4170703a20696e76616c6964206d696e47617360581b6044820152606401610d9a565b61ffff83811660008181526067602090815260408083209487168084529482529182902085905581519283528201929092529081018290527f9d5c7c0b934da8fefa9c7760c98383778a12dfbfc0c3b3106518f43fb9508ac090606001612025565b6125a5612846565b61ffff831660009081526066602052604090206125c38284836155c6565b507ffa41487ad5d6728f0b19276fa1eddc16558578f5109fc39d2dc33c3230470dab83838360405161202593929190615281565b6000806000868660405160200161260f9291906156c0565b60408051601f198184030181529082905260655463040a7bb160e41b83529092506001600160a01b0316906340a7bb1090612656908b90309086908b908b906004016156ee565b6040805180830381865afa158015612672573d6000803e3d6000fd5b505050506040513d601f19601f820116820180604052508101906126969190615742565b92509250509550959350505050565b6126ad612846565b6001600160a01b0381166127125760405162461bcd60e51b815260206004820152602660248201527f4f776e61626c653a206e6577206f776e657220697320746865207a65726f206160448201526564647265737360d01b6064820152608401610d9a565b6115cb81612fde565b606554604051633d7b2f6f60e21b815261ffff808716600483015285166024820152306044820152606481018390526060916001600160a01b03169063f5ecbdbc90608401600060405180830381865afa15801561277d573d6000803e3d6000fd5b505050506040513d6000823e601f3d908101601f191682016040526127a59190810190615766565b90505b949350505050565b6000806128135a60966366ad5c8a60e01b898989896040516024016127d8949392919061579a565b60408051601f198184030181529190526020810180516001600160e01b03166001600160e01b031990931692909217909152309291906133de565b9150915081611831576118318686868685613468565b60006001600160e01b031982161580610f625750610f6282613505565b6033546001600160a01b031633146118d25760405162461bcd60e51b815260206004820181905260248201527f4f776e61626c653a2063616c6c6572206973206e6f7420746865206f776e65726044820152606401610d9a565b6128a98161352a565b6115cb5760405162461bcd60e51b8152602060048201526018602482015277115490cdcc8c4e881a5b9d985b1a59081d1bdad95b88125160421b6044820152606401610d9a565b60008181526101c76020526040902080546001600160a01b0319166001600160a01b0384169081179091558190612926826116fc565b6001600160a01b03167f8c5be1e5ebec7d5bd14f71427d1e84f3dd0314c0f7b2291e5b200ac8c7c3b92560405160405180910390a45050565b60008061296b836116fc565b9050806001600160a01b0316846001600160a01b031614806129b357506001600160a01b0380821660009081526101c8602090815260408083209388168352929052205460ff165b806127a85750836001600160a01b03166129cc84611068565b6001600160a01b031614949350505050565b826001600160a01b03166129f1826116fc565b6001600160a01b031614612a175760405162461bcd60e51b8152600401610d9a906157d8565b6001600160a01b038216612a795760405162461bcd60e51b8152602060048201526024808201527f4552433732313a207472616e7366657220746f20746865207a65726f206164646044820152637265737360e01b6064820152608401610d9a565b612a868383836001613548565b826001600160a01b0316612a99826116fc565b6001600160a01b031614612abf5760405162461bcd60e51b8152600401610d9a906157d8565b60008181526101c76020908152604080832080546001600160a01b03199081169091556001600160a01b038781168086526101c685528386208054600019019055908716808652838620805460010190558686526101c590945282852080549092168417909155905184937fddf252ad1be2c89b69c2b068fc378daa952ba7f163c4a11628f55a4df523b3ef91a4505050565b60408051600180825281830190925260609160009190602080830190803683370190505090508281600081518110612b8c57612b8c61529f565b602090810291909101015292915050565b6115cb8133613554565b612bb18282611cee565b6114b257600082815260fb602090815260408083206001600160a01b03851684529091529020805460ff19166001179055612be93390565b6001600160a01b0316816001600160a01b0316837f2f8788117e7eff1d82e926ec794901d17c78024a50270940304540a733656f0d60405160405180910390a45050565b612c378282611cee565b156114b257600082815260fb602090815260408083206001600160a01b0385168085529252808320805460ff1916905551339285917ff6391f5c32d9c69d2a47ea670b442974b53935d1edc7fd64eb21e047a839171b9190a45050565b6115cb816135ad565b6000845111612cee5760405162461bcd60e51b815260206004820152601a60248201527f4c7a4170703a20746f6b656e4964735b5d20697320656d7074790000000000006044820152606401610d9a565b835160011480612d13575061ffff861660009081526101926020526040902054845111155b612d735760405162461bcd60e51b815260206004820152602b60248201527f4f4e46543732313a2062617463682073697a652065786365656473206473742060448201526a18985d18da081b1a5b5a5d60aa1b6064820152608401610d9a565b60005b8451811015612db657612da4888888888581518110612d9757612d9761529f565b60200260200101516135c8565b80612dae8161581d565b915050612d76565b5060008585604051602001612dcc9291906156c0565b6040516020818303038152906040529050612e1287600184885161019360008d61ffff1661ffff16815260200190815260200160002054612e0d919061521f565b6136b3565b612e20878286868634613792565b85604051612e2e9190615836565b6040518091039020886001600160a01b03168861ffff167fe1b87c47fdeb4f9cbadbca9df3af7aba453bb6e501075d0440d88125b711522a88604051612e749190615852565b60405180910390a45050505050505050565b60008082806020019051810190612e9d91906153ff565b601482015191935091506000612eb5888383866130e0565b90508251811015612f8a5784516020808701919091206040805160808101825261ffff808d1682526001600160a01b038088168387019081528385018881526001606086018181526000898152610194909a529887902095518654935190941662010000026001600160b01b03199093169390941692909217178355519082015592516002909301805493151560ff199094169390931790925590517f10e0b70d256bccc84b7027506978bd8b68984a870788b93b479def144c839ad790612f809083908990615865565b60405180910390a1505b816001600160a01b031687604051612fa29190615836565b60405180910390208961ffff167f5b821db8a46f8ecbe1941ba2f51cfeea9643268b56631f70d45e2a745d99026586604051612e749190615852565b603380546001600160a01b038381166001600160a01b0319831681179093556040519116919082907f8be0079c531659141344cd1fd0a4f28419497f9722a3daafe3b4186f6b6457e090600090a35050565b600054610100900460ff166130575760405162461bcd60e51b8152600401610d9a9061587e565b613061868661391b565b61306961395d565b6130728161398d565b61307b826139d6565b61183184846139fd565b600261015f54036130d85760405162461bcd60e51b815260206004820152601f60248201527f5265656e7472616e637947756172643a207265656e7472616e742063616c6c006044820152606401610d9a565b600261015f55565b6000825b82518110156127a557610191545a106127a55761311b868685848151811061310e5761310e61529f565b6020026020010151613a47565b806131258161581d565b9150506130e4565b60608161313b81601f6158c9565b101561317a5760405162461bcd60e51b815260206004820152600e60248201526d736c6963655f6f766572666c6f7760901b6044820152606401610d9a565b61318482846158c9565b845110156131c85760405162461bcd60e51b8152602060048201526011602482015270736c6963655f6f75744f66426f756e647360781b6044820152606401610d9a565b6060821580156131e75760405191506000825260208201604052613231565b6040519150601f8416801560200281840101858101878315602002848b0101015b81831015613220578051835260209283019201613208565b5050858452601f01601f1916604052505b50949350505050565b816001600160a01b0316836001600160a01b03160361329b5760405162461bcd60e51b815260206004820152601960248201527f4552433732313a20617070726f766520746f2063616c6c6572000000000000006044820152606401610d9a565b6001600160a01b0383811660008181526101c86020908152604080832094871680845294825291829020805460ff191686151590811790915591519182527f17307eab39ab6107e8899845ad3d59bd9653f200f220920489ca2b5937696c31910160405180910390a3505050565b6133148484846129de565b61332084848484613aa7565b611dfe5760405162461bcd60e51b8152600401610d9a906158dc565b60606102bd8054610f7890615172565b6060600061335983613ba5565b60010190506000816001600160401b0381111561337857613378614875565b6040519080825280601f01601f1916602001820160405280156133a2576020820181803683370190505b5090508181016020015b600019016f181899199a1a9b1b9c1cb0b131b232b360811b600a86061a8153600a85049450846133ac57509392505050565b6000606060008060008661ffff166001600160401b0381111561340357613403614875565b6040519080825280601f01601f19166020018201604052801561342d576020820181803683370190505b50905060008087516020890160008d8df191503d92508683111561344f578692505b828152826000602083013e909890975095505050505050565b8180519060200120609760008761ffff1661ffff168152602001908152602001600020856040516134999190615836565b9081526040805191829003602090810183206001600160401b0388166000908152915220919091557fe183f33de2837795525b4792ca4cd60535bd77c53b7e7030060bfcf5734d6b0c906134f6908790879087908790879061592e565b60405180910390a15050505050565b60006001600160e01b0319821663780e9d6360e01b1480610f625750610f6282613c7d565b60009081526101c560205260409020546001600160a01b0316151590565b611dfe84848484613c88565b61355e8282611cee565b6114b25761356b81613db7565b613576836020613dc9565b604051602001613587929190615980565b60408051601f198184030181529082905262461bcd60e51b8252610d9a91600401614785565b6135b681613f64565b600090815261012e6020526040812055565b6135d133611279565b6136345760405162461bcd60e51b815260206004820152602e60248201527f4f4e46543732313a2073656e642063616c6c6572206973206e6f74206f776e6560448201526d1c881b9bdc88185c1c1c9bdd995960921b6064820152608401610d9a565b836001600160a01b0316613647826116fc565b6001600160a01b0316146136a85760405162461bcd60e51b815260206004820152602260248201527f4f4e46543732313a2073656e642066726f6d20696e636f7272656374206f776e60448201526132b960f11b6064820152608401610d9a565b611dfe8430836129de565b60006136be8361400a565b61ffff8087166000908152606760209081526040808320938916835292905290812054919250906136f09084906158c9565b9050600081116137425760405162461bcd60e51b815260206004820152601a60248201527f4c7a4170703a206d696e4761734c696d6974206e6f74207365740000000000006044820152606401610d9a565b808210156118315760405162461bcd60e51b815260206004820152601b60248201527f4c7a4170703a20676173206c696d697420697320746f6f206c6f7700000000006044820152606401610d9a565b61ffff8616600090815260666020526040812080546137b090615172565b80601f01602080910402602001604051908101604052809291908181526020018280546137dc90615172565b80156138295780601f106137fe57610100808354040283529160200191613829565b820191906000526020600020905b81548152906001019060200180831161380c57829003601f168201915b50505050509050805160000361389a5760405162461bcd60e51b815260206004820152603060248201527f4c7a4170703a2064657374696e6174696f6e20636861696e206973206e6f742060448201526f61207472757374656420736f7572636560801b6064820152608401610d9a565b6138a5878751614066565b60655460405162c5803160e81b81526001600160a01b039091169063c58031009084906138e0908b9086908c908c908c908c906004016159f5565b6000604051808303818588803b1580156138f957600080fd5b505af115801561390d573d6000803e3d6000fd5b505050505050505050505050565b600054610100900460ff166139425760405162461bcd60e51b8152600401610d9a9061587e565b6101c361394f83826152fb565b506101c46111a082826152fb565b600054610100900460ff166139845760405162461bcd60e51b8152600401610d9a9061587e565b6118d233612fde565b600054610100900460ff166139b45760405162461bcd60e51b8152600401610d9a9061587e565b606580546001600160a01b0319166001600160a01b0392909216919091179055565b600054610100900460ff166111ad5760405162461bcd60e51b8152600401610d9a9061587e565b600054610100900460ff16613a245760405162461bcd60e51b8152600401610d9a9061587e565b6102bd613a3183826152fb565b50613a3d6000336140d7565b6114b233826140e1565b613a508161352a565b1580613a7c5750613a608161352a565b8015613a7c575030613a71826116fc565b6001600160a01b0316145b613a8557600080fd5b613a8e8161352a565b613a9c576111a082826141df565b6111a03083836129de565b60006001600160a01b0384163b15613b9d57604051630a85bd0160e11b81526001600160a01b0385169063150b7a0290613aeb903390899088908890600401615a5c565b6020604051808303816000875af1925050508015613b26575060408051601f3d908101601f19168201909252613b2391810190615a99565b60015b613b83573d808015613b54576040519150601f19603f3d011682016040523d82523d6000602084013e613b59565b606091505b508051600003613b7b5760405162461bcd60e51b8152600401610d9a906158dc565b805181602001fd5b6001600160e01b031916630a85bd0160e11b1490506127a8565b5060016127a8565b60008072184f03e93ff9f4daa797ed6e38ed64bf6a1f0160401b8310613be45772184f03e93ff9f4daa797ed6e38ed64bf6a1f0160401b830492506040015b6d04ee2d6d415b85acef81000000008310613c10576d04ee2d6d415b85acef8100000000830492506020015b662386f26fc100008310613c2e57662386f26fc10000830492506010015b6305f5e1008310613c46576305f5e100830492506008015b6127108310613c5a57612710830492506004015b60648310613c6c576064830492506002015b600a8310610f625760010192915050565b6000610f62826141f9565b6001811115613cf75760405162461bcd60e51b815260206004820152603560248201527f455243373231456e756d657261626c653a20636f6e7365637574697665207472604482015274185b9cd9995c9cc81b9bdd081cdd5c1c1bdc9d1959605a1b6064820152608401610d9a565b816001600160a01b038516613d5557613d50816102298054600083815261022a60205260408120829055600182018355919091527fb2908d3c6bbcc650627dd31890ddad23e4bcc754fc3daa98d751d51bd01a18990155565b613d78565b836001600160a01b0316856001600160a01b031614613d7857613d788582614239565b6001600160a01b038416613d9457613d8f816142db565b611061565b846001600160a01b0316846001600160a01b031614611061576110618482614390565b6060610f626001600160a01b03831660145b60606000613dd883600261521f565b613de39060026158c9565b6001600160401b03811115613dfa57613dfa614875565b6040519080825280601f01601f191660200182016040528015613e24576020820181803683370190505b509050600360fc1b81600081518110613e3f57613e3f61529f565b60200101906001600160f81b031916908160001a905350600f60fb1b81600181518110613e6e57613e6e61529f565b60200101906001600160f81b031916908160001a9053506000613e9284600261521f565b613e9d9060016158c9565b90505b6001811115613f15576f181899199a1a9b1b9c1cb0b131b232b360811b85600f1660108110613ed157613ed161529f565b1a60f81b828281518110613ee757613ee761529f565b60200101906001600160f81b031916908160001a90535060049490941c93613f0e81615ab6565b9050613ea0565b508315611f975760405162461bcd60e51b815260206004820181905260248201527f537472696e67733a20686578206c656e67746820696e73756666696369656e746044820152606401610d9a565b6000613f6f826116fc565b9050613f7f816000846001613548565b613f88826116fc565b60008381526101c76020908152604080832080546001600160a01b03199081169091556001600160a01b0385168085526101c6845282852080546000190190558785526101c5909352818420805490911690555192935084927fddf252ad1be2c89b69c2b068fc378daa952ba7f163c4a11628f55a4df523b3ef908390a45050565b600060228251101561405e5760405162461bcd60e51b815260206004820152601c60248201527f4c7a4170703a20696e76616c69642061646170746572506172616d73000000006044820152606401610d9a565b506022015190565b61ffff82166000908152606860205260408120549081900361408757506127105b808211156111a05760405162461bcd60e51b815260206004820181905260248201527f4c7a4170703a207061796c6f61642073697a6520697320746f6f206c617267656044820152606401610d9a565b6114b28282612ba7565b6127106001600160601b038216111561414f5760405162461bcd60e51b815260206004820152602a60248201527f455243323938313a20726f79616c7479206665652077696c6c206578636565646044820152692073616c65507269636560b01b6064820152608401610d9a565b6001600160a01b0382166141a55760405162461bcd60e51b815260206004820152601960248201527f455243323938313a20696e76616c6964207265636569766572000000000000006044820152606401610d9a565b604080518082019091526001600160a01b039092168083526001600160601b039091166020909201829052600160a01b9091021761012d55565b6114b28282604051806020016040528060008152506143d6565b60006001600160e01b031982166380ac58cd60e01b148061422a57506001600160e01b03198216635b5e139f60e01b145b80610f625750610f6282614409565b6000600161424684611839565b61425091906154da565b600083815261022860205260409020549091508082146142a6576001600160a01b038416600090815261022760209081526040808320858452825280832054848452818420819055835261022890915290208190555b506000918252610228602090815260408084208490556001600160a01b03909416835261022781528383209183525290812055565b610229546000906142ee906001906154da565b600083815261022a602052604081205461022980549394509092849081106143185761431861529f565b9060005260206000200154905080610229838154811061433a5761433a61529f565b600091825260208083209091019290925582815261022a909152604080822084905585825281205561022980548061437457614374615acd565b6001900381819060005260206000200160009055905550505050565b600061439b83611839565b6001600160a01b0390931660009081526102276020908152604080832086845282528083208590559382526102289052919091209190915550565b6143e0838361442e565b6143ed6000848484613aa7565b6111a05760405162461bcd60e51b8152600401610d9a906158dc565b60006001600160e01b031982166322bac5d960e01b1480610f625750610f62826145ab565b6001600160a01b0382166144845760405162461bcd60e51b815260206004820181905260248201527f4552433732313a206d696e7420746f20746865207a65726f20616464726573736044820152606401610d9a565b61448d8161352a565b156144da5760405162461bcd60e51b815260206004820152601c60248201527f4552433732313a20746f6b656e20616c7265616479206d696e746564000000006044820152606401610d9a565b6144e8600083836001613548565b6144f18161352a565b1561453e5760405162461bcd60e51b815260206004820152601c60248201527f4552433732313a20746f6b656e20616c7265616479206d696e746564000000006044820152606401610d9a565b6001600160a01b03821660008181526101c660209081526040808320805460010190558483526101c590915280822080546001600160a01b0319168417905551839291907fddf252ad1be2c89b69c2b068fc378daa952ba7f163c4a11628f55a4df523b3ef908290a45050565b60006001600160e01b0319821663152a902d60e11b1480610f625750610f628260006001600160e01b03198216637965db0b60e01b1480610f6257506301ffc9a760e01b6001600160e01b0319831614610f62565b803561ffff8116811461461257600080fd5b919050565b60008083601f84011261462957600080fd5b5081356001600160401b0381111561464057600080fd5b60208301915083602082850101111561137557600080fd5b80356001600160401b038116811461461257600080fd5b6000806000806000806080878903121561468857600080fd5b61469187614600565b955060208701356001600160401b03808211156146ad57600080fd5b6146b98a838b01614617565b90975095508591506146cd60408a01614658565b945060608901359150808211156146e357600080fd5b506146f089828a01614617565b979a9699509497509295939492505050565b6001600160e01b0319811681146115cb57600080fd5b60006020828403121561472a57600080fd5b8135611f9781614702565b60005b83811015614750578181015183820152602001614738565b50506000910152565b60008151808452614771816020860160208601614735565b601f01601f19169290920160200192915050565b602081526000611f976020830184614759565b6000602082840312156147aa57600080fd5b611f9782614600565b6000602082840312156147c557600080fd5b5035919050565b6001600160a01b03811681146115cb57600080fd5b8035614612816147cc565b600080604083850312156147ff57600080fd5b823561480a816147cc565b946020939093013593505050565b6000806040838503121561482b57600080fd5b61480a83614600565b60008060006060848603121561484957600080fd5b8335614854816147cc565b92506020840135614864816147cc565b929592945050506040919091013590565b634e487b7160e01b600052604160045260246000fd5b604051601f8201601f191681016001600160401b03811182821017156148b3576148b3614875565b604052919050565b60006001600160401b038211156148d4576148d4614875565b50601f01601f191660200190565b600082601f8301126148f357600080fd5b8135614906614901826148bb565b61488b565b81815284602083860101111561491b57600080fd5b816020850160208301376000918101602001919091529392505050565b8035801515811461461257600080fd5b600080600080600060a0868803121561496057600080fd5b61496986614600565b945060208601356001600160401b038082111561498557600080fd5b61499189838a016148e2565b9550604088013594506149a660608901614938565b935060808801359150808211156149bc57600080fd5b506149c9888289016148e2565b9150509295509295909350565b600080604083850312156149e957600080fd5b50508035926020909101359150565b60008060408385031215614a0b57600080fd5b823591506020830135614a1d816147cc565b809150509250929050565b600080600060408486031215614a3d57600080fd5b614a4684614600565b925060208401356001600160401b03811115614a6157600080fd5b614a6d86828701614617565b9497909650939450505050565b600080600080600080600060e0888a031215614a9557600080fd5b8735614aa0816147cc565b9650614aae60208901614600565b955060408801356001600160401b0380821115614aca57600080fd5b614ad68b838c016148e2565b965060608a0135955060808a01359150614aef826147cc565b90935060a089013590614b01826147cc565b90925060c08901359080821115614b1757600080fd5b50614b248a828b016148e2565b91505092959891949750929550565b600060208284031215614b4557600080fd5b81356001600160401b03811115614b5b57600080fd5b6127a8848285016148e2565b600080600060608486031215614b7c57600080fd5b614b8584614600565b925060208401356001600160401b03811115614ba057600080fd5b614bac868287016148e2565b925050614bbb60408501614658565b90509250925092565b600060208284031215614bd657600080fd5b8135611f97816147cc565b60008060008060008060c08789031215614bfa57600080fd5b86356001600160401b0380821115614c1157600080fd5b614c1d8a838b016148e2565b97506020890135915080821115614c3357600080fd5b614c3f8a838b016148e2565b96506040890135915080821115614c5557600080fd5b50614c6289828a016148e2565b94505060608701356001600160601b0381168114614c7f57600080fd5b925060808701359150614c9460a088016147e1565b90509295509295509295565b60008060408385031215614cb357600080fd5b614cbc83614600565b9150614cca60208401614600565b90509250929050565b60006001600160401b03821115614cec57614cec614875565b5060051b60200190565b600082601f830112614d0757600080fd5b81356020614d1761490183614cd3565b82815260059290921b84018101918181019086841115614d3657600080fd5b8286015b84811015614d515780358352918301918301614d3a565b509695505050505050565b600080600060608486031215614d7157600080fd5b8335614d7c816147cc565b92506020848101356001600160401b0380821115614d9957600080fd5b818701915087601f830112614dad57600080fd5b8135614dbb61490182614cd3565b81815260059190911b8301840190848101908a831115614dda57600080fd5b938501935b82851015614e01578435614df2816147cc565b82529385019390850190614ddf565b965050506040870135925080831115614e1957600080fd5b5050614e2786828701614cf6565b9150509250925092565b60008060408385031215614e4457600080fd5b8235614e4f816147cc565b9150614cca60208401614938565b600080600080600080600060e0888a031215614e7857600080fd5b8735614e83816147cc565b9650614e9160208901614600565b955060408801356001600160401b0380821115614ead57600080fd5b614eb98b838c016148e2565b965060608a0135915080821115614ecf57600080fd5b614edb8b838c01614cf6565b955060808a01359150614eed826147cc565b819450614efc60a08b016147e1565b935060c08a0135915080821115614b1757600080fd5b60008060008060808587031215614f2857600080fd5b8435614f33816147cc565b93506020850135614f43816147cc565b92506040850135915060608501356001600160401b03811115614f6557600080fd5b614f71878288016148e2565b91505092959194509250565b600080600060608486031215614f9257600080fd5b8335614f9d816147cc565b92506020840135614fad816147cc565b915060408401356001600160401b03811115614fc857600080fd5b614e2786828701614cf6565b600080600080600060808688031215614fec57600080fd5b614ff586614600565b945061500360208701614600565b93506040860135925060608601356001600160401b0381111561502557600080fd5b61503188828901614617565b969995985093965092949392505050565b60008060006060848603121561505757600080fd5b61506084614600565b925061506e60208501614600565b9150604084013590509250925092565b6000806040838503121561509157600080fd5b823561509c816147cc565b91506020830135614a1d816147cc565b600080600080600060a086880312156150c457600080fd5b6150cd86614600565b945060208601356001600160401b03808211156150e957600080fd5b6150f589838a016148e2565b9550604088013591508082111561510b57600080fd5b61511789838a01614cf6565b94506149a660608901614938565b6000806000806080858703121561513b57600080fd5b61514485614600565b935061515260208601614600565b92506040850135615162816147cc565b9396929550929360600135925050565b600181811c9082168061518657607f821691505b6020821081036151a657634e487b7160e01b600052602260045260246000fd5b50919050565b8183823760009101908152919050565b6020808252602d908201527f4552433732313a2063616c6c6572206973206e6f7420746f6b656e206f776e6560408201526c1c881bdc88185c1c1c9bdd9959609a1b606082015260800190565b634e487b7160e01b600052601160045260246000fd5b8082028115828204841417610f6257610f62615209565b60008261525357634e487b7160e01b600052601260045260246000fd5b500490565b81835281816020850137506000828201602090810191909152601f909101601f19169091010190565b61ffff841681526040602082015260006127a5604083018486615258565b634e487b7160e01b600052603260045260246000fd5b601f8211156111a057600081815260208120601f850160051c810160208610156152dc5750805b601f850160051c820191505b81811015611831578281556001016152e8565b81516001600160401b0381111561531457615314614875565b615328816153228454615172565b846152b5565b602080601f83116001811461535d57600084156153455750858301515b600019600386901b1c1916600185901b178555611831565b600085815260208120601f198616915b8281101561538c5788860151825594840194600190910190840161536d565b50858210156153aa5787850151600019600388901b60f8161c191681555b5050505050600190811b01905550565b600082601f8301126153cb57600080fd5b81516153d9614901826148bb565b8181528460208386010111156153ee57600080fd5b6127a8826020830160208701614735565b6000806040838503121561541257600080fd5b82516001600160401b038082111561542957600080fd5b615435868387016153ba565b935060209150818501518181111561544c57600080fd5b85019050601f8101861361545f57600080fd5b805161546d61490182614cd3565b81815260059190911b8201830190838101908883111561548c57600080fd5b928401925b828410156154aa57835182529284019290840190615491565b80955050505050509250929050565b600061ffff8083168181036154d0576154d0615209565b6001019392505050565b81810381811115610f6257610f62615209565b8284823760609190911b6bffffffffffffffffffffffff19169101908152601401919050565b60008351615525818460208801614735565b835190830190615539818360208801614735565b64173539b7b760d91b9101908152600501949350505050565b600061ffff808816835280871660208401525084604083015260806060830152615580608083018486615258565b979650505050505050565b61ffff861681526080602082015260006155a9608083018688615258565b6001600160401b0394909416604083015250606001529392505050565b6001600160401b038311156155dd576155dd614875565b6155f1836155eb8354615172565b836152b5565b6000601f841160018114615625576000851561560d5750838201355b600019600387901b1c1916600186901b178355611061565b600083815260209020601f19861690835b828110156156565786850135825560209485019460019092019101615636565b50868210156156735760001960f88860031b161c19848701351681555b505060018560011b0183555050505050565b600081518084526020808501945080840160005b838110156156b557815187529582019590820190600101615699565b509495945050505050565b6040815260006156d36040830185614759565b82810360208401526156e58185615685565b95945050505050565b61ffff861681526001600160a01b038516602082015260a06040820181905260009061571c90830186614759565b841515606084015282810360808401526157368185614759565b98975050505050505050565b6000806040838503121561575557600080fd5b505080516020909101519092909150565b60006020828403121561577857600080fd5b81516001600160401b0381111561578e57600080fd5b6127a8848285016153ba565b61ffff851681526080602082015260006157b76080830186614759565b6001600160401b038516604084015282810360608401526155808185614759565b60208082526025908201527f4552433732313a207472616e736665722066726f6d20696e636f72726563742060408201526437bbb732b960d91b606082015260800190565b60006001820161582f5761582f615209565b5060010190565b60008251615848818460208701614735565b9190910192915050565b602081526000611f976020830184615685565b8281526040602082015260006127a86040830184614759565b6020808252602b908201527f496e697469616c697a61626c653a20636f6e7472616374206973206e6f74206960408201526a6e697469616c697a696e6760a81b606082015260800190565b80820180821115610f6257610f62615209565b60208082526032908201527f4552433732313a207472616e7366657220746f206e6f6e20455243373231526560408201527131b2b4bb32b91034b6b83632b6b2b73a32b960711b606082015260800190565b61ffff8616815260a06020820152600061594b60a0830187614759565b6001600160401b0386166040840152828103606084015261596c8186614759565b905082810360808401526157368185614759565b7f416363657373436f6e74726f6c3a206163636f756e74200000000000000000008152600083516159b8816017850160208801614735565b7001034b99036b4b9b9b4b733903937b6329607d1b60179184019182015283516159e9816028840160208801614735565b01602801949350505050565b61ffff8716815260c060208201526000615a1260c0830188614759565b8281036040840152615a248188614759565b6001600160a01b0387811660608601528616608085015283810360a08501529050615a4f8185614759565b9998505050505050505050565b6001600160a01b0385811682528416602082015260408101839052608060608201819052600090615a8f90830184614759565b9695505050505050565b600060208284031215615aab57600080fd5b8151611f9781614702565b600081615ac557615ac5615209565b506000190190565b634e487b7160e01b600052603160045260246000fdfea26469706673582212205025d0a79bafdf27e84aa8a302e1539c716fec0db5b189340e666f283ed65f8664736f6c63430008120033",
  "devdoc": {
    "events": {
      "Approval(address,address,uint256)": {
        "details": "Emitted when `owner` enables `approved` to manage the `tokenId` token."
      },
      "ApprovalForAll(address,address,bool)": {
        "details": "Emitted when `owner` enables or disables (`approved`) `operator` to manage all of its assets."
      },
      "CreditCleared(bytes32)": {
        "details": "Emitted when `_hashedPayload` has been completely delivered"
      },
      "CreditStored(bytes32,bytes)": {
        "details": "Emitted when `_payload` was received from lz, but not enough gas to deliver all tokenIds"
      },
      "Initialized(uint8)": {
        "details": "Triggered when the contract has been initialized or reinitialized."
      },
      "RoleAdminChanged(bytes32,bytes32,bytes32)": {
        "details": "Emitted when `newAdminRole` is set as ``role``'s admin role, replacing `previousAdminRole` `DEFAULT_ADMIN_ROLE` is the starting admin for all roles, despite {RoleAdminChanged} not being emitted signaling this. _Available since v3.1._"
      },
      "RoleGranted(bytes32,address,address)": {
        "details": "Emitted when `account` is granted `role`. `sender` is the account that originated the contract call, an admin role bearer except when using {AccessControl-_setupRole}."
      },
      "RoleRevoked(bytes32,address,address)": {
        "details": "Emitted when `account` is revoked `role`. `sender` is the account that originated the contract call:   - if using `revokeRole`, it is the admin role bearer   - if using `renounceRole`, it is the role bearer (i.e. `account`)"
      },
      "SendToChain(uint16,address,bytes,uint256[])": {
        "details": "Emitted when `_tokenIds[]` are moved from the `_sender` to (`_dstChainId`, `_toAddress`) `_nonce` is the outbound nonce from"
      },
      "Transfer(address,address,uint256)": {
        "details": "Emitted when `tokenId` token is transferred from `from` to `to`."
      }
    },
    "kind": "dev",
    "methods": {
      "approve(address,uint256)": {
        "details": "See {IERC721-approve}."
      },
      "balanceOf(address)": {
        "details": "See {IERC721-balanceOf}."
      },
      "burn(uint256)": {
        "details": "Burns `tokenId`. See {ERC721-_burn}. Requirements: - The caller must own `tokenId` or be an approved operator."
      },
      "constructor": {
        "custom:oz-upgrades-unsafe-allow": "constructor"
      },
      "estimateSendBatchFee(uint16,bytes,uint256[],bool,bytes)": {
        "details": "estimate send token `_tokenId` to (`_dstChainId`, `_toAddress`) _dstChainId - L0 defined chain id to send tokens too _toAddress - dynamic bytes array which contains the address to whom you are sending tokens to on the dstChain _tokenIds[] - token Ids to transfer _useZro - indicates to use zro to pay L0 fees _adapterParams - flexible bytes array to indicate messaging adapter services in L0"
      },
      "estimateSendFee(uint16,bytes,uint256,bool,bytes)": {
        "details": "estimate send token `_tokenId` to (`_dstChainId`, `_toAddress`) _dstChainId - L0 defined chain id to send tokens too _toAddress - dynamic bytes array which contains the address to whom you are sending tokens to on the dstChain _tokenId - token Id to transfer _useZro - indicates to use zro to pay L0 fees _adapterParams - flexible bytes array to indicate messaging adapter services in L0"
      },
      "getApproved(uint256)": {
        "details": "See {IERC721-getApproved}."
      },
      "getRoleAdmin(bytes32)": {
        "details": "Returns the admin role that controls `role`. See {grantRole} and {revokeRole}. To change a role's admin, use {_setRoleAdmin}."
      },
      "grantRole(bytes32,address)": {
        "details": "Grants `role` to `account`. If `account` had not been already granted `role`, emits a {RoleGranted} event. Requirements: - the caller must have ``role``'s admin role. May emit a {RoleGranted} event."
      },
      "hasRole(bytes32,address)": {
        "details": "Returns `true` if `account` has been granted `role`."
      },
      "isApprovedForAll(address,address)": {
        "details": "See {IERC721-isApprovedForAll}."
      },
      "name()": {
        "details": "See {IERC721Metadata-name}."
      },
      "owner()": {
        "details": "Returns the address of the current owner."
      },
      "ownerOf(uint256)": {
        "details": "See {IERC721-ownerOf}."
      },
      "renounceOwnership()": {
        "details": "Leaves the contract without owner. It will not be possible to call `onlyOwner` functions. Can only be called by the current owner. NOTE: Renouncing ownership will leave the contract without an owner, thereby disabling any functionality that is only available to the owner."
      },
      "renounceRole(bytes32,address)": {
        "details": "Revokes `role` from the calling account. Roles are often managed via {grantRole} and {revokeRole}: this function's purpose is to provide a mechanism for accounts to lose their privileges if they are compromised (such as when a trusted device is misplaced). If the calling account had been revoked `role`, emits a {RoleRevoked} event. Requirements: - the caller must be `account`. May emit a {RoleRevoked} event."
      },
      "revokeRole(bytes32,address)": {
        "details": "Revokes `role` from `account`. If `account` had been granted `role`, emits a {RoleRevoked} event. Requirements: - the caller must have ``role``'s admin role. May emit a {RoleRevoked} event."
      },
      "royaltyInfo(uint256,uint256)": {
        "details": "Returns how much royalty is owed and to whom, based on a sale price that may be denominated in any unit of exchange. The royalty amount is denominated and should be paid in that same unit of exchange."
      },
      "safeTransferFrom(address,address,uint256)": {
        "details": "See {IERC721-safeTransferFrom}."
      },
      "safeTransferFrom(address,address,uint256,bytes)": {
        "details": "See {IERC721-safeTransferFrom}."
      },
      "sendBatchFrom(address,uint16,bytes,uint256[],address,address,bytes)": {
        "details": "send tokens `_tokenIds[]` to (`_dstChainId`, `_toAddress`) from `_from` `_toAddress` can be any size depending on the `dstChainId`. `_zroPaymentAddress` set to address(0x0) if not paying in ZRO (LayerZero Token) `_adapterParams` is a flexible bytes array to indicate messaging adapter services"
      },
      "sendFrom(address,uint16,bytes,uint256,address,address,bytes)": {
        "details": "send token `_tokenId` to (`_dstChainId`, `_toAddress`) from `_from` `_toAddress` can be any size depending on the `dstChainId`. `_zroPaymentAddress` set to address(0x0) if not paying in ZRO (LayerZero Token) `_adapterParams` is a flexible bytes array to indicate messaging adapter services"
      },
      "setApprovalForAll(address,bool)": {
        "details": "See {IERC721-setApprovalForAll}."
      },
      "setBaseURI(string)": {
        "details": "Set new token metadata base URI."
      },
      "supportsInterface(bytes4)": {
        "details": "See {IERC165-supportsInterface}."
      },
      "symbol()": {
        "details": "See {IERC721Metadata-symbol}."
      },
      "tokenByIndex(uint256)": {
        "details": "See {IERC721Enumerable-tokenByIndex}."
      },
      "tokenOfOwnerByIndex(address,uint256)": {
        "details": "See {IERC721Enumerable-tokenOfOwnerByIndex}."
      },
      "tokenURI(uint256)": {
        "details": "See {IERC721Metadata-tokenURI}. Override attaches \".json\" extension to URI."
      },
      "totalSupply()": {
        "details": "See {IERC721Enumerable-totalSupply}."
      },
      "transferBatch(address,address,uint256[])": {
        "details": "Batch-Transfer (same recipient)."
      },
      "transferFrom(address,address,uint256)": {
        "details": "See {IERC721-transferFrom}."
      },
      "transferMulti(address,address[],uint256[])": {
        "details": "Multi-recipient transfer."
      },
      "transferOwnership(address)": {
        "details": "Transfers ownership of the contract to a new account (`newOwner`). Can only be called by the current owner."
      }
    },
    "version": 1
  },
  "userdoc": {
    "kind": "user",
    "methods": {},
    "version": 1
  },
  "storageLayout": {
    "storage": [
      {
        "astId": 566,
        "contract": "contracts/contracts-upgradable/token/onft/ERC721/extension/ExtendedONFT721Upgradeable.sol:ExtendedONFT721Upgradeable",
        "label": "_initialized",
        "offset": 0,
        "slot": "0",
        "type": "t_uint8"
      },
      {
        "astId": 569,
        "contract": "contracts/contracts-upgradable/token/onft/ERC721/extension/ExtendedONFT721Upgradeable.sol:ExtendedONFT721Upgradeable",
        "label": "_initializing",
        "offset": 1,
        "slot": "0",
        "type": "t_bool"
      },
      {
        "astId": 5585,
        "contract": "contracts/contracts-upgradable/token/onft/ERC721/extension/ExtendedONFT721Upgradeable.sol:ExtendedONFT721Upgradeable",
        "label": "__gap",
        "offset": 0,
        "slot": "1",
        "type": "t_array(t_uint256)50_storage"
      },
      {
        "astId": 419,
        "contract": "contracts/contracts-upgradable/token/onft/ERC721/extension/ExtendedONFT721Upgradeable.sol:ExtendedONFT721Upgradeable",
        "label": "_owner",
        "offset": 0,
        "slot": "51",
        "type": "t_address"
      },
      {
        "astId": 539,
        "contract": "contracts/contracts-upgradable/token/onft/ERC721/extension/ExtendedONFT721Upgradeable.sol:ExtendedONFT721Upgradeable",
        "label": "__gap",
        "offset": 0,
        "slot": "52",
        "type": "t_array(t_uint256)49_storage"
      },
      {
        "astId": 15335,
        "contract": "contracts/contracts-upgradable/token/onft/ERC721/extension/ExtendedONFT721Upgradeable.sol:ExtendedONFT721Upgradeable",
        "label": "lzEndpoint",
        "offset": 0,
        "slot": "101",
        "type": "t_contract(ILayerZeroEndpointUpgradeable)15266"
      },
      {
        "astId": 15339,
        "contract": "contracts/contracts-upgradable/token/onft/ERC721/extension/ExtendedONFT721Upgradeable.sol:ExtendedONFT721Upgradeable",
        "label": "trustedRemoteLookup",
        "offset": 0,
        "slot": "102",
        "type": "t_mapping(t_uint16,t_bytes_storage)"
      },
      {
        "astId": 15345,
        "contract": "contracts/contracts-upgradable/token/onft/ERC721/extension/ExtendedONFT721Upgradeable.sol:ExtendedONFT721Upgradeable",
        "label": "minDstGasLookup",
        "offset": 0,
        "slot": "103",
        "type": "t_mapping(t_uint16,t_mapping(t_uint16,t_uint256))"
      },
      {
        "astId": 15349,
        "contract": "contracts/contracts-upgradable/token/onft/ERC721/extension/ExtendedONFT721Upgradeable.sol:ExtendedONFT721Upgradeable",
        "label": "payloadSizeLimitLookup",
        "offset": 0,
        "slot": "104",
        "type": "t_mapping(t_uint16,t_uint256)"
      },
      {
        "astId": 15351,
        "contract": "contracts/contracts-upgradable/token/onft/ERC721/extension/ExtendedONFT721Upgradeable.sol:ExtendedONFT721Upgradeable",
        "label": "precrime",
        "offset": 0,
        "slot": "105",
        "type": "t_address"
      },
      {
        "astId": 15883,
        "contract": "contracts/contracts-upgradable/token/onft/ERC721/extension/ExtendedONFT721Upgradeable.sol:ExtendedONFT721Upgradeable",
        "label": "__gap",
        "offset": 0,
        "slot": "106",
        "type": "t_array(t_uint256)45_storage"
      },
      {
        "astId": 15926,
        "contract": "contracts/contracts-upgradable/token/onft/ERC721/extension/ExtendedONFT721Upgradeable.sol:ExtendedONFT721Upgradeable",
        "label": "failedMessages",
        "offset": 0,
        "slot": "151",
        "type": "t_mapping(t_uint16,t_mapping(t_bytes_memory_ptr,t_mapping(t_uint64,t_bytes32)))"
      },
      {
        "astId": 16145,
        "contract": "contracts/contracts-upgradable/token/onft/ERC721/extension/ExtendedONFT721Upgradeable.sol:ExtendedONFT721Upgradeable",
        "label": "__gap",
        "offset": 0,
        "slot": "152",
        "type": "t_array(t_uint256)49_storage"
      },
      {
        "astId": 6052,
        "contract": "contracts/contracts-upgradable/token/onft/ERC721/extension/ExtendedONFT721Upgradeable.sol:ExtendedONFT721Upgradeable",
        "label": "__gap",
        "offset": 0,
        "slot": "201",
        "type": "t_array(t_uint256)50_storage"
      },
      {
        "astId": 39,
        "contract": "contracts/contracts-upgradable/token/onft/ERC721/extension/ExtendedONFT721Upgradeable.sol:ExtendedONFT721Upgradeable",
        "label": "_roles",
        "offset": 0,
        "slot": "251",
        "type": "t_mapping(t_bytes32,t_struct(RoleData)34_storage)"
      },
      {
        "astId": 334,
        "contract": "contracts/contracts-upgradable/token/onft/ERC721/extension/ExtendedONFT721Upgradeable.sol:ExtendedONFT721Upgradeable",
        "label": "__gap",
        "offset": 0,
        "slot": "252",
        "type": "t_array(t_uint256)49_storage"
      },
      {
        "astId": 5028,
        "contract": "contracts/contracts-upgradable/token/onft/ERC721/extension/ExtendedONFT721Upgradeable.sol:ExtendedONFT721Upgradeable",
        "label": "_defaultRoyaltyInfo",
        "offset": 0,
        "slot": "301",
        "type": "t_struct(RoyaltyInfo)5025_storage"
      },
      {
        "astId": 5033,
        "contract": "contracts/contracts-upgradable/token/onft/ERC721/extension/ExtendedONFT721Upgradeable.sol:ExtendedONFT721Upgradeable",
        "label": "_tokenRoyaltyInfo",
        "offset": 0,
        "slot": "302",
        "type": "t_mapping(t_uint256,t_struct(RoyaltyInfo)5025_storage)"
      },
      {
        "astId": 5213,
        "contract": "contracts/contracts-upgradable/token/onft/ERC721/extension/ExtendedONFT721Upgradeable.sol:ExtendedONFT721Upgradeable",
        "label": "__gap",
        "offset": 0,
        "slot": "303",
        "type": "t_array(t_uint256)48_storage"
      },
      {
        "astId": 742,
        "contract": "contracts/contracts-upgradable/token/onft/ERC721/extension/ExtendedONFT721Upgradeable.sol:ExtendedONFT721Upgradeable",
        "label": "_status",
        "offset": 0,
        "slot": "351",
        "type": "t_uint256"
      },
      {
        "astId": 811,
        "contract": "contracts/contracts-upgradable/token/onft/ERC721/extension/ExtendedONFT721Upgradeable.sol:ExtendedONFT721Upgradeable",
        "label": "__gap",
        "offset": 0,
        "slot": "352",
        "type": "t_array(t_uint256)49_storage"
      },
      {
        "astId": 22603,
        "contract": "contracts/contracts-upgradable/token/onft/ERC721/extension/ExtendedONFT721Upgradeable.sol:ExtendedONFT721Upgradeable",
        "label": "minGasToTransferAndStore",
        "offset": 0,
        "slot": "401",
        "type": "t_uint256"
      },
      {
        "astId": 22607,
        "contract": "contracts/contracts-upgradable/token/onft/ERC721/extension/ExtendedONFT721Upgradeable.sol:ExtendedONFT721Upgradeable",
        "label": "dstChainIdToBatchLimit",
        "offset": 0,
        "slot": "402",
        "type": "t_mapping(t_uint16,t_uint256)"
      },
      {
        "astId": 22611,
        "contract": "contracts/contracts-upgradable/token/onft/ERC721/extension/ExtendedONFT721Upgradeable.sol:ExtendedONFT721Upgradeable",
        "label": "dstChainIdToTransferGas",
        "offset": 0,
        "slot": "403",
        "type": "t_mapping(t_uint16,t_uint256)"
      },
      {
        "astId": 22616,
        "contract": "contracts/contracts-upgradable/token/onft/ERC721/extension/ExtendedONFT721Upgradeable.sol:ExtendedONFT721Upgradeable",
        "label": "storedCredits",
        "offset": 0,
        "slot": "404",
        "type": "t_mapping(t_bytes32,t_struct(StoredCredit)22601_storage)"
      },
      {
        "astId": 23248,
        "contract": "contracts/contracts-upgradable/token/onft/ERC721/extension/ExtendedONFT721Upgradeable.sol:ExtendedONFT721Upgradeable",
        "label": "__gap",
        "offset": 0,
        "slot": "405",
        "type": "t_array(t_uint256)46_storage"
      },
      {
        "astId": 3391,
        "contract": "contracts/contracts-upgradable/token/onft/ERC721/extension/ExtendedONFT721Upgradeable.sol:ExtendedONFT721Upgradeable",
        "label": "_name",
        "offset": 0,
        "slot": "451",
        "type": "t_string_storage"
      },
      {
        "astId": 3393,
        "contract": "contracts/contracts-upgradable/token/onft/ERC721/extension/ExtendedONFT721Upgradeable.sol:ExtendedONFT721Upgradeable",
        "label": "_symbol",
        "offset": 0,
        "slot": "452",
        "type": "t_string_storage"
      },
      {
        "astId": 3397,
        "contract": "contracts/contracts-upgradable/token/onft/ERC721/extension/ExtendedONFT721Upgradeable.sol:ExtendedONFT721Upgradeable",
        "label": "_owners",
        "offset": 0,
        "slot": "453",
        "type": "t_mapping(t_uint256,t_address)"
      },
      {
        "astId": 3401,
        "contract": "contracts/contracts-upgradable/token/onft/ERC721/extension/ExtendedONFT721Upgradeable.sol:ExtendedONFT721Upgradeable",
        "label": "_balances",
        "offset": 0,
        "slot": "454",
        "type": "t_mapping(t_address,t_uint256)"
      },
      {
        "astId": 3405,
        "contract": "contracts/contracts-upgradable/token/onft/ERC721/extension/ExtendedONFT721Upgradeable.sol:ExtendedONFT721Upgradeable",
        "label": "_tokenApprovals",
        "offset": 0,
        "slot": "455",
        "type": "t_mapping(t_uint256,t_address)"
      },
      {
        "astId": 3411,
        "contract": "contracts/contracts-upgradable/token/onft/ERC721/extension/ExtendedONFT721Upgradeable.sol:ExtendedONFT721Upgradeable",
        "label": "_operatorApprovals",
        "offset": 0,
        "slot": "456",
        "type": "t_mapping(t_address,t_mapping(t_address,t_bool))"
      },
      {
        "astId": 4313,
        "contract": "contracts/contracts-upgradable/token/onft/ERC721/extension/ExtendedONFT721Upgradeable.sol:ExtendedONFT721Upgradeable",
        "label": "__gap",
        "offset": 0,
        "slot": "457",
        "type": "t_array(t_uint256)44_storage"
      },
      {
        "astId": 4937,
        "contract": "contracts/contracts-upgradable/token/onft/ERC721/extension/ExtendedONFT721Upgradeable.sol:ExtendedONFT721Upgradeable",
        "label": "__gap",
        "offset": 0,
        "slot": "501",
        "type": "t_array(t_uint256)50_storage"
      },
      {
        "astId": 4528,
        "contract": "contracts/contracts-upgradable/token/onft/ERC721/extension/ExtendedONFT721Upgradeable.sol:ExtendedONFT721Upgradeable",
        "label": "_ownedTokens",
        "offset": 0,
        "slot": "551",
        "type": "t_mapping(t_address,t_mapping(t_uint256,t_uint256))"
      },
      {
        "astId": 4532,
        "contract": "contracts/contracts-upgradable/token/onft/ERC721/extension/ExtendedONFT721Upgradeable.sol:ExtendedONFT721Upgradeable",
        "label": "_ownedTokensIndex",
        "offset": 0,
        "slot": "552",
        "type": "t_mapping(t_uint256,t_uint256)"
      },
      {
        "astId": 4535,
        "contract": "contracts/contracts-upgradable/token/onft/ERC721/extension/ExtendedONFT721Upgradeable.sol:ExtendedONFT721Upgradeable",
        "label": "_allTokens",
        "offset": 0,
        "slot": "553",
        "type": "t_array(t_uint256)dyn_storage"
      },
      {
        "astId": 4539,
        "contract": "contracts/contracts-upgradable/token/onft/ERC721/extension/ExtendedONFT721Upgradeable.sol:ExtendedONFT721Upgradeable",
        "label": "_allTokensIndex",
        "offset": 0,
        "slot": "554",
        "type": "t_mapping(t_uint256,t_uint256)"
      },
      {
        "astId": 4871,
        "contract": "contracts/contracts-upgradable/token/onft/ERC721/extension/ExtendedONFT721Upgradeable.sol:ExtendedONFT721Upgradeable",
        "label": "__gap",
        "offset": 0,
        "slot": "555",
        "type": "t_array(t_uint256)46_storage"
      },
      {
        "astId": 4497,
        "contract": "contracts/contracts-upgradable/token/onft/ERC721/extension/ExtendedONFT721Upgradeable.sol:ExtendedONFT721Upgradeable",
        "label": "__gap",
        "offset": 0,
        "slot": "601",
        "type": "t_array(t_uint256)50_storage"
      },
      {
        "astId": 23422,
        "contract": "contracts/contracts-upgradable/token/onft/ERC721/extension/ExtendedONFT721Upgradeable.sol:ExtendedONFT721Upgradeable",
        "label": "__gap",
        "offset": 0,
        "slot": "651",
        "type": "t_array(t_uint256)50_storage"
      },
      {
        "astId": 23453,
        "contract": "contracts/contracts-upgradable/token/onft/ERC721/extension/ExtendedONFT721Upgradeable.sol:ExtendedONFT721Upgradeable",
        "label": "baseTokenURI",
        "offset": 0,
        "slot": "701",
        "type": "t_string_storage"
      }
    ],
    "types": {
      "t_address": {
        "encoding": "inplace",
        "label": "address",
        "numberOfBytes": "20"
      },
      "t_array(t_uint256)44_storage": {
        "base": "t_uint256",
        "encoding": "inplace",
        "label": "uint256[44]",
        "numberOfBytes": "1408"
      },
      "t_array(t_uint256)45_storage": {
        "base": "t_uint256",
        "encoding": "inplace",
        "label": "uint256[45]",
        "numberOfBytes": "1440"
      },
      "t_array(t_uint256)46_storage": {
        "base": "t_uint256",
        "encoding": "inplace",
        "label": "uint256[46]",
        "numberOfBytes": "1472"
      },
      "t_array(t_uint256)48_storage": {
        "base": "t_uint256",
        "encoding": "inplace",
        "label": "uint256[48]",
        "numberOfBytes": "1536"
      },
      "t_array(t_uint256)49_storage": {
        "base": "t_uint256",
        "encoding": "inplace",
        "label": "uint256[49]",
        "numberOfBytes": "1568"
      },
      "t_array(t_uint256)50_storage": {
        "base": "t_uint256",
        "encoding": "inplace",
        "label": "uint256[50]",
        "numberOfBytes": "1600"
      },
      "t_array(t_uint256)dyn_storage": {
        "base": "t_uint256",
        "encoding": "dynamic_array",
        "label": "uint256[]",
        "numberOfBytes": "32"
      },
      "t_bool": {
        "encoding": "inplace",
        "label": "bool",
        "numberOfBytes": "1"
      },
      "t_bytes32": {
        "encoding": "inplace",
        "label": "bytes32",
        "numberOfBytes": "32"
      },
      "t_bytes_memory_ptr": {
        "encoding": "bytes",
        "label": "bytes",
        "numberOfBytes": "32"
      },
      "t_bytes_storage": {
        "encoding": "bytes",
        "label": "bytes",
        "numberOfBytes": "32"
      },
      "t_contract(ILayerZeroEndpointUpgradeable)15266": {
        "encoding": "inplace",
        "label": "contract ILayerZeroEndpointUpgradeable",
        "numberOfBytes": "20"
      },
      "t_mapping(t_address,t_bool)": {
        "encoding": "mapping",
        "key": "t_address",
        "label": "mapping(address => bool)",
        "numberOfBytes": "32",
        "value": "t_bool"
      },
      "t_mapping(t_address,t_mapping(t_address,t_bool))": {
        "encoding": "mapping",
        "key": "t_address",
        "label": "mapping(address => mapping(address => bool))",
        "numberOfBytes": "32",
        "value": "t_mapping(t_address,t_bool)"
      },
      "t_mapping(t_address,t_mapping(t_uint256,t_uint256))": {
        "encoding": "mapping",
        "key": "t_address",
        "label": "mapping(address => mapping(uint256 => uint256))",
        "numberOfBytes": "32",
        "value": "t_mapping(t_uint256,t_uint256)"
      },
      "t_mapping(t_address,t_uint256)": {
        "encoding": "mapping",
        "key": "t_address",
        "label": "mapping(address => uint256)",
        "numberOfBytes": "32",
        "value": "t_uint256"
      },
      "t_mapping(t_bytes32,t_struct(RoleData)34_storage)": {
        "encoding": "mapping",
        "key": "t_bytes32",
        "label": "mapping(bytes32 => struct AccessControlUpgradeable.RoleData)",
        "numberOfBytes": "32",
        "value": "t_struct(RoleData)34_storage"
      },
      "t_mapping(t_bytes32,t_struct(StoredCredit)22601_storage)": {
        "encoding": "mapping",
        "key": "t_bytes32",
        "label": "mapping(bytes32 => struct ONFT721CoreUpgradeable.StoredCredit)",
        "numberOfBytes": "32",
        "value": "t_struct(StoredCredit)22601_storage"
      },
      "t_mapping(t_bytes_memory_ptr,t_mapping(t_uint64,t_bytes32))": {
        "encoding": "mapping",
        "key": "t_bytes_memory_ptr",
        "label": "mapping(bytes => mapping(uint64 => bytes32))",
        "numberOfBytes": "32",
        "value": "t_mapping(t_uint64,t_bytes32)"
      },
      "t_mapping(t_uint16,t_bytes_storage)": {
        "encoding": "mapping",
        "key": "t_uint16",
        "label": "mapping(uint16 => bytes)",
        "numberOfBytes": "32",
        "value": "t_bytes_storage"
      },
      "t_mapping(t_uint16,t_mapping(t_bytes_memory_ptr,t_mapping(t_uint64,t_bytes32)))": {
        "encoding": "mapping",
        "key": "t_uint16",
        "label": "mapping(uint16 => mapping(bytes => mapping(uint64 => bytes32)))",
        "numberOfBytes": "32",
        "value": "t_mapping(t_bytes_memory_ptr,t_mapping(t_uint64,t_bytes32))"
      },
      "t_mapping(t_uint16,t_mapping(t_uint16,t_uint256))": {
        "encoding": "mapping",
        "key": "t_uint16",
        "label": "mapping(uint16 => mapping(uint16 => uint256))",
        "numberOfBytes": "32",
        "value": "t_mapping(t_uint16,t_uint256)"
      },
      "t_mapping(t_uint16,t_uint256)": {
        "encoding": "mapping",
        "key": "t_uint16",
        "label": "mapping(uint16 => uint256)",
        "numberOfBytes": "32",
        "value": "t_uint256"
      },
      "t_mapping(t_uint256,t_address)": {
        "encoding": "mapping",
        "key": "t_uint256",
        "label": "mapping(uint256 => address)",
        "numberOfBytes": "32",
        "value": "t_address"
      },
      "t_mapping(t_uint256,t_struct(RoyaltyInfo)5025_storage)": {
        "encoding": "mapping",
        "key": "t_uint256",
        "label": "mapping(uint256 => struct ERC2981Upgradeable.RoyaltyInfo)",
        "numberOfBytes": "32",
        "value": "t_struct(RoyaltyInfo)5025_storage"
      },
      "t_mapping(t_uint256,t_uint256)": {
        "encoding": "mapping",
        "key": "t_uint256",
        "label": "mapping(uint256 => uint256)",
        "numberOfBytes": "32",
        "value": "t_uint256"
      },
      "t_mapping(t_uint64,t_bytes32)": {
        "encoding": "mapping",
        "key": "t_uint64",
        "label": "mapping(uint64 => bytes32)",
        "numberOfBytes": "32",
        "value": "t_bytes32"
      },
      "t_string_storage": {
        "encoding": "bytes",
        "label": "string",
        "numberOfBytes": "32"
      },
      "t_struct(RoleData)34_storage": {
        "encoding": "inplace",
        "label": "struct AccessControlUpgradeable.RoleData",
        "members": [
          {
            "astId": 31,
            "contract": "contracts/contracts-upgradable/token/onft/ERC721/extension/ExtendedONFT721Upgradeable.sol:ExtendedONFT721Upgradeable",
            "label": "members",
            "offset": 0,
            "slot": "0",
            "type": "t_mapping(t_address,t_bool)"
          },
          {
            "astId": 33,
            "contract": "contracts/contracts-upgradable/token/onft/ERC721/extension/ExtendedONFT721Upgradeable.sol:ExtendedONFT721Upgradeable",
            "label": "adminRole",
            "offset": 0,
            "slot": "1",
            "type": "t_bytes32"
          }
        ],
        "numberOfBytes": "64"
      },
      "t_struct(RoyaltyInfo)5025_storage": {
        "encoding": "inplace",
        "label": "struct ERC2981Upgradeable.RoyaltyInfo",
        "members": [
          {
            "astId": 5022,
            "contract": "contracts/contracts-upgradable/token/onft/ERC721/extension/ExtendedONFT721Upgradeable.sol:ExtendedONFT721Upgradeable",
            "label": "receiver",
            "offset": 0,
            "slot": "0",
            "type": "t_address"
          },
          {
            "astId": 5024,
            "contract": "contracts/contracts-upgradable/token/onft/ERC721/extension/ExtendedONFT721Upgradeable.sol:ExtendedONFT721Upgradeable",
            "label": "royaltyFraction",
            "offset": 20,
            "slot": "0",
            "type": "t_uint96"
          }
        ],
        "numberOfBytes": "32"
      },
      "t_struct(StoredCredit)22601_storage": {
        "encoding": "inplace",
        "label": "struct ONFT721CoreUpgradeable.StoredCredit",
        "members": [
          {
            "astId": 22594,
            "contract": "contracts/contracts-upgradable/token/onft/ERC721/extension/ExtendedONFT721Upgradeable.sol:ExtendedONFT721Upgradeable",
            "label": "srcChainId",
            "offset": 0,
            "slot": "0",
            "type": "t_uint16"
          },
          {
            "astId": 22596,
            "contract": "contracts/contracts-upgradable/token/onft/ERC721/extension/ExtendedONFT721Upgradeable.sol:ExtendedONFT721Upgradeable",
            "label": "toAddress",
            "offset": 2,
            "slot": "0",
            "type": "t_address"
          },
          {
            "astId": 22598,
            "contract": "contracts/contracts-upgradable/token/onft/ERC721/extension/ExtendedONFT721Upgradeable.sol:ExtendedONFT721Upgradeable",
            "label": "index",
            "offset": 0,
            "slot": "1",
            "type": "t_uint256"
          },
          {
            "astId": 22600,
            "contract": "contracts/contracts-upgradable/token/onft/ERC721/extension/ExtendedONFT721Upgradeable.sol:ExtendedONFT721Upgradeable",
            "label": "creditsRemain",
            "offset": 0,
            "slot": "2",
            "type": "t_bool"
          }
        ],
        "numberOfBytes": "96"
      },
      "t_uint16": {
        "encoding": "inplace",
        "label": "uint16",
        "numberOfBytes": "2"
      },
      "t_uint256": {
        "encoding": "inplace",
        "label": "uint256",
        "numberOfBytes": "32"
      },
      "t_uint64": {
        "encoding": "inplace",
        "label": "uint64",
        "numberOfBytes": "8"
      },
      "t_uint8": {
        "encoding": "inplace",
        "label": "uint8",
        "numberOfBytes": "1"
      },
      "t_uint96": {
        "encoding": "inplace",
        "label": "uint96",
        "numberOfBytes": "12"
      }
    }
  }
}