{
  "address": "0xDC2dc789ee5aD91Fb9f712d770Df1D67095584E2",
  "abi": [
    {
      "anonymous": false,
      "inputs": [
        {
          "indexed": true,
          "internalType": "address",
          "name": "owner",
          "type": "address"
        },
        {
          "indexed": true,
          "internalType": "address",
          "name": "spender",
          "type": "address"
        },
        {
          "indexed": false,
          "internalType": "uint256",
          "name": "value",
          "type": "uint256"
        }
      ],
      "name": "Approval",
      "type": "event"
    },
    {
      "anonymous": false,
      "inputs": [
        {
          "indexed": true,
          "internalType": "uint16",
          "name": "_srcChainId",
          "type": "uint16"
        },
        {
          "indexed": false,
          "internalType": "bytes",
          "name": "_srcAddress",
          "type": "bytes"
        },
        {
          "indexed": false,
          "internalType": "uint64",
          "name": "_nonce",
          "type": "uint64"
        },
        {
          "indexed": false,
          "internalType": "bytes32",
          "name": "_hash",
          "type": "bytes32"
        }
      ],
      "name": "CallOFTReceivedSuccess",
      "type": "event"
    },
    {
      "anonymous": false,
      "inputs": [
        {
          "indexed": true,
          "internalType": "address",
          "name": "_dst",
          "type": "address"
        },
        {
          "indexed": false,
          "internalType": "uint256",
          "name": "_amount",
          "type": "uint256"
        }
      ],
      "name": "Deposit",
      "type": "event"
    },
    {
      "anonymous": false,
      "inputs": [
        {
          "indexed": false,
          "internalType": "uint8",
          "name": "version",
          "type": "uint8"
        }
      ],
      "name": "Initialized",
      "type": "event"
    },
    {
      "anonymous": false,
      "inputs": [
        {
          "indexed": false,
          "internalType": "uint16",
          "name": "_srcChainId",
          "type": "uint16"
        },
        {
          "indexed": false,
          "internalType": "bytes",
          "name": "_srcAddress",
          "type": "bytes"
        },
        {
          "indexed": false,
          "internalType": "uint64",
          "name": "_nonce",
          "type": "uint64"
        },
        {
          "indexed": false,
          "internalType": "bytes",
          "name": "_payload",
          "type": "bytes"
        },
        {
          "indexed": false,
          "internalType": "bytes",
          "name": "_reason",
          "type": "bytes"
        }
      ],
      "name": "MessageFailed",
      "type": "event"
    },
    {
      "anonymous": false,
      "inputs": [
        {
          "indexed": false,
          "internalType": "address",
          "name": "_address",
          "type": "address"
        }
      ],
      "name": "NonContractAddress",
      "type": "event"
    },
    {
      "anonymous": false,
      "inputs": [
        {
          "indexed": true,
          "internalType": "address",
          "name": "previousOwner",
          "type": "address"
        },
        {
          "indexed": true,
          "internalType": "address",
          "name": "newOwner",
          "type": "address"
        }
      ],
      "name": "OwnershipTransferred",
      "type": "event"
    },
    {
      "anonymous": false,
      "inputs": [
        {
          "indexed": true,
          "internalType": "uint16",
          "name": "_srcChainId",
          "type": "uint16"
        },
        {
          "indexed": true,
          "internalType": "address",
          "name": "_to",
          "type": "address"
        },
        {
          "indexed": false,
          "internalType": "uint256",
          "name": "_amount",
          "type": "uint256"
        }
      ],
      "name": "ReceiveFromChain",
      "type": "event"
    },
    {
      "anonymous": false,
      "inputs": [
        {
          "indexed": false,
          "internalType": "uint16",
          "name": "_srcChainId",
          "type": "uint16"
        },
        {
          "indexed": false,
          "internalType": "bytes",
          "name": "_srcAddress",
          "type": "bytes"
        },
        {
          "indexed": false,
          "internalType": "uint64",
          "name": "_nonce",
          "type": "uint64"
        },
        {
          "indexed": false,
          "internalType": "bytes32",
          "name": "_payloadHash",
          "type": "bytes32"
        }
      ],
      "name": "RetryMessageSuccess",
      "type": "event"
    },
    {
      "anonymous": false,
      "inputs": [
        {
          "indexed": true,
          "internalType": "uint16",
          "name": "_dstChainId",
          "type": "uint16"
        },
        {
          "indexed": true,
          "internalType": "address",
          "name": "_from",
          "type": "address"
        },
        {
          "indexed": true,
          "internalType": "bytes32",
          "name": "_toAddress",
          "type": "bytes32"
        },
        {
          "indexed": false,
          "internalType": "uint256",
          "name": "_amount",
          "type": "uint256"
        }
      ],
      "name": "SendToChain",
      "type": "event"
    },
    {
      "anonymous": false,
      "inputs": [
        {
          "indexed": false,
          "internalType": "uint16",
          "name": "feeBp",
          "type": "uint16"
        }
      ],
      "name": "SetDefaultFeeBp",
      "type": "event"
    },
    {
      "anonymous": false,
      "inputs": [
        {
          "indexed": false,
          "internalType": "uint16",
          "name": "dstchainId",
          "type": "uint16"
        },
        {
          "indexed": false,
          "internalType": "bool",
          "name": "enabled",
          "type": "bool"
        },
        {
          "indexed": false,
          "internalType": "uint16",
          "name": "feeBp",
          "type": "uint16"
        }
      ],
      "name": "SetFeeBp",
      "type": "event"
    },
    {
      "anonymous": false,
      "inputs": [
        {
          "indexed": false,
          "internalType": "address",
          "name": "feeOwner",
          "type": "address"
        }
      ],
      "name": "SetFeeOwner",
      "type": "event"
    },
    {
      "anonymous": false,
      "inputs": [
        {
          "indexed": false,
          "internalType": "uint16",
          "name": "_dstChainId",
          "type": "uint16"
        },
        {
          "indexed": false,
          "internalType": "uint16",
          "name": "_type",
          "type": "uint16"
        },
        {
          "indexed": false,
          "internalType": "uint256",
          "name": "_minDstGas",
          "type": "uint256"
        }
      ],
      "name": "SetMinDstGas",
      "type": "event"
    },
    {
      "anonymous": false,
      "inputs": [
        {
          "indexed": false,
          "internalType": "address",
          "name": "precrime",
          "type": "address"
        }
      ],
      "name": "SetPrecrime",
      "type": "event"
    },
    {
      "anonymous": false,
      "inputs": [
        {
          "indexed": false,
          "internalType": "uint16",
          "name": "_remoteChainId",
          "type": "uint16"
        },
        {
          "indexed": false,
          "internalType": "bytes",
          "name": "_path",
          "type": "bytes"
        }
      ],
      "name": "SetTrustedRemote",
      "type": "event"
    },
    {
      "anonymous": false,
      "inputs": [
        {
          "indexed": false,
          "internalType": "uint16",
          "name": "_remoteChainId",
          "type": "uint16"
        },
        {
          "indexed": false,
          "internalType": "bytes",
          "name": "_remoteAddress",
          "type": "bytes"
        }
      ],
      "name": "SetTrustedRemoteAddress",
      "type": "event"
    },
    {
      "anonymous": false,
      "inputs": [
        {
          "indexed": false,
          "internalType": "bool",
          "name": "_useCustomAdapterParams",
          "type": "bool"
        }
      ],
      "name": "SetUseCustomAdapterParams",
      "type": "event"
    },
    {
      "anonymous": false,
      "inputs": [
        {
          "indexed": true,
          "internalType": "address",
          "name": "from",
          "type": "address"
        },
        {
          "indexed": true,
          "internalType": "address",
          "name": "to",
          "type": "address"
        },
        {
          "indexed": false,
          "internalType": "uint256",
          "name": "value",
          "type": "uint256"
        }
      ],
      "name": "Transfer",
      "type": "event"
    },
    {
      "anonymous": false,
      "inputs": [
        {
          "indexed": true,
          "internalType": "address",
          "name": "_src",
          "type": "address"
        },
        {
          "indexed": false,
          "internalType": "uint256",
          "name": "_amount",
          "type": "uint256"
        }
      ],
      "name": "Withdrawal",
      "type": "event"
    },
    {
      "inputs": [],
      "name": "BP_DENOMINATOR",
      "outputs": [
        {
          "internalType": "uint256",
          "name": "",
          "type": "uint256"
        }
      ],
      "stateMutability": "view",
      "type": "function"
    },
    {
      "inputs": [],
      "name": "DEFAULT_PAYLOAD_SIZE_LIMIT",
      "outputs": [
        {
          "internalType": "uint256",
          "name": "",
          "type": "uint256"
        }
      ],
      "stateMutability": "view",
      "type": "function"
    },
    {
      "inputs": [],
      "name": "NO_EXTRA_GAS",
      "outputs": [
        {
          "internalType": "uint256",
          "name": "",
          "type": "uint256"
        }
      ],
      "stateMutability": "view",
      "type": "function"
    },
    {
      "inputs": [],
      "name": "PT_SEND",
      "outputs": [
        {
          "internalType": "uint8",
          "name": "",
          "type": "uint8"
        }
      ],
      "stateMutability": "view",
      "type": "function"
    },
    {
      "inputs": [],
      "name": "PT_SEND_AND_CALL",
      "outputs": [
        {
          "internalType": "uint8",
          "name": "",
          "type": "uint8"
        }
      ],
      "stateMutability": "view",
      "type": "function"
    },
    {
      "inputs": [
        {
          "internalType": "address",
          "name": "owner",
          "type": "address"
        },
        {
          "internalType": "address",
          "name": "spender",
          "type": "address"
        }
      ],
      "name": "allowance",
      "outputs": [
        {
          "internalType": "uint256",
          "name": "",
          "type": "uint256"
        }
      ],
      "stateMutability": "view",
      "type": "function"
    },
    {
      "inputs": [
        {
          "internalType": "address",
          "name": "spender",
          "type": "address"
        },
        {
          "internalType": "uint256",
          "name": "amount",
          "type": "uint256"
        }
      ],
      "name": "approve",
      "outputs": [
        {
          "internalType": "bool",
          "name": "",
          "type": "bool"
        }
      ],
      "stateMutability": "nonpayable",
      "type": "function"
    },
    {
      "inputs": [
        {
          "internalType": "address",
          "name": "account",
          "type": "address"
        }
      ],
      "name": "balanceOf",
      "outputs": [
        {
          "internalType": "uint256",
          "name": "",
          "type": "uint256"
        }
      ],
      "stateMutability": "view",
      "type": "function"
    },
    {
      "inputs": [
        {
          "internalType": "uint16",
          "name": "_srcChainId",
          "type": "uint16"
        },
        {
          "internalType": "bytes",
          "name": "_srcAddress",
          "type": "bytes"
        },
        {
          "internalType": "uint64",
          "name": "_nonce",
          "type": "uint64"
        },
        {
          "internalType": "bytes32",
          "name": "_from",
          "type": "bytes32"
        },
        {
          "internalType": "address",
          "name": "_to",
          "type": "address"
        },
        {
          "internalType": "uint256",
          "name": "_amount",
          "type": "uint256"
        },
        {
          "internalType": "bytes",
          "name": "_payload",
          "type": "bytes"
        },
        {
          "internalType": "uint256",
          "name": "_gasForCall",
          "type": "uint256"
        }
      ],
      "name": "callOnOFTReceived",
      "outputs": [],
      "stateMutability": "nonpayable",
      "type": "function"
    },
    {
      "inputs": [
        {
          "internalType": "uint16",
          "name": "",
          "type": "uint16"
        }
      ],
      "name": "chainIdToFeeBps",
      "outputs": [
        {
          "internalType": "uint16",
          "name": "feeBP",
          "type": "uint16"
        },
        {
          "internalType": "bool",
          "name": "enabled",
          "type": "bool"
        }
      ],
      "stateMutability": "view",
      "type": "function"
    },
    {
      "inputs": [],
      "name": "circulatingSupply",
      "outputs": [
        {
          "internalType": "uint256",
          "name": "",
          "type": "uint256"
        }
      ],
      "stateMutability": "view",
      "type": "function"
    },
    {
      "inputs": [
        {
          "internalType": "uint16",
          "name": "",
          "type": "uint16"
        },
        {
          "internalType": "bytes",
          "name": "",
          "type": "bytes"
        },
        {
          "internalType": "uint64",
          "name": "",
          "type": "uint64"
        }
      ],
      "name": "creditedPackets",
      "outputs": [
        {
          "internalType": "bool",
          "name": "",
          "type": "bool"
        }
      ],
      "stateMutability": "view",
      "type": "function"
    },
    {
      "inputs": [],
      "name": "decimals",
      "outputs": [
        {
          "internalType": "uint8",
          "name": "",
          "type": "uint8"
        }
      ],
      "stateMutability": "view",
      "type": "function"
    },
    {
      "inputs": [
        {
          "internalType": "address",
          "name": "spender",
          "type": "address"
        },
        {
          "internalType": "uint256",
          "name": "subtractedValue",
          "type": "uint256"
        }
      ],
      "name": "decreaseAllowance",
      "outputs": [
        {
          "internalType": "bool",
          "name": "",
          "type": "bool"
        }
      ],
      "stateMutability": "nonpayable",
      "type": "function"
    },
    {
      "inputs": [],
      "name": "defaultFeeBp",
      "outputs": [
        {
          "internalType": "uint16",
          "name": "",
          "type": "uint16"
        }
      ],
      "stateMutability": "view",
      "type": "function"
    },
    {
      "inputs": [],
      "name": "deposit",
      "outputs": [],
      "stateMutability": "payable",
      "type": "function"
    },
    {
      "inputs": [],
      "name": "disable",
      "outputs": [],
      "stateMutability": "nonpayable",
      "type": "function"
    },
    {
      "inputs": [
        {
          "internalType": "uint16",
          "name": "_dstChainId",
          "type": "uint16"
        },
        {
          "internalType": "bytes32",
          "name": "_toAddress",
          "type": "bytes32"
        },
        {
          "internalType": "uint256",
          "name": "_amount",
          "type": "uint256"
        },
        {
          "internalType": "bytes",
          "name": "_payload",
          "type": "bytes"
        },
        {
          "internalType": "uint64",
          "name": "_dstGasForCall",
          "type": "uint64"
        },
        {
          "internalType": "bool",
          "name": "_useZro",
          "type": "bool"
        },
        {
          "internalType": "bytes",
          "name": "_adapterParams",
          "type": "bytes"
        }
      ],
      "name": "estimateSendAndCallFee",
      "outputs": [
        {
          "internalType": "uint256",
          "name": "nativeFee",
          "type": "uint256"
        },
        {
          "internalType": "uint256",
          "name": "zroFee",
          "type": "uint256"
        }
      ],
      "stateMutability": "view",
      "type": "function"
    },
    {
      "inputs": [
        {
          "internalType": "uint16",
          "name": "_dstChainId",
          "type": "uint16"
        },
        {
          "internalType": "bytes32",
          "name": "_toAddress",
          "type": "bytes32"
        },
        {
          "internalType": "uint256",
          "name": "_amount",
          "type": "uint256"
        },
        {
          "internalType": "bool",
          "name": "_useZro",
          "type": "bool"
        },
        {
          "internalType": "bytes",
          "name": "_adapterParams",
          "type": "bytes"
        }
      ],
      "name": "estimateSendFee",
      "outputs": [
        {
          "internalType": "uint256",
          "name": "nativeFee",
          "type": "uint256"
        },
        {
          "internalType": "uint256",
          "name": "zroFee",
          "type": "uint256"
        }
      ],
      "stateMutability": "view",
      "type": "function"
    },
    {
      "inputs": [
        {
          "internalType": "uint16",
          "name": "",
          "type": "uint16"
        },
        {
          "internalType": "bytes",
          "name": "",
          "type": "bytes"
        },
        {
          "internalType": "uint64",
          "name": "",
          "type": "uint64"
        }
      ],
      "name": "failedMessages",
      "outputs": [
        {
          "internalType": "bytes32",
          "name": "",
          "type": "bytes32"
        }
      ],
      "stateMutability": "view",
      "type": "function"
    },
    {
      "inputs": [],
      "name": "feeOwner",
      "outputs": [
        {
          "internalType": "address",
          "name": "",
          "type": "address"
        }
      ],
      "stateMutability": "view",
      "type": "function"
    },
    {
      "inputs": [
        {
          "internalType": "uint16",
          "name": "_srcChainId",
          "type": "uint16"
        },
        {
          "internalType": "bytes",
          "name": "_srcAddress",
          "type": "bytes"
        }
      ],
      "name": "forceResumeReceive",
      "outputs": [],
      "stateMutability": "nonpayable",
      "type": "function"
    },
    {
      "inputs": [
        {
          "internalType": "uint16",
          "name": "_version",
          "type": "uint16"
        },
        {
          "internalType": "uint16",
          "name": "_chainId",
          "type": "uint16"
        },
        {
          "internalType": "address",
          "name": "",
          "type": "address"
        },
        {
          "internalType": "uint256",
          "name": "_configType",
          "type": "uint256"
        }
      ],
      "name": "getConfig",
      "outputs": [
        {
          "internalType": "bytes",
          "name": "",
          "type": "bytes"
        }
      ],
      "stateMutability": "view",
      "type": "function"
    },
    {
      "inputs": [
        {
          "internalType": "uint16",
          "name": "_remoteChainId",
          "type": "uint16"
        }
      ],
      "name": "getTrustedRemoteAddress",
      "outputs": [
        {
          "internalType": "bytes",
          "name": "",
          "type": "bytes"
        }
      ],
      "stateMutability": "view",
      "type": "function"
    },
    {
      "inputs": [
        {
          "internalType": "address",
          "name": "spender",
          "type": "address"
        },
        {
          "internalType": "uint256",
          "name": "addedValue",
          "type": "uint256"
        }
      ],
      "name": "increaseAllowance",
      "outputs": [
        {
          "internalType": "bool",
          "name": "",
          "type": "bool"
        }
      ],
      "stateMutability": "nonpayable",
      "type": "function"
    },
    {
      "inputs": [
        {
          "internalType": "string",
          "name": "_name",
          "type": "string"
        },
        {
          "internalType": "string",
          "name": "_symbol",
          "type": "string"
        },
        {
          "internalType": "uint8",
          "name": "_sharedDecimals",
          "type": "uint8"
        },
        {
          "internalType": "address",
          "name": "_lzEndpoint",
          "type": "address"
        }
      ],
      "name": "initialize",
      "outputs": [],
      "stateMutability": "nonpayable",
      "type": "function"
    },
    {
      "inputs": [
        {
          "internalType": "uint16",
          "name": "_srcChainId",
          "type": "uint16"
        },
        {
          "internalType": "bytes",
          "name": "_srcAddress",
          "type": "bytes"
        }
      ],
      "name": "isTrustedRemote",
      "outputs": [
        {
          "internalType": "bool",
          "name": "",
          "type": "bool"
        }
      ],
      "stateMutability": "view",
      "type": "function"
    },
    {
      "inputs": [],
      "name": "lzEndpoint",
      "outputs": [
        {
          "internalType": "contract ILayerZeroEndpointUpgradeable",
          "name": "",
          "type": "address"
        }
      ],
      "stateMutability": "view",
      "type": "function"
    },
    {
      "inputs": [
        {
          "internalType": "uint16",
          "name": "_srcChainId",
          "type": "uint16"
        },
        {
          "internalType": "bytes",
          "name": "_srcAddress",
          "type": "bytes"
        },
        {
          "internalType": "uint64",
          "name": "_nonce",
          "type": "uint64"
        },
        {
          "internalType": "bytes",
          "name": "_payload",
          "type": "bytes"
        }
      ],
      "name": "lzReceive",
      "outputs": [],
      "stateMutability": "nonpayable",
      "type": "function"
    },
    {
      "inputs": [
        {
          "internalType": "uint16",
          "name": "",
          "type": "uint16"
        },
        {
          "internalType": "uint16",
          "name": "",
          "type": "uint16"
        }
      ],
      "name": "minDstGasLookup",
      "outputs": [
        {
          "internalType": "uint256",
          "name": "",
          "type": "uint256"
        }
      ],
      "stateMutability": "view",
      "type": "function"
    },
    {
      "inputs": [],
      "name": "name",
      "outputs": [
        {
          "internalType": "string",
          "name": "",
          "type": "string"
        }
      ],
      "stateMutability": "view",
      "type": "function"
    },
    {
      "inputs": [
        {
          "internalType": "uint16",
          "name": "_srcChainId",
          "type": "uint16"
        },
        {
          "internalType": "bytes",
          "name": "_srcAddress",
          "type": "bytes"
        },
        {
          "internalType": "uint64",
          "name": "_nonce",
          "type": "uint64"
        },
        {
          "internalType": "bytes",
          "name": "_payload",
          "type": "bytes"
        }
      ],
      "name": "nonblockingLzReceive",
      "outputs": [],
      "stateMutability": "nonpayable",
      "type": "function"
    },
    {
      "inputs": [],
      "name": "owner",
      "outputs": [
        {
          "internalType": "address",
          "name": "",
          "type": "address"
        }
      ],
      "stateMutability": "view",
      "type": "function"
    },
    {
      "inputs": [
        {
          "internalType": "uint16",
          "name": "",
          "type": "uint16"
        }
      ],
      "name": "payloadSizeLimitLookup",
      "outputs": [
        {
          "internalType": "uint256",
          "name": "",
          "type": "uint256"
        }
      ],
      "stateMutability": "view",
      "type": "function"
    },
    {
      "inputs": [],
      "name": "precrime",
      "outputs": [
        {
          "internalType": "address",
          "name": "",
          "type": "address"
        }
      ],
      "stateMutability": "view",
      "type": "function"
    },
    {
      "inputs": [
        {
          "internalType": "uint16",
          "name": "_dstChainId",
          "type": "uint16"
        },
        {
          "internalType": "uint256",
          "name": "_amount",
          "type": "uint256"
        }
      ],
      "name": "quoteOFTFee",
      "outputs": [
        {
          "internalType": "uint256",
          "name": "fee",
          "type": "uint256"
        }
      ],
      "stateMutability": "view",
      "type": "function"
    },
    {
      "inputs": [],
      "name": "renounceOwnership",
      "outputs": [],
      "stateMutability": "nonpayable",
      "type": "function"
    },
    {
      "inputs": [
        {
          "internalType": "uint16",
          "name": "_srcChainId",
          "type": "uint16"
        },
        {
          "internalType": "bytes",
          "name": "_srcAddress",
          "type": "bytes"
        },
        {
          "internalType": "uint64",
          "name": "_nonce",
          "type": "uint64"
        },
        {
          "internalType": "bytes",
          "name": "_payload",
          "type": "bytes"
        }
      ],
      "name": "retryMessage",
      "outputs": [],
      "stateMutability": "payable",
      "type": "function"
    },
    {
      "inputs": [
        {
          "internalType": "address",
          "name": "_from",
          "type": "address"
        },
        {
          "internalType": "uint16",
          "name": "_dstChainId",
          "type": "uint16"
        },
        {
          "internalType": "bytes32",
          "name": "_toAddress",
          "type": "bytes32"
        },
        {
          "internalType": "uint256",
          "name": "_amount",
          "type": "uint256"
        },
        {
          "internalType": "uint256",
          "name": "_minAmount",
          "type": "uint256"
        },
        {
          "internalType": "bytes",
          "name": "_payload",
          "type": "bytes"
        },
        {
          "internalType": "uint64",
          "name": "_dstGasForCall",
          "type": "uint64"
        },
        {
          "components": [
            {
              "internalType": "address payable",
              "name": "refundAddress",
              "type": "address"
            },
            {
              "internalType": "address",
              "name": "zroPaymentAddress",
              "type": "address"
            },
            {
              "internalType": "bytes",
              "name": "adapterParams",
              "type": "bytes"
            }
          ],
          "internalType": "struct ICommonOFTUpgradeable.LzCallParams",
          "name": "_callParams",
          "type": "tuple"
        }
      ],
      "name": "sendAndCall",
      "outputs": [],
      "stateMutability": "payable",
      "type": "function"
    },
    {
      "inputs": [
        {
          "internalType": "address",
          "name": "_from",
          "type": "address"
        },
        {
          "internalType": "uint16",
          "name": "_dstChainId",
          "type": "uint16"
        },
        {
          "internalType": "bytes32",
          "name": "_toAddress",
          "type": "bytes32"
        },
        {
          "internalType": "uint256",
          "name": "_amount",
          "type": "uint256"
        },
        {
          "internalType": "uint256",
          "name": "_minAmount",
          "type": "uint256"
        },
        {
          "components": [
            {
              "internalType": "address payable",
              "name": "refundAddress",
              "type": "address"
            },
            {
              "internalType": "address",
              "name": "zroPaymentAddress",
              "type": "address"
            },
            {
              "internalType": "bytes",
              "name": "adapterParams",
              "type": "bytes"
            }
          ],
          "internalType": "struct ICommonOFTUpgradeable.LzCallParams",
          "name": "_callParams",
          "type": "tuple"
        }
      ],
      "name": "sendFrom",
      "outputs": [],
      "stateMutability": "payable",
      "type": "function"
    },
    {
      "inputs": [
        {
          "internalType": "uint16",
          "name": "_version",
          "type": "uint16"
        },
        {
          "internalType": "uint16",
          "name": "_chainId",
          "type": "uint16"
        },
        {
          "internalType": "uint256",
          "name": "_configType",
          "type": "uint256"
        },
        {
          "internalType": "bytes",
          "name": "_config",
          "type": "bytes"
        }
      ],
      "name": "setConfig",
      "outputs": [],
      "stateMutability": "nonpayable",
      "type": "function"
    },
    {
      "inputs": [
        {
          "internalType": "uint16",
          "name": "_feeBp",
          "type": "uint16"
        }
      ],
      "name": "setDefaultFeeBp",
      "outputs": [],
      "stateMutability": "nonpayable",
      "type": "function"
    },
    {
      "inputs": [
        {
          "internalType": "uint16",
          "name": "_dstChainId",
          "type": "uint16"
        },
        {
          "internalType": "bool",
          "name": "_enabled",
          "type": "bool"
        },
        {
          "internalType": "uint16",
          "name": "_feeBp",
          "type": "uint16"
        }
      ],
      "name": "setFeeBp",
      "outputs": [],
      "stateMutability": "nonpayable",
      "type": "function"
    },
    {
      "inputs": [
        {
          "internalType": "address",
          "name": "_feeOwner",
          "type": "address"
        }
      ],
      "name": "setFeeOwner",
      "outputs": [],
      "stateMutability": "nonpayable",
      "type": "function"
    },
    {
      "inputs": [
        {
          "internalType": "uint16",
          "name": "_dstChainId",
          "type": "uint16"
        },
        {
          "internalType": "uint16",
          "name": "_packetType",
          "type": "uint16"
        },
        {
          "internalType": "uint256",
          "name": "_minGas",
          "type": "uint256"
        }
      ],
      "name": "setMinDstGas",
      "outputs": [],
      "stateMutability": "nonpayable",
      "type": "function"
    },
    {
      "inputs": [
        {
          "internalType": "uint16",
          "name": "_dstChainId",
          "type": "uint16"
        },
        {
          "internalType": "uint256",
          "name": "_size",
          "type": "uint256"
        }
      ],
      "name": "setPayloadSizeLimit",
      "outputs": [],
      "stateMutability": "nonpayable",
      "type": "function"
    },
    {
      "inputs": [
        {
          "internalType": "address",
          "name": "_precrime",
          "type": "address"
        }
      ],
      "name": "setPrecrime",
      "outputs": [],
      "stateMutability": "nonpayable",
      "type": "function"
    },
    {
      "inputs": [
        {
          "internalType": "uint16",
          "name": "_version",
          "type": "uint16"
        }
      ],
      "name": "setReceiveVersion",
      "outputs": [],
      "stateMutability": "nonpayable",
      "type": "function"
    },
    {
      "inputs": [
        {
          "internalType": "uint16",
          "name": "_version",
          "type": "uint16"
        }
      ],
      "name": "setSendVersion",
      "outputs": [],
      "stateMutability": "nonpayable",
      "type": "function"
    },
    {
      "inputs": [
        {
          "internalType": "uint16",
          "name": "_srcChainId",
          "type": "uint16"
        },
        {
          "internalType": "bytes",
          "name": "_path",
          "type": "bytes"
        }
      ],
      "name": "setTrustedRemote",
      "outputs": [],
      "stateMutability": "nonpayable",
      "type": "function"
    },
    {
      "inputs": [
        {
          "internalType": "uint16",
          "name": "_remoteChainId",
          "type": "uint16"
        },
        {
          "internalType": "bytes",
          "name": "_remoteAddress",
          "type": "bytes"
        }
      ],
      "name": "setTrustedRemoteAddress",
      "outputs": [],
      "stateMutability": "nonpayable",
      "type": "function"
    },
    {
      "inputs": [
        {
          "internalType": "bool",
          "name": "_useCustomAdapterParams",
          "type": "bool"
        }
      ],
      "name": "setUseCustomAdapterParams",
      "outputs": [],
      "stateMutability": "nonpayable",
      "type": "function"
    },
    {
      "inputs": [],
      "name": "sharedDecimals",
      "outputs": [
        {
          "internalType": "uint8",
          "name": "",
          "type": "uint8"
        }
      ],
      "stateMutability": "view",
      "type": "function"
    },
    {
      "inputs": [
        {
          "internalType": "bytes4",
          "name": "interfaceId",
          "type": "bytes4"
        }
      ],
      "name": "supportsInterface",
      "outputs": [
        {
          "internalType": "bool",
          "name": "",
          "type": "bool"
        }
      ],
      "stateMutability": "view",
      "type": "function"
    },
    {
      "inputs": [],
      "name": "symbol",
      "outputs": [
        {
          "internalType": "string",
          "name": "",
          "type": "string"
        }
      ],
      "stateMutability": "view",
      "type": "function"
    },
    {
      "inputs": [],
      "name": "token",
      "outputs": [
        {
          "internalType": "address",
          "name": "",
          "type": "address"
        }
      ],
      "stateMutability": "view",
      "type": "function"
    },
    {
      "inputs": [],
      "name": "totalSupply",
      "outputs": [
        {
          "internalType": "uint256",
          "name": "",
          "type": "uint256"
        }
      ],
      "stateMutability": "view",
      "type": "function"
    },
    {
      "inputs": [
        {
          "internalType": "address",
          "name": "to",
          "type": "address"
        },
        {
          "internalType": "uint256",
          "name": "amount",
          "type": "uint256"
        }
      ],
      "name": "transfer",
      "outputs": [
        {
          "internalType": "bool",
          "name": "",
          "type": "bool"
        }
      ],
      "stateMutability": "nonpayable",
      "type": "function"
    },
    {
      "inputs": [
        {
          "internalType": "address",
          "name": "from",
          "type": "address"
        },
        {
          "internalType": "address",
          "name": "to",
          "type": "address"
        },
        {
          "internalType": "uint256",
          "name": "amount",
          "type": "uint256"
        }
      ],
      "name": "transferFrom",
      "outputs": [
        {
          "internalType": "bool",
          "name": "",
          "type": "bool"
        }
      ],
      "stateMutability": "nonpayable",
      "type": "function"
    },
    {
      "inputs": [
        {
          "internalType": "address",
          "name": "newOwner",
          "type": "address"
        }
      ],
      "name": "transferOwnership",
      "outputs": [],
      "stateMutability": "nonpayable",
      "type": "function"
    },
    {
      "inputs": [
        {
          "internalType": "uint16",
          "name": "",
          "type": "uint16"
        }
      ],
      "name": "trustedRemoteLookup",
      "outputs": [
        {
          "internalType": "bytes",
          "name": "",
          "type": "bytes"
        }
      ],
      "stateMutability": "view",
      "type": "function"
    },
    {
      "inputs": [],
      "name": "useCustomAdapterParams",
      "outputs": [
        {
          "internalType": "bool",
          "name": "",
          "type": "bool"
        }
      ],
      "stateMutability": "view",
      "type": "function"
    },
    {
      "inputs": [
        {
          "internalType": "uint256",
          "name": "_amount",
          "type": "uint256"
        }
      ],
      "name": "withdraw",
      "outputs": [],
      "stateMutability": "nonpayable",
      "type": "function"
    },
    {
      "stateMutability": "payable",
      "type": "receive"
    }
  ],
  "transactionHash": "0xe426d0c3d4973ed095583c034294ec0bb791a624d4002c920cf97c981bd6edee",
  "args": [],
  "numDeployments": 3,
  "solcInputHash": "c60b6983f8143bff4b4b66b88a0059c2",
  "bytecode": "0x60806040523480156200001157600080fd5b506200001c62000022565b620000e3565b600054610100900460ff16156200008f5760405162461bcd60e51b815260206004820152602760248201527f496e697469616c697a61626c653a20636f6e747261637420697320696e697469604482015266616c697a696e6760c81b606482015260840160405180910390fd5b60005460ff90811614620000e1576000805460ff191660ff9081179091556040519081527f7f26b83ff96e1f2b6a682f133852f6798a09c465da95921460cefb38474024989060200160405180910390a15b565b6148ed80620000f36000396000f3fe6080604052600436106103bb5760003560e01c80638da5cb5b116101f2578063cbed8b9c1161010d578063eab45d9c116100a0578063ed629c5c1161006f578063ed629c5c14610bb3578063f2fde38b14610bd2578063f5ecbdbc14610bf2578063fc0c546a14610c1257600080fd5b8063eab45d9c14610b33578063eaffd49a14610b53578063eb8d72b714610b73578063ecd8f21214610b9357600080fd5b8063dd62ed3e116100dc578063dd62ed3e14610abe578063de7ea79d14610ade578063df2a5b3b14610afe578063e6a20ae614610b1e57600080fd5b8063cbed8b9c14610a55578063d0e30db014610a75578063d1deba1f14610a7d578063d888296814610a9057600080fd5b8063a6c3d16511610185578063b9818be111610154578063b9818be1146109b9578063baf3292d146109df578063c446183414610983578063c83330ce146109ff57600080fd5b8063a6c3d16514610943578063a9059cbb14610963578063abe685cd14610983578063b353aaa71461099957600080fd5b80639bdb9812116101c15780639bdb9812146108915780639f38369a146108e3578063a457c2d714610903578063a4c51df51461092357600080fd5b80638da5cb5b146108155780639358928b14610847578063950c8a741461085c57806395d89b411461087c57600080fd5b80633d8b38f6116102e25780635b8c41e6116102755780637533d788116102445780637533d7881461078357806379c0ad4b146107a3578063857749b0146107c35780638cfd8f5c146107dd57600080fd5b80635b8c41e6146106c857806366ad5c8a1461071757806370a0823114610737578063715018a61461076e57600080fd5b8063455ba27d116102b1578063455ba27d146106605780634b104eff146106735780634c42899a146106935780635a359dc5146106a857600080fd5b80633d8b38f6146105de5780633f1f4fa4146105fe57806342d65a8d1461062b578063447705151461064b57600080fd5b806318160ddd1161035a5780632f2770db116103295780632f2770db14610552578063313ce56714610567578063365260b41461058957806339509351146105be57600080fd5b806318160ddd146104df57806323b872dd146104ff5780632cdf0b951461051f5780632e1a7d4d1461053257600080fd5b806307e0db171161039657806307e0db171461045f578063095ea7b31461047f5780630df374831461049f57806310ddb137146104bf57600080fd5b80621d3567146103e657806301ffc9a71461040857806306fdde031461043d57600080fd5b366103e15760405162461bcd60e51b81526004016103d890613656565b60405180910390fd5b600080fd5b3480156103f257600080fd5b506104066104013660046136ee565b610c25565b005b34801561041457600080fd5b50610428610423366004613781565b610e3c565b60405190151581526020015b60405180910390f35b34801561044957600080fd5b50610452610e73565b60405161043491906137fb565b34801561046b57600080fd5b5061040661047a36600461380e565b610f06565b34801561048b57600080fd5b5061042861049a36600461383e565b610f73565b3480156104ab57600080fd5b506104066104ba36600461386a565b610f8b565b3480156104cb57600080fd5b506104066104da36600461380e565b610faa565b3480156104eb57600080fd5b5061018c545b604051908152602001610434565b34801561050b57600080fd5b5061042861051a366004613886565b610fe6565b61040661052d3660046138df565b61100a565b34801561053e57600080fd5b5061040661054d36600461395a565b6110ad565b34801561055e57600080fd5b506104066110d0565b34801561057357600080fd5b5060125b60405160ff9091168152602001610434565b34801561059557600080fd5b506105a96105a4366004613983565b611296565b60408051928352602083019190915201610434565b3480156105ca57600080fd5b506104286105d936600461383e565b6112eb565b3480156105ea57600080fd5b506104286105f93660046139e8565b61130d565b34801561060a57600080fd5b506104f161061936600461380e565b60686020526000908152604090205481565b34801561063757600080fd5b506104066106463660046139e8565b6113d9565b34801561065757600080fd5b506104f1600081565b61040661066e366004613a3a565b611443565b34801561067f57600080fd5b5061040661068e366004613af6565b6114ea565b34801561069f57600080fd5b50610577600081565b3480156106b457600080fd5b506104066106c336600461380e565b6115a7565b3480156106d457600080fd5b506104f16106e3366004613bbe565b6097602090815260009384526040808520845180860184018051928152908401958401959095209452929052825290205481565b34801561072357600080fd5b506104066107323660046136ee565b611619565b34801561074357600080fd5b506104f1610752366004613af6565b6001600160a01b0316600090815261018a602052604090205490565b34801561077a57600080fd5b506104066116ed565b34801561078f57600080fd5b5061045261079e36600461380e565b611701565b3480156107af57600080fd5b506104066107be366004613c2f565b61179b565b3480156107cf57600080fd5b5060c9546105779060ff1681565b3480156107e957600080fd5b506104f16107f8366004613c69565b606760209081526000928352604080842090915290825290205481565b34801561082157600080fd5b506033546001600160a01b03165b6040516001600160a01b039091168152602001610434565b34801561085357600080fd5b506104f1611857565b34801561086857600080fd5b5060695461082f906001600160a01b031681565b34801561088857600080fd5b50610452611868565b34801561089d57600080fd5b506104286108ac366004613bbe565b60ca602090815260009384526040808520845180860184018051928152908401958401959095209452929052825290205460ff1681565b3480156108ef57600080fd5b506104526108fe36600461380e565b611878565b34801561090f57600080fd5b5061042861091e36600461383e565b61198e565b34801561092f57600080fd5b506105a961093e366004613c9c565b611a09565b34801561094f57600080fd5b5061040661095e3660046139e8565b611a98565b34801561096f57600080fd5b5061042861097e36600461383e565b611b14565b34801561098f57600080fd5b506104f161271081565b3480156109a557600080fd5b5060655461082f906001600160a01b031681565b3480156109c557600080fd5b5060f85461082f906201000090046001600160a01b031681565b3480156109eb57600080fd5b506104066109fa366004613af6565b611b22565b348015610a0b57600080fd5b50610a3b610a1a36600461380e565b60f76020526000908152604090205461ffff81169062010000900460ff1682565b6040805161ffff9093168352901515602083015201610434565b348015610a6157600080fd5b50610406610a70366004613d55565b611b78565b6104066110b5565b610406610a8b3660046136ee565b611be6565b348015610a9c57600080fd5b5060f854610aab9061ffff1681565b60405161ffff9091168152602001610434565b348015610aca57600080fd5b506104f1610ad9366004613dc3565b611dfc565b348015610aea57600080fd5b50610406610af9366004613e1c565b611e28565b348015610b0a57600080fd5b50610406610b19366004613eaa565b611f41565b348015610b2a57600080fd5b50610577600181565b348015610b3f57600080fd5b50610406610b4e366004613ee6565b611ff3565b348015610b5f57600080fd5b50610406610b6e366004613f01565b612044565b348015610b7f57600080fd5b50610406610b8e3660046139e8565b612163565b348015610b9f57600080fd5b506104f1610bae36600461386a565b6121bd565b348015610bbf57600080fd5b5060c95461042890610100900460ff1681565b348015610bde57600080fd5b50610406610bed366004613af6565b61224f565b348015610bfe57600080fd5b50610452610c0d366004613fc9565b6122c5565b348015610c1e57600080fd5b503061082f565b6065546001600160a01b0316336001600160a01b031614610c885760405162461bcd60e51b815260206004820152601e60248201527f4c7a4170703a20696e76616c696420656e64706f696e742063616c6c6572000060448201526064016103d8565b61ffff861660009081526066602052604081208054610ca690614016565b80601f0160208091040260200160405190810160405280929190818152602001828054610cd290614016565b8015610d1f5780601f10610cf457610100808354040283529160200191610d1f565b820191906000526020600020905b815481529060010190602001808311610d0257829003601f168201915b50505050509050805186869050148015610d3a575060008151115b8015610d62575080516020820120604051610d58908890889061404a565b6040518091039020145b610dbd5760405162461bcd60e51b815260206004820152602660248201527f4c7a4170703a20696e76616c696420736f757263652073656e64696e6720636f6044820152651b9d1c9858dd60d21b60648201526084016103d8565b610e338787878080601f01602080910402602001604051908101604052809392919081815260200183838082843760009201919091525050604080516020601f8a018190048102820181019092528881528a93509150889088908190840183828082843760009201919091525061235892505050565b50505050505050565b60006001600160e01b03198216630d30953d60e31b1480610e6d57506301ffc9a760e01b6001600160e01b03198316145b92915050565b606061018d8054610e8390614016565b80601f0160208091040260200160405190810160405280929190818152602001828054610eaf90614016565b8015610efc5780601f10610ed157610100808354040283529160200191610efc565b820191906000526020600020905b815481529060010190602001808311610edf57829003601f168201915b5050505050905090565b610f0e6123d1565b6065546040516307e0db1760e01b815261ffff831660048201526001600160a01b03909116906307e0db17906024015b600060405180830381600087803b158015610f5857600080fd5b505af1158015610f6c573d6000803e3d6000fd5b5050505050565b600033610f8181858561242b565b5060019392505050565b610f936123d1565b61ffff909116600090815260686020526040902055565b610fb26123d1565b6065546040516310ddb13760e01b815261ffff831660048201526001600160a01b03909116906310ddb13790602401610f3e565b600033610ff4858285612551565b610fff8585856125cb565b506001949350505050565b611015868685612778565b5092506110838686868661102c6020870187613af6565b61103c6040880160208901613af6565b611049604089018961405a565b8080601f0160208091040260200160405190810160405280939291908181526020018383808284376000920191909152506127c192505050565b9250818310156110a55760405162461bcd60e51b81526004016103d8906140a0565b505050505050565b6110b56127db565b60405162461bcd60e51b81526004016103d890613656565b50565b6110d86123d1565b30600081815261018a60205260409020546110f4908290612836565b60405160009033906001600160a01b03841631908381818185875af1925050503d8060008114611140576040519150601f19603f3d011682016040523d82523d6000602084013e611145565b606091505b50509050806111a15760405162461bcd60e51b815260206004820152602260248201527f4e61746976654f4654576974684665653a206661696c656420746f20756e7772604482015261061760f41b60648201526084016103d8565b6040516001600160a01b03831631815233907f7fcf532c15f0a6db0bd6d0e038bea71d30d808c7d98cb3bf7268a95bf5081b659060200160405180910390a2604051600160601b6020820152606083901b6bffffffffffffffffffffffff1916603482015260009060480160408051601f198184030181529190526065600081905260666020529091507f161b37ad582aefbae98dc6f425d2ce2eaaf46e7d08995d27b93395e2f50d0c7d6112568382614133565b507ffa41487ad5d6728f0b19276fa1eddc16558578f5109fc39d2dc33c3230470dab81836040516112889291906141f2565b60405180910390a150505050565b6000806112dc8888888888888080601f01602080910402602001604051908101604052809392919081815260200183838082843760009201919091525061296a92505050565b91509150965096945050505050565b600033610f818185856112fe8383611dfc565b611308919061422d565b61242b565b61ffff83166000908152606660205260408120805482919061132e90614016565b80601f016020809104026020016040519081016040528092919081815260200182805461135a90614016565b80156113a75780601f1061137c576101008083540402835291602001916113a7565b820191906000526020600020905b81548152906001019060200180831161138a57829003601f168201915b5050505050905083836040516113be92919061404a565b60405180910390208180519060200120149150509392505050565b6113e16123d1565b6065546040516342d65a8d60e01b81526001600160a01b03909116906342d65a8d9061141590869086908690600401614269565b600060405180830381600087803b15801561142f57600080fd5b505af1158015610e33573d6000803e3d6000fd5b61144e898988612778565b50809650506114bd8989898988888080601f0160208091040260200160405190810160405280939291908181526020018383808284376000920191909152508a92506114a09150506020890189613af6565b6114b060408a0160208b01613af6565b61104960408b018b61405a565b9550848610156114df5760405162461bcd60e51b81526004016103d8906140a0565b505050505050505050565b6114f26123d1565b6001600160a01b0381166115485760405162461bcd60e51b815260206004820152601a60248201527f4665653a206665654f776e65722063616e6e6f7420626520307800000000000060448201526064016103d8565b60f8805462010000600160b01b031916620100006001600160a01b038416908102919091179091556040519081527f047912631afa564eebd3db2efe191a0dec62da1fede6bbbc1ffc89d87845b1b5906020015b60405180910390a150565b6115af6123d1565b6127108161ffff1611156115d55760405162461bcd60e51b81526004016103d890614287565b60f8805461ffff191661ffff83169081179091556040519081527fd26030ef4a8c225ee12b646eb4466acb41fb96b6cd4660b22d0ba0124e7bdc749060200161159c565b3330146116775760405162461bcd60e51b815260206004820152602660248201527f4e6f6e626c6f636b696e674c7a4170703a2063616c6c6572206d7573742062656044820152650204c7a4170760d41b60648201526084016103d8565b6110a58686868080601f01602080910402602001604051908101604052809392919081815260200183838082843760009201919091525050604080516020601f890181900481028201810190925287815289935091508790879081908401838280828437600092019190915250612a4092505050565b6116f56123d1565b6116ff6000612ac7565b565b6066602052600090815260409020805461171a90614016565b80601f016020809104026020016040519081016040528092919081815260200182805461174690614016565b80156117935780601f1061176857610100808354040283529160200191611793565b820191906000526020600020905b81548152906001019060200180831161177657829003601f168201915b505050505081565b6117a36123d1565b6127108161ffff1611156117c95760405162461bcd60e51b81526004016103d890614287565b60408051808201825261ffff8381168083528515156020808501828152898516600081815260f784528890209651875492511515620100000262ffffff1990931696169590951717909455845192835292820192909252918201527fdd9c9685af3e6dcb56d8f4b88d2595d4add6837a150034e7781c46b6dcf8aaab906060015b60405180910390a1505050565b600061186361018c5490565b905090565b606061018e8054610e8390614016565b61ffff811660009081526066602052604081208054606092919061189b90614016565b80601f01602080910402602001604051908101604052809291908181526020018280546118c790614016565b80156119145780601f106118e957610100808354040283529160200191611914565b820191906000526020600020905b8154815290600101906020018083116118f757829003601f168201915b50505050509050805160000361196c5760405162461bcd60e51b815260206004820152601d60248201527f4c7a4170703a206e6f20747275737465642070617468207265636f726400000060448201526064016103d8565b61198760006014835161197f91906142cc565b839190612b19565b9392505050565b6000338161199c8286611dfc565b9050838110156119fc5760405162461bcd60e51b815260206004820152602560248201527f45524332303a2064656372656173656420616c6c6f77616e63652062656c6f77604482015264207a65726f60d81b60648201526084016103d8565b610fff828686840361242b565b600080611a868b8b8b8b8b8080601f01602080910402602001604051908101604052809392919081815260200183838082843760009201919091525050604080516020601f8d018190048102820181019092528b81528e93508d9250908c908c9081908401838280828437600092019190915250612c2692505050565b91509150995099975050505050505050565b611aa06123d1565b818130604051602001611ab5939291906142df565b60408051601f1981840301815291815261ffff8516600090815260666020522090611ae09082614133565b507f8c0400cfe2d1199b1a725c78960bcc2a344d869b80590d0f2bd005db15a572ce83838360405161184a93929190614269565b600033610f818185856125cb565b611b2a6123d1565b606980546001600160a01b0319166001600160a01b0383169081179091556040519081527f5db758e995a17ec1ad84bdef7e8c3293a0bd6179bcce400dff5d4c3d87db726b9060200161159c565b611b806123d1565b6065546040516332fb62e760e21b81526001600160a01b039091169063cbed8b9c90611bb89088908890889088908890600401614305565b600060405180830381600087803b158015611bd257600080fd5b505af11580156114df573d6000803e3d6000fd5b61ffff86166000908152609760205260408082209051611c09908890889061404a565b90815260408051602092819003830190206001600160401b03871660009081529252902054905080611c895760405162461bcd60e51b815260206004820152602360248201527f4e6f6e626c6f636b696e674c7a4170703a206e6f2073746f726564206d65737360448201526261676560e81b60648201526084016103d8565b808383604051611c9a92919061404a565b604051809103902014611cf95760405162461bcd60e51b815260206004820152602160248201527f4e6f6e626c6f636b696e674c7a4170703a20696e76616c6964207061796c6f616044820152601960fa1b60648201526084016103d8565b61ffff87166000908152609760205260408082209051611d1c908990899061404a565b90815260408051602092819003830181206001600160401b038916600090815290845282902093909355601f88018290048202830182019052868252611db4918991899089908190840183828082843760009201919091525050604080516020601f8a018190048102820181019092528881528a935091508890889081908401838280828437600092019190915250612a4092505050565b7fc264d91f3adc5588250e1551f547752ca0cfa8f6b530d243b9f9f4cab10ea8e58787878785604051611deb95949392919061433e565b60405180910390a150505050505050565b6001600160a01b03918216600090815261018b6020908152604080832093909416825291909152205490565b600054610100900460ff1615808015611e485750600054600160ff909116105b80611e625750303b158015611e62575060005460ff166001145b611ec55760405162461bcd60e51b815260206004820152602e60248201527f496e697469616c697a61626c653a20636f6e747261637420697320616c72656160448201526d191e481a5b9a5d1a585b1a5e995960921b60648201526084016103d8565b6000805460ff191660011790558015611ee8576000805461ff0019166101001790555b611ef485858585612cca565b8015610f6c576000805461ff0019169055604051600181527f7f26b83ff96e1f2b6a682f133852f6798a09c465da95921460cefb3847402498906020015b60405180910390a15050505050565b611f496123d1565b60008111611f915760405162461bcd60e51b81526020600482015260156024820152744c7a4170703a20696e76616c6964206d696e47617360581b60448201526064016103d8565b61ffff83811660008181526067602090815260408083209487168084529482529182902085905581519283528201929092529081018290527f9d5c7c0b934da8fefa9c7760c98383778a12dfbfc0c3b3106518f43fb9508ac09060600161184a565b611ffb6123d1565b60c980548215156101000261ff00199091161790556040517f1584ad594a70cbe1e6515592e1272a987d922b097ead875069cebe8b40c004a49061159c90831515815260200190565b3330146120935760405162461bcd60e51b815260206004820152601f60248201527f4f4654436f72653a2063616c6c6572206d757374206265204f4654436f72650060448201526064016103d8565b61209e308686612d1e565b9350846001600160a01b03168a61ffff167fbf551ec93859b170f9b2141bd9298bf3f64322c6f7beb2543a0cb669834118bf866040516120e091815260200190565b60405180910390a3604051633fe79aed60e11b81526001600160a01b03861690637fcf35da908390612124908e908e908e908e908e908d908d908d90600401614379565b600060405180830381600088803b15801561213e57600080fd5b5087f1158015612152573d6000803e3d6000fd5b505050505050505050505050505050565b61216b6123d1565b61ffff831660009081526066602052604090206121898284836143d4565b507ffa41487ad5d6728f0b19276fa1eddc16558578f5109fc39d2dc33c3230470dab83838360405161184a93929190614269565b61ffff828116600090815260f76020908152604080832081518083019092525493841681526201000090930460ff1615801591840191909152909190612222578051612710906122119061ffff1685614493565b61221b91906144aa565b9150612248565b60f85461ffff16156122435760f854612710906122119061ffff1685614493565b600091505b5092915050565b6122576123d1565b6001600160a01b0381166122bc5760405162461bcd60e51b815260206004820152602660248201527f4f776e61626c653a206e6577206f776e657220697320746865207a65726f206160448201526564647265737360d01b60648201526084016103d8565b6110cd81612ac7565b606554604051633d7b2f6f60e21b815261ffff808716600483015285166024820152306044820152606481018390526060916001600160a01b03169063f5ecbdbc90608401600060405180830381865afa158015612327573d6000803e3d6000fd5b505050506040513d6000823e601f3d908101601f1916820160405261234f91908101906144cc565b95945050505050565b6000806123bb5a60966366ad5c8a60e01b898989896040516024016123809493929190614539565b60408051601f198184030181529190526020810180516001600160e01b03166001600160e01b03199093169290921790915230929190612d70565b91509150816110a5576110a58686868685612dfa565b6033546001600160a01b031633146116ff5760405162461bcd60e51b815260206004820181905260248201527f4f776e61626c653a2063616c6c6572206973206e6f7420746865206f776e657260448201526064016103d8565b6001600160a01b03831661248d5760405162461bcd60e51b8152602060048201526024808201527f45524332303a20617070726f76652066726f6d20746865207a65726f206164646044820152637265737360e01b60648201526084016103d8565b6001600160a01b0382166124ee5760405162461bcd60e51b815260206004820152602260248201527f45524332303a20617070726f766520746f20746865207a65726f206164647265604482015261737360f01b60648201526084016103d8565b6001600160a01b03838116600081815261018b602090815260408083209487168084529482529182902085905590518481527f8c5be1e5ebec7d5bd14f71427d1e84f3dd0314c0f7b2291e5b200ac8c7c3b92591015b60405180910390a3505050565b600061255d8484611dfc565b905060001981146125c557818110156125b85760405162461bcd60e51b815260206004820152601d60248201527f45524332303a20696e73756666696369656e7420616c6c6f77616e636500000060448201526064016103d8565b6125c5848484840361242b565b50505050565b6001600160a01b03831661262f5760405162461bcd60e51b815260206004820152602560248201527f45524332303a207472616e736665722066726f6d20746865207a65726f206164604482015264647265737360d81b60648201526084016103d8565b6001600160a01b0382166126915760405162461bcd60e51b815260206004820152602360248201527f45524332303a207472616e7366657220746f20746865207a65726f206164647260448201526265737360e81b60648201526084016103d8565b6001600160a01b038316600090815261018a60205260409020548181101561270a5760405162461bcd60e51b815260206004820152602660248201527f45524332303a207472616e7366657220616d6f756e7420657863656564732062604482015265616c616e636560d01b60648201526084016103d8565b6001600160a01b03808516600081815261018a602052604080822086860390559286168082529083902080548601905591517fddf252ad1be2c89b69c2b068fc378daa952ba7f163c4a11628f55a4df523b3ef9061276b9086815260200190565b60405180910390a36125c5565b60008061278584846121bd565b905061279181846142cc565b915080156127b95760f8546127b79086906201000090046001600160a01b031683612d1e565b505b935093915050565b600060405162461bcd60e51b81526004016103d890613656565b60026101bd540361282e5760405162461bcd60e51b815260206004820152601f60248201527f5265656e7472616e637947756172643a207265656e7472616e742063616c6c0060448201526064016103d8565b60026101bd55565b6001600160a01b0382166128965760405162461bcd60e51b815260206004820152602160248201527f45524332303a206275726e2066726f6d20746865207a65726f206164647265736044820152607360f81b60648201526084016103d8565b6001600160a01b038216600090815261018a60205260409020548181101561290b5760405162461bcd60e51b815260206004820152602260248201527f45524332303a206275726e20616d6f756e7420657863656564732062616c616e604482015261636560f01b60648201526084016103d8565b6001600160a01b038316600081815261018a60209081526040808320868603905561018c80548790039055518581529192917fddf252ad1be2c89b69c2b068fc378daa952ba7f163c4a11628f55a4df523b3ef9101612544565b505050565b60008060006129b88761297c88612e88565b6040805160006020820152602181019390935260c09190911b6001600160c01b0319166041830152805160298184030181526049909201905290565b60655460405163040a7bb160e41b81529192506001600160a01b0316906340a7bb10906129f1908b90309086908b908b90600401614577565b6040805180830381865afa158015612a0d573d6000803e3d6000fd5b505050506040513d601f19601f82011682018060405250810190612a3191906145cb565b92509250509550959350505050565b6000612a4c8282612ef8565b905060ff8116612a6757612a6285858585612f54565b610f6c565b60001960ff821601612a7f57612a6285858585612fe4565b60405162461bcd60e51b815260206004820152601c60248201527f4f4654436f72653a20756e6b6e6f776e207061636b657420747970650000000060448201526064016103d8565b603380546001600160a01b038381166001600160a01b0319831681179093556040519116919082907f8be0079c531659141344cd1fd0a4f28419497f9722a3daafe3b4186f6b6457e090600090a35050565b606081612b2781601f61422d565b1015612b665760405162461bcd60e51b815260206004820152600e60248201526d736c6963655f6f766572666c6f7760901b60448201526064016103d8565b612b70828461422d565b84511015612bb45760405162461bcd60e51b8152602060048201526011602482015270736c6963655f6f75744f66426f756e647360781b60448201526064016103d8565b606082158015612bd35760405191506000825260208201604052612c1d565b6040519150601f8416801560200281840101858101878315602002848b0101015b81831015612c0c578051835260209283019201612bf4565b5050858452601f01601f1916604052505b50949350505050565b6000806000612c40338a612c398b612e88565b8a8a6131f2565b60655460405163040a7bb160e41b81529192506001600160a01b0316906340a7bb1090612c79908d90309086908b908b90600401614577565b6040805180830381865afa158015612c95573d6000803e3d6000fd5b505050506040513d601f19601f82011682018060405250810190612cb991906145cb565b925092505097509795505050505050565b600054610100900460ff16612cf15760405162461bcd60e51b81526004016103d8906145ef565b612cf9613233565b612d0281613263565b612d0b826132ac565b612d1584846132e9565b6125c58261332b565b600033306001600160a01b03861614801590612d4c5750806001600160a01b0316856001600160a01b031614155b15612d5c57612d5c858285612551565b612d678585856125cb565b50909392505050565b6000606060008060008661ffff166001600160401b03811115612d9557612d95613b13565b6040519080825280601f01601f191660200182016040528015612dbf576020820181803683370190505b50905060008087516020890160008d8df191503d925086831115612de1578692505b828152826000602083013e909890975095505050505050565b8180519060200120609760008761ffff1661ffff16815260200190815260200160002085604051612e2b919061463a565b9081526040805191829003602090810183206001600160401b0388166000908152915220919091557fe183f33de2837795525b4792ca4cd60535bd77c53b7e7030060bfcf5734d6b0c90611f329087908790879087908790614656565b600080612e956101bc5490565b612e9f90846144aa565b90506001600160401b03811115610e6d5760405162461bcd60e51b815260206004820152601a60248201527f4f4654436f72653a20616d6f756e745344206f766572666c6f7700000000000060448201526064016103d8565b6000612f0582600161422d565b83511015612f4b5760405162461bcd60e51b8152602060048201526013602482015272746f55696e74385f6f75744f66426f756e647360681b60448201526064016103d8565b50016001015190565b600080612f60836133db565b90925090506001600160a01b038216612f795761dead91505b6000612f8482613460565b9050612f918784836127c1565b9050826001600160a01b03168761ffff167fbf551ec93859b170f9b2141bd9298bf3f64322c6f7beb2543a0cb669834118bf83604051612fd391815260200190565b60405180910390a350505050505050565b6000806000806000612ff58661347f565b94509450945094509450600060ca60008b61ffff1661ffff1681526020019081526020016000208960405161302a919061463a565b90815260408051602092819003830190206001600160401b038b166000908152925281205460ff16915061305d85613460565b9050816130cb5761306f8b30836127c1565b61ffff8c16600090815260ca6020526040908190209051919250600191613097908d9061463a565b90815260408051602092819003830190206001600160401b038d16600090815292529020805460ff19169115159190911790555b6001600160a01b0386163b613122576040516001600160a01b03871681527f9aedf5fdba8716db3b6705ca00150643309995d4f818a249ed6dde6677e7792d9060200160405180910390a1505050505050506125c5565b8a8a8a8a8a8a868a60008a613140578b6001600160401b0316613142565b5a5b90506000806131745a609663eaffd49a60e01b8e8e8e8d8d8d8d8d6040516024016123809897969594939291906146a8565b9150915081156131cd578751602089012060405161ffff8d16907fb8890edbfc1c74692f527444645f95489c3703cc2df42e4a366f5d06fa6cd884906131bf908e908e90869061471c565b60405180910390a2506131da565b6131da8b8b8b8b85612dfa565b50505050505050505050505050505050505050505050565b6060600185856001600160a01b03891685876040516020016132199695949392919061474a565b604051602081830303815290604052905095945050505050565b600054610100900460ff1661325a5760405162461bcd60e51b81526004016103d8906145ef565b6116ff33612ac7565b600054610100900460ff1661328a5760405162461bcd60e51b81526004016103d8906145ef565b606580546001600160a01b0319166001600160a01b0392909216919091179055565b600054610100900460ff166132d35760405162461bcd60e51b81526004016103d8906145ef565b60c9805460ff191660ff92909216919091179055565b600054610100900460ff166133105760405162461bcd60e51b81526004016103d8906145ef565b61018d61331d8382614133565b5061018e6129658282614133565b600054610100900460ff166133525760405162461bcd60e51b81526004016103d8906145ef565b601260ff82168110156133be5760405162461bcd60e51b815260206004820152602e60248201527f4f4654576974684665653a20736861726564446563696d616c73206d7573742060448201526d6265203c3d20646563696d616c7360901b60648201526084016103d8565b6133c882826147ab565b6133d390600a6148a8565b6101bc555050565b600080806133e98482612ef8565b60ff161480156133fa575082516029145b6134415760405162461bcd60e51b815260206004820152601860248201527713d19510dbdc994e881a5b9d985b1a59081c185e5b1bd85960421b60448201526064016103d8565b61344c83600d613536565b915061345983602161359b565b9050915091565b600061346c6101bc5490565b610e6d906001600160401b038416614493565b6000808060608160016134928783612ef8565b60ff16146134dd5760405162461bcd60e51b815260206004820152601860248201527713d19510dbdc994e881a5b9d985b1a59081c185e5b1bd85960421b60448201526064016103d8565b6134e886600d613536565b93506134f586602161359b565b92506135028660296135f8565b945061350f86604961359b565b905061352b605180885161352391906142cc565b889190612b19565b915091939590929450565b600061354382601461422d565b8351101561358b5760405162461bcd60e51b8152602060048201526015602482015274746f416464726573735f6f75744f66426f756e647360581b60448201526064016103d8565b500160200151600160601b900490565b60006135a882600861422d565b835110156135ef5760405162461bcd60e51b8152602060048201526014602482015273746f55696e7436345f6f75744f66426f756e647360601b60448201526064016103d8565b50016008015190565b600061360582602061422d565b8351101561364d5760405162461bcd60e51b8152602060048201526015602482015274746f427974657333325f6f75744f66426f756e647360581b60448201526064016103d8565b50016020015190565b602080825260089082015267191a5cd8589b195960c21b604082015260600190565b803561ffff8116811461368a57600080fd5b919050565b60008083601f8401126136a157600080fd5b5081356001600160401b038111156136b857600080fd5b6020830191508360208285010111156136d057600080fd5b9250929050565b80356001600160401b038116811461368a57600080fd5b6000806000806000806080878903121561370757600080fd5b61371087613678565b955060208701356001600160401b038082111561372c57600080fd5b6137388a838b0161368f565b909750955085915061374c60408a016136d7565b9450606089013591508082111561376257600080fd5b5061376f89828a0161368f565b979a9699509497509295939492505050565b60006020828403121561379357600080fd5b81356001600160e01b03198116811461198757600080fd5b60005b838110156137c65781810151838201526020016137ae565b50506000910152565b600081518084526137e78160208601602086016137ab565b601f01601f19169290920160200192915050565b60208152600061198760208301846137cf565b60006020828403121561382057600080fd5b61198782613678565b6001600160a01b03811681146110cd57600080fd5b6000806040838503121561385157600080fd5b823561385c81613829565b946020939093013593505050565b6000806040838503121561387d57600080fd5b61385c83613678565b60008060006060848603121561389b57600080fd5b83356138a681613829565b925060208401356138b681613829565b929592945050506040919091013590565b6000606082840312156138d957600080fd5b50919050565b60008060008060008060c087890312156138f857600080fd5b863561390381613829565b955061391160208801613678565b945060408701359350606087013592506080870135915060a08701356001600160401b0381111561394157600080fd5b61394d89828a016138c7565b9150509295509295509295565b60006020828403121561396c57600080fd5b5035919050565b8035801515811461368a57600080fd5b60008060008060008060a0878903121561399c57600080fd5b6139a587613678565b955060208701359450604087013593506139c160608801613973565b925060808701356001600160401b038111156139dc57600080fd5b61376f89828a0161368f565b6000806000604084860312156139fd57600080fd5b613a0684613678565b925060208401356001600160401b03811115613a2157600080fd5b613a2d8682870161368f565b9497909650939450505050565b60008060008060008060008060006101008a8c031215613a5957600080fd5b8935613a6481613829565b9850613a7260208b01613678565b975060408a0135965060608a0135955060808a0135945060a08a01356001600160401b0380821115613aa357600080fd5b613aaf8d838e0161368f565b9096509450849150613ac360c08d016136d7565b935060e08c0135915080821115613ad957600080fd5b50613ae68c828d016138c7565b9150509295985092959850929598565b600060208284031215613b0857600080fd5b813561198781613829565b634e487b7160e01b600052604160045260246000fd5b604051601f8201601f191681016001600160401b0381118282101715613b5157613b51613b13565b604052919050565b60006001600160401b03821115613b7257613b72613b13565b50601f01601f191660200190565b6000613b93613b8e84613b59565b613b29565b9050828152838383011115613ba757600080fd5b828260208301376000602084830101529392505050565b600080600060608486031215613bd357600080fd5b613bdc84613678565b925060208401356001600160401b03811115613bf757600080fd5b8401601f81018613613c0857600080fd5b613c1786823560208401613b80565b925050613c26604085016136d7565b90509250925092565b600080600060608486031215613c4457600080fd5b613c4d84613678565b9250613c5b60208501613973565b9150613c2660408501613678565b60008060408385031215613c7c57600080fd5b613c8583613678565b9150613c9360208401613678565b90509250929050565b600080600080600080600080600060e08a8c031215613cba57600080fd5b613cc38a613678565b985060208a0135975060408a0135965060608a01356001600160401b0380821115613ced57600080fd5b613cf98d838e0161368f565b9098509650869150613d0d60808d016136d7565b9550613d1b60a08d01613973565b945060c08c0135915080821115613d3157600080fd5b50613d3e8c828d0161368f565b915080935050809150509295985092959850929598565b600080600080600060808688031215613d6d57600080fd5b613d7686613678565b9450613d8460208701613678565b93506040860135925060608601356001600160401b03811115613da657600080fd5b613db28882890161368f565b969995985093965092949392505050565b60008060408385031215613dd657600080fd5b8235613de181613829565b91506020830135613df181613829565b809150509250929050565b600082601f830112613e0d57600080fd5b61198783833560208501613b80565b60008060008060808587031215613e3257600080fd5b84356001600160401b0380821115613e4957600080fd5b613e5588838901613dfc565b95506020870135915080821115613e6b57600080fd5b50613e7887828801613dfc565b935050604085013560ff81168114613e8f57600080fd5b91506060850135613e9f81613829565b939692955090935050565b600080600060608486031215613ebf57600080fd5b613ec884613678565b9250613ed660208501613678565b9150604084013590509250925092565b600060208284031215613ef857600080fd5b61198782613973565b6000806000806000806000806000806101008b8d031215613f2157600080fd5b613f2a8b613678565b995060208b01356001600160401b0380821115613f4657600080fd5b613f528e838f0161368f565b909b509950899150613f6660408e016136d7565b985060608d0135975060808d01359150613f7f82613829565b90955060a08c0135945060c08c01359080821115613f9c57600080fd5b50613fa98d828e0161368f565b9150809450508092505060e08b013590509295989b9194979a5092959850565b60008060008060808587031215613fdf57600080fd5b613fe885613678565b9350613ff660208601613678565b9250604085013561400681613829565b9396929550929360600135925050565b600181811c9082168061402a57607f821691505b6020821081036138d957634e487b7160e01b600052602260045260246000fd5b8183823760009101908152919050565b6000808335601e1984360301811261407157600080fd5b8301803591506001600160401b0382111561408b57600080fd5b6020019150368190038213156136d057600080fd5b6020808252602d908201527f426173654f4654576974684665653a20616d6f756e74206973206c657373207460408201526c1a185b881b5a5b905b5bdd5b9d609a1b606082015260800190565b601f82111561296557600081815260208120601f850160051c810160208610156141145750805b601f850160051c820191505b818110156110a557828155600101614120565b81516001600160401b0381111561414c5761414c613b13565b6141608161415a8454614016565b846140ed565b602080601f831160018114614195576000841561417d5750858301515b600019600386901b1c1916600185901b1785556110a5565b600085815260208120601f198616915b828110156141c4578886015182559484019460019091019084016141a5565b50858210156141e25787850151600019600388901b60f8161c191681555b5050505050600190811b01905550565b61ffff8316815260406020820152600061420f60408301846137cf565b949350505050565b634e487b7160e01b600052601160045260246000fd5b80820180821115610e6d57610e6d614217565b81835281816020850137506000828201602090810191909152601f909101601f19169091010190565b61ffff8416815260406020820152600061234f604083018486614240565b60208082526025908201527f4665653a20666565206270206d757374206265203c3d2042505f44454e4f4d496040820152642720aa27a960d91b606082015260800190565b81810381811115610e6d57610e6d614217565b8284823760609190911b6bffffffffffffffffffffffff19169101908152601401919050565b600061ffff808816835280871660208401525084604083015260806060830152614333608083018486614240565b979650505050505050565b61ffff8616815260806020820152600061435c608083018688614240565b6001600160401b0394909416604083015250606001529392505050565b61ffff8916815260c06020820152600061439760c08301898b614240565b6001600160401b038816604084015286606084015285608084015282810360a08401526143c5818587614240565b9b9a5050505050505050505050565b6001600160401b038311156143eb576143eb613b13565b6143ff836143f98354614016565b836140ed565b6000601f841160018114614433576000851561441b5750838201355b600019600387901b1c1916600186901b178355610f6c565b600083815260209020601f19861690835b828110156144645786850135825560209485019460019092019101614444565b50868210156144815760001960f88860031b161c19848701351681555b505060018560011b0183555050505050565b8082028115828204841417610e6d57610e6d614217565b6000826144c757634e487b7160e01b600052601260045260246000fd5b500490565b6000602082840312156144de57600080fd5b81516001600160401b038111156144f457600080fd5b8201601f8101841361450557600080fd5b8051614513613b8e82613b59565b81815285602083850101111561452857600080fd5b61234f8260208301602086016137ab565b61ffff8516815260806020820152600061455660808301866137cf565b6001600160401b0385166040840152828103606084015261433381856137cf565b61ffff861681526001600160a01b038516602082015260a0604082018190526000906145a5908301866137cf565b841515606084015282810360808401526145bf81856137cf565b98975050505050505050565b600080604083850312156145de57600080fd5b505080516020909101519092909150565b6020808252602b908201527f496e697469616c697a61626c653a20636f6e7472616374206973206e6f74206960408201526a6e697469616c697a696e6760a81b606082015260800190565b6000825161464c8184602087016137ab565b9190910192915050565b61ffff8616815260a06020820152600061467360a08301876137cf565b6001600160401b0386166040840152828103606084015261469481866137cf565b905082810360808401526145bf81856137cf565b600061010061ffff8b1683528060208401526146c68184018b6137cf565b6001600160401b038a166040850152606084018990526001600160a01b038816608085015260a0840187905283810360c0850152905061470681866137cf565b9150508260e08301529998505050505050505050565b60608152600061472f60608301866137cf565b6001600160401b039490941660208301525060400152919050565b60ff60f81b8760f81b16815285600182015260006001600160401b0360c01b808760c01b166021840152856029840152808560c01b1660498401525082516147998160518501602087016137ab565b91909101605101979650505050505050565b60ff8281168282160390811115610e6d57610e6d614217565b600181815b808511156147ff5781600019048211156147e5576147e5614217565b808516156147f257918102915b93841c93908002906147c9565b509250929050565b60008261481657506001610e6d565b8161482357506000610e6d565b816001811461483957600281146148435761485f565b6001915050610e6d565b60ff84111561485457614854614217565b50506001821b610e6d565b5060208310610133831016604e8410600b8410161715614882575081810a610e6d565b61488c83836147c4565b80600019048211156148a0576148a0614217565b029392505050565b600061198760ff84168361480756fea264697066735822122034f26b4b13dde3285b5c90047e072862b00087c414713fc23b620cd8564ecf6964736f6c63430008120033",
  "devdoc": {
    "events": {
      "Approval(address,address,uint256)": {
        "details": "Emitted when the allowance of a `spender` for an `owner` is set by a call to {approve}. `value` is the new allowance."
      },
      "Initialized(uint8)": {
        "details": "Triggered when the contract has been initialized or reinitialized."
      },
      "ReceiveFromChain(uint16,address,uint256)": {
        "details": "Emitted when `_amount` tokens are received from `_srcChainId` into the `_toAddress` on the local chain. `_nonce` is the inbound nonce."
      },
      "SendToChain(uint16,address,bytes32,uint256)": {
        "details": "Emitted when `_amount` tokens are moved from the `_sender` to (`_dstChainId`, `_toAddress`) `_nonce` is the outbound nonce"
      },
      "Transfer(address,address,uint256)": {
        "details": "Emitted when `value` tokens are moved from one account (`from`) to another (`to`). Note that `value` may be zero."
      }
    },
    "kind": "dev",
    "methods": {
      "allowance(address,address)": {
        "details": "See {IERC20-allowance}."
      },
      "approve(address,uint256)": {
        "details": "See {IERC20-approve}. NOTE: If `amount` is the maximum `uint256`, the allowance is not updated on `transferFrom`. This is semantically equivalent to an infinite approval. Requirements: - `spender` cannot be the zero address."
      },
      "balanceOf(address)": {
        "details": "See {IERC20-balanceOf}."
      },
      "circulatingSupply()": {
        "details": "returns the circulating amount of tokens on current chain"
      },
      "decimals()": {
        "details": "Returns the number of decimals used to get its user representation. For example, if `decimals` equals `2`, a balance of `505` tokens should be displayed to a user as `5.05` (`505 / 10 ** 2`). Tokens usually opt for a value of 18, imitating the relationship between Ether and Wei. This is the default value returned by this function, unless it's overridden. NOTE: This information is only used for _display_ purposes: it in no way affects any of the arithmetic of the contract, including {IERC20-balanceOf} and {IERC20-transfer}."
      },
      "decreaseAllowance(address,uint256)": {
        "details": "Atomically decreases the allowance granted to `spender` by the caller. This is an alternative to {approve} that can be used as a mitigation for problems described in {IERC20-approve}. Emits an {Approval} event indicating the updated allowance. Requirements: - `spender` cannot be the zero address. - `spender` must have allowance for the caller of at least `subtractedValue`."
      },
      "estimateSendFee(uint16,bytes32,uint256,bool,bytes)": {
        "details": "estimate send token `_tokenId` to (`_dstChainId`, `_toAddress`) _dstChainId - L0 defined chain id to send tokens too _toAddress - dynamic bytes array which contains the address to whom you are sending tokens to on the dstChain _amount - amount of the tokens to transfer _useZro - indicates to use zro to pay L0 fees _adapterParam - flexible bytes array to indicate messaging adapter services in L0"
      },
      "increaseAllowance(address,uint256)": {
        "details": "Atomically increases the allowance granted to `spender` by the caller. This is an alternative to {approve} that can be used as a mitigation for problems described in {IERC20-approve}. Emits an {Approval} event indicating the updated allowance. Requirements: - `spender` cannot be the zero address."
      },
      "name()": {
        "details": "Returns the name of the token."
      },
      "owner()": {
        "details": "Returns the address of the current owner."
      },
      "renounceOwnership()": {
        "details": "Leaves the contract without owner. It will not be possible to call `onlyOwner` functions. Can only be called by the current owner. NOTE: Renouncing ownership will leave the contract without an owner, thereby disabling any functionality that is only available to the owner."
      },
      "sendFrom(address,uint16,bytes32,uint256,uint256,(address,address,bytes))": {
        "details": "send `_amount` amount of token to (`_dstChainId`, `_toAddress`) from `_from` `_from` the owner of token `_dstChainId` the destination chain identifier `_toAddress` can be any size depending on the `dstChainId`. `_amount` the quantity of tokens in wei `_minAmount` the minimum amount of tokens to receive on dstChain `_refundAddress` the address LayerZero refunds if too much message fee is sent `_zroPaymentAddress` set to address(0x0) if not paying in ZRO (LayerZero Token) `_adapterParams` is a flexible bytes array to indicate messaging adapter services"
      },
      "symbol()": {
        "details": "Returns the symbol of the token, usually a shorter version of the name."
      },
      "token()": {
        "details": "returns the address of the ERC20 token"
      },
      "totalSupply()": {
        "details": "See {IERC20-totalSupply}."
      },
      "transfer(address,uint256)": {
        "details": "See {IERC20-transfer}. Requirements: - `to` cannot be the zero address. - the caller must have a balance of at least `amount`."
      },
      "transferFrom(address,address,uint256)": {
        "details": "See {IERC20-transferFrom}. Emits an {Approval} event indicating the updated allowance. This is not required by the EIP. See the note at the beginning of {ERC20}. NOTE: Does not update the allowance if the current allowance is the maximum `uint256`. Requirements: - `from` and `to` cannot be the zero address. - `from` must have a balance of at least `amount`. - the caller must have allowance for ``from``'s tokens of at least `amount`."
      },
      "transferOwnership(address)": {
        "details": "Transfers ownership of the contract to a new account (`newOwner`). Can only be called by the current owner."
      }
    },
    "version": 1
  },
  "userdoc": {
    "kind": "user",
    "methods": {},
    "version": 1
  },
  "storageLayout": {
    "storage": [
      {
        "astId": 566,
        "contract": "contracts/contracts-upgradable/token/oft/v2/fee/NativeOFTWithFeeUpgradeable.sol:NativeOFTWithFeeUpgradeable",
        "label": "_initialized",
        "offset": 0,
        "slot": "0",
        "type": "t_uint8"
      },
      {
        "astId": 569,
        "contract": "contracts/contracts-upgradable/token/oft/v2/fee/NativeOFTWithFeeUpgradeable.sol:NativeOFTWithFeeUpgradeable",
        "label": "_initializing",
        "offset": 1,
        "slot": "0",
        "type": "t_bool"
      },
      {
        "astId": 5978,
        "contract": "contracts/contracts-upgradable/token/oft/v2/fee/NativeOFTWithFeeUpgradeable.sol:NativeOFTWithFeeUpgradeable",
        "label": "__gap",
        "offset": 0,
        "slot": "1",
        "type": "t_array(t_uint256)50_storage"
      },
      {
        "astId": 419,
        "contract": "contracts/contracts-upgradable/token/oft/v2/fee/NativeOFTWithFeeUpgradeable.sol:NativeOFTWithFeeUpgradeable",
        "label": "_owner",
        "offset": 0,
        "slot": "51",
        "type": "t_address"
      },
      {
        "astId": 539,
        "contract": "contracts/contracts-upgradable/token/oft/v2/fee/NativeOFTWithFeeUpgradeable.sol:NativeOFTWithFeeUpgradeable",
        "label": "__gap",
        "offset": 0,
        "slot": "52",
        "type": "t_array(t_uint256)49_storage"
      },
      {
        "astId": 14477,
        "contract": "contracts/contracts-upgradable/token/oft/v2/fee/NativeOFTWithFeeUpgradeable.sol:NativeOFTWithFeeUpgradeable",
        "label": "lzEndpoint",
        "offset": 0,
        "slot": "101",
        "type": "t_contract(ILayerZeroEndpointUpgradeable)15433"
      },
      {
        "astId": 14481,
        "contract": "contracts/contracts-upgradable/token/oft/v2/fee/NativeOFTWithFeeUpgradeable.sol:NativeOFTWithFeeUpgradeable",
        "label": "trustedRemoteLookup",
        "offset": 0,
        "slot": "102",
        "type": "t_mapping(t_uint16,t_bytes_storage)"
      },
      {
        "astId": 14487,
        "contract": "contracts/contracts-upgradable/token/oft/v2/fee/NativeOFTWithFeeUpgradeable.sol:NativeOFTWithFeeUpgradeable",
        "label": "minDstGasLookup",
        "offset": 0,
        "slot": "103",
        "type": "t_mapping(t_uint16,t_mapping(t_uint16,t_uint256))"
      },
      {
        "astId": 14491,
        "contract": "contracts/contracts-upgradable/token/oft/v2/fee/NativeOFTWithFeeUpgradeable.sol:NativeOFTWithFeeUpgradeable",
        "label": "payloadSizeLimitLookup",
        "offset": 0,
        "slot": "104",
        "type": "t_mapping(t_uint16,t_uint256)"
      },
      {
        "astId": 14493,
        "contract": "contracts/contracts-upgradable/token/oft/v2/fee/NativeOFTWithFeeUpgradeable.sol:NativeOFTWithFeeUpgradeable",
        "label": "precrime",
        "offset": 0,
        "slot": "105",
        "type": "t_address"
      },
      {
        "astId": 15025,
        "contract": "contracts/contracts-upgradable/token/oft/v2/fee/NativeOFTWithFeeUpgradeable.sol:NativeOFTWithFeeUpgradeable",
        "label": "__gap",
        "offset": 0,
        "slot": "106",
        "type": "t_array(t_uint256)45_storage"
      },
      {
        "astId": 15068,
        "contract": "contracts/contracts-upgradable/token/oft/v2/fee/NativeOFTWithFeeUpgradeable.sol:NativeOFTWithFeeUpgradeable",
        "label": "failedMessages",
        "offset": 0,
        "slot": "151",
        "type": "t_mapping(t_uint16,t_mapping(t_bytes_memory_ptr,t_mapping(t_uint64,t_bytes32)))"
      },
      {
        "astId": 15287,
        "contract": "contracts/contracts-upgradable/token/oft/v2/fee/NativeOFTWithFeeUpgradeable.sol:NativeOFTWithFeeUpgradeable",
        "label": "__gap",
        "offset": 0,
        "slot": "152",
        "type": "t_array(t_uint256)49_storage"
      },
      {
        "astId": 16240,
        "contract": "contracts/contracts-upgradable/token/oft/v2/fee/NativeOFTWithFeeUpgradeable.sol:NativeOFTWithFeeUpgradeable",
        "label": "sharedDecimals",
        "offset": 0,
        "slot": "201",
        "type": "t_uint8"
      },
      {
        "astId": 16242,
        "contract": "contracts/contracts-upgradable/token/oft/v2/fee/NativeOFTWithFeeUpgradeable.sol:NativeOFTWithFeeUpgradeable",
        "label": "useCustomAdapterParams",
        "offset": 1,
        "slot": "201",
        "type": "t_bool"
      },
      {
        "astId": 16250,
        "contract": "contracts/contracts-upgradable/token/oft/v2/fee/NativeOFTWithFeeUpgradeable.sol:NativeOFTWithFeeUpgradeable",
        "label": "creditedPackets",
        "offset": 0,
        "slot": "202",
        "type": "t_mapping(t_uint16,t_mapping(t_bytes_memory_ptr,t_mapping(t_uint64,t_bool)))"
      },
      {
        "astId": 17245,
        "contract": "contracts/contracts-upgradable/token/oft/v2/fee/NativeOFTWithFeeUpgradeable.sol:NativeOFTWithFeeUpgradeable",
        "label": "__gap",
        "offset": 0,
        "slot": "203",
        "type": "t_array(t_uint256)44_storage"
      },
      {
        "astId": 18614,
        "contract": "contracts/contracts-upgradable/token/oft/v2/fee/NativeOFTWithFeeUpgradeable.sol:NativeOFTWithFeeUpgradeable",
        "label": "chainIdToFeeBps",
        "offset": 0,
        "slot": "247",
        "type": "t_mapping(t_uint16,t_struct(FeeConfig)18623_storage)"
      },
      {
        "astId": 18616,
        "contract": "contracts/contracts-upgradable/token/oft/v2/fee/NativeOFTWithFeeUpgradeable.sol:NativeOFTWithFeeUpgradeable",
        "label": "defaultFeeBp",
        "offset": 0,
        "slot": "248",
        "type": "t_uint16"
      },
      {
        "astId": 18618,
        "contract": "contracts/contracts-upgradable/token/oft/v2/fee/NativeOFTWithFeeUpgradeable.sol:NativeOFTWithFeeUpgradeable",
        "label": "feeOwner",
        "offset": 2,
        "slot": "248",
        "type": "t_address"
      },
      {
        "astId": 18841,
        "contract": "contracts/contracts-upgradable/token/oft/v2/fee/NativeOFTWithFeeUpgradeable.sol:NativeOFTWithFeeUpgradeable",
        "label": "__gap",
        "offset": 0,
        "slot": "249",
        "type": "t_array(t_uint256)45_storage"
      },
      {
        "astId": 6445,
        "contract": "contracts/contracts-upgradable/token/oft/v2/fee/NativeOFTWithFeeUpgradeable.sol:NativeOFTWithFeeUpgradeable",
        "label": "__gap",
        "offset": 0,
        "slot": "294",
        "type": "t_array(t_uint256)50_storage"
      },
      {
        "astId": 18600,
        "contract": "contracts/contracts-upgradable/token/oft/v2/fee/NativeOFTWithFeeUpgradeable.sol:NativeOFTWithFeeUpgradeable",
        "label": "__gap",
        "offset": 0,
        "slot": "344",
        "type": "t_array(t_uint256)50_storage"
      },
      {
        "astId": 2647,
        "contract": "contracts/contracts-upgradable/token/oft/v2/fee/NativeOFTWithFeeUpgradeable.sol:NativeOFTWithFeeUpgradeable",
        "label": "_balances",
        "offset": 0,
        "slot": "394",
        "type": "t_mapping(t_address,t_uint256)"
      },
      {
        "astId": 2653,
        "contract": "contracts/contracts-upgradable/token/oft/v2/fee/NativeOFTWithFeeUpgradeable.sol:NativeOFTWithFeeUpgradeable",
        "label": "_allowances",
        "offset": 0,
        "slot": "395",
        "type": "t_mapping(t_address,t_mapping(t_address,t_uint256))"
      },
      {
        "astId": 2655,
        "contract": "contracts/contracts-upgradable/token/oft/v2/fee/NativeOFTWithFeeUpgradeable.sol:NativeOFTWithFeeUpgradeable",
        "label": "_totalSupply",
        "offset": 0,
        "slot": "396",
        "type": "t_uint256"
      },
      {
        "astId": 2657,
        "contract": "contracts/contracts-upgradable/token/oft/v2/fee/NativeOFTWithFeeUpgradeable.sol:NativeOFTWithFeeUpgradeable",
        "label": "_name",
        "offset": 0,
        "slot": "397",
        "type": "t_string_storage"
      },
      {
        "astId": 2659,
        "contract": "contracts/contracts-upgradable/token/oft/v2/fee/NativeOFTWithFeeUpgradeable.sol:NativeOFTWithFeeUpgradeable",
        "label": "_symbol",
        "offset": 0,
        "slot": "398",
        "type": "t_string_storage"
      },
      {
        "astId": 3239,
        "contract": "contracts/contracts-upgradable/token/oft/v2/fee/NativeOFTWithFeeUpgradeable.sol:NativeOFTWithFeeUpgradeable",
        "label": "__gap",
        "offset": 0,
        "slot": "399",
        "type": "t_array(t_uint256)45_storage"
      },
      {
        "astId": 19265,
        "contract": "contracts/contracts-upgradable/token/oft/v2/fee/NativeOFTWithFeeUpgradeable.sol:NativeOFTWithFeeUpgradeable",
        "label": "ld2sdRate",
        "offset": 0,
        "slot": "444",
        "type": "t_uint256"
      },
      {
        "astId": 869,
        "contract": "contracts/contracts-upgradable/token/oft/v2/fee/NativeOFTWithFeeUpgradeable.sol:NativeOFTWithFeeUpgradeable",
        "label": "_status",
        "offset": 0,
        "slot": "445",
        "type": "t_uint256"
      },
      {
        "astId": 938,
        "contract": "contracts/contracts-upgradable/token/oft/v2/fee/NativeOFTWithFeeUpgradeable.sol:NativeOFTWithFeeUpgradeable",
        "label": "__gap",
        "offset": 0,
        "slot": "446",
        "type": "t_array(t_uint256)49_storage"
      }
    ],
    "types": {
      "t_address": {
        "encoding": "inplace",
        "label": "address",
        "numberOfBytes": "20"
      },
      "t_array(t_uint256)44_storage": {
        "base": "t_uint256",
        "encoding": "inplace",
        "label": "uint256[44]",
        "numberOfBytes": "1408"
      },
      "t_array(t_uint256)45_storage": {
        "base": "t_uint256",
        "encoding": "inplace",
        "label": "uint256[45]",
        "numberOfBytes": "1440"
      },
      "t_array(t_uint256)49_storage": {
        "base": "t_uint256",
        "encoding": "inplace",
        "label": "uint256[49]",
        "numberOfBytes": "1568"
      },
      "t_array(t_uint256)50_storage": {
        "base": "t_uint256",
        "encoding": "inplace",
        "label": "uint256[50]",
        "numberOfBytes": "1600"
      },
      "t_bool": {
        "encoding": "inplace",
        "label": "bool",
        "numberOfBytes": "1"
      },
      "t_bytes32": {
        "encoding": "inplace",
        "label": "bytes32",
        "numberOfBytes": "32"
      },
      "t_bytes_memory_ptr": {
        "encoding": "bytes",
        "label": "bytes",
        "numberOfBytes": "32"
      },
      "t_bytes_storage": {
        "encoding": "bytes",
        "label": "bytes",
        "numberOfBytes": "32"
      },
      "t_contract(ILayerZeroEndpointUpgradeable)15433": {
        "encoding": "inplace",
        "label": "contract ILayerZeroEndpointUpgradeable",
        "numberOfBytes": "20"
      },
      "t_mapping(t_address,t_mapping(t_address,t_uint256))": {
        "encoding": "mapping",
        "key": "t_address",
        "label": "mapping(address => mapping(address => uint256))",
        "numberOfBytes": "32",
        "value": "t_mapping(t_address,t_uint256)"
      },
      "t_mapping(t_address,t_uint256)": {
        "encoding": "mapping",
        "key": "t_address",
        "label": "mapping(address => uint256)",
        "numberOfBytes": "32",
        "value": "t_uint256"
      },
      "t_mapping(t_bytes_memory_ptr,t_mapping(t_uint64,t_bool))": {
        "encoding": "mapping",
        "key": "t_bytes_memory_ptr",
        "label": "mapping(bytes => mapping(uint64 => bool))",
        "numberOfBytes": "32",
        "value": "t_mapping(t_uint64,t_bool)"
      },
      "t_mapping(t_bytes_memory_ptr,t_mapping(t_uint64,t_bytes32))": {
        "encoding": "mapping",
        "key": "t_bytes_memory_ptr",
        "label": "mapping(bytes => mapping(uint64 => bytes32))",
        "numberOfBytes": "32",
        "value": "t_mapping(t_uint64,t_bytes32)"
      },
      "t_mapping(t_uint16,t_bytes_storage)": {
        "encoding": "mapping",
        "key": "t_uint16",
        "label": "mapping(uint16 => bytes)",
        "numberOfBytes": "32",
        "value": "t_bytes_storage"
      },
      "t_mapping(t_uint16,t_mapping(t_bytes_memory_ptr,t_mapping(t_uint64,t_bool)))": {
        "encoding": "mapping",
        "key": "t_uint16",
        "label": "mapping(uint16 => mapping(bytes => mapping(uint64 => bool)))",
        "numberOfBytes": "32",
        "value": "t_mapping(t_bytes_memory_ptr,t_mapping(t_uint64,t_bool))"
      },
      "t_mapping(t_uint16,t_mapping(t_bytes_memory_ptr,t_mapping(t_uint64,t_bytes32)))": {
        "encoding": "mapping",
        "key": "t_uint16",
        "label": "mapping(uint16 => mapping(bytes => mapping(uint64 => bytes32)))",
        "numberOfBytes": "32",
        "value": "t_mapping(t_bytes_memory_ptr,t_mapping(t_uint64,t_bytes32))"
      },
      "t_mapping(t_uint16,t_mapping(t_uint16,t_uint256))": {
        "encoding": "mapping",
        "key": "t_uint16",
        "label": "mapping(uint16 => mapping(uint16 => uint256))",
        "numberOfBytes": "32",
        "value": "t_mapping(t_uint16,t_uint256)"
      },
      "t_mapping(t_uint16,t_struct(FeeConfig)18623_storage)": {
        "encoding": "mapping",
        "key": "t_uint16",
        "label": "mapping(uint16 => struct FeeUpgradeable.FeeConfig)",
        "numberOfBytes": "32",
        "value": "t_struct(FeeConfig)18623_storage"
      },
      "t_mapping(t_uint16,t_uint256)": {
        "encoding": "mapping",
        "key": "t_uint16",
        "label": "mapping(uint16 => uint256)",
        "numberOfBytes": "32",
        "value": "t_uint256"
      },
      "t_mapping(t_uint64,t_bool)": {
        "encoding": "mapping",
        "key": "t_uint64",
        "label": "mapping(uint64 => bool)",
        "numberOfBytes": "32",
        "value": "t_bool"
      },
      "t_mapping(t_uint64,t_bytes32)": {
        "encoding": "mapping",
        "key": "t_uint64",
        "label": "mapping(uint64 => bytes32)",
        "numberOfBytes": "32",
        "value": "t_bytes32"
      },
      "t_string_storage": {
        "encoding": "bytes",
        "label": "string",
        "numberOfBytes": "32"
      },
      "t_struct(FeeConfig)18623_storage": {
        "encoding": "inplace",
        "label": "struct FeeUpgradeable.FeeConfig",
        "members": [
          {
            "astId": 18620,
            "contract": "contracts/contracts-upgradable/token/oft/v2/fee/NativeOFTWithFeeUpgradeable.sol:NativeOFTWithFeeUpgradeable",
            "label": "feeBP",
            "offset": 0,
            "slot": "0",
            "type": "t_uint16"
          },
          {
            "astId": 18622,
            "contract": "contracts/contracts-upgradable/token/oft/v2/fee/NativeOFTWithFeeUpgradeable.sol:NativeOFTWithFeeUpgradeable",
            "label": "enabled",
            "offset": 2,
            "slot": "0",
            "type": "t_bool"
          }
        ],
        "numberOfBytes": "32"
      },
      "t_uint16": {
        "encoding": "inplace",
        "label": "uint16",
        "numberOfBytes": "2"
      },
      "t_uint256": {
        "encoding": "inplace",
        "label": "uint256",
        "numberOfBytes": "32"
      },
      "t_uint64": {
        "encoding": "inplace",
        "label": "uint64",
        "numberOfBytes": "8"
      },
      "t_uint8": {
        "encoding": "inplace",
        "label": "uint8",
        "numberOfBytes": "1"
      }
    }
  }
}