{
  "address": "0xDC2dc789ee5aD91Fb9f712d770Df1D67095584E2",
  "abi": [
    {
      "anonymous": false,
      "inputs": [
        {
          "indexed": true,
          "internalType": "uint16",
          "name": "_srcChainId",
          "type": "uint16"
        },
        {
          "indexed": false,
          "internalType": "bytes",
          "name": "_srcAddress",
          "type": "bytes"
        },
        {
          "indexed": false,
          "internalType": "uint64",
          "name": "_nonce",
          "type": "uint64"
        },
        {
          "indexed": false,
          "internalType": "bytes32",
          "name": "_hash",
          "type": "bytes32"
        }
      ],
      "name": "CallOFTReceivedSuccess",
      "type": "event"
    },
    {
      "anonymous": false,
      "inputs": [
        {
          "indexed": false,
          "internalType": "uint8",
          "name": "version",
          "type": "uint8"
        }
      ],
      "name": "Initialized",
      "type": "event"
    },
    {
      "anonymous": false,
      "inputs": [
        {
          "indexed": false,
          "internalType": "uint16",
          "name": "_srcChainId",
          "type": "uint16"
        },
        {
          "indexed": false,
          "internalType": "bytes",
          "name": "_srcAddress",
          "type": "bytes"
        },
        {
          "indexed": false,
          "internalType": "uint64",
          "name": "_nonce",
          "type": "uint64"
        },
        {
          "indexed": false,
          "internalType": "bytes",
          "name": "_payload",
          "type": "bytes"
        },
        {
          "indexed": false,
          "internalType": "bytes",
          "name": "_reason",
          "type": "bytes"
        }
      ],
      "name": "MessageFailed",
      "type": "event"
    },
    {
      "anonymous": false,
      "inputs": [
        {
          "indexed": false,
          "internalType": "address",
          "name": "_address",
          "type": "address"
        }
      ],
      "name": "NonContractAddress",
      "type": "event"
    },
    {
      "anonymous": false,
      "inputs": [
        {
          "indexed": true,
          "internalType": "address",
          "name": "previousOwner",
          "type": "address"
        },
        {
          "indexed": true,
          "internalType": "address",
          "name": "newOwner",
          "type": "address"
        }
      ],
      "name": "OwnershipTransferred",
      "type": "event"
    },
    {
      "anonymous": false,
      "inputs": [
        {
          "indexed": true,
          "internalType": "uint16",
          "name": "_srcChainId",
          "type": "uint16"
        },
        {
          "indexed": true,
          "internalType": "address",
          "name": "_to",
          "type": "address"
        },
        {
          "indexed": false,
          "internalType": "uint256",
          "name": "_amount",
          "type": "uint256"
        }
      ],
      "name": "ReceiveFromChain",
      "type": "event"
    },
    {
      "anonymous": false,
      "inputs": [
        {
          "indexed": false,
          "internalType": "uint16",
          "name": "_srcChainId",
          "type": "uint16"
        },
        {
          "indexed": false,
          "internalType": "bytes",
          "name": "_srcAddress",
          "type": "bytes"
        },
        {
          "indexed": false,
          "internalType": "uint64",
          "name": "_nonce",
          "type": "uint64"
        },
        {
          "indexed": false,
          "internalType": "bytes32",
          "name": "_payloadHash",
          "type": "bytes32"
        }
      ],
      "name": "RetryMessageSuccess",
      "type": "event"
    },
    {
      "anonymous": false,
      "inputs": [
        {
          "indexed": true,
          "internalType": "uint16",
          "name": "_dstChainId",
          "type": "uint16"
        },
        {
          "indexed": true,
          "internalType": "address",
          "name": "_from",
          "type": "address"
        },
        {
          "indexed": true,
          "internalType": "bytes32",
          "name": "_toAddress",
          "type": "bytes32"
        },
        {
          "indexed": false,
          "internalType": "uint256",
          "name": "_amount",
          "type": "uint256"
        }
      ],
      "name": "SendToChain",
      "type": "event"
    },
    {
      "anonymous": false,
      "inputs": [
        {
          "indexed": false,
          "internalType": "uint16",
          "name": "feeBp",
          "type": "uint16"
        }
      ],
      "name": "SetDefaultFeeBp",
      "type": "event"
    },
    {
      "anonymous": false,
      "inputs": [
        {
          "indexed": false,
          "internalType": "uint16",
          "name": "dstchainId",
          "type": "uint16"
        },
        {
          "indexed": false,
          "internalType": "bool",
          "name": "enabled",
          "type": "bool"
        },
        {
          "indexed": false,
          "internalType": "uint16",
          "name": "feeBp",
          "type": "uint16"
        }
      ],
      "name": "SetFeeBp",
      "type": "event"
    },
    {
      "anonymous": false,
      "inputs": [
        {
          "indexed": false,
          "internalType": "address",
          "name": "feeOwner",
          "type": "address"
        }
      ],
      "name": "SetFeeOwner",
      "type": "event"
    },
    {
      "anonymous": false,
      "inputs": [
        {
          "indexed": false,
          "internalType": "uint16",
          "name": "_dstChainId",
          "type": "uint16"
        },
        {
          "indexed": false,
          "internalType": "uint16",
          "name": "_type",
          "type": "uint16"
        },
        {
          "indexed": false,
          "internalType": "uint256",
          "name": "_minDstGas",
          "type": "uint256"
        }
      ],
      "name": "SetMinDstGas",
      "type": "event"
    },
    {
      "anonymous": false,
      "inputs": [
        {
          "indexed": false,
          "internalType": "address",
          "name": "precrime",
          "type": "address"
        }
      ],
      "name": "SetPrecrime",
      "type": "event"
    },
    {
      "anonymous": false,
      "inputs": [
        {
          "indexed": false,
          "internalType": "uint16",
          "name": "_remoteChainId",
          "type": "uint16"
        },
        {
          "indexed": false,
          "internalType": "bytes",
          "name": "_path",
          "type": "bytes"
        }
      ],
      "name": "SetTrustedRemote",
      "type": "event"
    },
    {
      "anonymous": false,
      "inputs": [
        {
          "indexed": false,
          "internalType": "uint16",
          "name": "_remoteChainId",
          "type": "uint16"
        },
        {
          "indexed": false,
          "internalType": "bytes",
          "name": "_remoteAddress",
          "type": "bytes"
        }
      ],
      "name": "SetTrustedRemoteAddress",
      "type": "event"
    },
    {
      "anonymous": false,
      "inputs": [
        {
          "indexed": false,
          "internalType": "bool",
          "name": "_useCustomAdapterParams",
          "type": "bool"
        }
      ],
      "name": "SetUseCustomAdapterParams",
      "type": "event"
    },
    {
      "inputs": [],
      "name": "BP_DENOMINATOR",
      "outputs": [
        {
          "internalType": "uint256",
          "name": "",
          "type": "uint256"
        }
      ],
      "stateMutability": "view",
      "type": "function"
    },
    {
      "inputs": [],
      "name": "DEFAULT_PAYLOAD_SIZE_LIMIT",
      "outputs": [
        {
          "internalType": "uint256",
          "name": "",
          "type": "uint256"
        }
      ],
      "stateMutability": "view",
      "type": "function"
    },
    {
      "inputs": [],
      "name": "NO_EXTRA_GAS",
      "outputs": [
        {
          "internalType": "uint256",
          "name": "",
          "type": "uint256"
        }
      ],
      "stateMutability": "view",
      "type": "function"
    },
    {
      "inputs": [],
      "name": "PT_SEND",
      "outputs": [
        {
          "internalType": "uint8",
          "name": "",
          "type": "uint8"
        }
      ],
      "stateMutability": "view",
      "type": "function"
    },
    {
      "inputs": [],
      "name": "PT_SEND_AND_CALL",
      "outputs": [
        {
          "internalType": "uint8",
          "name": "",
          "type": "uint8"
        }
      ],
      "stateMutability": "view",
      "type": "function"
    },
    {
      "inputs": [
        {
          "internalType": "uint16",
          "name": "_srcChainId",
          "type": "uint16"
        },
        {
          "internalType": "bytes",
          "name": "_srcAddress",
          "type": "bytes"
        },
        {
          "internalType": "uint64",
          "name": "_nonce",
          "type": "uint64"
        },
        {
          "internalType": "bytes32",
          "name": "_from",
          "type": "bytes32"
        },
        {
          "internalType": "address",
          "name": "_to",
          "type": "address"
        },
        {
          "internalType": "uint256",
          "name": "_amount",
          "type": "uint256"
        },
        {
          "internalType": "bytes",
          "name": "_payload",
          "type": "bytes"
        },
        {
          "internalType": "uint256",
          "name": "_gasForCall",
          "type": "uint256"
        }
      ],
      "name": "callOnOFTReceived",
      "outputs": [],
      "stateMutability": "nonpayable",
      "type": "function"
    },
    {
      "inputs": [
        {
          "internalType": "uint16",
          "name": "",
          "type": "uint16"
        }
      ],
      "name": "chainIdToFeeBps",
      "outputs": [
        {
          "internalType": "uint16",
          "name": "feeBP",
          "type": "uint16"
        },
        {
          "internalType": "bool",
          "name": "enabled",
          "type": "bool"
        }
      ],
      "stateMutability": "view",
      "type": "function"
    },
    {
      "inputs": [],
      "name": "circulatingSupply",
      "outputs": [
        {
          "internalType": "uint256",
          "name": "",
          "type": "uint256"
        }
      ],
      "stateMutability": "view",
      "type": "function"
    },
    {
      "inputs": [
        {
          "internalType": "uint16",
          "name": "",
          "type": "uint16"
        },
        {
          "internalType": "bytes",
          "name": "",
          "type": "bytes"
        },
        {
          "internalType": "uint64",
          "name": "",
          "type": "uint64"
        }
      ],
      "name": "creditedPackets",
      "outputs": [
        {
          "internalType": "bool",
          "name": "",
          "type": "bool"
        }
      ],
      "stateMutability": "view",
      "type": "function"
    },
    {
      "inputs": [],
      "name": "defaultFeeBp",
      "outputs": [
        {
          "internalType": "uint16",
          "name": "",
          "type": "uint16"
        }
      ],
      "stateMutability": "view",
      "type": "function"
    },
    {
      "inputs": [
        {
          "internalType": "uint16",
          "name": "_dstChainId",
          "type": "uint16"
        },
        {
          "internalType": "bytes32",
          "name": "_toAddress",
          "type": "bytes32"
        },
        {
          "internalType": "uint256",
          "name": "_amount",
          "type": "uint256"
        },
        {
          "internalType": "bytes",
          "name": "_payload",
          "type": "bytes"
        },
        {
          "internalType": "uint64",
          "name": "_dstGasForCall",
          "type": "uint64"
        },
        {
          "internalType": "bool",
          "name": "_useZro",
          "type": "bool"
        },
        {
          "internalType": "bytes",
          "name": "_adapterParams",
          "type": "bytes"
        }
      ],
      "name": "estimateSendAndCallFee",
      "outputs": [
        {
          "internalType": "uint256",
          "name": "nativeFee",
          "type": "uint256"
        },
        {
          "internalType": "uint256",
          "name": "zroFee",
          "type": "uint256"
        }
      ],
      "stateMutability": "view",
      "type": "function"
    },
    {
      "inputs": [
        {
          "internalType": "uint16",
          "name": "_dstChainId",
          "type": "uint16"
        },
        {
          "internalType": "bytes32",
          "name": "_toAddress",
          "type": "bytes32"
        },
        {
          "internalType": "uint256",
          "name": "_amount",
          "type": "uint256"
        },
        {
          "internalType": "bool",
          "name": "_useZro",
          "type": "bool"
        },
        {
          "internalType": "bytes",
          "name": "_adapterParams",
          "type": "bytes"
        }
      ],
      "name": "estimateSendFee",
      "outputs": [
        {
          "internalType": "uint256",
          "name": "nativeFee",
          "type": "uint256"
        },
        {
          "internalType": "uint256",
          "name": "zroFee",
          "type": "uint256"
        }
      ],
      "stateMutability": "view",
      "type": "function"
    },
    {
      "inputs": [
        {
          "internalType": "uint16",
          "name": "",
          "type": "uint16"
        },
        {
          "internalType": "bytes",
          "name": "",
          "type": "bytes"
        },
        {
          "internalType": "uint64",
          "name": "",
          "type": "uint64"
        }
      ],
      "name": "failedMessages",
      "outputs": [
        {
          "internalType": "bytes32",
          "name": "",
          "type": "bytes32"
        }
      ],
      "stateMutability": "view",
      "type": "function"
    },
    {
      "inputs": [],
      "name": "feeOwner",
      "outputs": [
        {
          "internalType": "address",
          "name": "",
          "type": "address"
        }
      ],
      "stateMutability": "view",
      "type": "function"
    },
    {
      "inputs": [
        {
          "internalType": "uint16",
          "name": "_srcChainId",
          "type": "uint16"
        },
        {
          "internalType": "bytes",
          "name": "_srcAddress",
          "type": "bytes"
        }
      ],
      "name": "forceResumeReceive",
      "outputs": [],
      "stateMutability": "nonpayable",
      "type": "function"
    },
    {
      "inputs": [
        {
          "internalType": "uint16",
          "name": "_version",
          "type": "uint16"
        },
        {
          "internalType": "uint16",
          "name": "_chainId",
          "type": "uint16"
        },
        {
          "internalType": "address",
          "name": "",
          "type": "address"
        },
        {
          "internalType": "uint256",
          "name": "_configType",
          "type": "uint256"
        }
      ],
      "name": "getConfig",
      "outputs": [
        {
          "internalType": "bytes",
          "name": "",
          "type": "bytes"
        }
      ],
      "stateMutability": "view",
      "type": "function"
    },
    {
      "inputs": [
        {
          "internalType": "uint16",
          "name": "_remoteChainId",
          "type": "uint16"
        }
      ],
      "name": "getTrustedRemoteAddress",
      "outputs": [
        {
          "internalType": "bytes",
          "name": "",
          "type": "bytes"
        }
      ],
      "stateMutability": "view",
      "type": "function"
    },
    {
      "inputs": [
        {
          "internalType": "address",
          "name": "_token",
          "type": "address"
        },
        {
          "internalType": "uint8",
          "name": "_sharedDecimals",
          "type": "uint8"
        },
        {
          "internalType": "address",
          "name": "_lzEndpoint",
          "type": "address"
        }
      ],
      "name": "initialize",
      "outputs": [],
      "stateMutability": "nonpayable",
      "type": "function"
    },
    {
      "inputs": [
        {
          "internalType": "uint16",
          "name": "_srcChainId",
          "type": "uint16"
        },
        {
          "internalType": "bytes",
          "name": "_srcAddress",
          "type": "bytes"
        }
      ],
      "name": "isTrustedRemote",
      "outputs": [
        {
          "internalType": "bool",
          "name": "",
          "type": "bool"
        }
      ],
      "stateMutability": "view",
      "type": "function"
    },
    {
      "inputs": [],
      "name": "lzEndpoint",
      "outputs": [
        {
          "internalType": "contract ILayerZeroEndpointUpgradeable",
          "name": "",
          "type": "address"
        }
      ],
      "stateMutability": "view",
      "type": "function"
    },
    {
      "inputs": [
        {
          "internalType": "uint16",
          "name": "_srcChainId",
          "type": "uint16"
        },
        {
          "internalType": "bytes",
          "name": "_srcAddress",
          "type": "bytes"
        },
        {
          "internalType": "uint64",
          "name": "_nonce",
          "type": "uint64"
        },
        {
          "internalType": "bytes",
          "name": "_payload",
          "type": "bytes"
        }
      ],
      "name": "lzReceive",
      "outputs": [],
      "stateMutability": "nonpayable",
      "type": "function"
    },
    {
      "inputs": [
        {
          "internalType": "uint16",
          "name": "",
          "type": "uint16"
        },
        {
          "internalType": "uint16",
          "name": "",
          "type": "uint16"
        }
      ],
      "name": "minDstGasLookup",
      "outputs": [
        {
          "internalType": "uint256",
          "name": "",
          "type": "uint256"
        }
      ],
      "stateMutability": "view",
      "type": "function"
    },
    {
      "inputs": [
        {
          "internalType": "uint16",
          "name": "_srcChainId",
          "type": "uint16"
        },
        {
          "internalType": "bytes",
          "name": "_srcAddress",
          "type": "bytes"
        },
        {
          "internalType": "uint64",
          "name": "_nonce",
          "type": "uint64"
        },
        {
          "internalType": "bytes",
          "name": "_payload",
          "type": "bytes"
        }
      ],
      "name": "nonblockingLzReceive",
      "outputs": [],
      "stateMutability": "nonpayable",
      "type": "function"
    },
    {
      "inputs": [],
      "name": "outboundAmount",
      "outputs": [
        {
          "internalType": "uint256",
          "name": "",
          "type": "uint256"
        }
      ],
      "stateMutability": "view",
      "type": "function"
    },
    {
      "inputs": [],
      "name": "owner",
      "outputs": [
        {
          "internalType": "address",
          "name": "",
          "type": "address"
        }
      ],
      "stateMutability": "view",
      "type": "function"
    },
    {
      "inputs": [
        {
          "internalType": "uint16",
          "name": "",
          "type": "uint16"
        }
      ],
      "name": "payloadSizeLimitLookup",
      "outputs": [
        {
          "internalType": "uint256",
          "name": "",
          "type": "uint256"
        }
      ],
      "stateMutability": "view",
      "type": "function"
    },
    {
      "inputs": [],
      "name": "precrime",
      "outputs": [
        {
          "internalType": "address",
          "name": "",
          "type": "address"
        }
      ],
      "stateMutability": "view",
      "type": "function"
    },
    {
      "inputs": [
        {
          "internalType": "uint16",
          "name": "_dstChainId",
          "type": "uint16"
        },
        {
          "internalType": "uint256",
          "name": "_amount",
          "type": "uint256"
        }
      ],
      "name": "quoteOFTFee",
      "outputs": [
        {
          "internalType": "uint256",
          "name": "fee",
          "type": "uint256"
        }
      ],
      "stateMutability": "view",
      "type": "function"
    },
    {
      "inputs": [],
      "name": "renounceOwnership",
      "outputs": [],
      "stateMutability": "nonpayable",
      "type": "function"
    },
    {
      "inputs": [
        {
          "internalType": "uint16",
          "name": "_srcChainId",
          "type": "uint16"
        },
        {
          "internalType": "bytes",
          "name": "_srcAddress",
          "type": "bytes"
        },
        {
          "internalType": "uint64",
          "name": "_nonce",
          "type": "uint64"
        },
        {
          "internalType": "bytes",
          "name": "_payload",
          "type": "bytes"
        }
      ],
      "name": "retryMessage",
      "outputs": [],
      "stateMutability": "payable",
      "type": "function"
    },
    {
      "inputs": [
        {
          "internalType": "address",
          "name": "_from",
          "type": "address"
        },
        {
          "internalType": "uint16",
          "name": "_dstChainId",
          "type": "uint16"
        },
        {
          "internalType": "bytes32",
          "name": "_toAddress",
          "type": "bytes32"
        },
        {
          "internalType": "uint256",
          "name": "_amount",
          "type": "uint256"
        },
        {
          "internalType": "uint256",
          "name": "_minAmount",
          "type": "uint256"
        },
        {
          "internalType": "bytes",
          "name": "_payload",
          "type": "bytes"
        },
        {
          "internalType": "uint64",
          "name": "_dstGasForCall",
          "type": "uint64"
        },
        {
          "components": [
            {
              "internalType": "address payable",
              "name": "refundAddress",
              "type": "address"
            },
            {
              "internalType": "address",
              "name": "zroPaymentAddress",
              "type": "address"
            },
            {
              "internalType": "bytes",
              "name": "adapterParams",
              "type": "bytes"
            }
          ],
          "internalType": "struct ICommonOFTUpgradeable.LzCallParams",
          "name": "_callParams",
          "type": "tuple"
        }
      ],
      "name": "sendAndCall",
      "outputs": [],
      "stateMutability": "payable",
      "type": "function"
    },
    {
      "inputs": [
        {
          "internalType": "address",
          "name": "_from",
          "type": "address"
        },
        {
          "internalType": "uint16",
          "name": "_dstChainId",
          "type": "uint16"
        },
        {
          "internalType": "bytes32",
          "name": "_toAddress",
          "type": "bytes32"
        },
        {
          "internalType": "uint256",
          "name": "_amount",
          "type": "uint256"
        },
        {
          "internalType": "uint256",
          "name": "_minAmount",
          "type": "uint256"
        },
        {
          "components": [
            {
              "internalType": "address payable",
              "name": "refundAddress",
              "type": "address"
            },
            {
              "internalType": "address",
              "name": "zroPaymentAddress",
              "type": "address"
            },
            {
              "internalType": "bytes",
              "name": "adapterParams",
              "type": "bytes"
            }
          ],
          "internalType": "struct ICommonOFTUpgradeable.LzCallParams",
          "name": "_callParams",
          "type": "tuple"
        }
      ],
      "name": "sendFrom",
      "outputs": [],
      "stateMutability": "payable",
      "type": "function"
    },
    {
      "inputs": [
        {
          "internalType": "uint16",
          "name": "_version",
          "type": "uint16"
        },
        {
          "internalType": "uint16",
          "name": "_chainId",
          "type": "uint16"
        },
        {
          "internalType": "uint256",
          "name": "_configType",
          "type": "uint256"
        },
        {
          "internalType": "bytes",
          "name": "_config",
          "type": "bytes"
        }
      ],
      "name": "setConfig",
      "outputs": [],
      "stateMutability": "nonpayable",
      "type": "function"
    },
    {
      "inputs": [
        {
          "internalType": "uint16",
          "name": "_feeBp",
          "type": "uint16"
        }
      ],
      "name": "setDefaultFeeBp",
      "outputs": [],
      "stateMutability": "nonpayable",
      "type": "function"
    },
    {
      "inputs": [
        {
          "internalType": "uint16",
          "name": "_dstChainId",
          "type": "uint16"
        },
        {
          "internalType": "bool",
          "name": "_enabled",
          "type": "bool"
        },
        {
          "internalType": "uint16",
          "name": "_feeBp",
          "type": "uint16"
        }
      ],
      "name": "setFeeBp",
      "outputs": [],
      "stateMutability": "nonpayable",
      "type": "function"
    },
    {
      "inputs": [
        {
          "internalType": "address",
          "name": "_feeOwner",
          "type": "address"
        }
      ],
      "name": "setFeeOwner",
      "outputs": [],
      "stateMutability": "nonpayable",
      "type": "function"
    },
    {
      "inputs": [
        {
          "internalType": "uint16",
          "name": "_dstChainId",
          "type": "uint16"
        },
        {
          "internalType": "uint16",
          "name": "_packetType",
          "type": "uint16"
        },
        {
          "internalType": "uint256",
          "name": "_minGas",
          "type": "uint256"
        }
      ],
      "name": "setMinDstGas",
      "outputs": [],
      "stateMutability": "nonpayable",
      "type": "function"
    },
    {
      "inputs": [
        {
          "internalType": "uint16",
          "name": "_dstChainId",
          "type": "uint16"
        },
        {
          "internalType": "uint256",
          "name": "_size",
          "type": "uint256"
        }
      ],
      "name": "setPayloadSizeLimit",
      "outputs": [],
      "stateMutability": "nonpayable",
      "type": "function"
    },
    {
      "inputs": [
        {
          "internalType": "address",
          "name": "_precrime",
          "type": "address"
        }
      ],
      "name": "setPrecrime",
      "outputs": [],
      "stateMutability": "nonpayable",
      "type": "function"
    },
    {
      "inputs": [
        {
          "internalType": "uint16",
          "name": "_version",
          "type": "uint16"
        }
      ],
      "name": "setReceiveVersion",
      "outputs": [],
      "stateMutability": "nonpayable",
      "type": "function"
    },
    {
      "inputs": [
        {
          "internalType": "uint16",
          "name": "_version",
          "type": "uint16"
        }
      ],
      "name": "setSendVersion",
      "outputs": [],
      "stateMutability": "nonpayable",
      "type": "function"
    },
    {
      "inputs": [
        {
          "internalType": "uint16",
          "name": "_srcChainId",
          "type": "uint16"
        },
        {
          "internalType": "bytes",
          "name": "_path",
          "type": "bytes"
        }
      ],
      "name": "setTrustedRemote",
      "outputs": [],
      "stateMutability": "nonpayable",
      "type": "function"
    },
    {
      "inputs": [
        {
          "internalType": "uint16",
          "name": "_remoteChainId",
          "type": "uint16"
        },
        {
          "internalType": "bytes",
          "name": "_remoteAddress",
          "type": "bytes"
        }
      ],
      "name": "setTrustedRemoteAddress",
      "outputs": [],
      "stateMutability": "nonpayable",
      "type": "function"
    },
    {
      "inputs": [
        {
          "internalType": "bool",
          "name": "_useCustomAdapterParams",
          "type": "bool"
        }
      ],
      "name": "setUseCustomAdapterParams",
      "outputs": [],
      "stateMutability": "nonpayable",
      "type": "function"
    },
    {
      "inputs": [],
      "name": "sharedDecimals",
      "outputs": [
        {
          "internalType": "uint8",
          "name": "",
          "type": "uint8"
        }
      ],
      "stateMutability": "view",
      "type": "function"
    },
    {
      "inputs": [
        {
          "internalType": "bytes4",
          "name": "interfaceId",
          "type": "bytes4"
        }
      ],
      "name": "supportsInterface",
      "outputs": [
        {
          "internalType": "bool",
          "name": "",
          "type": "bool"
        }
      ],
      "stateMutability": "view",
      "type": "function"
    },
    {
      "inputs": [],
      "name": "token",
      "outputs": [
        {
          "internalType": "address",
          "name": "",
          "type": "address"
        }
      ],
      "stateMutability": "view",
      "type": "function"
    },
    {
      "inputs": [
        {
          "internalType": "address",
          "name": "newOwner",
          "type": "address"
        }
      ],
      "name": "transferOwnership",
      "outputs": [],
      "stateMutability": "nonpayable",
      "type": "function"
    },
    {
      "inputs": [
        {
          "internalType": "uint16",
          "name": "",
          "type": "uint16"
        }
      ],
      "name": "trustedRemoteLookup",
      "outputs": [
        {
          "internalType": "bytes",
          "name": "",
          "type": "bytes"
        }
      ],
      "stateMutability": "view",
      "type": "function"
    },
    {
      "inputs": [],
      "name": "useCustomAdapterParams",
      "outputs": [
        {
          "internalType": "bool",
          "name": "",
          "type": "bool"
        }
      ],
      "stateMutability": "view",
      "type": "function"
    }
  ],
  "transactionHash": "0xfcb97b3e1b40c540bd235bdb514efc9f1bc74f2df39124b9ab1d2401d25ecf8d",
  "args": [],
  "numDeployments": 1,
  "solcInputHash": "8313c17822638cfb28f4331864b9ea01",
  "bytecode": "0x60806040523480156200001157600080fd5b506200001c62000022565b620000e3565b600054610100900460ff16156200008f5760405162461bcd60e51b815260206004820152602760248201527f496e697469616c697a61626c653a20636f6e747261637420697320696e697469604482015266616c697a696e6760c81b606482015260840160405180910390fd5b60005460ff90811614620000e1576000805460ff191660ff9081179091556040519081527f7f26b83ff96e1f2b6a682f133852f6798a09c465da95921460cefb38474024989060200160405180910390a15b565b61497e80620000f36000396000f3fe6080604052600436106102c85760003560e01c80639689cb0511610175578063d1deba1f116100dc578063eb8d72b711610095578063f2fde38b1161006f578063f2fde38b14610930578063f35f9e4514610950578063f5ecbdbc14610970578063fc0c546a1461099057600080fd5b8063eb8d72b7146108d1578063ecd8f212146108f1578063ed629c5c1461091157600080fd5b8063d1deba1f1461081b578063d88829681461082e578063df2a5b3b1461085c578063e6a20ae61461087c578063eab45d9c14610891578063eaffd49a146108b157600080fd5b8063b353aaa71161012e578063b353aaa71461073f578063b9818be11461075f578063baf3292d14610785578063c446183414610729578063c83330ce146107a5578063cbed8b9c146107fb57600080fd5b80639689cb05146106605780639bdb9812146106775780639f38369a146106c9578063a4c51df5146106e9578063a6c3d16514610709578063abe685cd1461072957600080fd5b80634b104eff116102345780637533d788116101ed5780638cfd8f5c116101c75780638cfd8f5c146105c15780638da5cb5b146105f95780639358928b1461062b578063950c8a741461064057600080fd5b80637533d7881461055a57806379c0ad4b14610587578063857749b0146105a757600080fd5b80634b104eff1461046f5780634c42899a1461048f5780635a359dc5146104b65780635b8c41e6146104d657806366ad5c8a14610525578063715018a61461054557600080fd5b8063365260b411610286578063365260b4146103975780633d8b38f6146103cc5780633f1f4fa4146103ec57806342d65a8d146104275780634477051514610447578063455ba27d1461045c57600080fd5b80621d3567146102cd57806301ffc9a7146102ef57806307e0db17146103245780630df374831461034457806310ddb137146103645780632cdf0b9514610384575b600080fd5b3480156102d957600080fd5b506102ed6102e83660046137e5565b6109af565b005b3480156102fb57600080fd5b5061030f61030a366004613878565b610bcb565b60405190151581526020015b60405180910390f35b34801561033057600080fd5b506102ed61033f3660046138a2565b610c02565b34801561035057600080fd5b506102ed61035f3660046138bd565b610c6f565b34801561037057600080fd5b506102ed61037f3660046138a2565b610c8e565b6102ed610392366004613914565b610cca565b3480156103a357600080fd5b506103b76103b236600461399d565b610d6d565b6040805192835260208301919091520161031b565b3480156103d857600080fd5b5061030f6103e7366004613a04565b610dc2565b3480156103f857600080fd5b506104196104073660046138a2565b60686020526000908152604090205481565b60405190815260200161031b565b34801561043357600080fd5b506102ed610442366004613a04565b610e8f565b34801561045357600080fd5b50610419600081565b6102ed61046a366004613a56565b610ef9565b34801561047b57600080fd5b506102ed61048a366004613b12565b610fda565b34801561049b57600080fd5b506104a4600081565b60405160ff909116815260200161031b565b3480156104c257600080fd5b506102ed6104d13660046138a2565b611097565b3480156104e257600080fd5b506104196104f1366004613b9c565b6097602090815260009384526040808520845180860184018051928152908401958401959095209452929052825290205481565b34801561053157600080fd5b506102ed6105403660046137e5565b611109565b34801561055157600080fd5b506102ed6111dd565b34801561056657600080fd5b5061057a6105753660046138a2565b6111f1565b60405161031b9190613c8c565b34801561059357600080fd5b506102ed6105a2366004613c9f565b61128b565b3480156105b357600080fd5b5060c9546104a49060ff1681565b3480156105cd57600080fd5b506104196105dc366004613cdb565b606760209081526000928352604080842090915290825290205481565b34801561060557600080fd5b506033546001600160a01b03165b6040516001600160a01b03909116815260200161031b565b34801561063757600080fd5b50610419611347565b34801561064c57600080fd5b50606954610613906001600160a01b031681565b34801561066c57600080fd5b5061041961018c5481565b34801561068357600080fd5b5061030f610692366004613b9c565b60ca602090815260009384526040808520845180860184018051928152908401958401959095209452929052825290205460ff1681565b3480156106d557600080fd5b5061057a6106e43660046138a2565b6113ca565b3480156106f557600080fd5b506103b7610704366004613d0e565b6114d9565b34801561071557600080fd5b506102ed610724366004613a04565b611568565b34801561073557600080fd5b5061041961271081565b34801561074b57600080fd5b50606554610613906001600160a01b031681565b34801561076b57600080fd5b5060f854610613906201000090046001600160a01b031681565b34801561079157600080fd5b506102ed6107a0366004613b12565b6115e4565b3480156107b157600080fd5b506107e16107c03660046138a2565b60f76020526000908152604090205461ffff81169062010000900460ff1682565b6040805161ffff909316835290151560208301520161031b565b34801561080757600080fd5b506102ed610816366004613dcb565b61163a565b6102ed6108293660046137e5565b6116a8565b34801561083a57600080fd5b5060f8546108499061ffff1681565b60405161ffff909116815260200161031b565b34801561086857600080fd5b506102ed610877366004613e39565b6118be565b34801561088857600080fd5b506104a4600181565b34801561089d57600080fd5b506102ed6108ac366004613e75565b611970565b3480156108bd57600080fd5b506102ed6108cc366004613e92565b6119c1565b3480156108dd57600080fd5b506102ed6108ec366004613a04565b611ae0565b3480156108fd57600080fd5b5061041961090c3660046138bd565b611b3a565b34801561091d57600080fd5b5060c95461030f90610100900460ff1681565b34801561093c57600080fd5b506102ed61094b366004613b12565b611bcc565b34801561095c57600080fd5b506102ed61096b366004613f69565b611c45565b34801561097c57600080fd5b5061057a61098b366004613fb4565b611f05565b34801561099c57600080fd5b5061018a546001600160a01b0316610613565b6065546001600160a01b0316336001600160a01b031614610a175760405162461bcd60e51b815260206004820152601e60248201527f4c7a4170703a20696e76616c696420656e64706f696e742063616c6c6572000060448201526064015b60405180910390fd5b61ffff861660009081526066602052604081208054610a3590614001565b80601f0160208091040260200160405190810160405280929190818152602001828054610a6190614001565b8015610aae5780601f10610a8357610100808354040283529160200191610aae565b820191906000526020600020905b815481529060010190602001808311610a9157829003601f168201915b50505050509050805186869050148015610ac9575060008151115b8015610af1575080516020820120604051610ae79088908890614035565b6040518091039020145b610b4c5760405162461bcd60e51b815260206004820152602660248201527f4c7a4170703a20696e76616c696420736f757263652073656e64696e6720636f6044820152651b9d1c9858dd60d21b6064820152608401610a0e565b610bc28787878080601f01602080910402602001604051908101604052809392919081815260200183838082843760009201919091525050604080516020601f8a018190048102820181019092528881528a935091508890889081908401838280828437600092019190915250611f9a92505050565b50505050505050565b60006001600160e01b03198216630d30953d60e31b1480610bfc57506301ffc9a760e01b6001600160e01b03198316145b92915050565b610c0a612013565b6065546040516307e0db1760e01b815261ffff831660048201526001600160a01b03909116906307e0db17906024015b600060405180830381600087803b158015610c5457600080fd5b505af1158015610c68573d6000803e3d6000fd5b5050505050565b610c77612013565b61ffff909116600090815260686020526040902055565b610c96612013565b6065546040516310ddb13760e01b815261ffff831660048201526001600160a01b03909116906310ddb13790602401610c3a565b610cd586868561206d565b509250610d4386868686610cec6020870187613b12565b610cfc6040880160208901613b12565b610d096040890189614045565b8080601f0160208091040260200160405190810160405280939291908181526020018383808284376000920191909152506120b692505050565b925081831015610d655760405162461bcd60e51b8152600401610a0e9061408b565b505050505050565b600080610db38888888888888080601f0160208091040260200160405190810160405280939291908181526020018383808284376000920191909152506121da92505050565b91509150965096945050505050565b61ffff831660009081526066602052604081208054829190610de390614001565b80601f0160208091040260200160405190810160405280929190818152602001828054610e0f90614001565b8015610e5c5780601f10610e3157610100808354040283529160200191610e5c565b820191906000526020600020905b815481529060010190602001808311610e3f57829003601f168201915b505050505090508383604051610e73929190614035565b60405180910390208180519060200120149150505b9392505050565b610e97612013565b6065546040516342d65a8d60e01b81526001600160a01b03909116906342d65a8d90610ecb90869086908690600401614101565b600060405180830381600087803b158015610ee557600080fd5b505af1158015610bc2573d6000803e3d6000fd5b610f0489898861206d565b5080965050610fad8989898988888080601f0160208091040260200160405190810160405280939291908181526020018383808284376000920191909152508a9250610f569150506020890189613b12565b610f6660408a0160208b01613b12565b610f7360408b018b614045565b8080601f01602080910402602001604051908101604052809392919081815260200183838082843760009201919091525061227492505050565b955084861015610fcf5760405162461bcd60e51b8152600401610a0e9061408b565b505050505050505050565b610fe2612013565b6001600160a01b0381166110385760405162461bcd60e51b815260206004820152601a60248201527f4665653a206665654f776e65722063616e6e6f742062652030780000000000006044820152606401610a0e565b60f8805462010000600160b01b031916620100006001600160a01b038416908102919091179091556040519081527f047912631afa564eebd3db2efe191a0dec62da1fede6bbbc1ffc89d87845b1b5906020015b60405180910390a150565b61109f612013565b6127108161ffff1611156110c55760405162461bcd60e51b8152600401610a0e9061411f565b60f8805461ffff191661ffff83169081179091556040519081527fd26030ef4a8c225ee12b646eb4466acb41fb96b6cd4660b22d0ba0124e7bdc749060200161108c565b3330146111675760405162461bcd60e51b815260206004820152602660248201527f4e6f6e626c6f636b696e674c7a4170703a2063616c6c6572206d7573742062656044820152650204c7a4170760d41b6064820152608401610a0e565b610d658686868080601f01602080910402602001604051908101604052809392919081815260200183838082843760009201919091525050604080516020601f89018190048102820181019092528781528993509150879087908190840183828082843760009201919091525061237092505050565b6111e5612013565b6111ef60006123f7565b565b6066602052600090815260409020805461120a90614001565b80601f016020809104026020016040519081016040528092919081815260200182805461123690614001565b80156112835780601f1061125857610100808354040283529160200191611283565b820191906000526020600020905b81548152906001019060200180831161126657829003601f168201915b505050505081565b611293612013565b6127108161ffff1611156112b95760405162461bcd60e51b8152600401610a0e9061411f565b60408051808201825261ffff8381168083528515156020808501828152898516600081815260f784528890209651875492511515620100000262ffffff1990931696169590951717909455845192835292820192909252918201527fdd9c9685af3e6dcb56d8f4b88d2595d4add6837a150034e7781c46b6dcf8aaab906060015b60405180910390a1505050565b61018c5461018a54604080516318160ddd60e01b81529051600093926001600160a01b0316916318160ddd9160048083019260209291908290030181865afa158015611397573d6000803e3d6000fd5b505050506040513d601f19601f820116820180604052508101906113bb9190614164565b6113c59190614193565b905090565b61ffff81166000908152606660205260408120805460609291906113ed90614001565b80601f016020809104026020016040519081016040528092919081815260200182805461141990614001565b80156114665780601f1061143b57610100808354040283529160200191611466565b820191906000526020600020905b81548152906001019060200180831161144957829003601f168201915b5050505050905080516000036114be5760405162461bcd60e51b815260206004820152601d60248201527f4c7a4170703a206e6f20747275737465642070617468207265636f72640000006044820152606401610a0e565b610e886000601483516114d19190614193565b839190612449565b6000806115568b8b8b8b8b8080601f01602080910402602001604051908101604052809392919081815260200183838082843760009201919091525050604080516020601f8d018190048102820181019092528b81528e93508d9250908c908c908190840183828082843760009201919091525061255692505050565b91509150995099975050505050505050565b611570612013565b818130604051602001611585939291906141a6565b60408051601f1981840301815291815261ffff85166000908152606660205220906115b09082614212565b507f8c0400cfe2d1199b1a725c78960bcc2a344d869b80590d0f2bd005db15a572ce83838360405161133a93929190614101565b6115ec612013565b606980546001600160a01b0319166001600160a01b0383169081179091556040519081527f5db758e995a17ec1ad84bdef7e8c3293a0bd6179bcce400dff5d4c3d87db726b9060200161108c565b611642612013565b6065546040516332fb62e760e21b81526001600160a01b039091169063cbed8b9c9061167a90889088908890889088906004016142d1565b600060405180830381600087803b15801561169457600080fd5b505af1158015610fcf573d6000803e3d6000fd5b61ffff861660009081526097602052604080822090516116cb9088908890614035565b90815260408051602092819003830190206001600160401b0387166000908152925290205490508061174b5760405162461bcd60e51b815260206004820152602360248201527f4e6f6e626c6f636b696e674c7a4170703a206e6f2073746f726564206d65737360448201526261676560e81b6064820152608401610a0e565b80838360405161175c929190614035565b6040518091039020146117bb5760405162461bcd60e51b815260206004820152602160248201527f4e6f6e626c6f636b696e674c7a4170703a20696e76616c6964207061796c6f616044820152601960fa1b6064820152608401610a0e565b61ffff871660009081526097602052604080822090516117de9089908990614035565b90815260408051602092819003830181206001600160401b038916600090815290845282902093909355601f88018290048202830182019052868252611876918991899089908190840183828082843760009201919091525050604080516020601f8a018190048102820181019092528881528a93509150889088908190840183828082843760009201919091525061237092505050565b7fc264d91f3adc5588250e1551f547752ca0cfa8f6b530d243b9f9f4cab10ea8e587878787856040516118ad9594939291906142ff565b60405180910390a150505050505050565b6118c6612013565b6000811161190e5760405162461bcd60e51b81526020600482015260156024820152744c7a4170703a20696e76616c6964206d696e47617360581b6044820152606401610a0e565b61ffff83811660008181526067602090815260408083209487168084529482529182902085905581519283528201929092529081018290527f9d5c7c0b934da8fefa9c7760c98383778a12dfbfc0c3b3106518f43fb9508ac09060600161133a565b611978612013565b60c980548215156101000261ff00199091161790556040517f1584ad594a70cbe1e6515592e1272a987d922b097ead875069cebe8b40c004a49061108c90831515815260200190565b333014611a105760405162461bcd60e51b815260206004820152601f60248201527f4f4654436f72653a2063616c6c6572206d757374206265204f4654436f7265006044820152606401610a0e565b611a1b3086866125f3565b9350846001600160a01b03168a61ffff167fbf551ec93859b170f9b2141bd9298bf3f64322c6f7beb2543a0cb669834118bf86604051611a5d91815260200190565b60405180910390a3604051633fe79aed60e11b81526001600160a01b03861690637fcf35da908390611aa1908e908e908e908e908e908d908d908d9060040161433a565b600060405180830381600088803b158015611abb57600080fd5b5087f1158015611acf573d6000803e3d6000fd5b505050505050505050505050505050565b611ae8612013565b61ffff83166000908152606660205260409020611b06828483614395565b507ffa41487ad5d6728f0b19276fa1eddc16558578f5109fc39d2dc33c3230470dab83838360405161133a93929190614101565b61ffff828116600090815260f76020908152604080832081518083019092525493841681526201000090930460ff1615801591840191909152909190611b9f57805161271090611b8e9061ffff1685614454565b611b989190614481565b9150611bc5565b60f85461ffff1615611bc05760f85461271090611b8e9061ffff1685614454565b600091505b5092915050565b611bd4612013565b6001600160a01b038116611c395760405162461bcd60e51b815260206004820152602660248201527f4f776e61626c653a206e6577206f776e657220697320746865207a65726f206160448201526564647265737360d01b6064820152608401610a0e565b611c42816123f7565b50565b600054610100900460ff1615808015611c655750600054600160ff909116105b80611c7f5750303b158015611c7f575060005460ff166001145b611ce25760405162461bcd60e51b815260206004820152602e60248201527f496e697469616c697a61626c653a20636f6e747261637420697320616c72656160448201526d191e481a5b9a5d1a585b1a5e995960921b6064820152608401610a0e565b6000805460ff191660011790558015611d05576000805461ff0019166101001790555b611d0f8383612730565b61018a80546001600160a01b0386166001600160a01b0319909116811790915560408051600481526024810182526020810180516001600160e01b031663313ce56760e01b179052905160009283929091611d6a9190614495565b600060405180830381855afa9150503d8060008114611da5576040519150601f19603f3d011682016040523d82523d6000602084013e611daa565b606091505b509150915081611e125760405162461bcd60e51b815260206004820152602d60248201527f50726f78794f4654576974684665653a206661696c656420746f20676574207460448201526c6f6b656e20646563696d616c7360981b6064820152608401610a0e565b600081806020019051810190611e2891906144b1565b90508060ff168660ff161115611e9c5760405162461bcd60e51b815260206004820152603360248201527f50726f78794f4654576974684665653a20736861726564446563696d616c73206044820152726d757374206265203c3d20646563696d616c7360681b6064820152608401610a0e565b611ea686826144ce565b611eb190600a6145cb565b61018b55505081159050611eff576000805461ff0019169055604051600181527f7f26b83ff96e1f2b6a682f133852f6798a09c465da95921460cefb38474024989060200160405180910390a15b50505050565b606554604051633d7b2f6f60e21b815261ffff808716600483015285166024820152306044820152606481018390526060916001600160a01b03169063f5ecbdbc90608401600060405180830381865afa158015611f67573d6000803e3d6000fd5b505050506040513d6000823e601f3d908101601f19168201604052611f8f91908101906145da565b90505b949350505050565b600080611ffd5a60966366ad5c8a60e01b89898989604051602401611fc29493929190614647565b60408051601f198184030181529190526020810180516001600160e01b03166001600160e01b03199093169290921790915230929190612775565b9150915081610d6557610d6586868686856127ff565b6033546001600160a01b031633146111ef5760405162461bcd60e51b815260206004820181905260248201527f4f776e61626c653a2063616c6c6572206973206e6f7420746865206f776e65726044820152606401610a0e565b60008061207a8484611b3a565b90506120868184614193565b915080156120ae5760f8546120ac9086906201000090046001600160a01b0316836125f3565b505b935093915050565b60006120c48782848161289c565b6120cd8561291b565b5090506120dc88888884612945565b90506000811161212a5760405162461bcd60e51b815260206004820152601960248201527813d19510dbdc994e88185b5bdd5b9d081d1bdbc81cdb585b1b603a1b6044820152606401610a0e565b60006121758761213984612a8a565b6040805160006020820152602181019390935260c09190911b6001600160c01b0319166041830152805160298184030181526049909201905290565b9050612185888287878734612afa565b86896001600160a01b03168961ffff167fd81fc9b8523134ed613870ed029d6170cbb73aa6a6bc311b9a642689fb9df59a856040516121c691815260200190565b60405180910390a450979650505050505050565b60008060006121ec8761213988612a8a565b60655460405163040a7bb160e41b81529192506001600160a01b0316906340a7bb1090612225908b90309086908b908b90600401614685565b6040805180830381865afa158015612241573d6000803e3d6000fd5b505050506040513d601f19601f8201168201806040525081019061226591906146d9565b92509250509550959350505050565b600061228c896001846001600160401b03891661289c565b6122958761291b565b5090506122a48a8a8a84612945565b9050600081116122f25760405162461bcd60e51b815260206004820152601960248201527813d19510dbdc994e88185b5bdd5b9d081d1bdbc81cdb585b1b603a1b6044820152606401610a0e565b6000612309338a61230285612a8a565b8a8a612c83565b90506123198a8287878734612afa565b888b6001600160a01b03168b61ffff167fd81fc9b8523134ed613870ed029d6170cbb73aa6a6bc311b9a642689fb9df59a8560405161235a91815260200190565b60405180910390a4509998505050505050505050565b600061237c8282612cc4565b905060ff81166123975761239285858585612d20565b610c68565b60001960ff8216016123af5761239285858585612db0565b60405162461bcd60e51b815260206004820152601c60248201527f4f4654436f72653a20756e6b6e6f776e207061636b65742074797065000000006044820152606401610a0e565b603380546001600160a01b038381166001600160a01b0319831681179093556040519116919082907f8be0079c531659141344cd1fd0a4f28419497f9722a3daafe3b4186f6b6457e090600090a35050565b60608161245781601f6146fd565b10156124965760405162461bcd60e51b815260206004820152600e60248201526d736c6963655f6f766572666c6f7760901b6044820152606401610a0e565b6124a082846146fd565b845110156124e45760405162461bcd60e51b8152602060048201526011602482015270736c6963655f6f75744f66426f756e647360781b6044820152606401610a0e565b606082158015612503576040519150600082526020820160405261254d565b6040519150601f8416801560200281840101858101878315602002848b0101015b8183101561253c578051835260209283019201612524565b5050858452601f01601f1916604052505b50949350505050565b6000806000612569338a6123028b612a8a565b60655460405163040a7bb160e41b81529192506001600160a01b0316906340a7bb10906125a2908d90309086908b908b90600401614685565b6040805180830381865afa1580156125be573d6000803e3d6000fd5b505050506040513d601f19601f820116820180604052508101906125e291906146d9565b925092505097509795505050505050565b61018a546040516370a0823160e01b81526001600160a01b03848116600483015260009283929116906370a0823190602401602060405180830381865afa158015612642573d6000803e3d6000fd5b505050506040513d601f19601f820116820180604052508101906126669190614164565b9050306001600160a01b038616036126955761018a54612690906001600160a01b03168585612fbe565b6126ae565b61018a546126ae906001600160a01b0316868686613026565b61018a546040516370a0823160e01b81526001600160a01b038681166004830152839216906370a0823190602401602060405180830381865afa1580156126f9573d6000803e3d6000fd5b505050506040513d601f19601f8201168201806040525081019061271d9190614164565b6127279190614193565b95945050505050565b600054610100900460ff166127575760405162461bcd60e51b8152600401610a0e90614710565b61275f61305e565b6127688161308e565b612771826130d7565b5050565b6000606060008060008661ffff166001600160401b0381111561279a5761279a613b2f565b6040519080825280601f01601f1916602001820160405280156127c4576020820181803683370190505b50905060008087516020890160008d8df191503d9250868311156127e6578692505b828152826000602083013e909890975095505050505050565b8180519060200120609760008761ffff1661ffff168152602001908152602001600020856040516128309190614495565b9081526040805191829003602090810183206001600160401b0388166000908152915220919091557fe183f33de2837795525b4792ca4cd60535bd77c53b7e7030060bfcf5734d6b0c9061288d908790879087908790879061475b565b60405180910390a15050505050565b60c954610100900460ff16156128bd576128b884848484613114565b611eff565b815115611eff5760405162461bcd60e51b815260206004820152602660248201527f4f4654436f72653a205f61646170746572506172616d73206d7573742062652060448201526532b6b83a3c9760d11b6064820152608401610a0e565b60008061292861018b5490565b61293290846147ad565b905061293e8184614193565b9150915091565b60006001600160a01b03851633146129b15760405162461bcd60e51b815260206004820152602960248201527f50726f78794f4654576974684665653a206f776e6572206973206e6f7420736560448201526837321031b0b63632b960b91b6064820152608401610a0e565b6129bc8530846125f3565b91506000806129ca8461291b565b909250905080156129ed5761018a546129ed906001600160a01b03168883612fbe565b8161018c6000828254612a0091906146fd565b9091555060009050612a186001600160401b036131f3565b905061018c54811015612a7e5760405162461bcd60e51b815260206004820152602860248201527f50726f78794f4654576974684665653a206f7574626f756e64416d6f756e74206044820152676f766572666c6f7760c01b6064820152608401610a0e565b50909695505050505050565b600080612a9761018b5490565b612aa19084614481565b90506001600160401b03811115610bfc5760405162461bcd60e51b815260206004820152601a60248201527f4f4654436f72653a20616d6f756e745344206f766572666c6f770000000000006044820152606401610a0e565b61ffff861660009081526066602052604081208054612b1890614001565b80601f0160208091040260200160405190810160405280929190818152602001828054612b4490614001565b8015612b915780601f10612b6657610100808354040283529160200191612b91565b820191906000526020600020905b815481529060010190602001808311612b7457829003601f168201915b505050505090508051600003612c025760405162461bcd60e51b815260206004820152603060248201527f4c7a4170703a2064657374696e6174696f6e20636861696e206973206e6f742060448201526f61207472757374656420736f7572636560801b6064820152608401610a0e565b612c0d878751613212565b60655460405162c5803160e81b81526001600160a01b039091169063c5803100908490612c48908b9086908c908c908c908c906004016147c1565b6000604051808303818588803b158015612c6157600080fd5b505af1158015612c75573d6000803e3d6000fd5b505050505050505050505050565b6060600185856001600160a01b0389168587604051602001612caa96959493929190614828565b604051602081830303815290604052905095945050505050565b6000612cd18260016146fd565b83511015612d175760405162461bcd60e51b8152602060048201526013602482015272746f55696e74385f6f75744f66426f756e647360681b6044820152606401610a0e565b50016001015190565b600080612d2c83613283565b90925090506001600160a01b038216612d455761dead91505b6000612d50826131f3565b9050612d5d878483613308565b9050826001600160a01b03168761ffff167fbf551ec93859b170f9b2141bd9298bf3f64322c6f7beb2543a0cb669834118bf83604051612d9f91815260200190565b60405180910390a350505050505050565b6000806000806000612dc186613344565b94509450945094509450600060ca60008b61ffff1661ffff16815260200190815260200160002089604051612df69190614495565b90815260408051602092819003830190206001600160401b038b166000908152925281205460ff169150612e29856131f3565b905081612e9757612e3b8b3083613308565b61ffff8c16600090815260ca6020526040908190209051919250600191612e63908d90614495565b90815260408051602092819003830190206001600160401b038d16600090815292529020805460ff19169115159190911790555b6001600160a01b0386163b612eee576040516001600160a01b03871681527f9aedf5fdba8716db3b6705ca00150643309995d4f818a249ed6dde6677e7792d9060200160405180910390a150505050505050611eff565b8a8a8a8a8a8a868a60008a612f0c578b6001600160401b0316612f0e565b5a5b9050600080612f405a609663eaffd49a60e01b8e8e8e8d8d8d8d8d604051602401611fc2989796959493929190614889565b915091508115612f99578751602089012060405161ffff8d16907fb8890edbfc1c74692f527444645f95489c3703cc2df42e4a366f5d06fa6cd88490612f8b908e908e9086906148fd565b60405180910390a250612fa6565b612fa68b8b8b8b856127ff565b50505050505050505050505050505050505050505050565b6040516001600160a01b03831660248201526044810182905261302190849063a9059cbb60e01b906064015b60408051601f198184030181529190526020810180516001600160e01b03166001600160e01b0319909316929092179091526133fb565b505050565b6040516001600160a01b0380851660248301528316604482015260648101829052611eff9085906323b872dd60e01b90608401612fea565b600054610100900460ff166130855760405162461bcd60e51b8152600401610a0e90614710565b6111ef336123f7565b600054610100900460ff166130b55760405162461bcd60e51b8152600401610a0e90614710565b606580546001600160a01b0319166001600160a01b0392909216919091179055565b600054610100900460ff166130fe5760405162461bcd60e51b8152600401610a0e90614710565b60c9805460ff191660ff92909216919091179055565b600061311f836134d0565b61ffff8087166000908152606760209081526040808320938916835292905290812054919250906131519084906146fd565b9050600081116131a35760405162461bcd60e51b815260206004820152601a60248201527f4c7a4170703a206d696e4761734c696d6974206e6f74207365740000000000006044820152606401610a0e565b80821015610d655760405162461bcd60e51b815260206004820152601b60248201527f4c7a4170703a20676173206c696d697420697320746f6f206c6f7700000000006044820152606401610a0e565b60006131ff61018b5490565b610bfc906001600160401b038416614454565b61ffff82166000908152606860205260408120549081900361323357506127105b808211156130215760405162461bcd60e51b815260206004820181905260248201527f4c7a4170703a207061796c6f61642073697a6520697320746f6f206c617267656044820152606401610a0e565b600080806132918482612cc4565b60ff161480156132a2575082516029145b6132e95760405162461bcd60e51b815260206004820152601860248201527713d19510dbdc994e881a5b9d985b1a59081c185e5b1bd85960421b6044820152606401610a0e565b6132f483600d61352c565b9150613301836021613591565b9050915091565b60008161018c600082825461331d9190614193565b9091555050306001600160a01b03841603613339575080610e88565b611f923084846125f3565b6000808060608160016133578783612cc4565b60ff16146133a25760405162461bcd60e51b815260206004820152601860248201527713d19510dbdc994e881a5b9d985b1a59081c185e5b1bd85960421b6044820152606401610a0e565b6133ad86600d61352c565b93506133ba866021613591565b92506133c78660296135ee565b94506133d4866049613591565b90506133f060518088516133e89190614193565b889190612449565b915091939590929450565b6000613450826040518060400160405280602081526020017f5361666545524332303a206c6f772d6c6576656c2063616c6c206661696c6564815250856001600160a01b031661364c9092919063ffffffff16565b9050805160001480613471575080806020019051810190613471919061492b565b6130215760405162461bcd60e51b815260206004820152602a60248201527f5361666545524332303a204552433230206f7065726174696f6e20646964206e6044820152691bdd081cdd58d8d9595960b21b6064820152608401610a0e565b60006022825110156135245760405162461bcd60e51b815260206004820152601c60248201527f4c7a4170703a20696e76616c69642061646170746572506172616d73000000006044820152606401610a0e565b506022015190565b60006135398260146146fd565b835110156135815760405162461bcd60e51b8152602060048201526015602482015274746f416464726573735f6f75744f66426f756e647360581b6044820152606401610a0e565b500160200151600160601b900490565b600061359e8260086146fd565b835110156135e55760405162461bcd60e51b8152602060048201526014602482015273746f55696e7436345f6f75744f66426f756e647360601b6044820152606401610a0e565b50016008015190565b60006135fb8260206146fd565b835110156136435760405162461bcd60e51b8152602060048201526015602482015274746f427974657333325f6f75744f66426f756e647360581b6044820152606401610a0e565b50016020015190565b6060611f92848460008585600080866001600160a01b031685876040516136739190614495565b60006040518083038185875af1925050503d80600081146136b0576040519150601f19603f3d011682016040523d82523d6000602084013e6136b5565b606091505b50915091506136c6878383876136d1565b979650505050505050565b60608315613740578251600003613739576001600160a01b0385163b6137395760405162461bcd60e51b815260206004820152601d60248201527f416464726573733a2063616c6c20746f206e6f6e2d636f6e74726163740000006044820152606401610a0e565b5081611f92565b611f9283838151156137555781518083602001fd5b8060405162461bcd60e51b8152600401610a0e9190613c8c565b803561ffff8116811461378157600080fd5b919050565b60008083601f84011261379857600080fd5b5081356001600160401b038111156137af57600080fd5b6020830191508360208285010111156137c757600080fd5b9250929050565b80356001600160401b038116811461378157600080fd5b600080600080600080608087890312156137fe57600080fd5b6138078761376f565b955060208701356001600160401b038082111561382357600080fd5b61382f8a838b01613786565b909750955085915061384360408a016137ce565b9450606089013591508082111561385957600080fd5b5061386689828a01613786565b979a9699509497509295939492505050565b60006020828403121561388a57600080fd5b81356001600160e01b031981168114610e8857600080fd5b6000602082840312156138b457600080fd5b610e888261376f565b600080604083850312156138d057600080fd5b6138d98361376f565b946020939093013593505050565b6001600160a01b0381168114611c4257600080fd5b60006060828403121561390e57600080fd5b50919050565b60008060008060008060c0878903121561392d57600080fd5b8635613938816138e7565b95506139466020880161376f565b945060408701359350606087013592506080870135915060a08701356001600160401b0381111561397657600080fd5b61398289828a016138fc565b9150509295509295509295565b8015158114611c4257600080fd5b60008060008060008060a087890312156139b657600080fd5b6139bf8761376f565b9550602087013594506040870135935060608701356139dd8161398f565b925060808701356001600160401b038111156139f857600080fd5b61386689828a01613786565b600080600060408486031215613a1957600080fd5b613a228461376f565b925060208401356001600160401b03811115613a3d57600080fd5b613a4986828701613786565b9497909650939450505050565b60008060008060008060008060006101008a8c031215613a7557600080fd5b8935613a80816138e7565b9850613a8e60208b0161376f565b975060408a0135965060608a0135955060808a0135945060a08a01356001600160401b0380821115613abf57600080fd5b613acb8d838e01613786565b9096509450849150613adf60c08d016137ce565b935060e08c0135915080821115613af557600080fd5b50613b028c828d016138fc565b9150509295985092959850929598565b600060208284031215613b2457600080fd5b8135610e88816138e7565b634e487b7160e01b600052604160045260246000fd5b604051601f8201601f191681016001600160401b0381118282101715613b6d57613b6d613b2f565b604052919050565b60006001600160401b03821115613b8e57613b8e613b2f565b50601f01601f191660200190565b600080600060608486031215613bb157600080fd5b613bba8461376f565b925060208401356001600160401b03811115613bd557600080fd5b8401601f81018613613be657600080fd5b8035613bf9613bf482613b75565b613b45565b818152876020838501011115613c0e57600080fd5b81602084016020830137600060208383010152809450505050613c33604085016137ce565b90509250925092565b60005b83811015613c57578181015183820152602001613c3f565b50506000910152565b60008151808452613c78816020860160208601613c3c565b601f01601f19169290920160200192915050565b602081526000610e886020830184613c60565b600080600060608486031215613cb457600080fd5b613cbd8461376f565b92506020840135613ccd8161398f565b9150613c336040850161376f565b60008060408385031215613cee57600080fd5b613cf78361376f565b9150613d056020840161376f565b90509250929050565b600080600080600080600080600060e08a8c031215613d2c57600080fd5b613d358a61376f565b985060208a0135975060408a0135965060608a01356001600160401b0380821115613d5f57600080fd5b613d6b8d838e01613786565b9098509650869150613d7f60808d016137ce565b955060a08c01359150613d918261398f565b90935060c08b01359080821115613da757600080fd5b50613db48c828d01613786565b915080935050809150509295985092959850929598565b600080600080600060808688031215613de357600080fd5b613dec8661376f565b9450613dfa6020870161376f565b93506040860135925060608601356001600160401b03811115613e1c57600080fd5b613e2888828901613786565b969995985093965092949392505050565b600080600060608486031215613e4e57600080fd5b613e578461376f565b9250613e656020850161376f565b9150604084013590509250925092565b600060208284031215613e8757600080fd5b8135610e888161398f565b6000806000806000806000806000806101008b8d031215613eb257600080fd5b613ebb8b61376f565b995060208b01356001600160401b0380821115613ed757600080fd5b613ee38e838f01613786565b909b509950899150613ef760408e016137ce565b985060608d0135975060808d01359150613f10826138e7565b90955060a08c0135945060c08c01359080821115613f2d57600080fd5b50613f3a8d828e01613786565b9150809450508092505060e08b013590509295989b9194979a5092959850565b60ff81168114611c4257600080fd5b600080600060608486031215613f7e57600080fd5b8335613f89816138e7565b92506020840135613f9981613f5a565b91506040840135613fa9816138e7565b809150509250925092565b60008060008060808587031215613fca57600080fd5b613fd38561376f565b9350613fe16020860161376f565b92506040850135613ff1816138e7565b9396929550929360600135925050565b600181811c9082168061401557607f821691505b60208210810361390e57634e487b7160e01b600052602260045260246000fd5b8183823760009101908152919050565b6000808335601e1984360301811261405c57600080fd5b8301803591506001600160401b0382111561407657600080fd5b6020019150368190038213156137c757600080fd5b6020808252602d908201527f426173654f4654576974684665653a20616d6f756e74206973206c657373207460408201526c1a185b881b5a5b905b5bdd5b9d609a1b606082015260800190565b81835281816020850137506000828201602090810191909152601f909101601f19169091010190565b61ffff84168152604060208201526000611f8f6040830184866140d8565b60208082526025908201527f4665653a20666565206270206d757374206265203c3d2042505f44454e4f4d496040820152642720aa27a960d91b606082015260800190565b60006020828403121561417657600080fd5b5051919050565b634e487b7160e01b600052601160045260246000fd5b81810381811115610bfc57610bfc61417d565b8284823760609190911b6bffffffffffffffffffffffff19169101908152601401919050565b601f82111561302157600081815260208120601f850160051c810160208610156141f35750805b601f850160051c820191505b81811015610d65578281556001016141ff565b81516001600160401b0381111561422b5761422b613b2f565b61423f816142398454614001565b846141cc565b602080601f831160018114614274576000841561425c5750858301515b600019600386901b1c1916600185901b178555610d65565b600085815260208120601f198616915b828110156142a357888601518255948401946001909101908401614284565b50858210156142c15787850151600019600388901b60f8161c191681555b5050505050600190811b01905550565b600061ffff8088168352808716602084015250846040830152608060608301526136c66080830184866140d8565b61ffff8616815260806020820152600061431d6080830186886140d8565b6001600160401b0394909416604083015250606001529392505050565b61ffff8916815260c06020820152600061435860c08301898b6140d8565b6001600160401b038816604084015286606084015285608084015282810360a08401526143868185876140d8565b9b9a5050505050505050505050565b6001600160401b038311156143ac576143ac613b2f565b6143c0836143ba8354614001565b836141cc565b6000601f8411600181146143f457600085156143dc5750838201355b600019600387901b1c1916600186901b178355610c68565b600083815260209020601f19861690835b828110156144255786850135825560209485019460019092019101614405565b50868210156144425760001960f88860031b161c19848701351681555b505060018560011b0183555050505050565b8082028115828204841417610bfc57610bfc61417d565b634e487b7160e01b600052601260045260246000fd5b6000826144905761449061446b565b500490565b600082516144a7818460208701613c3c565b9190910192915050565b6000602082840312156144c357600080fd5b8151610e8881613f5a565b60ff8281168282160390811115610bfc57610bfc61417d565b600181815b808511156145225781600019048211156145085761450861417d565b8085161561451557918102915b93841c93908002906144ec565b509250929050565b60008261453957506001610bfc565b8161454657506000610bfc565b816001811461455c576002811461456657614582565b6001915050610bfc565b60ff8411156145775761457761417d565b50506001821b610bfc565b5060208310610133831016604e8410600b84101617156145a5575081810a610bfc565b6145af83836144e7565b80600019048211156145c3576145c361417d565b029392505050565b6000610e8860ff84168361452a565b6000602082840312156145ec57600080fd5b81516001600160401b0381111561460257600080fd5b8201601f8101841361461357600080fd5b8051614621613bf482613b75565b81815285602083850101111561463657600080fd5b612727826020830160208601613c3c565b61ffff851681526080602082015260006146646080830186613c60565b6001600160401b038516604084015282810360608401526136c68185613c60565b61ffff861681526001600160a01b038516602082015260a0604082018190526000906146b390830186613c60565b841515606084015282810360808401526146cd8185613c60565b98975050505050505050565b600080604083850312156146ec57600080fd5b505080516020909101519092909150565b80820180821115610bfc57610bfc61417d565b6020808252602b908201527f496e697469616c697a61626c653a20636f6e7472616374206973206e6f74206960408201526a6e697469616c697a696e6760a81b606082015260800190565b61ffff8616815260a06020820152600061477860a0830187613c60565b6001600160401b038616604084015282810360608401526147998186613c60565b905082810360808401526146cd8185613c60565b6000826147bc576147bc61446b565b500690565b61ffff8716815260c0602082015260006147de60c0830188613c60565b82810360408401526147f08188613c60565b6001600160a01b0387811660608601528616608085015283810360a0850152905061481b8185613c60565b9998505050505050505050565b60ff60f81b8760f81b16815285600182015260006001600160401b0360c01b808760c01b166021840152856029840152808560c01b166049840152508251614877816051850160208701613c3c565b91909101605101979650505050505050565b600061010061ffff8b1683528060208401526148a78184018b613c60565b6001600160401b038a166040850152606084018990526001600160a01b038816608085015260a0840187905283810360c085015290506148e78186613c60565b9150508260e08301529998505050505050505050565b6060815260006149106060830186613c60565b6001600160401b039490941660208301525060400152919050565b60006020828403121561493d57600080fd5b8151610e888161398f56fea2646970667358221220360ce8d7a4ee2823aa0b2c7c682e8bc3aba2c629bcae185a3caae4bc51f4c0bb64736f6c63430008120033",
  "devdoc": {
    "events": {
      "Initialized(uint8)": {
        "details": "Triggered when the contract has been initialized or reinitialized."
      },
      "ReceiveFromChain(uint16,address,uint256)": {
        "details": "Emitted when `_amount` tokens are received from `_srcChainId` into the `_toAddress` on the local chain. `_nonce` is the inbound nonce."
      },
      "SendToChain(uint16,address,bytes32,uint256)": {
        "details": "Emitted when `_amount` tokens are moved from the `_sender` to (`_dstChainId`, `_toAddress`) `_nonce` is the outbound nonce"
      }
    },
    "kind": "dev",
    "methods": {
      "circulatingSupply()": {
        "details": "returns the circulating amount of tokens on current chain"
      },
      "estimateSendFee(uint16,bytes32,uint256,bool,bytes)": {
        "details": "estimate send token `_tokenId` to (`_dstChainId`, `_toAddress`) _dstChainId - L0 defined chain id to send tokens too _toAddress - dynamic bytes array which contains the address to whom you are sending tokens to on the dstChain _amount - amount of the tokens to transfer _useZro - indicates to use zro to pay L0 fees _adapterParam - flexible bytes array to indicate messaging adapter services in L0"
      },
      "owner()": {
        "details": "Returns the address of the current owner."
      },
      "renounceOwnership()": {
        "details": "Leaves the contract without owner. It will not be possible to call `onlyOwner` functions. Can only be called by the current owner. NOTE: Renouncing ownership will leave the contract without an owner, thereby disabling any functionality that is only available to the owner."
      },
      "sendFrom(address,uint16,bytes32,uint256,uint256,(address,address,bytes))": {
        "details": "send `_amount` amount of token to (`_dstChainId`, `_toAddress`) from `_from` `_from` the owner of token `_dstChainId` the destination chain identifier `_toAddress` can be any size depending on the `dstChainId`. `_amount` the quantity of tokens in wei `_minAmount` the minimum amount of tokens to receive on dstChain `_refundAddress` the address LayerZero refunds if too much message fee is sent `_zroPaymentAddress` set to address(0x0) if not paying in ZRO (LayerZero Token) `_adapterParams` is a flexible bytes array to indicate messaging adapter services"
      },
      "token()": {
        "details": "returns the address of the ERC20 token"
      },
      "transferOwnership(address)": {
        "details": "Transfers ownership of the contract to a new account (`newOwner`). Can only be called by the current owner."
      }
    },
    "version": 1
  },
  "userdoc": {
    "kind": "user",
    "methods": {},
    "version": 1
  },
  "storageLayout": {
    "storage": [
      {
        "astId": 591,
        "contract": "contracts/contracts-upgradable/examples/FP.sol:ForgottenPlaylandProxyOFT",
        "label": "_initialized",
        "offset": 0,
        "slot": "0",
        "type": "t_uint8"
      },
      {
        "astId": 594,
        "contract": "contracts/contracts-upgradable/examples/FP.sol:ForgottenPlaylandProxyOFT",
        "label": "_initializing",
        "offset": 1,
        "slot": "0",
        "type": "t_bool"
      },
      {
        "astId": 6194,
        "contract": "contracts/contracts-upgradable/examples/FP.sol:ForgottenPlaylandProxyOFT",
        "label": "__gap",
        "offset": 0,
        "slot": "1",
        "type": "t_array(t_uint256)50_storage"
      },
      {
        "astId": 419,
        "contract": "contracts/contracts-upgradable/examples/FP.sol:ForgottenPlaylandProxyOFT",
        "label": "_owner",
        "offset": 0,
        "slot": "51",
        "type": "t_address"
      },
      {
        "astId": 539,
        "contract": "contracts/contracts-upgradable/examples/FP.sol:ForgottenPlaylandProxyOFT",
        "label": "__gap",
        "offset": 0,
        "slot": "52",
        "type": "t_array(t_uint256)49_storage"
      },
      {
        "astId": 15451,
        "contract": "contracts/contracts-upgradable/examples/FP.sol:ForgottenPlaylandProxyOFT",
        "label": "lzEndpoint",
        "offset": 0,
        "slot": "101",
        "type": "t_contract(ILayerZeroEndpointUpgradeable)16407"
      },
      {
        "astId": 15455,
        "contract": "contracts/contracts-upgradable/examples/FP.sol:ForgottenPlaylandProxyOFT",
        "label": "trustedRemoteLookup",
        "offset": 0,
        "slot": "102",
        "type": "t_mapping(t_uint16,t_bytes_storage)"
      },
      {
        "astId": 15461,
        "contract": "contracts/contracts-upgradable/examples/FP.sol:ForgottenPlaylandProxyOFT",
        "label": "minDstGasLookup",
        "offset": 0,
        "slot": "103",
        "type": "t_mapping(t_uint16,t_mapping(t_uint16,t_uint256))"
      },
      {
        "astId": 15465,
        "contract": "contracts/contracts-upgradable/examples/FP.sol:ForgottenPlaylandProxyOFT",
        "label": "payloadSizeLimitLookup",
        "offset": 0,
        "slot": "104",
        "type": "t_mapping(t_uint16,t_uint256)"
      },
      {
        "astId": 15467,
        "contract": "contracts/contracts-upgradable/examples/FP.sol:ForgottenPlaylandProxyOFT",
        "label": "precrime",
        "offset": 0,
        "slot": "105",
        "type": "t_address"
      },
      {
        "astId": 15999,
        "contract": "contracts/contracts-upgradable/examples/FP.sol:ForgottenPlaylandProxyOFT",
        "label": "__gap",
        "offset": 0,
        "slot": "106",
        "type": "t_array(t_uint256)45_storage"
      },
      {
        "astId": 16042,
        "contract": "contracts/contracts-upgradable/examples/FP.sol:ForgottenPlaylandProxyOFT",
        "label": "failedMessages",
        "offset": 0,
        "slot": "151",
        "type": "t_mapping(t_uint16,t_mapping(t_bytes_memory_ptr,t_mapping(t_uint64,t_bytes32)))"
      },
      {
        "astId": 16261,
        "contract": "contracts/contracts-upgradable/examples/FP.sol:ForgottenPlaylandProxyOFT",
        "label": "__gap",
        "offset": 0,
        "slot": "152",
        "type": "t_array(t_uint256)49_storage"
      },
      {
        "astId": 17214,
        "contract": "contracts/contracts-upgradable/examples/FP.sol:ForgottenPlaylandProxyOFT",
        "label": "sharedDecimals",
        "offset": 0,
        "slot": "201",
        "type": "t_uint8"
      },
      {
        "astId": 17216,
        "contract": "contracts/contracts-upgradable/examples/FP.sol:ForgottenPlaylandProxyOFT",
        "label": "useCustomAdapterParams",
        "offset": 1,
        "slot": "201",
        "type": "t_bool"
      },
      {
        "astId": 17224,
        "contract": "contracts/contracts-upgradable/examples/FP.sol:ForgottenPlaylandProxyOFT",
        "label": "creditedPackets",
        "offset": 0,
        "slot": "202",
        "type": "t_mapping(t_uint16,t_mapping(t_bytes_memory_ptr,t_mapping(t_uint64,t_bool)))"
      },
      {
        "astId": 18219,
        "contract": "contracts/contracts-upgradable/examples/FP.sol:ForgottenPlaylandProxyOFT",
        "label": "__gap",
        "offset": 0,
        "slot": "203",
        "type": "t_array(t_uint256)44_storage"
      },
      {
        "astId": 19588,
        "contract": "contracts/contracts-upgradable/examples/FP.sol:ForgottenPlaylandProxyOFT",
        "label": "chainIdToFeeBps",
        "offset": 0,
        "slot": "247",
        "type": "t_mapping(t_uint16,t_struct(FeeConfig)19597_storage)"
      },
      {
        "astId": 19590,
        "contract": "contracts/contracts-upgradable/examples/FP.sol:ForgottenPlaylandProxyOFT",
        "label": "defaultFeeBp",
        "offset": 0,
        "slot": "248",
        "type": "t_uint16"
      },
      {
        "astId": 19592,
        "contract": "contracts/contracts-upgradable/examples/FP.sol:ForgottenPlaylandProxyOFT",
        "label": "feeOwner",
        "offset": 2,
        "slot": "248",
        "type": "t_address"
      },
      {
        "astId": 19815,
        "contract": "contracts/contracts-upgradable/examples/FP.sol:ForgottenPlaylandProxyOFT",
        "label": "__gap",
        "offset": 0,
        "slot": "249",
        "type": "t_array(t_uint256)45_storage"
      },
      {
        "astId": 7385,
        "contract": "contracts/contracts-upgradable/examples/FP.sol:ForgottenPlaylandProxyOFT",
        "label": "__gap",
        "offset": 0,
        "slot": "294",
        "type": "t_array(t_uint256)50_storage"
      },
      {
        "astId": 19574,
        "contract": "contracts/contracts-upgradable/examples/FP.sol:ForgottenPlaylandProxyOFT",
        "label": "__gap",
        "offset": 0,
        "slot": "344",
        "type": "t_array(t_uint256)50_storage"
      },
      {
        "astId": 20833,
        "contract": "contracts/contracts-upgradable/examples/FP.sol:ForgottenPlaylandProxyOFT",
        "label": "innerToken",
        "offset": 0,
        "slot": "394",
        "type": "t_contract(IERC20Upgradeable)3343"
      },
      {
        "astId": 20835,
        "contract": "contracts/contracts-upgradable/examples/FP.sol:ForgottenPlaylandProxyOFT",
        "label": "ld2sdRate",
        "offset": 0,
        "slot": "395",
        "type": "t_uint256"
      },
      {
        "astId": 20837,
        "contract": "contracts/contracts-upgradable/examples/FP.sol:ForgottenPlaylandProxyOFT",
        "label": "outboundAmount",
        "offset": 0,
        "slot": "396",
        "type": "t_uint256"
      }
    ],
    "types": {
      "t_address": {
        "encoding": "inplace",
        "label": "address",
        "numberOfBytes": "20"
      },
      "t_array(t_uint256)44_storage": {
        "base": "t_uint256",
        "encoding": "inplace",
        "label": "uint256[44]",
        "numberOfBytes": "1408"
      },
      "t_array(t_uint256)45_storage": {
        "base": "t_uint256",
        "encoding": "inplace",
        "label": "uint256[45]",
        "numberOfBytes": "1440"
      },
      "t_array(t_uint256)49_storage": {
        "base": "t_uint256",
        "encoding": "inplace",
        "label": "uint256[49]",
        "numberOfBytes": "1568"
      },
      "t_array(t_uint256)50_storage": {
        "base": "t_uint256",
        "encoding": "inplace",
        "label": "uint256[50]",
        "numberOfBytes": "1600"
      },
      "t_bool": {
        "encoding": "inplace",
        "label": "bool",
        "numberOfBytes": "1"
      },
      "t_bytes32": {
        "encoding": "inplace",
        "label": "bytes32",
        "numberOfBytes": "32"
      },
      "t_bytes_memory_ptr": {
        "encoding": "bytes",
        "label": "bytes",
        "numberOfBytes": "32"
      },
      "t_bytes_storage": {
        "encoding": "bytes",
        "label": "bytes",
        "numberOfBytes": "32"
      },
      "t_contract(IERC20Upgradeable)3343": {
        "encoding": "inplace",
        "label": "contract IERC20Upgradeable",
        "numberOfBytes": "20"
      },
      "t_contract(ILayerZeroEndpointUpgradeable)16407": {
        "encoding": "inplace",
        "label": "contract ILayerZeroEndpointUpgradeable",
        "numberOfBytes": "20"
      },
      "t_mapping(t_bytes_memory_ptr,t_mapping(t_uint64,t_bool))": {
        "encoding": "mapping",
        "key": "t_bytes_memory_ptr",
        "label": "mapping(bytes => mapping(uint64 => bool))",
        "numberOfBytes": "32",
        "value": "t_mapping(t_uint64,t_bool)"
      },
      "t_mapping(t_bytes_memory_ptr,t_mapping(t_uint64,t_bytes32))": {
        "encoding": "mapping",
        "key": "t_bytes_memory_ptr",
        "label": "mapping(bytes => mapping(uint64 => bytes32))",
        "numberOfBytes": "32",
        "value": "t_mapping(t_uint64,t_bytes32)"
      },
      "t_mapping(t_uint16,t_bytes_storage)": {
        "encoding": "mapping",
        "key": "t_uint16",
        "label": "mapping(uint16 => bytes)",
        "numberOfBytes": "32",
        "value": "t_bytes_storage"
      },
      "t_mapping(t_uint16,t_mapping(t_bytes_memory_ptr,t_mapping(t_uint64,t_bool)))": {
        "encoding": "mapping",
        "key": "t_uint16",
        "label": "mapping(uint16 => mapping(bytes => mapping(uint64 => bool)))",
        "numberOfBytes": "32",
        "value": "t_mapping(t_bytes_memory_ptr,t_mapping(t_uint64,t_bool))"
      },
      "t_mapping(t_uint16,t_mapping(t_bytes_memory_ptr,t_mapping(t_uint64,t_bytes32)))": {
        "encoding": "mapping",
        "key": "t_uint16",
        "label": "mapping(uint16 => mapping(bytes => mapping(uint64 => bytes32)))",
        "numberOfBytes": "32",
        "value": "t_mapping(t_bytes_memory_ptr,t_mapping(t_uint64,t_bytes32))"
      },
      "t_mapping(t_uint16,t_mapping(t_uint16,t_uint256))": {
        "encoding": "mapping",
        "key": "t_uint16",
        "label": "mapping(uint16 => mapping(uint16 => uint256))",
        "numberOfBytes": "32",
        "value": "t_mapping(t_uint16,t_uint256)"
      },
      "t_mapping(t_uint16,t_struct(FeeConfig)19597_storage)": {
        "encoding": "mapping",
        "key": "t_uint16",
        "label": "mapping(uint16 => struct FeeUpgradeable.FeeConfig)",
        "numberOfBytes": "32",
        "value": "t_struct(FeeConfig)19597_storage"
      },
      "t_mapping(t_uint16,t_uint256)": {
        "encoding": "mapping",
        "key": "t_uint16",
        "label": "mapping(uint16 => uint256)",
        "numberOfBytes": "32",
        "value": "t_uint256"
      },
      "t_mapping(t_uint64,t_bool)": {
        "encoding": "mapping",
        "key": "t_uint64",
        "label": "mapping(uint64 => bool)",
        "numberOfBytes": "32",
        "value": "t_bool"
      },
      "t_mapping(t_uint64,t_bytes32)": {
        "encoding": "mapping",
        "key": "t_uint64",
        "label": "mapping(uint64 => bytes32)",
        "numberOfBytes": "32",
        "value": "t_bytes32"
      },
      "t_struct(FeeConfig)19597_storage": {
        "encoding": "inplace",
        "label": "struct FeeUpgradeable.FeeConfig",
        "members": [
          {
            "astId": 19594,
            "contract": "contracts/contracts-upgradable/examples/FP.sol:ForgottenPlaylandProxyOFT",
            "label": "feeBP",
            "offset": 0,
            "slot": "0",
            "type": "t_uint16"
          },
          {
            "astId": 19596,
            "contract": "contracts/contracts-upgradable/examples/FP.sol:ForgottenPlaylandProxyOFT",
            "label": "enabled",
            "offset": 2,
            "slot": "0",
            "type": "t_bool"
          }
        ],
        "numberOfBytes": "32"
      },
      "t_uint16": {
        "encoding": "inplace",
        "label": "uint16",
        "numberOfBytes": "2"
      },
      "t_uint256": {
        "encoding": "inplace",
        "label": "uint256",
        "numberOfBytes": "32"
      },
      "t_uint64": {
        "encoding": "inplace",
        "label": "uint64",
        "numberOfBytes": "8"
      },
      "t_uint8": {
        "encoding": "inplace",
        "label": "uint8",
        "numberOfBytes": "1"
      }
    }
  }
}