{
  "address": "0xd512a5c1e694b848271FC3CE879E8e7632e2EDeB",
  "abi": [
    {
      "inputs": [],
      "stateMutability": "nonpayable",
      "type": "constructor"
    },
    {
      "anonymous": false,
      "inputs": [
        {
          "indexed": false,
          "internalType": "bytes32",
          "name": "_hashedPayload",
          "type": "bytes32"
        }
      ],
      "name": "CreditCleared",
      "type": "event"
    },
    {
      "anonymous": false,
      "inputs": [
        {
          "indexed": false,
          "internalType": "bytes32",
          "name": "_hashedPayload",
          "type": "bytes32"
        },
        {
          "indexed": false,
          "internalType": "bytes",
          "name": "_payload",
          "type": "bytes"
        }
      ],
      "name": "CreditStored",
      "type": "event"
    },
    {
      "anonymous": false,
      "inputs": [
        {
          "indexed": false,
          "internalType": "uint8",
          "name": "version",
          "type": "uint8"
        }
      ],
      "name": "Initialized",
      "type": "event"
    },
    {
      "anonymous": false,
      "inputs": [
        {
          "indexed": false,
          "internalType": "uint16",
          "name": "_srcChainId",
          "type": "uint16"
        },
        {
          "indexed": false,
          "internalType": "bytes",
          "name": "_srcAddress",
          "type": "bytes"
        },
        {
          "indexed": false,
          "internalType": "uint64",
          "name": "_nonce",
          "type": "uint64"
        },
        {
          "indexed": false,
          "internalType": "bytes",
          "name": "_payload",
          "type": "bytes"
        },
        {
          "indexed": false,
          "internalType": "bytes",
          "name": "_reason",
          "type": "bytes"
        }
      ],
      "name": "MessageFailed",
      "type": "event"
    },
    {
      "anonymous": false,
      "inputs": [
        {
          "indexed": true,
          "internalType": "address",
          "name": "previousOwner",
          "type": "address"
        },
        {
          "indexed": true,
          "internalType": "address",
          "name": "newOwner",
          "type": "address"
        }
      ],
      "name": "OwnershipTransferred",
      "type": "event"
    },
    {
      "anonymous": false,
      "inputs": [
        {
          "indexed": true,
          "internalType": "uint16",
          "name": "_srcChainId",
          "type": "uint16"
        },
        {
          "indexed": true,
          "internalType": "bytes",
          "name": "_srcAddress",
          "type": "bytes"
        },
        {
          "indexed": true,
          "internalType": "address",
          "name": "_toAddress",
          "type": "address"
        },
        {
          "indexed": false,
          "internalType": "uint256[]",
          "name": "_tokenIds",
          "type": "uint256[]"
        }
      ],
      "name": "ReceiveFromChain",
      "type": "event"
    },
    {
      "anonymous": false,
      "inputs": [
        {
          "indexed": false,
          "internalType": "uint16",
          "name": "_srcChainId",
          "type": "uint16"
        },
        {
          "indexed": false,
          "internalType": "bytes",
          "name": "_srcAddress",
          "type": "bytes"
        },
        {
          "indexed": false,
          "internalType": "uint64",
          "name": "_nonce",
          "type": "uint64"
        },
        {
          "indexed": false,
          "internalType": "bytes32",
          "name": "_payloadHash",
          "type": "bytes32"
        }
      ],
      "name": "RetryMessageSuccess",
      "type": "event"
    },
    {
      "anonymous": false,
      "inputs": [
        {
          "indexed": true,
          "internalType": "uint16",
          "name": "_dstChainId",
          "type": "uint16"
        },
        {
          "indexed": true,
          "internalType": "address",
          "name": "_from",
          "type": "address"
        },
        {
          "indexed": true,
          "internalType": "bytes",
          "name": "_toAddress",
          "type": "bytes"
        },
        {
          "indexed": false,
          "internalType": "uint256[]",
          "name": "_tokenIds",
          "type": "uint256[]"
        }
      ],
      "name": "SendToChain",
      "type": "event"
    },
    {
      "anonymous": false,
      "inputs": [
        {
          "indexed": false,
          "internalType": "uint16",
          "name": "_dstChainId",
          "type": "uint16"
        },
        {
          "indexed": false,
          "internalType": "uint16",
          "name": "_type",
          "type": "uint16"
        },
        {
          "indexed": false,
          "internalType": "uint256",
          "name": "_minDstGas",
          "type": "uint256"
        }
      ],
      "name": "SetMinDstGas",
      "type": "event"
    },
    {
      "anonymous": false,
      "inputs": [
        {
          "indexed": false,
          "internalType": "address",
          "name": "precrime",
          "type": "address"
        }
      ],
      "name": "SetPrecrime",
      "type": "event"
    },
    {
      "anonymous": false,
      "inputs": [
        {
          "indexed": false,
          "internalType": "uint16",
          "name": "_remoteChainId",
          "type": "uint16"
        },
        {
          "indexed": false,
          "internalType": "bytes",
          "name": "_path",
          "type": "bytes"
        }
      ],
      "name": "SetTrustedRemote",
      "type": "event"
    },
    {
      "anonymous": false,
      "inputs": [
        {
          "indexed": false,
          "internalType": "uint16",
          "name": "_remoteChainId",
          "type": "uint16"
        },
        {
          "indexed": false,
          "internalType": "bytes",
          "name": "_remoteAddress",
          "type": "bytes"
        }
      ],
      "name": "SetTrustedRemoteAddress",
      "type": "event"
    },
    {
      "inputs": [],
      "name": "DEFAULT_PAYLOAD_SIZE_LIMIT",
      "outputs": [
        {
          "internalType": "uint256",
          "name": "",
          "type": "uint256"
        }
      ],
      "stateMutability": "view",
      "type": "function"
    },
    {
      "inputs": [],
      "name": "FUNCTION_TYPE_SEND",
      "outputs": [
        {
          "internalType": "uint16",
          "name": "",
          "type": "uint16"
        }
      ],
      "stateMutability": "view",
      "type": "function"
    },
    {
      "inputs": [
        {
          "internalType": "bytes",
          "name": "_payload",
          "type": "bytes"
        }
      ],
      "name": "clearCredits",
      "outputs": [],
      "stateMutability": "nonpayable",
      "type": "function"
    },
    {
      "inputs": [
        {
          "internalType": "uint16",
          "name": "",
          "type": "uint16"
        }
      ],
      "name": "dstChainIdToBatchLimit",
      "outputs": [
        {
          "internalType": "uint256",
          "name": "",
          "type": "uint256"
        }
      ],
      "stateMutability": "view",
      "type": "function"
    },
    {
      "inputs": [
        {
          "internalType": "uint16",
          "name": "",
          "type": "uint16"
        }
      ],
      "name": "dstChainIdToTransferGas",
      "outputs": [
        {
          "internalType": "uint256",
          "name": "",
          "type": "uint256"
        }
      ],
      "stateMutability": "view",
      "type": "function"
    },
    {
      "inputs": [
        {
          "internalType": "uint16",
          "name": "_dstChainId",
          "type": "uint16"
        },
        {
          "internalType": "bytes",
          "name": "_toAddress",
          "type": "bytes"
        },
        {
          "internalType": "uint256[]",
          "name": "_tokenIds",
          "type": "uint256[]"
        },
        {
          "internalType": "bool",
          "name": "_useZro",
          "type": "bool"
        },
        {
          "internalType": "bytes",
          "name": "_adapterParams",
          "type": "bytes"
        }
      ],
      "name": "estimateSendBatchFee",
      "outputs": [
        {
          "internalType": "uint256",
          "name": "nativeFee",
          "type": "uint256"
        },
        {
          "internalType": "uint256",
          "name": "zroFee",
          "type": "uint256"
        }
      ],
      "stateMutability": "view",
      "type": "function"
    },
    {
      "inputs": [
        {
          "internalType": "uint16",
          "name": "_dstChainId",
          "type": "uint16"
        },
        {
          "internalType": "bytes",
          "name": "_toAddress",
          "type": "bytes"
        },
        {
          "internalType": "uint256",
          "name": "_tokenId",
          "type": "uint256"
        },
        {
          "internalType": "bool",
          "name": "_useZro",
          "type": "bool"
        },
        {
          "internalType": "bytes",
          "name": "_adapterParams",
          "type": "bytes"
        }
      ],
      "name": "estimateSendFee",
      "outputs": [
        {
          "internalType": "uint256",
          "name": "nativeFee",
          "type": "uint256"
        },
        {
          "internalType": "uint256",
          "name": "zroFee",
          "type": "uint256"
        }
      ],
      "stateMutability": "view",
      "type": "function"
    },
    {
      "inputs": [
        {
          "internalType": "uint16",
          "name": "",
          "type": "uint16"
        },
        {
          "internalType": "bytes",
          "name": "",
          "type": "bytes"
        },
        {
          "internalType": "uint64",
          "name": "",
          "type": "uint64"
        }
      ],
      "name": "failedMessages",
      "outputs": [
        {
          "internalType": "bytes32",
          "name": "",
          "type": "bytes32"
        }
      ],
      "stateMutability": "view",
      "type": "function"
    },
    {
      "inputs": [
        {
          "internalType": "uint16",
          "name": "_srcChainId",
          "type": "uint16"
        },
        {
          "internalType": "bytes",
          "name": "_srcAddress",
          "type": "bytes"
        }
      ],
      "name": "forceResumeReceive",
      "outputs": [],
      "stateMutability": "nonpayable",
      "type": "function"
    },
    {
      "inputs": [
        {
          "internalType": "uint16",
          "name": "_version",
          "type": "uint16"
        },
        {
          "internalType": "uint16",
          "name": "_chainId",
          "type": "uint16"
        },
        {
          "internalType": "address",
          "name": "",
          "type": "address"
        },
        {
          "internalType": "uint256",
          "name": "_configType",
          "type": "uint256"
        }
      ],
      "name": "getConfig",
      "outputs": [
        {
          "internalType": "bytes",
          "name": "",
          "type": "bytes"
        }
      ],
      "stateMutability": "view",
      "type": "function"
    },
    {
      "inputs": [
        {
          "internalType": "uint16",
          "name": "_remoteChainId",
          "type": "uint16"
        }
      ],
      "name": "getTrustedRemoteAddress",
      "outputs": [
        {
          "internalType": "bytes",
          "name": "",
          "type": "bytes"
        }
      ],
      "stateMutability": "view",
      "type": "function"
    },
    {
      "inputs": [
        {
          "internalType": "uint256",
          "name": "_minGasToTransfer",
          "type": "uint256"
        },
        {
          "internalType": "address",
          "name": "_lzEndpoint",
          "type": "address"
        },
        {
          "internalType": "address",
          "name": "_proxyToken",
          "type": "address"
        }
      ],
      "name": "initialize",
      "outputs": [],
      "stateMutability": "nonpayable",
      "type": "function"
    },
    {
      "inputs": [
        {
          "internalType": "uint16",
          "name": "_srcChainId",
          "type": "uint16"
        },
        {
          "internalType": "bytes",
          "name": "_srcAddress",
          "type": "bytes"
        }
      ],
      "name": "isTrustedRemote",
      "outputs": [
        {
          "internalType": "bool",
          "name": "",
          "type": "bool"
        }
      ],
      "stateMutability": "view",
      "type": "function"
    },
    {
      "inputs": [],
      "name": "lzEndpoint",
      "outputs": [
        {
          "internalType": "contract ILayerZeroEndpointUpgradeable",
          "name": "",
          "type": "address"
        }
      ],
      "stateMutability": "view",
      "type": "function"
    },
    {
      "inputs": [
        {
          "internalType": "uint16",
          "name": "_srcChainId",
          "type": "uint16"
        },
        {
          "internalType": "bytes",
          "name": "_srcAddress",
          "type": "bytes"
        },
        {
          "internalType": "uint64",
          "name": "_nonce",
          "type": "uint64"
        },
        {
          "internalType": "bytes",
          "name": "_payload",
          "type": "bytes"
        }
      ],
      "name": "lzReceive",
      "outputs": [],
      "stateMutability": "nonpayable",
      "type": "function"
    },
    {
      "inputs": [
        {
          "internalType": "uint16",
          "name": "",
          "type": "uint16"
        },
        {
          "internalType": "uint16",
          "name": "",
          "type": "uint16"
        }
      ],
      "name": "minDstGasLookup",
      "outputs": [
        {
          "internalType": "uint256",
          "name": "",
          "type": "uint256"
        }
      ],
      "stateMutability": "view",
      "type": "function"
    },
    {
      "inputs": [],
      "name": "minGasToTransferAndStore",
      "outputs": [
        {
          "internalType": "uint256",
          "name": "",
          "type": "uint256"
        }
      ],
      "stateMutability": "view",
      "type": "function"
    },
    {
      "inputs": [
        {
          "internalType": "uint16",
          "name": "_srcChainId",
          "type": "uint16"
        },
        {
          "internalType": "bytes",
          "name": "_srcAddress",
          "type": "bytes"
        },
        {
          "internalType": "uint64",
          "name": "_nonce",
          "type": "uint64"
        },
        {
          "internalType": "bytes",
          "name": "_payload",
          "type": "bytes"
        }
      ],
      "name": "nonblockingLzReceive",
      "outputs": [],
      "stateMutability": "nonpayable",
      "type": "function"
    },
    {
      "inputs": [
        {
          "internalType": "address",
          "name": "_operator",
          "type": "address"
        },
        {
          "internalType": "address",
          "name": "",
          "type": "address"
        },
        {
          "internalType": "uint256",
          "name": "",
          "type": "uint256"
        },
        {
          "internalType": "bytes",
          "name": "",
          "type": "bytes"
        }
      ],
      "name": "onERC721Received",
      "outputs": [
        {
          "internalType": "bytes4",
          "name": "",
          "type": "bytes4"
        }
      ],
      "stateMutability": "nonpayable",
      "type": "function"
    },
    {
      "inputs": [],
      "name": "owner",
      "outputs": [
        {
          "internalType": "address",
          "name": "",
          "type": "address"
        }
      ],
      "stateMutability": "view",
      "type": "function"
    },
    {
      "inputs": [
        {
          "internalType": "uint16",
          "name": "",
          "type": "uint16"
        }
      ],
      "name": "payloadSizeLimitLookup",
      "outputs": [
        {
          "internalType": "uint256",
          "name": "",
          "type": "uint256"
        }
      ],
      "stateMutability": "view",
      "type": "function"
    },
    {
      "inputs": [],
      "name": "precrime",
      "outputs": [
        {
          "internalType": "address",
          "name": "",
          "type": "address"
        }
      ],
      "stateMutability": "view",
      "type": "function"
    },
    {
      "inputs": [],
      "name": "renounceOwnership",
      "outputs": [],
      "stateMutability": "nonpayable",
      "type": "function"
    },
    {
      "inputs": [
        {
          "internalType": "uint16",
          "name": "_srcChainId",
          "type": "uint16"
        },
        {
          "internalType": "bytes",
          "name": "_srcAddress",
          "type": "bytes"
        },
        {
          "internalType": "uint64",
          "name": "_nonce",
          "type": "uint64"
        },
        {
          "internalType": "bytes",
          "name": "_payload",
          "type": "bytes"
        }
      ],
      "name": "retryMessage",
      "outputs": [],
      "stateMutability": "payable",
      "type": "function"
    },
    {
      "inputs": [
        {
          "internalType": "address",
          "name": "_from",
          "type": "address"
        },
        {
          "internalType": "uint16",
          "name": "_dstChainId",
          "type": "uint16"
        },
        {
          "internalType": "bytes",
          "name": "_toAddress",
          "type": "bytes"
        },
        {
          "internalType": "uint256[]",
          "name": "_tokenIds",
          "type": "uint256[]"
        },
        {
          "internalType": "address payable",
          "name": "_refundAddress",
          "type": "address"
        },
        {
          "internalType": "address",
          "name": "_zroPaymentAddress",
          "type": "address"
        },
        {
          "internalType": "bytes",
          "name": "_adapterParams",
          "type": "bytes"
        }
      ],
      "name": "sendBatchFrom",
      "outputs": [],
      "stateMutability": "payable",
      "type": "function"
    },
    {
      "inputs": [
        {
          "internalType": "address",
          "name": "_from",
          "type": "address"
        },
        {
          "internalType": "uint16",
          "name": "_dstChainId",
          "type": "uint16"
        },
        {
          "internalType": "bytes",
          "name": "_toAddress",
          "type": "bytes"
        },
        {
          "internalType": "uint256",
          "name": "_tokenId",
          "type": "uint256"
        },
        {
          "internalType": "address payable",
          "name": "_refundAddress",
          "type": "address"
        },
        {
          "internalType": "address",
          "name": "_zroPaymentAddress",
          "type": "address"
        },
        {
          "internalType": "bytes",
          "name": "_adapterParams",
          "type": "bytes"
        }
      ],
      "name": "sendFrom",
      "outputs": [],
      "stateMutability": "payable",
      "type": "function"
    },
    {
      "inputs": [
        {
          "internalType": "uint16",
          "name": "_version",
          "type": "uint16"
        },
        {
          "internalType": "uint16",
          "name": "_chainId",
          "type": "uint16"
        },
        {
          "internalType": "uint256",
          "name": "_configType",
          "type": "uint256"
        },
        {
          "internalType": "bytes",
          "name": "_config",
          "type": "bytes"
        }
      ],
      "name": "setConfig",
      "outputs": [],
      "stateMutability": "nonpayable",
      "type": "function"
    },
    {
      "inputs": [
        {
          "internalType": "uint16",
          "name": "_dstChainId",
          "type": "uint16"
        },
        {
          "internalType": "uint256",
          "name": "_dstChainIdToBatchLimit",
          "type": "uint256"
        }
      ],
      "name": "setDstChainIdToBatchLimit",
      "outputs": [],
      "stateMutability": "nonpayable",
      "type": "function"
    },
    {
      "inputs": [
        {
          "internalType": "uint16",
          "name": "_dstChainId",
          "type": "uint16"
        },
        {
          "internalType": "uint256",
          "name": "_dstChainIdToTransferGas",
          "type": "uint256"
        }
      ],
      "name": "setDstChainIdToTransferGas",
      "outputs": [],
      "stateMutability": "nonpayable",
      "type": "function"
    },
    {
      "inputs": [
        {
          "internalType": "uint16",
          "name": "_dstChainId",
          "type": "uint16"
        },
        {
          "internalType": "uint16",
          "name": "_packetType",
          "type": "uint16"
        },
        {
          "internalType": "uint256",
          "name": "_minGas",
          "type": "uint256"
        }
      ],
      "name": "setMinDstGas",
      "outputs": [],
      "stateMutability": "nonpayable",
      "type": "function"
    },
    {
      "inputs": [
        {
          "internalType": "uint256",
          "name": "_minGasToTransferAndStore",
          "type": "uint256"
        }
      ],
      "name": "setMinGasToTransferAndStore",
      "outputs": [],
      "stateMutability": "nonpayable",
      "type": "function"
    },
    {
      "inputs": [
        {
          "internalType": "uint16",
          "name": "_dstChainId",
          "type": "uint16"
        },
        {
          "internalType": "uint256",
          "name": "_size",
          "type": "uint256"
        }
      ],
      "name": "setPayloadSizeLimit",
      "outputs": [],
      "stateMutability": "nonpayable",
      "type": "function"
    },
    {
      "inputs": [
        {
          "internalType": "address",
          "name": "_precrime",
          "type": "address"
        }
      ],
      "name": "setPrecrime",
      "outputs": [],
      "stateMutability": "nonpayable",
      "type": "function"
    },
    {
      "inputs": [
        {
          "internalType": "uint16",
          "name": "_version",
          "type": "uint16"
        }
      ],
      "name": "setReceiveVersion",
      "outputs": [],
      "stateMutability": "nonpayable",
      "type": "function"
    },
    {
      "inputs": [
        {
          "internalType": "uint16",
          "name": "_version",
          "type": "uint16"
        }
      ],
      "name": "setSendVersion",
      "outputs": [],
      "stateMutability": "nonpayable",
      "type": "function"
    },
    {
      "inputs": [
        {
          "internalType": "uint16",
          "name": "_srcChainId",
          "type": "uint16"
        },
        {
          "internalType": "bytes",
          "name": "_path",
          "type": "bytes"
        }
      ],
      "name": "setTrustedRemote",
      "outputs": [],
      "stateMutability": "nonpayable",
      "type": "function"
    },
    {
      "inputs": [
        {
          "internalType": "uint16",
          "name": "_remoteChainId",
          "type": "uint16"
        },
        {
          "internalType": "bytes",
          "name": "_remoteAddress",
          "type": "bytes"
        }
      ],
      "name": "setTrustedRemoteAddress",
      "outputs": [],
      "stateMutability": "nonpayable",
      "type": "function"
    },
    {
      "inputs": [
        {
          "internalType": "bytes32",
          "name": "",
          "type": "bytes32"
        }
      ],
      "name": "storedCredits",
      "outputs": [
        {
          "internalType": "uint16",
          "name": "srcChainId",
          "type": "uint16"
        },
        {
          "internalType": "address",
          "name": "toAddress",
          "type": "address"
        },
        {
          "internalType": "uint256",
          "name": "index",
          "type": "uint256"
        },
        {
          "internalType": "bool",
          "name": "creditsRemain",
          "type": "bool"
        }
      ],
      "stateMutability": "view",
      "type": "function"
    },
    {
      "inputs": [
        {
          "internalType": "bytes4",
          "name": "interfaceId",
          "type": "bytes4"
        }
      ],
      "name": "supportsInterface",
      "outputs": [
        {
          "internalType": "bool",
          "name": "",
          "type": "bool"
        }
      ],
      "stateMutability": "view",
      "type": "function"
    },
    {
      "inputs": [],
      "name": "token",
      "outputs": [
        {
          "internalType": "contract IERC721Upgradeable",
          "name": "",
          "type": "address"
        }
      ],
      "stateMutability": "view",
      "type": "function"
    },
    {
      "inputs": [
        {
          "internalType": "address",
          "name": "newOwner",
          "type": "address"
        }
      ],
      "name": "transferOwnership",
      "outputs": [],
      "stateMutability": "nonpayable",
      "type": "function"
    },
    {
      "inputs": [
        {
          "internalType": "uint16",
          "name": "",
          "type": "uint16"
        }
      ],
      "name": "trustedRemoteLookup",
      "outputs": [
        {
          "internalType": "bytes",
          "name": "",
          "type": "bytes"
        }
      ],
      "stateMutability": "view",
      "type": "function"
    }
  ],
  "transactionHash": "0x92f507e7f80eb5c647c5a7606b702e3dcf2ae62523db949db9ccd8e53a1de3fd",
  "args": [],
  "numDeployments": 1,
  "solcInputHash": "31b97f86ef6ce96f8e0fb0048c04f300",
  "bytecode": "0x60806040523480156200001157600080fd5b506200001c62000022565b620000e3565b600054610100900460ff16156200008f5760405162461bcd60e51b815260206004820152602760248201527f496e697469616c697a61626c653a20636f6e747261637420697320696e697469604482015266616c697a696e6760c81b606482015260840160405180910390fd5b60005460ff90811614620000e1576000805460ff191660ff9081179091556040519081527f7f26b83ff96e1f2b6a682f133852f6798a09c465da95921460cefb38474024989060200160405180910390a15b565b6139c080620000f36000396000f3fe6080604052600436106102505760003560e01c80638ffa1f2a11610139578063c4461834116100b6578063eb8d72b71161007a578063eb8d72b7146107d0578063f2353641146107f0578063f2fde38b14610810578063f5ecbdbc14610830578063fa25f9b614610850578063fc0c546a1461087e57600080fd5b8063c446183414610747578063cbed8b9c1461075d578063d12473a51461077d578063d1deba1f1461079d578063df2a5b3b146107b057600080fd5b8063ab3ffb93116100fd578063ab3ffb93146106ac578063af3fb21c146106bf578063b353aaa7146106e7578063b4988fd014610707578063baf3292d1461072757600080fd5b80638ffa1f2a1461060c578063950c8a741461062c5780639ea5d6b11461064c5780639f38369a1461066c578063a6c3d1651461068c57600080fd5b80633f1f4fa4116101d25780635b8c41e6116101965780635b8c41e6146104f157806366ad5c8a14610540578063715018a6146105605780637533d788146105755780638cfd8f5c146105a25780638da5cb5b146105da57600080fd5b80633f1f4fa41461043e57806342d65a8d1461047957806348288190146104995780634ac3f4ff146104b057806351905636146104de57600080fd5b806310ddb1371161021957806310ddb1371461030c578063150b7a021461032c57806322a3ecf9146103655780632a205e3d146103e95780633d8b38f61461041e57600080fd5b80621d35671461025557806301ffc9a71461027757806307e0db17146102ac5780630b4cad4c146102cc5780630df37483146102ec575b600080fd5b34801561026157600080fd5b50610275610270366004612a49565b61089f565b005b34801561028357600080fd5b50610297610292366004612adc565b610abb565b60405190151581526020015b60405180910390f35b3480156102b857600080fd5b506102756102c7366004612b06565b610ae6565b3480156102d857600080fd5b506102756102e7366004612b21565b610b53565b3480156102f857600080fd5b50610275610307366004612b3a565b610bc7565b34801561031857600080fd5b50610275610327366004612b06565b610be6565b34801561033857600080fd5b5061034c610347366004612c47565b610c22565b6040516001600160e01b031990911681526020016102a3565b34801561037157600080fd5b506103ba610380366004612b21565b6101306020526000908152604090208054600182015460029092015461ffff821692620100009092046001600160a01b0316919060ff1684565b6040805161ffff90951685526001600160a01b03909316602085015291830152151560608201526080016102a3565b3480156103f557600080fd5b50610409610404366004612cc2565b610c4e565b604080519283526020830191909152016102a3565b34801561042a57600080fd5b50610297610439366004612d50565b610c74565b34801561044a57600080fd5b5061046b610459366004612b06565b60686020526000908152604090205481565b6040519081526020016102a3565b34801561048557600080fd5b50610275610494366004612d50565b610d40565b3480156104a557600080fd5b5061046b61012d5481565b3480156104bc57600080fd5b5061046b6104cb366004612b06565b61012e6020526000908152604090205481565b6102756104ec366004612da2565b610daa565b3480156104fd57600080fd5b5061046b61050c366004612e5b565b6097602090815260009384526040808520845180860184018051928152908401958401959095209452929052825290205481565b34801561054c57600080fd5b5061027561055b366004612a49565b610dc1565b34801561056c57600080fd5b50610275610e9d565b34801561058157600080fd5b50610595610590366004612b06565b610eb1565b6040516102a39190612f08565b3480156105ae57600080fd5b5061046b6105bd366004612f1b565b606760209081526000928352604080842090915290825290205481565b3480156105e657600080fd5b506033546001600160a01b03165b6040516001600160a01b0390911681526020016102a3565b34801561061857600080fd5b50610275610627366004612f4e565b610f4b565b34801561063857600080fd5b506069546105f4906001600160a01b031681565b34801561065857600080fd5b50610275610667366004612b3a565b6111b0565b34801561067857600080fd5b50610595610687366004612b06565b611234565b34801561069857600080fd5b506102756106a7366004612d50565b61134a565b6102756106ba36600461300b565b6113d3565b3480156106cb57600080fd5b506106d4600181565b60405161ffff90911681526020016102a3565b3480156106f357600080fd5b506065546105f4906001600160a01b031681565b34801561071357600080fd5b506102756107223660046130c0565b6113e2565b34801561073357600080fd5b50610275610742366004613102565b6114f9565b34801561075357600080fd5b5061046b61271081565b34801561076957600080fd5b5061027561077836600461311f565b611555565b34801561078957600080fd5b50610275610798366004612b3a565b6115ce565b6102756107ab366004612a49565b611653565b3480156107bc57600080fd5b506102756107cb36600461318d565b611869565b3480156107dc57600080fd5b506102756107eb366004612d50565b61191b565b3480156107fc57600080fd5b5061040961080b3660046131c9565b611975565b34801561081c57600080fd5b5061027561082b366004613102565b611a23565b34801561083c57600080fd5b5061059561084b366004613242565b611a99565b34801561085c57600080fd5b5061046b61086b366004612b06565b61012f6020526000908152604090205481565b34801561088a57600080fd5b5061015f546105f4906001600160a01b031681565b6065546001600160a01b0316336001600160a01b0316146109075760405162461bcd60e51b815260206004820152601e60248201527f4c7a4170703a20696e76616c696420656e64706f696e742063616c6c6572000060448201526064015b60405180910390fd5b61ffff8616600090815260666020526040812080546109259061328f565b80601f01602080910402602001604051908101604052809291908181526020018280546109519061328f565b801561099e5780601f106109735761010080835404028352916020019161099e565b820191906000526020600020905b81548152906001019060200180831161098157829003601f168201915b505050505090508051868690501480156109b9575060008151115b80156109e15750805160208201206040516109d790889088906132c9565b6040518091039020145b610a3c5760405162461bcd60e51b815260206004820152602660248201527f4c7a4170703a20696e76616c696420736f757263652073656e64696e6720636f6044820152651b9d1c9858dd60d21b60648201526084016108fe565b610ab28787878080601f01602080910402602001604051908101604052809392919081815260200183838082843760009201919091525050604080516020601f8a018190048102820181019092528881528a935091508890889081908401838280828437600092019190915250611b2c92505050565b50505050505050565b60006001600160e01b03198216630a85bd0160e11b1480610ae05750610ae082611ba5565b92915050565b610aee611bda565b6065546040516307e0db1760e01b815261ffff831660048201526001600160a01b03909116906307e0db17906024015b600060405180830381600087803b158015610b3857600080fd5b505af1158015610b4c573d6000803e3d6000fd5b5050505050565b610b5b611bda565b60008111610bc15760405162461bcd60e51b815260206004820152602d60248201527f4f4e46543732313a206d696e476173546f5472616e73666572416e6453746f7260448201526c065206d757374206265203e203609c1b60648201526084016108fe565b61012d55565b610bcf611bda565b61ffff909116600090815260686020526040902055565b610bee611bda565b6065546040516310ddb13760e01b815261ffff831660048201526001600160a01b03909116906310ddb13790602401610b1e565b60006001600160a01b0385163014610c3c57506000610c46565b50630a85bd0160e11b5b949350505050565b600080610c668787610c5f88611c34565b8787611975565b915091509550959350505050565b61ffff831660009081526066602052604081208054829190610c959061328f565b80601f0160208091040260200160405190810160405280929190818152602001828054610cc19061328f565b8015610d0e5780601f10610ce357610100808354040283529160200191610d0e565b820191906000526020600020905b815481529060010190602001808311610cf157829003601f168201915b505050505090508383604051610d259291906132c9565b60405180910390208180519060200120149150509392505050565b610d48611bda565b6065546040516342d65a8d60e01b81526001600160a01b03909116906342d65a8d90610d7c90869086908690600401613302565b600060405180830381600087803b158015610d9657600080fd5b505af1158015610ab2573d6000803e3d6000fd5b610ab2878787610db988611c34565b878787611c7f565b333014610e1f5760405162461bcd60e51b815260206004820152602660248201527f4e6f6e626c6f636b696e674c7a4170703a2063616c6c6572206d7573742062656044820152650204c7a4170760d41b60648201526084016108fe565b610e958686868080601f01602080910402602001604051908101604052809392919081815260200183838082843760009201919091525050604080516020601f890181900481028201810190925287815289935091508790879081908401838280828437600092019190915250611e6892505050565b505050505050565b610ea5611bda565b610eaf6000611fc0565b565b60666020526000908152604090208054610eca9061328f565b80601f0160208091040260200160405190810160405280929190818152602001828054610ef69061328f565b8015610f435780601f10610f1857610100808354040283529160200191610f43565b820191906000526020600020905b815481529060010190602001808311610f2657829003601f168201915b505050505081565b610f53612012565b8051602080830191909120600081815261013090925260409091206002015460ff16610fc15760405162461bcd60e51b815260206004820152601a60248201527f4f4e46543732313a206e6f20637265646974732073746f72656400000000000060448201526064016108fe565b600082806020019051810190610fd79190613365565b60008481526101306020526040812080546001909101549294509092506110149161ffff8216916201000090046001600160a01b0316908561206b565b6000848152610130602052604090206001015490915081116110935760405162461bcd60e51b815260206004820152603260248201527f4f4e46543732313a206e6f7420656e6f7567682067617320746f2070726f636560448201527139b99031b932b234ba103a3930b739b332b960711b60648201526084016108fe565b8151810361110b576000838152610130602052604080822080546001600160b01b031916815560018101929092556002909101805460ff19169055517fd7be02b8dd0d27bd0517a9cb4d7469ce27df4313821ae5ec1ff69acc594ba233906110fe9085815260200190565b60405180910390a16111a0565b6040805160808101825260008581526101306020818152848320805461ffff80821687526001600160a01b03620100008084048216868a019081529989018b8152600160608b01818152998f90529790965297519851169096026001600160b01b03199091169690951695909517939093178455915191830191909155516002909101805491151560ff199092169190911790555b5050506111ad600160fb55565b50565b6111b8611bda565b6000811161121c5760405162461bcd60e51b815260206004820152602b60248201527f4f4e46543732313a20647374436861696e4964546f42617463684c696d69742060448201526a06d757374206265203e20360ac1b60648201526084016108fe565b61ffff909116600090815261012e6020526040902055565b61ffff81166000908152606660205260408120805460609291906112579061328f565b80601f01602080910402602001604051908101604052809291908181526020018280546112839061328f565b80156112d05780601f106112a5576101008083540402835291602001916112d0565b820191906000526020600020905b8154815290600101906020018083116112b357829003601f168201915b5050505050905080516000036113285760405162461bcd60e51b815260206004820152601d60248201527f4c7a4170703a206e6f20747275737465642070617468207265636f726400000060448201526064016108fe565b61134360006014835161133b9190613435565b8391906120b8565b9392505050565b611352611bda565b81813060405160200161136793929190613448565b60408051601f1981840301815291815261ffff851660009081526066602052209061139290826134b4565b507f8c0400cfe2d1199b1a725c78960bcc2a344d869b80590d0f2bd005db15a572ce8383836040516113c693929190613302565b60405180910390a1505050565b610ab287878787878787611c7f565b600054610100900460ff16158080156114025750600054600160ff909116105b8061141c5750303b15801561141c575060005460ff166001145b61147f5760405162461bcd60e51b815260206004820152602e60248201527f496e697469616c697a61626c653a20636f6e747261637420697320616c72656160448201526d191e481a5b9a5d1a585b1a5e995960921b60648201526084016108fe565b6000805460ff1916600117905580156114a2576000805461ff0019166101001790555b6114ad8484846121c5565b80156114f3576000805461ff0019169055604051600181527f7f26b83ff96e1f2b6a682f133852f6798a09c465da95921460cefb38474024989060200160405180910390a15b50505050565b611501611bda565b606980546001600160a01b0319166001600160a01b0383169081179091556040519081527f5db758e995a17ec1ad84bdef7e8c3293a0bd6179bcce400dff5d4c3d87db726b9060200160405180910390a150565b61155d611bda565b6065546040516332fb62e760e21b81526001600160a01b039091169063cbed8b9c906115959088908890889088908890600401613573565b600060405180830381600087803b1580156115af57600080fd5b505af11580156115c3573d6000803e3d6000fd5b505050505050505050565b6115d6611bda565b6000811161163b5760405162461bcd60e51b815260206004820152602c60248201527f4f4e46543732313a20647374436861696e4964546f5472616e7366657247617360448201526b0206d757374206265203e20360a41b60648201526084016108fe565b61ffff909116600090815261012f6020526040902055565b61ffff8616600090815260976020526040808220905161167690889088906132c9565b90815260408051602092819003830190206001600160401b038716600090815292529020549050806116f65760405162461bcd60e51b815260206004820152602360248201527f4e6f6e626c6f636b696e674c7a4170703a206e6f2073746f726564206d65737360448201526261676560e81b60648201526084016108fe565b8083836040516117079291906132c9565b6040518091039020146117665760405162461bcd60e51b815260206004820152602160248201527f4e6f6e626c6f636b696e674c7a4170703a20696e76616c6964207061796c6f616044820152601960fa1b60648201526084016108fe565b61ffff8716600090815260976020526040808220905161178990899089906132c9565b90815260408051602092819003830181206001600160401b038916600090815290845282902093909355601f88018290048202830182019052868252611821918991899089908190840183828082843760009201919091525050604080516020601f8a018190048102820181019092528881528a935091508890889081908401838280828437600092019190915250611e6892505050565b7fc264d91f3adc5588250e1551f547752ca0cfa8f6b530d243b9f9f4cab10ea8e587878787856040516118589594939291906135a1565b60405180910390a150505050505050565b611871611bda565b600081116118b95760405162461bcd60e51b81526020600482015260156024820152744c7a4170703a20696e76616c6964206d696e47617360581b60448201526064016108fe565b61ffff83811660008181526067602090815260408083209487168084529482529182902085905581519283528201929092529081018290527f9d5c7c0b934da8fefa9c7760c98383778a12dfbfc0c3b3106518f43fb9508ac0906060016113c6565b611923611bda565b61ffff831660009081526066602052604090206119418284836135dc565b507ffa41487ad5d6728f0b19276fa1eddc16558578f5109fc39d2dc33c3230470dab8383836040516113c693929190613302565b6000806000868660405160200161198d9291906136d6565b60408051601f198184030181529082905260655463040a7bb160e41b83529092506001600160a01b0316906340a7bb10906119d4908b90309086908b908b906004016136fb565b6040805180830381865afa1580156119f0573d6000803e3d6000fd5b505050506040513d601f19601f82011682018060405250810190611a14919061374f565b92509250509550959350505050565b611a2b611bda565b6001600160a01b038116611a905760405162461bcd60e51b815260206004820152602660248201527f4f776e61626c653a206e6577206f776e657220697320746865207a65726f206160448201526564647265737360d01b60648201526084016108fe565b6111ad81611fc0565b606554604051633d7b2f6f60e21b815261ffff808716600483015285166024820152306044820152606481018390526060916001600160a01b03169063f5ecbdbc90608401600060405180830381865afa158015611afb573d6000803e3d6000fd5b505050506040513d6000823e601f3d908101601f19168201604052611b239190810190613773565b95945050505050565b600080611b8f5a60966366ad5c8a60e01b89898989604051602401611b5494939291906137a7565b60408051601f198184030181529190526020810180516001600160e01b03166001600160e01b03199093169290921790915230929190612214565b9150915081610e9557610e95868686868561229e565b60006001600160e01b031982166322bac5d960e01b1480610ae057506301ffc9a760e01b6001600160e01b0319831614610ae0565b6033546001600160a01b03163314610eaf5760405162461bcd60e51b815260206004820181905260248201527f4f776e61626c653a2063616c6c6572206973206e6f7420746865206f776e657260448201526064016108fe565b60408051600180825281830190925260609160009190602080830190803683370190505090508281600081518110611c6e57611c6e6137e5565b602090810291909101015292915050565b6000845111611cd05760405162461bcd60e51b815260206004820152601a60248201527f4c7a4170703a20746f6b656e4964735b5d20697320656d70747900000000000060448201526064016108fe565b835160011480611cf5575061ffff8616600090815261012e6020526040902054845111155b611d555760405162461bcd60e51b815260206004820152602b60248201527f4f4e46543732313a2062617463682073697a652065786365656473206473742060448201526a18985d18da081b1a5b5a5d60aa1b60648201526084016108fe565b60005b8451811015611d9857611d86888888888581518110611d7957611d796137e5565b602002602001015161233b565b80611d90816137fb565b915050611d58565b5060008585604051602001611dae9291906136d6565b6040516020818303038152906040529050611df487600184885161012f60008d61ffff1661ffff16815260200190815260200160002054611def9190613814565b612420565b611e028782868686346124ff565b85604051611e10919061382b565b6040518091039020886001600160a01b03168861ffff167fe1b87c47fdeb4f9cbadbca9df3af7aba453bb6e501075d0440d88125b711522a88604051611e569190613847565b60405180910390a45050505050505050565b60008082806020019051810190611e7f9190613365565b601482015191935091506000611e978883838661206b565b90508251811015611f6c5784516020808701919091206040805160808101825261ffff808d1682526001600160a01b038088168387019081528385018881526001606086018181526000898152610130909a529887902095518654935190941662010000026001600160b01b03199093169390941692909217178355519082015592516002909301805493151560ff199094169390931790925590517f10e0b70d256bccc84b7027506978bd8b68984a870788b93b479def144c839ad790611f62908390899061385a565b60405180910390a1505b816001600160a01b031687604051611f84919061382b565b60405180910390208961ffff167f5b821db8a46f8ecbe1941ba2f51cfeea9643268b56631f70d45e2a745d99026586604051611e569190613847565b603380546001600160a01b038381166001600160a01b0319831681179093556040519116919082907f8be0079c531659141344cd1fd0a4f28419497f9722a3daafe3b4186f6b6457e090600090a35050565b600260fb54036120645760405162461bcd60e51b815260206004820152601f60248201527f5265656e7472616e637947756172643a207265656e7472616e742063616c6c0060448201526064016108fe565b600260fb55565b6000825b8251811015611b235761012d545a10611b23576120a68686858481518110612099576120996137e5565b6020026020010151612688565b806120b0816137fb565b91505061206f565b6060816120c681601f613873565b10156121055760405162461bcd60e51b815260206004820152600e60248201526d736c6963655f6f766572666c6f7760901b60448201526064016108fe565b61210f8284613873565b845110156121535760405162461bcd60e51b8152602060048201526011602482015270736c6963655f6f75744f66426f756e647360781b60448201526064016108fe565b60608215801561217257604051915060008252602082016040526121bc565b6040519150601f8416801560200281840101858101878315602002848b0101015b818310156121ab578051835260209283019201612193565b5050858452601f01601f1916604052505b50949350505050565b600054610100900460ff166121ec5760405162461bcd60e51b81526004016108fe90613886565b6121f46126c8565b6121fd826126f8565b61220683612741565b61220f81612768565b505050565b6000606060008060008661ffff166001600160401b0381111561223957612239612b84565b6040519080825280601f01601f191660200182016040528015612263576020820181803683370190505b50905060008087516020890160008d8df191503d925086831115612285578692505b828152826000602083013e909890975095505050505050565b8180519060200120609760008761ffff1661ffff168152602001908152602001600020856040516122cf919061382b565b9081526040805191829003602090810183206001600160401b0388166000908152915220919091557fe183f33de2837795525b4792ca4cd60535bd77c53b7e7030060bfcf5734d6b0c9061232c90879087908790879087906138d1565b60405180910390a15050505050565b6001600160a01b03841633146123ad5760405162461bcd60e51b815260206004820152603160248201527f50726f78794f4e46543732315570677261646561626c653a206f776e6572206960448201527039903737ba1039b2b7321031b0b63632b960791b60648201526084016108fe565b61015f54604051632142170760e11b81526001600160a01b03868116600483015230602483015260448201849052909116906342842e0e90606401600060405180830381600087803b15801561240257600080fd5b505af1158015612416573d6000803e3d6000fd5b5050505050505050565b600061242b8361282e565b61ffff80871660009081526067602090815260408083209389168352929052908120549192509061245d908490613873565b9050600081116124af5760405162461bcd60e51b815260206004820152601a60248201527f4c7a4170703a206d696e4761734c696d6974206e6f742073657400000000000060448201526064016108fe565b80821015610e955760405162461bcd60e51b815260206004820152601b60248201527f4c7a4170703a20676173206c696d697420697320746f6f206c6f77000000000060448201526064016108fe565b61ffff86166000908152606660205260408120805461251d9061328f565b80601f01602080910402602001604051908101604052809291908181526020018280546125499061328f565b80156125965780601f1061256b57610100808354040283529160200191612596565b820191906000526020600020905b81548152906001019060200180831161257957829003601f168201915b5050505050905080516000036126075760405162461bcd60e51b815260206004820152603060248201527f4c7a4170703a2064657374696e6174696f6e20636861696e206973206e6f742060448201526f61207472757374656420736f7572636560801b60648201526084016108fe565b61261287875161288a565b60655460405162c5803160e81b81526001600160a01b039091169063c580310090849061264d908b9086908c908c908c908c90600401613923565b6000604051808303818588803b15801561266657600080fd5b505af115801561267a573d6000803e3d6000fd5b505050505050505050505050565b61015f54604051632142170760e11b81523060048201526001600160a01b03848116602483015260448201849052909116906342842e0e90606401610d7c565b600054610100900460ff166126ef5760405162461bcd60e51b81526004016108fe90613886565b610eaf33611fc0565b600054610100900460ff1661271f5760405162461bcd60e51b81526004016108fe90613886565b606580546001600160a01b0319166001600160a01b0392909216919091179055565b600054610100900460ff16610b5b5760405162461bcd60e51b81526004016108fe90613886565b600054610100900460ff1661278f5760405162461bcd60e51b81526004016108fe90613886565b6127a96001600160a01b0382166380ac58cd60e01b6128fb565b61280b5760405162461bcd60e51b815260206004820152602d60248201527f50726f78794f4e46543732315570677261646561626c653a20696e76616c696460448201526c1022a9219b9918903a37b5b2b760991b60648201526084016108fe565b61015f80546001600160a01b0319166001600160a01b0392909216919091179055565b60006022825110156128825760405162461bcd60e51b815260206004820152601c60248201527f4c7a4170703a20696e76616c69642061646170746572506172616d730000000060448201526064016108fe565b506022015190565b61ffff8216600090815260686020526040812054908190036128ab57506127105b8082111561220f5760405162461bcd60e51b815260206004820181905260248201527f4c7a4170703a207061796c6f61642073697a6520697320746f6f206c6172676560448201526064016108fe565b600061290683612917565b80156113435750611343838361294a565b600061292a826301ffc9a760e01b61294a565b8015610ae05750612943826001600160e01b031961294a565b1592915050565b604080516001600160e01b03198316602480830191909152825180830390910181526044909101909152602080820180516001600160e01b03166301ffc9a760e01b178152825160009392849283928392918391908a617530fa92503d915060005190508280156129bc575060208210155b80156129c85750600081115b979650505050505050565b803561ffff811681146129e557600080fd5b919050565b60008083601f8401126129fc57600080fd5b5081356001600160401b03811115612a1357600080fd5b602083019150836020828501011115612a2b57600080fd5b9250929050565b80356001600160401b03811681146129e557600080fd5b60008060008060008060808789031215612a6257600080fd5b612a6b876129d3565b955060208701356001600160401b0380821115612a8757600080fd5b612a938a838b016129ea565b9097509550859150612aa760408a01612a32565b94506060890135915080821115612abd57600080fd5b50612aca89828a016129ea565b979a9699509497509295939492505050565b600060208284031215612aee57600080fd5b81356001600160e01b03198116811461134357600080fd5b600060208284031215612b1857600080fd5b611343826129d3565b600060208284031215612b3357600080fd5b5035919050565b60008060408385031215612b4d57600080fd5b612b56836129d3565b946020939093013593505050565b6001600160a01b03811681146111ad57600080fd5b80356129e581612b64565b634e487b7160e01b600052604160045260246000fd5b604051601f8201601f191681016001600160401b0381118282101715612bc257612bc2612b84565b604052919050565b60006001600160401b03821115612be357612be3612b84565b50601f01601f191660200190565b600082601f830112612c0257600080fd5b8135612c15612c1082612bca565b612b9a565b818152846020838601011115612c2a57600080fd5b816020850160208301376000918101602001919091529392505050565b60008060008060808587031215612c5d57600080fd5b8435612c6881612b64565b93506020850135612c7881612b64565b92506040850135915060608501356001600160401b03811115612c9a57600080fd5b612ca687828801612bf1565b91505092959194509250565b803580151581146129e557600080fd5b600080600080600060a08688031215612cda57600080fd5b612ce3866129d3565b945060208601356001600160401b0380821115612cff57600080fd5b612d0b89838a01612bf1565b955060408801359450612d2060608901612cb2565b93506080880135915080821115612d3657600080fd5b50612d4388828901612bf1565b9150509295509295909350565b600080600060408486031215612d6557600080fd5b612d6e846129d3565b925060208401356001600160401b03811115612d8957600080fd5b612d95868287016129ea565b9497909650939450505050565b600080600080600080600060e0888a031215612dbd57600080fd5b8735612dc881612b64565b9650612dd6602089016129d3565b955060408801356001600160401b0380821115612df257600080fd5b612dfe8b838c01612bf1565b965060608a0135955060808a01359150612e1782612b64565b90935060a089013590612e2982612b64565b90925060c08901359080821115612e3f57600080fd5b50612e4c8a828b01612bf1565b91505092959891949750929550565b600080600060608486031215612e7057600080fd5b612e79846129d3565b925060208401356001600160401b03811115612e9457600080fd5b612ea086828701612bf1565b925050612eaf60408501612a32565b90509250925092565b60005b83811015612ed3578181015183820152602001612ebb565b50506000910152565b60008151808452612ef4816020860160208601612eb8565b601f01601f19169290920160200192915050565b6020815260006113436020830184612edc565b60008060408385031215612f2e57600080fd5b612f37836129d3565b9150612f45602084016129d3565b90509250929050565b600060208284031215612f6057600080fd5b81356001600160401b03811115612f7657600080fd5b610c4684828501612bf1565b60006001600160401b03821115612f9b57612f9b612b84565b5060051b60200190565b600082601f830112612fb657600080fd5b81356020612fc6612c1083612f82565b82815260059290921b84018101918181019086841115612fe557600080fd5b8286015b848110156130005780358352918301918301612fe9565b509695505050505050565b600080600080600080600060e0888a03121561302657600080fd5b873561303181612b64565b965061303f602089016129d3565b955060408801356001600160401b038082111561305b57600080fd5b6130678b838c01612bf1565b965060608a013591508082111561307d57600080fd5b6130898b838c01612fa5565b955060808a0135915061309b82612b64565b8194506130aa60a08b01612b79565b935060c08a0135915080821115612e3f57600080fd5b6000806000606084860312156130d557600080fd5b8335925060208401356130e781612b64565b915060408401356130f781612b64565b809150509250925092565b60006020828403121561311457600080fd5b813561134381612b64565b60008060008060006080868803121561313757600080fd5b613140866129d3565b945061314e602087016129d3565b93506040860135925060608601356001600160401b0381111561317057600080fd5b61317c888289016129ea565b969995985093965092949392505050565b6000806000606084860312156131a257600080fd5b6131ab846129d3565b92506131b9602085016129d3565b9150604084013590509250925092565b600080600080600060a086880312156131e157600080fd5b6131ea866129d3565b945060208601356001600160401b038082111561320657600080fd5b61321289838a01612bf1565b9550604088013591508082111561322857600080fd5b61323489838a01612fa5565b9450612d2060608901612cb2565b6000806000806080858703121561325857600080fd5b613261856129d3565b935061326f602086016129d3565b9250604085013561327f81612b64565b9396929550929360600135925050565b600181811c908216806132a357607f821691505b6020821081036132c357634e487b7160e01b600052602260045260246000fd5b50919050565b8183823760009101908152919050565b81835281816020850137506000828201602090810191909152601f909101601f19169091010190565b61ffff84168152604060208201526000611b236040830184866132d9565b600082601f83011261333157600080fd5b815161333f612c1082612bca565b81815284602083860101111561335457600080fd5b610c46826020830160208701612eb8565b6000806040838503121561337857600080fd5b82516001600160401b038082111561338f57600080fd5b61339b86838701613320565b93506020915081850151818111156133b257600080fd5b85019050601f810186136133c557600080fd5b80516133d3612c1082612f82565b81815260059190911b820183019083810190888311156133f257600080fd5b928401925b82841015613410578351825292840192908401906133f7565b80955050505050509250929050565b634e487b7160e01b600052601160045260246000fd5b81810381811115610ae057610ae061341f565b8284823760609190911b6bffffffffffffffffffffffff19169101908152601401919050565b601f82111561220f57600081815260208120601f850160051c810160208610156134955750805b601f850160051c820191505b81811015610e95578281556001016134a1565b81516001600160401b038111156134cd576134cd612b84565b6134e1816134db845461328f565b8461346e565b602080601f83116001811461351657600084156134fe5750858301515b600019600386901b1c1916600185901b178555610e95565b600085815260208120601f198616915b8281101561354557888601518255948401946001909101908401613526565b50858210156135635787850151600019600388901b60f8161c191681555b5050505050600190811b01905550565b600061ffff8088168352808716602084015250846040830152608060608301526129c86080830184866132d9565b61ffff861681526080602082015260006135bf6080830186886132d9565b6001600160401b0394909416604083015250606001529392505050565b6001600160401b038311156135f3576135f3612b84565b61360783613601835461328f565b8361346e565b6000601f84116001811461363b57600085156136235750838201355b600019600387901b1c1916600186901b178355610b4c565b600083815260209020601f19861690835b8281101561366c578685013582556020948501946001909201910161364c565b50868210156136895760001960f88860031b161c19848701351681555b505060018560011b0183555050505050565b600081518084526020808501945080840160005b838110156136cb578151875295820195908201906001016136af565b509495945050505050565b6040815260006136e96040830185612edc565b8281036020840152611b23818561369b565b61ffff861681526001600160a01b038516602082015260a06040820181905260009061372990830186612edc565b841515606084015282810360808401526137438185612edc565b98975050505050505050565b6000806040838503121561376257600080fd5b505080516020909101519092909150565b60006020828403121561378557600080fd5b81516001600160401b0381111561379b57600080fd5b610c4684828501613320565b61ffff851681526080602082015260006137c46080830186612edc565b6001600160401b038516604084015282810360608401526129c88185612edc565b634e487b7160e01b600052603260045260246000fd5b60006001820161380d5761380d61341f565b5060010190565b8082028115828204841417610ae057610ae061341f565b6000825161383d818460208701612eb8565b9190910192915050565b602081526000611343602083018461369b565b828152604060208201526000610c466040830184612edc565b80820180821115610ae057610ae061341f565b6020808252602b908201527f496e697469616c697a61626c653a20636f6e7472616374206973206e6f74206960408201526a6e697469616c697a696e6760a81b606082015260800190565b61ffff8616815260a0602082015260006138ee60a0830187612edc565b6001600160401b0386166040840152828103606084015261390f8186612edc565b905082810360808401526137438185612edc565b61ffff8716815260c06020820152600061394060c0830188612edc565b82810360408401526139528188612edc565b6001600160a01b0387811660608601528616608085015283810360a0850152905061397d8185612edc565b999850505050505050505056fea264697066735822122096502f1b48381b25d451189493580d23a4fdbb3a7aeb1d63bb65ade8971667dd64736f6c63430008120033",
  "devdoc": {
    "events": {
      "CreditCleared(bytes32)": {
        "details": "Emitted when `_hashedPayload` has been completely delivered"
      },
      "CreditStored(bytes32,bytes)": {
        "details": "Emitted when `_payload` was received from lz, but not enough gas to deliver all tokenIds"
      },
      "Initialized(uint8)": {
        "details": "Triggered when the contract has been initialized or reinitialized."
      },
      "SendToChain(uint16,address,bytes,uint256[])": {
        "details": "Emitted when `_tokenIds[]` are moved from the `_sender` to (`_dstChainId`, `_toAddress`) `_nonce` is the outbound nonce from"
      }
    },
    "kind": "dev",
    "methods": {
      "constructor": {
        "custom:oz-upgrades-unsafe-allow": "constructor"
      },
      "estimateSendBatchFee(uint16,bytes,uint256[],bool,bytes)": {
        "details": "estimate send token `_tokenId` to (`_dstChainId`, `_toAddress`) _dstChainId - L0 defined chain id to send tokens too _toAddress - dynamic bytes array which contains the address to whom you are sending tokens to on the dstChain _tokenIds[] - token Ids to transfer _useZro - indicates to use zro to pay L0 fees _adapterParams - flexible bytes array to indicate messaging adapter services in L0"
      },
      "estimateSendFee(uint16,bytes,uint256,bool,bytes)": {
        "details": "estimate send token `_tokenId` to (`_dstChainId`, `_toAddress`) _dstChainId - L0 defined chain id to send tokens too _toAddress - dynamic bytes array which contains the address to whom you are sending tokens to on the dstChain _tokenId - token Id to transfer _useZro - indicates to use zro to pay L0 fees _adapterParams - flexible bytes array to indicate messaging adapter services in L0"
      },
      "owner()": {
        "details": "Returns the address of the current owner."
      },
      "renounceOwnership()": {
        "details": "Leaves the contract without owner. It will not be possible to call `onlyOwner` functions. Can only be called by the current owner. NOTE: Renouncing ownership will leave the contract without an owner, thereby disabling any functionality that is only available to the owner."
      },
      "sendBatchFrom(address,uint16,bytes,uint256[],address,address,bytes)": {
        "details": "send tokens `_tokenIds[]` to (`_dstChainId`, `_toAddress`) from `_from` `_toAddress` can be any size depending on the `dstChainId`. `_zroPaymentAddress` set to address(0x0) if not paying in ZRO (LayerZero Token) `_adapterParams` is a flexible bytes array to indicate messaging adapter services"
      },
      "sendFrom(address,uint16,bytes,uint256,address,address,bytes)": {
        "details": "send token `_tokenId` to (`_dstChainId`, `_toAddress`) from `_from` `_toAddress` can be any size depending on the `dstChainId`. `_zroPaymentAddress` set to address(0x0) if not paying in ZRO (LayerZero Token) `_adapterParams` is a flexible bytes array to indicate messaging adapter services"
      },
      "transferOwnership(address)": {
        "details": "Transfers ownership of the contract to a new account (`newOwner`). Can only be called by the current owner."
      }
    },
    "version": 1
  },
  "userdoc": {
    "kind": "user",
    "methods": {},
    "version": 1
  },
  "storageLayout": {
    "storage": [
      {
        "astId": 566,
        "contract": "contracts/contracts-upgradable/token/onft/ERC721/extension/ProxyONFT721Upgradeable.sol:ProxyONFT721Upgradeable",
        "label": "_initialized",
        "offset": 0,
        "slot": "0",
        "type": "t_uint8"
      },
      {
        "astId": 569,
        "contract": "contracts/contracts-upgradable/token/onft/ERC721/extension/ProxyONFT721Upgradeable.sol:ProxyONFT721Upgradeable",
        "label": "_initializing",
        "offset": 1,
        "slot": "0",
        "type": "t_bool"
      },
      {
        "astId": 5585,
        "contract": "contracts/contracts-upgradable/token/onft/ERC721/extension/ProxyONFT721Upgradeable.sol:ProxyONFT721Upgradeable",
        "label": "__gap",
        "offset": 0,
        "slot": "1",
        "type": "t_array(t_uint256)50_storage"
      },
      {
        "astId": 419,
        "contract": "contracts/contracts-upgradable/token/onft/ERC721/extension/ProxyONFT721Upgradeable.sol:ProxyONFT721Upgradeable",
        "label": "_owner",
        "offset": 0,
        "slot": "51",
        "type": "t_address"
      },
      {
        "astId": 539,
        "contract": "contracts/contracts-upgradable/token/onft/ERC721/extension/ProxyONFT721Upgradeable.sol:ProxyONFT721Upgradeable",
        "label": "__gap",
        "offset": 0,
        "slot": "52",
        "type": "t_array(t_uint256)49_storage"
      },
      {
        "astId": 15335,
        "contract": "contracts/contracts-upgradable/token/onft/ERC721/extension/ProxyONFT721Upgradeable.sol:ProxyONFT721Upgradeable",
        "label": "lzEndpoint",
        "offset": 0,
        "slot": "101",
        "type": "t_contract(ILayerZeroEndpointUpgradeable)15266"
      },
      {
        "astId": 15339,
        "contract": "contracts/contracts-upgradable/token/onft/ERC721/extension/ProxyONFT721Upgradeable.sol:ProxyONFT721Upgradeable",
        "label": "trustedRemoteLookup",
        "offset": 0,
        "slot": "102",
        "type": "t_mapping(t_uint16,t_bytes_storage)"
      },
      {
        "astId": 15345,
        "contract": "contracts/contracts-upgradable/token/onft/ERC721/extension/ProxyONFT721Upgradeable.sol:ProxyONFT721Upgradeable",
        "label": "minDstGasLookup",
        "offset": 0,
        "slot": "103",
        "type": "t_mapping(t_uint16,t_mapping(t_uint16,t_uint256))"
      },
      {
        "astId": 15349,
        "contract": "contracts/contracts-upgradable/token/onft/ERC721/extension/ProxyONFT721Upgradeable.sol:ProxyONFT721Upgradeable",
        "label": "payloadSizeLimitLookup",
        "offset": 0,
        "slot": "104",
        "type": "t_mapping(t_uint16,t_uint256)"
      },
      {
        "astId": 15351,
        "contract": "contracts/contracts-upgradable/token/onft/ERC721/extension/ProxyONFT721Upgradeable.sol:ProxyONFT721Upgradeable",
        "label": "precrime",
        "offset": 0,
        "slot": "105",
        "type": "t_address"
      },
      {
        "astId": 15883,
        "contract": "contracts/contracts-upgradable/token/onft/ERC721/extension/ProxyONFT721Upgradeable.sol:ProxyONFT721Upgradeable",
        "label": "__gap",
        "offset": 0,
        "slot": "106",
        "type": "t_array(t_uint256)45_storage"
      },
      {
        "astId": 15926,
        "contract": "contracts/contracts-upgradable/token/onft/ERC721/extension/ProxyONFT721Upgradeable.sol:ProxyONFT721Upgradeable",
        "label": "failedMessages",
        "offset": 0,
        "slot": "151",
        "type": "t_mapping(t_uint16,t_mapping(t_bytes_memory_ptr,t_mapping(t_uint64,t_bytes32)))"
      },
      {
        "astId": 16145,
        "contract": "contracts/contracts-upgradable/token/onft/ERC721/extension/ProxyONFT721Upgradeable.sol:ProxyONFT721Upgradeable",
        "label": "__gap",
        "offset": 0,
        "slot": "152",
        "type": "t_array(t_uint256)49_storage"
      },
      {
        "astId": 6052,
        "contract": "contracts/contracts-upgradable/token/onft/ERC721/extension/ProxyONFT721Upgradeable.sol:ProxyONFT721Upgradeable",
        "label": "__gap",
        "offset": 0,
        "slot": "201",
        "type": "t_array(t_uint256)50_storage"
      },
      {
        "astId": 742,
        "contract": "contracts/contracts-upgradable/token/onft/ERC721/extension/ProxyONFT721Upgradeable.sol:ProxyONFT721Upgradeable",
        "label": "_status",
        "offset": 0,
        "slot": "251",
        "type": "t_uint256"
      },
      {
        "astId": 811,
        "contract": "contracts/contracts-upgradable/token/onft/ERC721/extension/ProxyONFT721Upgradeable.sol:ProxyONFT721Upgradeable",
        "label": "__gap",
        "offset": 0,
        "slot": "252",
        "type": "t_array(t_uint256)49_storage"
      },
      {
        "astId": 22603,
        "contract": "contracts/contracts-upgradable/token/onft/ERC721/extension/ProxyONFT721Upgradeable.sol:ProxyONFT721Upgradeable",
        "label": "minGasToTransferAndStore",
        "offset": 0,
        "slot": "301",
        "type": "t_uint256"
      },
      {
        "astId": 22607,
        "contract": "contracts/contracts-upgradable/token/onft/ERC721/extension/ProxyONFT721Upgradeable.sol:ProxyONFT721Upgradeable",
        "label": "dstChainIdToBatchLimit",
        "offset": 0,
        "slot": "302",
        "type": "t_mapping(t_uint16,t_uint256)"
      },
      {
        "astId": 22611,
        "contract": "contracts/contracts-upgradable/token/onft/ERC721/extension/ProxyONFT721Upgradeable.sol:ProxyONFT721Upgradeable",
        "label": "dstChainIdToTransferGas",
        "offset": 0,
        "slot": "303",
        "type": "t_mapping(t_uint16,t_uint256)"
      },
      {
        "astId": 22616,
        "contract": "contracts/contracts-upgradable/token/onft/ERC721/extension/ProxyONFT721Upgradeable.sol:ProxyONFT721Upgradeable",
        "label": "storedCredits",
        "offset": 0,
        "slot": "304",
        "type": "t_mapping(t_bytes32,t_struct(StoredCredit)22601_storage)"
      },
      {
        "astId": 23248,
        "contract": "contracts/contracts-upgradable/token/onft/ERC721/extension/ProxyONFT721Upgradeable.sol:ProxyONFT721Upgradeable",
        "label": "__gap",
        "offset": 0,
        "slot": "305",
        "type": "t_array(t_uint256)46_storage"
      },
      {
        "astId": 23997,
        "contract": "contracts/contracts-upgradable/token/onft/ERC721/extension/ProxyONFT721Upgradeable.sol:ProxyONFT721Upgradeable",
        "label": "token",
        "offset": 0,
        "slot": "351",
        "type": "t_contract(IERC721Upgradeable)4448"
      }
    ],
    "types": {
      "t_address": {
        "encoding": "inplace",
        "label": "address",
        "numberOfBytes": "20"
      },
      "t_array(t_uint256)45_storage": {
        "base": "t_uint256",
        "encoding": "inplace",
        "label": "uint256[45]",
        "numberOfBytes": "1440"
      },
      "t_array(t_uint256)46_storage": {
        "base": "t_uint256",
        "encoding": "inplace",
        "label": "uint256[46]",
        "numberOfBytes": "1472"
      },
      "t_array(t_uint256)49_storage": {
        "base": "t_uint256",
        "encoding": "inplace",
        "label": "uint256[49]",
        "numberOfBytes": "1568"
      },
      "t_array(t_uint256)50_storage": {
        "base": "t_uint256",
        "encoding": "inplace",
        "label": "uint256[50]",
        "numberOfBytes": "1600"
      },
      "t_bool": {
        "encoding": "inplace",
        "label": "bool",
        "numberOfBytes": "1"
      },
      "t_bytes32": {
        "encoding": "inplace",
        "label": "bytes32",
        "numberOfBytes": "32"
      },
      "t_bytes_memory_ptr": {
        "encoding": "bytes",
        "label": "bytes",
        "numberOfBytes": "32"
      },
      "t_bytes_storage": {
        "encoding": "bytes",
        "label": "bytes",
        "numberOfBytes": "32"
      },
      "t_contract(IERC721Upgradeable)4448": {
        "encoding": "inplace",
        "label": "contract IERC721Upgradeable",
        "numberOfBytes": "20"
      },
      "t_contract(ILayerZeroEndpointUpgradeable)15266": {
        "encoding": "inplace",
        "label": "contract ILayerZeroEndpointUpgradeable",
        "numberOfBytes": "20"
      },
      "t_mapping(t_bytes32,t_struct(StoredCredit)22601_storage)": {
        "encoding": "mapping",
        "key": "t_bytes32",
        "label": "mapping(bytes32 => struct ONFT721CoreUpgradeable.StoredCredit)",
        "numberOfBytes": "32",
        "value": "t_struct(StoredCredit)22601_storage"
      },
      "t_mapping(t_bytes_memory_ptr,t_mapping(t_uint64,t_bytes32))": {
        "encoding": "mapping",
        "key": "t_bytes_memory_ptr",
        "label": "mapping(bytes => mapping(uint64 => bytes32))",
        "numberOfBytes": "32",
        "value": "t_mapping(t_uint64,t_bytes32)"
      },
      "t_mapping(t_uint16,t_bytes_storage)": {
        "encoding": "mapping",
        "key": "t_uint16",
        "label": "mapping(uint16 => bytes)",
        "numberOfBytes": "32",
        "value": "t_bytes_storage"
      },
      "t_mapping(t_uint16,t_mapping(t_bytes_memory_ptr,t_mapping(t_uint64,t_bytes32)))": {
        "encoding": "mapping",
        "key": "t_uint16",
        "label": "mapping(uint16 => mapping(bytes => mapping(uint64 => bytes32)))",
        "numberOfBytes": "32",
        "value": "t_mapping(t_bytes_memory_ptr,t_mapping(t_uint64,t_bytes32))"
      },
      "t_mapping(t_uint16,t_mapping(t_uint16,t_uint256))": {
        "encoding": "mapping",
        "key": "t_uint16",
        "label": "mapping(uint16 => mapping(uint16 => uint256))",
        "numberOfBytes": "32",
        "value": "t_mapping(t_uint16,t_uint256)"
      },
      "t_mapping(t_uint16,t_uint256)": {
        "encoding": "mapping",
        "key": "t_uint16",
        "label": "mapping(uint16 => uint256)",
        "numberOfBytes": "32",
        "value": "t_uint256"
      },
      "t_mapping(t_uint64,t_bytes32)": {
        "encoding": "mapping",
        "key": "t_uint64",
        "label": "mapping(uint64 => bytes32)",
        "numberOfBytes": "32",
        "value": "t_bytes32"
      },
      "t_struct(StoredCredit)22601_storage": {
        "encoding": "inplace",
        "label": "struct ONFT721CoreUpgradeable.StoredCredit",
        "members": [
          {
            "astId": 22594,
            "contract": "contracts/contracts-upgradable/token/onft/ERC721/extension/ProxyONFT721Upgradeable.sol:ProxyONFT721Upgradeable",
            "label": "srcChainId",
            "offset": 0,
            "slot": "0",
            "type": "t_uint16"
          },
          {
            "astId": 22596,
            "contract": "contracts/contracts-upgradable/token/onft/ERC721/extension/ProxyONFT721Upgradeable.sol:ProxyONFT721Upgradeable",
            "label": "toAddress",
            "offset": 2,
            "slot": "0",
            "type": "t_address"
          },
          {
            "astId": 22598,
            "contract": "contracts/contracts-upgradable/token/onft/ERC721/extension/ProxyONFT721Upgradeable.sol:ProxyONFT721Upgradeable",
            "label": "index",
            "offset": 0,
            "slot": "1",
            "type": "t_uint256"
          },
          {
            "astId": 22600,
            "contract": "contracts/contracts-upgradable/token/onft/ERC721/extension/ProxyONFT721Upgradeable.sol:ProxyONFT721Upgradeable",
            "label": "creditsRemain",
            "offset": 0,
            "slot": "2",
            "type": "t_bool"
          }
        ],
        "numberOfBytes": "96"
      },
      "t_uint16": {
        "encoding": "inplace",
        "label": "uint16",
        "numberOfBytes": "2"
      },
      "t_uint256": {
        "encoding": "inplace",
        "label": "uint256",
        "numberOfBytes": "32"
      },
      "t_uint64": {
        "encoding": "inplace",
        "label": "uint64",
        "numberOfBytes": "8"
      },
      "t_uint8": {
        "encoding": "inplace",
        "label": "uint8",
        "numberOfBytes": "1"
      }
    }
  }
}