{
  "address": "0x1cF0494E03516cE466780d34c1F96269eb47EdBC",
  "abi": [
    {
      "anonymous": false,
      "inputs": [
        {
          "indexed": true,
          "internalType": "address",
          "name": "owner",
          "type": "address"
        },
        {
          "indexed": true,
          "internalType": "address",
          "name": "spender",
          "type": "address"
        },
        {
          "indexed": false,
          "internalType": "uint256",
          "name": "value",
          "type": "uint256"
        }
      ],
      "name": "Approval",
      "type": "event"
    },
    {
      "anonymous": false,
      "inputs": [
        {
          "indexed": true,
          "internalType": "uint16",
          "name": "_srcChainId",
          "type": "uint16"
        },
        {
          "indexed": false,
          "internalType": "bytes",
          "name": "_srcAddress",
          "type": "bytes"
        },
        {
          "indexed": false,
          "internalType": "uint64",
          "name": "_nonce",
          "type": "uint64"
        },
        {
          "indexed": false,
          "internalType": "bytes32",
          "name": "_hash",
          "type": "bytes32"
        }
      ],
      "name": "CallOFTReceivedSuccess",
      "type": "event"
    },
    {
      "anonymous": false,
      "inputs": [
        {
          "indexed": false,
          "internalType": "uint8",
          "name": "version",
          "type": "uint8"
        }
      ],
      "name": "Initialized",
      "type": "event"
    },
    {
      "anonymous": false,
      "inputs": [
        {
          "indexed": false,
          "internalType": "uint16",
          "name": "_srcChainId",
          "type": "uint16"
        },
        {
          "indexed": false,
          "internalType": "bytes",
          "name": "_srcAddress",
          "type": "bytes"
        },
        {
          "indexed": false,
          "internalType": "uint64",
          "name": "_nonce",
          "type": "uint64"
        },
        {
          "indexed": false,
          "internalType": "bytes",
          "name": "_payload",
          "type": "bytes"
        },
        {
          "indexed": false,
          "internalType": "bytes",
          "name": "_reason",
          "type": "bytes"
        }
      ],
      "name": "MessageFailed",
      "type": "event"
    },
    {
      "anonymous": false,
      "inputs": [
        {
          "indexed": false,
          "internalType": "address",
          "name": "_address",
          "type": "address"
        }
      ],
      "name": "NonContractAddress",
      "type": "event"
    },
    {
      "anonymous": false,
      "inputs": [
        {
          "indexed": true,
          "internalType": "address",
          "name": "previousOwner",
          "type": "address"
        },
        {
          "indexed": true,
          "internalType": "address",
          "name": "newOwner",
          "type": "address"
        }
      ],
      "name": "OwnershipTransferred",
      "type": "event"
    },
    {
      "anonymous": false,
      "inputs": [
        {
          "indexed": true,
          "internalType": "uint16",
          "name": "_srcChainId",
          "type": "uint16"
        },
        {
          "indexed": true,
          "internalType": "address",
          "name": "_to",
          "type": "address"
        },
        {
          "indexed": false,
          "internalType": "uint256",
          "name": "_amount",
          "type": "uint256"
        }
      ],
      "name": "ReceiveFromChain",
      "type": "event"
    },
    {
      "anonymous": false,
      "inputs": [
        {
          "indexed": false,
          "internalType": "uint16",
          "name": "_srcChainId",
          "type": "uint16"
        },
        {
          "indexed": false,
          "internalType": "bytes",
          "name": "_srcAddress",
          "type": "bytes"
        },
        {
          "indexed": false,
          "internalType": "uint64",
          "name": "_nonce",
          "type": "uint64"
        },
        {
          "indexed": false,
          "internalType": "bytes32",
          "name": "_payloadHash",
          "type": "bytes32"
        }
      ],
      "name": "RetryMessageSuccess",
      "type": "event"
    },
    {
      "anonymous": false,
      "inputs": [
        {
          "indexed": true,
          "internalType": "uint16",
          "name": "_dstChainId",
          "type": "uint16"
        },
        {
          "indexed": true,
          "internalType": "address",
          "name": "_from",
          "type": "address"
        },
        {
          "indexed": true,
          "internalType": "bytes32",
          "name": "_toAddress",
          "type": "bytes32"
        },
        {
          "indexed": false,
          "internalType": "uint256",
          "name": "_amount",
          "type": "uint256"
        }
      ],
      "name": "SendToChain",
      "type": "event"
    },
    {
      "anonymous": false,
      "inputs": [
        {
          "indexed": false,
          "internalType": "uint16",
          "name": "feeBp",
          "type": "uint16"
        }
      ],
      "name": "SetDefaultFeeBp",
      "type": "event"
    },
    {
      "anonymous": false,
      "inputs": [
        {
          "indexed": false,
          "internalType": "uint16",
          "name": "dstchainId",
          "type": "uint16"
        },
        {
          "indexed": false,
          "internalType": "bool",
          "name": "enabled",
          "type": "bool"
        },
        {
          "indexed": false,
          "internalType": "uint16",
          "name": "feeBp",
          "type": "uint16"
        }
      ],
      "name": "SetFeeBp",
      "type": "event"
    },
    {
      "anonymous": false,
      "inputs": [
        {
          "indexed": false,
          "internalType": "address",
          "name": "feeOwner",
          "type": "address"
        }
      ],
      "name": "SetFeeOwner",
      "type": "event"
    },
    {
      "anonymous": false,
      "inputs": [
        {
          "indexed": false,
          "internalType": "uint16",
          "name": "_dstChainId",
          "type": "uint16"
        },
        {
          "indexed": false,
          "internalType": "uint16",
          "name": "_type",
          "type": "uint16"
        },
        {
          "indexed": false,
          "internalType": "uint256",
          "name": "_minDstGas",
          "type": "uint256"
        }
      ],
      "name": "SetMinDstGas",
      "type": "event"
    },
    {
      "anonymous": false,
      "inputs": [
        {
          "indexed": false,
          "internalType": "address",
          "name": "precrime",
          "type": "address"
        }
      ],
      "name": "SetPrecrime",
      "type": "event"
    },
    {
      "anonymous": false,
      "inputs": [
        {
          "indexed": false,
          "internalType": "uint16",
          "name": "_remoteChainId",
          "type": "uint16"
        },
        {
          "indexed": false,
          "internalType": "bytes",
          "name": "_path",
          "type": "bytes"
        }
      ],
      "name": "SetTrustedRemote",
      "type": "event"
    },
    {
      "anonymous": false,
      "inputs": [
        {
          "indexed": false,
          "internalType": "uint16",
          "name": "_remoteChainId",
          "type": "uint16"
        },
        {
          "indexed": false,
          "internalType": "bytes",
          "name": "_remoteAddress",
          "type": "bytes"
        }
      ],
      "name": "SetTrustedRemoteAddress",
      "type": "event"
    },
    {
      "anonymous": false,
      "inputs": [
        {
          "indexed": false,
          "internalType": "bool",
          "name": "_useCustomAdapterParams",
          "type": "bool"
        }
      ],
      "name": "SetUseCustomAdapterParams",
      "type": "event"
    },
    {
      "anonymous": false,
      "inputs": [
        {
          "indexed": true,
          "internalType": "address",
          "name": "from",
          "type": "address"
        },
        {
          "indexed": true,
          "internalType": "address",
          "name": "to",
          "type": "address"
        },
        {
          "indexed": false,
          "internalType": "uint256",
          "name": "value",
          "type": "uint256"
        }
      ],
      "name": "Transfer",
      "type": "event"
    },
    {
      "inputs": [],
      "name": "BP_DENOMINATOR",
      "outputs": [
        {
          "internalType": "uint256",
          "name": "",
          "type": "uint256"
        }
      ],
      "stateMutability": "view",
      "type": "function"
    },
    {
      "inputs": [],
      "name": "DEFAULT_PAYLOAD_SIZE_LIMIT",
      "outputs": [
        {
          "internalType": "uint256",
          "name": "",
          "type": "uint256"
        }
      ],
      "stateMutability": "view",
      "type": "function"
    },
    {
      "inputs": [],
      "name": "NO_EXTRA_GAS",
      "outputs": [
        {
          "internalType": "uint256",
          "name": "",
          "type": "uint256"
        }
      ],
      "stateMutability": "view",
      "type": "function"
    },
    {
      "inputs": [],
      "name": "PT_SEND",
      "outputs": [
        {
          "internalType": "uint8",
          "name": "",
          "type": "uint8"
        }
      ],
      "stateMutability": "view",
      "type": "function"
    },
    {
      "inputs": [],
      "name": "PT_SEND_AND_CALL",
      "outputs": [
        {
          "internalType": "uint8",
          "name": "",
          "type": "uint8"
        }
      ],
      "stateMutability": "view",
      "type": "function"
    },
    {
      "inputs": [
        {
          "internalType": "address",
          "name": "owner",
          "type": "address"
        },
        {
          "internalType": "address",
          "name": "spender",
          "type": "address"
        }
      ],
      "name": "allowance",
      "outputs": [
        {
          "internalType": "uint256",
          "name": "",
          "type": "uint256"
        }
      ],
      "stateMutability": "view",
      "type": "function"
    },
    {
      "inputs": [
        {
          "internalType": "address",
          "name": "spender",
          "type": "address"
        },
        {
          "internalType": "uint256",
          "name": "amount",
          "type": "uint256"
        }
      ],
      "name": "approve",
      "outputs": [
        {
          "internalType": "bool",
          "name": "",
          "type": "bool"
        }
      ],
      "stateMutability": "nonpayable",
      "type": "function"
    },
    {
      "inputs": [
        {
          "internalType": "address",
          "name": "account",
          "type": "address"
        }
      ],
      "name": "balanceOf",
      "outputs": [
        {
          "internalType": "uint256",
          "name": "",
          "type": "uint256"
        }
      ],
      "stateMutability": "view",
      "type": "function"
    },
    {
      "inputs": [
        {
          "internalType": "uint16",
          "name": "_srcChainId",
          "type": "uint16"
        },
        {
          "internalType": "bytes",
          "name": "_srcAddress",
          "type": "bytes"
        },
        {
          "internalType": "uint64",
          "name": "_nonce",
          "type": "uint64"
        },
        {
          "internalType": "bytes32",
          "name": "_from",
          "type": "bytes32"
        },
        {
          "internalType": "address",
          "name": "_to",
          "type": "address"
        },
        {
          "internalType": "uint256",
          "name": "_amount",
          "type": "uint256"
        },
        {
          "internalType": "bytes",
          "name": "_payload",
          "type": "bytes"
        },
        {
          "internalType": "uint256",
          "name": "_gasForCall",
          "type": "uint256"
        }
      ],
      "name": "callOnOFTReceived",
      "outputs": [],
      "stateMutability": "nonpayable",
      "type": "function"
    },
    {
      "inputs": [
        {
          "internalType": "uint16",
          "name": "",
          "type": "uint16"
        }
      ],
      "name": "chainIdToFeeBps",
      "outputs": [
        {
          "internalType": "uint16",
          "name": "feeBP",
          "type": "uint16"
        },
        {
          "internalType": "bool",
          "name": "enabled",
          "type": "bool"
        }
      ],
      "stateMutability": "view",
      "type": "function"
    },
    {
      "inputs": [],
      "name": "circulatingSupply",
      "outputs": [
        {
          "internalType": "uint256",
          "name": "",
          "type": "uint256"
        }
      ],
      "stateMutability": "view",
      "type": "function"
    },
    {
      "inputs": [
        {
          "internalType": "uint16",
          "name": "",
          "type": "uint16"
        },
        {
          "internalType": "bytes",
          "name": "",
          "type": "bytes"
        },
        {
          "internalType": "uint64",
          "name": "",
          "type": "uint64"
        }
      ],
      "name": "creditedPackets",
      "outputs": [
        {
          "internalType": "bool",
          "name": "",
          "type": "bool"
        }
      ],
      "stateMutability": "view",
      "type": "function"
    },
    {
      "inputs": [],
      "name": "decimals",
      "outputs": [
        {
          "internalType": "uint8",
          "name": "",
          "type": "uint8"
        }
      ],
      "stateMutability": "view",
      "type": "function"
    },
    {
      "inputs": [
        {
          "internalType": "address",
          "name": "spender",
          "type": "address"
        },
        {
          "internalType": "uint256",
          "name": "subtractedValue",
          "type": "uint256"
        }
      ],
      "name": "decreaseAllowance",
      "outputs": [
        {
          "internalType": "bool",
          "name": "",
          "type": "bool"
        }
      ],
      "stateMutability": "nonpayable",
      "type": "function"
    },
    {
      "inputs": [],
      "name": "defaultFeeBp",
      "outputs": [
        {
          "internalType": "uint16",
          "name": "",
          "type": "uint16"
        }
      ],
      "stateMutability": "view",
      "type": "function"
    },
    {
      "inputs": [
        {
          "internalType": "uint16",
          "name": "_dstChainId",
          "type": "uint16"
        },
        {
          "internalType": "bytes32",
          "name": "_toAddress",
          "type": "bytes32"
        },
        {
          "internalType": "uint256",
          "name": "_amount",
          "type": "uint256"
        },
        {
          "internalType": "bytes",
          "name": "_payload",
          "type": "bytes"
        },
        {
          "internalType": "uint64",
          "name": "_dstGasForCall",
          "type": "uint64"
        },
        {
          "internalType": "bool",
          "name": "_useZro",
          "type": "bool"
        },
        {
          "internalType": "bytes",
          "name": "_adapterParams",
          "type": "bytes"
        }
      ],
      "name": "estimateSendAndCallFee",
      "outputs": [
        {
          "internalType": "uint256",
          "name": "nativeFee",
          "type": "uint256"
        },
        {
          "internalType": "uint256",
          "name": "zroFee",
          "type": "uint256"
        }
      ],
      "stateMutability": "view",
      "type": "function"
    },
    {
      "inputs": [
        {
          "internalType": "uint16",
          "name": "_dstChainId",
          "type": "uint16"
        },
        {
          "internalType": "bytes32",
          "name": "_toAddress",
          "type": "bytes32"
        },
        {
          "internalType": "uint256",
          "name": "_amount",
          "type": "uint256"
        },
        {
          "internalType": "bool",
          "name": "_useZro",
          "type": "bool"
        },
        {
          "internalType": "bytes",
          "name": "_adapterParams",
          "type": "bytes"
        }
      ],
      "name": "estimateSendFee",
      "outputs": [
        {
          "internalType": "uint256",
          "name": "nativeFee",
          "type": "uint256"
        },
        {
          "internalType": "uint256",
          "name": "zroFee",
          "type": "uint256"
        }
      ],
      "stateMutability": "view",
      "type": "function"
    },
    {
      "inputs": [
        {
          "internalType": "uint16",
          "name": "",
          "type": "uint16"
        },
        {
          "internalType": "bytes",
          "name": "",
          "type": "bytes"
        },
        {
          "internalType": "uint64",
          "name": "",
          "type": "uint64"
        }
      ],
      "name": "failedMessages",
      "outputs": [
        {
          "internalType": "bytes32",
          "name": "",
          "type": "bytes32"
        }
      ],
      "stateMutability": "view",
      "type": "function"
    },
    {
      "inputs": [],
      "name": "feeOwner",
      "outputs": [
        {
          "internalType": "address",
          "name": "",
          "type": "address"
        }
      ],
      "stateMutability": "view",
      "type": "function"
    },
    {
      "inputs": [
        {
          "internalType": "uint16",
          "name": "_srcChainId",
          "type": "uint16"
        },
        {
          "internalType": "bytes",
          "name": "_srcAddress",
          "type": "bytes"
        }
      ],
      "name": "forceResumeReceive",
      "outputs": [],
      "stateMutability": "nonpayable",
      "type": "function"
    },
    {
      "inputs": [
        {
          "internalType": "uint16",
          "name": "_version",
          "type": "uint16"
        },
        {
          "internalType": "uint16",
          "name": "_chainId",
          "type": "uint16"
        },
        {
          "internalType": "address",
          "name": "",
          "type": "address"
        },
        {
          "internalType": "uint256",
          "name": "_configType",
          "type": "uint256"
        }
      ],
      "name": "getConfig",
      "outputs": [
        {
          "internalType": "bytes",
          "name": "",
          "type": "bytes"
        }
      ],
      "stateMutability": "view",
      "type": "function"
    },
    {
      "inputs": [
        {
          "internalType": "uint16",
          "name": "_remoteChainId",
          "type": "uint16"
        }
      ],
      "name": "getTrustedRemoteAddress",
      "outputs": [
        {
          "internalType": "bytes",
          "name": "",
          "type": "bytes"
        }
      ],
      "stateMutability": "view",
      "type": "function"
    },
    {
      "inputs": [
        {
          "internalType": "address",
          "name": "spender",
          "type": "address"
        },
        {
          "internalType": "uint256",
          "name": "addedValue",
          "type": "uint256"
        }
      ],
      "name": "increaseAllowance",
      "outputs": [
        {
          "internalType": "bool",
          "name": "",
          "type": "bool"
        }
      ],
      "stateMutability": "nonpayable",
      "type": "function"
    },
    {
      "inputs": [
        {
          "internalType": "string",
          "name": "_name",
          "type": "string"
        },
        {
          "internalType": "string",
          "name": "_symbol",
          "type": "string"
        },
        {
          "internalType": "uint8",
          "name": "_sharedDecimals",
          "type": "uint8"
        },
        {
          "internalType": "address",
          "name": "_lzEndpoint",
          "type": "address"
        }
      ],
      "name": "initialize",
      "outputs": [],
      "stateMutability": "nonpayable",
      "type": "function"
    },
    {
      "inputs": [
        {
          "internalType": "uint16",
          "name": "_srcChainId",
          "type": "uint16"
        },
        {
          "internalType": "bytes",
          "name": "_srcAddress",
          "type": "bytes"
        }
      ],
      "name": "isTrustedRemote",
      "outputs": [
        {
          "internalType": "bool",
          "name": "",
          "type": "bool"
        }
      ],
      "stateMutability": "view",
      "type": "function"
    },
    {
      "inputs": [],
      "name": "lzEndpoint",
      "outputs": [
        {
          "internalType": "contract ILayerZeroEndpointUpgradeable",
          "name": "",
          "type": "address"
        }
      ],
      "stateMutability": "view",
      "type": "function"
    },
    {
      "inputs": [
        {
          "internalType": "uint16",
          "name": "_srcChainId",
          "type": "uint16"
        },
        {
          "internalType": "bytes",
          "name": "_srcAddress",
          "type": "bytes"
        },
        {
          "internalType": "uint64",
          "name": "_nonce",
          "type": "uint64"
        },
        {
          "internalType": "bytes",
          "name": "_payload",
          "type": "bytes"
        }
      ],
      "name": "lzReceive",
      "outputs": [],
      "stateMutability": "nonpayable",
      "type": "function"
    },
    {
      "inputs": [
        {
          "internalType": "uint16",
          "name": "",
          "type": "uint16"
        },
        {
          "internalType": "uint16",
          "name": "",
          "type": "uint16"
        }
      ],
      "name": "minDstGasLookup",
      "outputs": [
        {
          "internalType": "uint256",
          "name": "",
          "type": "uint256"
        }
      ],
      "stateMutability": "view",
      "type": "function"
    },
    {
      "inputs": [],
      "name": "name",
      "outputs": [
        {
          "internalType": "string",
          "name": "",
          "type": "string"
        }
      ],
      "stateMutability": "view",
      "type": "function"
    },
    {
      "inputs": [
        {
          "internalType": "uint16",
          "name": "_srcChainId",
          "type": "uint16"
        },
        {
          "internalType": "bytes",
          "name": "_srcAddress",
          "type": "bytes"
        },
        {
          "internalType": "uint64",
          "name": "_nonce",
          "type": "uint64"
        },
        {
          "internalType": "bytes",
          "name": "_payload",
          "type": "bytes"
        }
      ],
      "name": "nonblockingLzReceive",
      "outputs": [],
      "stateMutability": "nonpayable",
      "type": "function"
    },
    {
      "inputs": [],
      "name": "owner",
      "outputs": [
        {
          "internalType": "address",
          "name": "",
          "type": "address"
        }
      ],
      "stateMutability": "view",
      "type": "function"
    },
    {
      "inputs": [
        {
          "internalType": "uint16",
          "name": "",
          "type": "uint16"
        }
      ],
      "name": "payloadSizeLimitLookup",
      "outputs": [
        {
          "internalType": "uint256",
          "name": "",
          "type": "uint256"
        }
      ],
      "stateMutability": "view",
      "type": "function"
    },
    {
      "inputs": [],
      "name": "precrime",
      "outputs": [
        {
          "internalType": "address",
          "name": "",
          "type": "address"
        }
      ],
      "stateMutability": "view",
      "type": "function"
    },
    {
      "inputs": [
        {
          "internalType": "uint16",
          "name": "_dstChainId",
          "type": "uint16"
        },
        {
          "internalType": "uint256",
          "name": "_amount",
          "type": "uint256"
        }
      ],
      "name": "quoteOFTFee",
      "outputs": [
        {
          "internalType": "uint256",
          "name": "fee",
          "type": "uint256"
        }
      ],
      "stateMutability": "view",
      "type": "function"
    },
    {
      "inputs": [],
      "name": "renounceOwnership",
      "outputs": [],
      "stateMutability": "nonpayable",
      "type": "function"
    },
    {
      "inputs": [
        {
          "internalType": "uint16",
          "name": "_srcChainId",
          "type": "uint16"
        },
        {
          "internalType": "bytes",
          "name": "_srcAddress",
          "type": "bytes"
        },
        {
          "internalType": "uint64",
          "name": "_nonce",
          "type": "uint64"
        },
        {
          "internalType": "bytes",
          "name": "_payload",
          "type": "bytes"
        }
      ],
      "name": "retryMessage",
      "outputs": [],
      "stateMutability": "payable",
      "type": "function"
    },
    {
      "inputs": [
        {
          "internalType": "address",
          "name": "_from",
          "type": "address"
        },
        {
          "internalType": "uint16",
          "name": "_dstChainId",
          "type": "uint16"
        },
        {
          "internalType": "bytes32",
          "name": "_toAddress",
          "type": "bytes32"
        },
        {
          "internalType": "uint256",
          "name": "_amount",
          "type": "uint256"
        },
        {
          "internalType": "uint256",
          "name": "_minAmount",
          "type": "uint256"
        },
        {
          "internalType": "bytes",
          "name": "_payload",
          "type": "bytes"
        },
        {
          "internalType": "uint64",
          "name": "_dstGasForCall",
          "type": "uint64"
        },
        {
          "components": [
            {
              "internalType": "address payable",
              "name": "refundAddress",
              "type": "address"
            },
            {
              "internalType": "address",
              "name": "zroPaymentAddress",
              "type": "address"
            },
            {
              "internalType": "bytes",
              "name": "adapterParams",
              "type": "bytes"
            }
          ],
          "internalType": "struct ICommonOFTUpgradeable.LzCallParams",
          "name": "_callParams",
          "type": "tuple"
        }
      ],
      "name": "sendAndCall",
      "outputs": [],
      "stateMutability": "payable",
      "type": "function"
    },
    {
      "inputs": [
        {
          "internalType": "address",
          "name": "_from",
          "type": "address"
        },
        {
          "internalType": "uint16",
          "name": "_dstChainId",
          "type": "uint16"
        },
        {
          "internalType": "bytes32",
          "name": "_toAddress",
          "type": "bytes32"
        },
        {
          "internalType": "uint256",
          "name": "_amount",
          "type": "uint256"
        },
        {
          "internalType": "uint256",
          "name": "_minAmount",
          "type": "uint256"
        },
        {
          "components": [
            {
              "internalType": "address payable",
              "name": "refundAddress",
              "type": "address"
            },
            {
              "internalType": "address",
              "name": "zroPaymentAddress",
              "type": "address"
            },
            {
              "internalType": "bytes",
              "name": "adapterParams",
              "type": "bytes"
            }
          ],
          "internalType": "struct ICommonOFTUpgradeable.LzCallParams",
          "name": "_callParams",
          "type": "tuple"
        }
      ],
      "name": "sendFrom",
      "outputs": [],
      "stateMutability": "payable",
      "type": "function"
    },
    {
      "inputs": [
        {
          "internalType": "uint16",
          "name": "_version",
          "type": "uint16"
        },
        {
          "internalType": "uint16",
          "name": "_chainId",
          "type": "uint16"
        },
        {
          "internalType": "uint256",
          "name": "_configType",
          "type": "uint256"
        },
        {
          "internalType": "bytes",
          "name": "_config",
          "type": "bytes"
        }
      ],
      "name": "setConfig",
      "outputs": [],
      "stateMutability": "nonpayable",
      "type": "function"
    },
    {
      "inputs": [
        {
          "internalType": "uint16",
          "name": "_feeBp",
          "type": "uint16"
        }
      ],
      "name": "setDefaultFeeBp",
      "outputs": [],
      "stateMutability": "nonpayable",
      "type": "function"
    },
    {
      "inputs": [
        {
          "internalType": "uint16",
          "name": "_dstChainId",
          "type": "uint16"
        },
        {
          "internalType": "bool",
          "name": "_enabled",
          "type": "bool"
        },
        {
          "internalType": "uint16",
          "name": "_feeBp",
          "type": "uint16"
        }
      ],
      "name": "setFeeBp",
      "outputs": [],
      "stateMutability": "nonpayable",
      "type": "function"
    },
    {
      "inputs": [
        {
          "internalType": "address",
          "name": "_feeOwner",
          "type": "address"
        }
      ],
      "name": "setFeeOwner",
      "outputs": [],
      "stateMutability": "nonpayable",
      "type": "function"
    },
    {
      "inputs": [
        {
          "internalType": "uint16",
          "name": "_dstChainId",
          "type": "uint16"
        },
        {
          "internalType": "uint16",
          "name": "_packetType",
          "type": "uint16"
        },
        {
          "internalType": "uint256",
          "name": "_minGas",
          "type": "uint256"
        }
      ],
      "name": "setMinDstGas",
      "outputs": [],
      "stateMutability": "nonpayable",
      "type": "function"
    },
    {
      "inputs": [
        {
          "internalType": "uint16",
          "name": "_dstChainId",
          "type": "uint16"
        },
        {
          "internalType": "uint256",
          "name": "_size",
          "type": "uint256"
        }
      ],
      "name": "setPayloadSizeLimit",
      "outputs": [],
      "stateMutability": "nonpayable",
      "type": "function"
    },
    {
      "inputs": [
        {
          "internalType": "address",
          "name": "_precrime",
          "type": "address"
        }
      ],
      "name": "setPrecrime",
      "outputs": [],
      "stateMutability": "nonpayable",
      "type": "function"
    },
    {
      "inputs": [
        {
          "internalType": "uint16",
          "name": "_version",
          "type": "uint16"
        }
      ],
      "name": "setReceiveVersion",
      "outputs": [],
      "stateMutability": "nonpayable",
      "type": "function"
    },
    {
      "inputs": [
        {
          "internalType": "uint16",
          "name": "_version",
          "type": "uint16"
        }
      ],
      "name": "setSendVersion",
      "outputs": [],
      "stateMutability": "nonpayable",
      "type": "function"
    },
    {
      "inputs": [
        {
          "internalType": "uint16",
          "name": "_srcChainId",
          "type": "uint16"
        },
        {
          "internalType": "bytes",
          "name": "_path",
          "type": "bytes"
        }
      ],
      "name": "setTrustedRemote",
      "outputs": [],
      "stateMutability": "nonpayable",
      "type": "function"
    },
    {
      "inputs": [
        {
          "internalType": "uint16",
          "name": "_remoteChainId",
          "type": "uint16"
        },
        {
          "internalType": "bytes",
          "name": "_remoteAddress",
          "type": "bytes"
        }
      ],
      "name": "setTrustedRemoteAddress",
      "outputs": [],
      "stateMutability": "nonpayable",
      "type": "function"
    },
    {
      "inputs": [
        {
          "internalType": "bool",
          "name": "_useCustomAdapterParams",
          "type": "bool"
        }
      ],
      "name": "setUseCustomAdapterParams",
      "outputs": [],
      "stateMutability": "nonpayable",
      "type": "function"
    },
    {
      "inputs": [],
      "name": "sharedDecimals",
      "outputs": [
        {
          "internalType": "uint8",
          "name": "",
          "type": "uint8"
        }
      ],
      "stateMutability": "view",
      "type": "function"
    },
    {
      "inputs": [
        {
          "internalType": "bytes4",
          "name": "interfaceId",
          "type": "bytes4"
        }
      ],
      "name": "supportsInterface",
      "outputs": [
        {
          "internalType": "bool",
          "name": "",
          "type": "bool"
        }
      ],
      "stateMutability": "view",
      "type": "function"
    },
    {
      "inputs": [],
      "name": "symbol",
      "outputs": [
        {
          "internalType": "string",
          "name": "",
          "type": "string"
        }
      ],
      "stateMutability": "view",
      "type": "function"
    },
    {
      "inputs": [],
      "name": "token",
      "outputs": [
        {
          "internalType": "address",
          "name": "",
          "type": "address"
        }
      ],
      "stateMutability": "view",
      "type": "function"
    },
    {
      "inputs": [],
      "name": "totalSupply",
      "outputs": [
        {
          "internalType": "uint256",
          "name": "",
          "type": "uint256"
        }
      ],
      "stateMutability": "view",
      "type": "function"
    },
    {
      "inputs": [
        {
          "internalType": "address",
          "name": "to",
          "type": "address"
        },
        {
          "internalType": "uint256",
          "name": "amount",
          "type": "uint256"
        }
      ],
      "name": "transfer",
      "outputs": [
        {
          "internalType": "bool",
          "name": "",
          "type": "bool"
        }
      ],
      "stateMutability": "nonpayable",
      "type": "function"
    },
    {
      "inputs": [
        {
          "internalType": "address",
          "name": "from",
          "type": "address"
        },
        {
          "internalType": "address",
          "name": "to",
          "type": "address"
        },
        {
          "internalType": "uint256",
          "name": "amount",
          "type": "uint256"
        }
      ],
      "name": "transferFrom",
      "outputs": [
        {
          "internalType": "bool",
          "name": "",
          "type": "bool"
        }
      ],
      "stateMutability": "nonpayable",
      "type": "function"
    },
    {
      "inputs": [
        {
          "internalType": "address",
          "name": "newOwner",
          "type": "address"
        }
      ],
      "name": "transferOwnership",
      "outputs": [],
      "stateMutability": "nonpayable",
      "type": "function"
    },
    {
      "inputs": [
        {
          "internalType": "uint16",
          "name": "",
          "type": "uint16"
        }
      ],
      "name": "trustedRemoteLookup",
      "outputs": [
        {
          "internalType": "bytes",
          "name": "",
          "type": "bytes"
        }
      ],
      "stateMutability": "view",
      "type": "function"
    },
    {
      "inputs": [],
      "name": "useCustomAdapterParams",
      "outputs": [
        {
          "internalType": "bool",
          "name": "",
          "type": "bool"
        }
      ],
      "stateMutability": "view",
      "type": "function"
    }
  ],
  "transactionHash": "0xe8553a5eea5cdc3e8a8360cf923edff7a8cecccfe03e012f657da451b437991f",
  "args": [],
  "numDeployments": 1,
  "solcInputHash": "8e4d17cba8be690a4fcdefe1fffb7fad",
  "bytecode": "0x60806040523480156200001157600080fd5b506200001c62000022565b620000e3565b600054610100900460ff16156200008f5760405162461bcd60e51b815260206004820152602760248201527f496e697469616c697a61626c653a20636f6e747261637420697320696e697469604482015266616c697a696e6760c81b606482015260840160405180910390fd5b60005460ff90811614620000e1576000805460ff191660ff9081179091556040519081527f7f26b83ff96e1f2b6a682f133852f6798a09c465da95921460cefb38474024989060200160405180910390a15b565b614d2f80620000f36000396000f3fe6080604052600436106103965760003560e01c80639358928b116101dc578063cbed8b9c11610102578063eab45d9c116100a0578063ed629c5c1161006f578063ed629c5c14610b2b578063f2fde38b14610b4a578063f5ecbdbc14610b6a578063fc0c546a14610b8a57600080fd5b8063eab45d9c14610aab578063eaffd49a14610acb578063eb8d72b714610aeb578063ecd8f21214610b0b57600080fd5b8063dd62ed3e116100dc578063dd62ed3e14610a36578063de7ea79d14610a56578063df2a5b3b14610a76578063e6a20ae614610a9657600080fd5b8063cbed8b9c146109d5578063d1deba1f146109f5578063d888296814610a0857600080fd5b8063a6c3d1651161017a578063b9818be111610149578063b9818be114610939578063baf3292d1461095f578063c446183414610903578063c83330ce1461097f57600080fd5b8063a6c3d165146108c3578063a9059cbb146108e3578063abe685cd14610903578063b353aaa71461091957600080fd5b80639bdb9812116101b65780639bdb9812146108115780639f38369a14610863578063a457c2d714610883578063a4c51df5146108a357600080fd5b80639358928b146107c7578063950c8a74146107dc57806395d89b41146107fc57600080fd5b806342d65a8d116102c157806366ad5c8a1161025f57806379c0ad4b1161022e57806379c0ad4b14610723578063857749b0146107435780638cfd8f5c1461075d5780638da5cb5b1461079557600080fd5b806366ad5c8a1461069757806370a08231146106b7578063715018a6146106ee5780637533d7881461070357600080fd5b80634b104eff1161029b5780634b104eff146105f35780634c42899a146106135780635a359dc5146106285780635b8c41e61461064857600080fd5b806342d65a8d146105ab57806344770515146105cb578063455ba27d146105e057600080fd5b806318160ddd11610339578063365260b411610308578063365260b414610509578063395093511461053e5780633d8b38f61461055e5780633f1f4fa41461057e57600080fd5b806318160ddd1461049457806323b872dd146104b45780632cdf0b95146104d4578063313ce567146104e757600080fd5b806307e0db171161037557806307e0db1714610414578063095ea7b3146104345780630df374831461045457806310ddb1371461047457600080fd5b80621d35671461039b57806301ffc9a7146103bd57806306fdde03146103f2575b600080fd5b3480156103a757600080fd5b506103bb6103b6366004613aeb565b610b9d565b005b3480156103c957600080fd5b506103dd6103d8366004613b7e565b610db9565b60405190151581526020015b60405180910390f35b3480156103fe57600080fd5b50610407610df0565b6040516103e99190613bf8565b34801561042057600080fd5b506103bb61042f366004613c0b565b610e83565b34801561044057600080fd5b506103dd61044f366004613c3b565b610ef0565b34801561046057600080fd5b506103bb61046f366004613c67565b610f08565b34801561048057600080fd5b506103bb61048f366004613c0b565b610f27565b3480156104a057600080fd5b5061018c545b6040519081526020016103e9565b3480156104c057600080fd5b506103dd6104cf366004613c83565b610f63565b6103bb6104e2366004613cdc565b610f87565b3480156104f357600080fd5b5060125b60405160ff90911681526020016103e9565b34801561051557600080fd5b50610529610524366004613d67565b61102a565b604080519283526020830191909152016103e9565b34801561054a57600080fd5b506103dd610559366004613c3b565b61107f565b34801561056a57600080fd5b506103dd610579366004613dcc565b6110a1565b34801561058a57600080fd5b506104a6610599366004613c0b565b60686020526000908152604090205481565b3480156105b757600080fd5b506103bb6105c6366004613dcc565b61116d565b3480156105d757600080fd5b506104a6600081565b6103bb6105ee366004613e1e565b6111d7565b3480156105ff57600080fd5b506103bb61060e366004613eda565b6112b8565b34801561061f57600080fd5b506104f7600081565b34801561063457600080fd5b506103bb610643366004613c0b565b611375565b34801561065457600080fd5b506104a6610663366004613fa2565b6097602090815260009384526040808520845180860184018051928152908401958401959095209452929052825290205481565b3480156106a357600080fd5b506103bb6106b2366004613aeb565b6113e7565b3480156106c357600080fd5b506104a66106d2366004613eda565b6001600160a01b0316600090815261018a602052604090205490565b3480156106fa57600080fd5b506103bb6114bb565b34801561070f57600080fd5b5061040761071e366004613c0b565b6114cf565b34801561072f57600080fd5b506103bb61073e366004614013565b611569565b34801561074f57600080fd5b5060c9546104f79060ff1681565b34801561076957600080fd5b506104a661077836600461404d565b606760209081526000928352604080842090915290825290205481565b3480156107a157600080fd5b506033546001600160a01b03165b6040516001600160a01b0390911681526020016103e9565b3480156107d357600080fd5b506104a6611625565b3480156107e857600080fd5b506069546107af906001600160a01b031681565b34801561080857600080fd5b50610407611636565b34801561081d57600080fd5b506103dd61082c366004613fa2565b60ca602090815260009384526040808520845180860184018051928152908401958401959095209452929052825290205460ff1681565b34801561086f57600080fd5b5061040761087e366004613c0b565b611646565b34801561088f57600080fd5b506103dd61089e366004613c3b565b61175c565b3480156108af57600080fd5b506105296108be366004614080565b6117d7565b3480156108cf57600080fd5b506103bb6108de366004613dcc565b611866565b3480156108ef57600080fd5b506103dd6108fe366004613c3b565b6118e2565b34801561090f57600080fd5b506104a661271081565b34801561092557600080fd5b506065546107af906001600160a01b031681565b34801561094557600080fd5b5060f8546107af906201000090046001600160a01b031681565b34801561096b57600080fd5b506103bb61097a366004613eda565b6118f0565b34801561098b57600080fd5b506109bb61099a366004613c0b565b60f76020526000908152604090205461ffff81169062010000900460ff1682565b6040805161ffff90931683529015156020830152016103e9565b3480156109e157600080fd5b506103bb6109f0366004614139565b611946565b6103bb610a03366004613aeb565b6119b4565b348015610a1457600080fd5b5060f854610a239061ffff1681565b60405161ffff90911681526020016103e9565b348015610a4257600080fd5b506104a6610a513660046141a7565b611bca565b348015610a6257600080fd5b506103bb610a71366004614200565b611bf6565b348015610a8257600080fd5b506103bb610a9136600461428e565b611d0f565b348015610aa257600080fd5b506104f7600181565b348015610ab757600080fd5b506103bb610ac63660046142ca565b611dc1565b348015610ad757600080fd5b506103bb610ae63660046142e5565b611e12565b348015610af757600080fd5b506103bb610b06366004613dcc565b611f31565b348015610b1757600080fd5b506104a6610b26366004613c67565b611f8b565b348015610b3757600080fd5b5060c9546103dd90610100900460ff1681565b348015610b5657600080fd5b506103bb610b65366004613eda565b61201d565b348015610b7657600080fd5b50610407610b853660046143ad565b612096565b348015610b9657600080fd5b50306107af565b6065546001600160a01b0316336001600160a01b031614610c055760405162461bcd60e51b815260206004820152601e60248201527f4c7a4170703a20696e76616c696420656e64706f696e742063616c6c6572000060448201526064015b60405180910390fd5b61ffff861660009081526066602052604081208054610c23906143fa565b80601f0160208091040260200160405190810160405280929190818152602001828054610c4f906143fa565b8015610c9c5780601f10610c7157610100808354040283529160200191610c9c565b820191906000526020600020905b815481529060010190602001808311610c7f57829003601f168201915b50505050509050805186869050148015610cb7575060008151115b8015610cdf575080516020820120604051610cd5908890889061442e565b6040518091039020145b610d3a5760405162461bcd60e51b815260206004820152602660248201527f4c7a4170703a20696e76616c696420736f757263652073656e64696e6720636f6044820152651b9d1c9858dd60d21b6064820152608401610bfc565b610db08787878080601f01602080910402602001604051908101604052809392919081815260200183838082843760009201919091525050604080516020601f8a018190048102820181019092528881528a93509150889088908190840183828082843760009201919091525061212992505050565b50505050505050565b60006001600160e01b03198216630d30953d60e31b1480610dea57506301ffc9a760e01b6001600160e01b03198316145b92915050565b606061018d8054610e00906143fa565b80601f0160208091040260200160405190810160405280929190818152602001828054610e2c906143fa565b8015610e795780601f10610e4e57610100808354040283529160200191610e79565b820191906000526020600020905b815481529060010190602001808311610e5c57829003601f168201915b5050505050905090565b610e8b6121a2565b6065546040516307e0db1760e01b815261ffff831660048201526001600160a01b03909116906307e0db17906024015b600060405180830381600087803b158015610ed557600080fd5b505af1158015610ee9573d6000803e3d6000fd5b5050505050565b600033610efe8185856121fc565b5060019392505050565b610f106121a2565b61ffff909116600090815260686020526040902055565b610f2f6121a2565b6065546040516310ddb13760e01b815261ffff831660048201526001600160a01b03909116906310ddb13790602401610ebb565b600033610f71858285612321565b610f7c85858561239b565b506001949350505050565b610f92868685612548565b50925061100086868686610fa96020870187613eda565b610fb96040880160208901613eda565b610fc6604089018961443e565b8080601f01602080910402602001604051908101604052809392919081815260200183838082843760009201919091525061259192505050565b9250818310156110225760405162461bcd60e51b8152600401610bfc90614484565b505050505050565b6000806110708888888888888080601f0160208091040260200160405190810160405280939291908181526020018383808284376000920191909152506126b592505050565b91509150965096945050505050565b600033610efe8185856110928383611bca565b61109c91906144e7565b6121fc565b61ffff8316600090815260666020526040812080548291906110c2906143fa565b80601f01602080910402602001604051908101604052809291908181526020018280546110ee906143fa565b801561113b5780601f106111105761010080835404028352916020019161113b565b820191906000526020600020905b81548152906001019060200180831161111e57829003601f168201915b50505050509050838360405161115292919061442e565b60405180910390208180519060200120149150509392505050565b6111756121a2565b6065546040516342d65a8d60e01b81526001600160a01b03909116906342d65a8d906111a990869086908690600401614523565b600060405180830381600087803b1580156111c357600080fd5b505af1158015610db0573d6000803e3d6000fd5b6111e2898988612548565b508096505061128b8989898988888080601f0160208091040260200160405190810160405280939291908181526020018383808284376000920191909152508a92506112349150506020890189613eda565b61124460408a0160208b01613eda565b61125160408b018b61443e565b8080601f01602080910402602001604051908101604052809392919081815260200183838082843760009201919091525061274f92505050565b9550848610156112ad5760405162461bcd60e51b8152600401610bfc90614484565b505050505050505050565b6112c06121a2565b6001600160a01b0381166113165760405162461bcd60e51b815260206004820152601a60248201527f4665653a206665654f776e65722063616e6e6f742062652030780000000000006044820152606401610bfc565b60f8805462010000600160b01b031916620100006001600160a01b038416908102919091179091556040519081527f047912631afa564eebd3db2efe191a0dec62da1fede6bbbc1ffc89d87845b1b5906020015b60405180910390a150565b61137d6121a2565b6127108161ffff1611156113a35760405162461bcd60e51b8152600401610bfc90614541565b60f8805461ffff191661ffff83169081179091556040519081527fd26030ef4a8c225ee12b646eb4466acb41fb96b6cd4660b22d0ba0124e7bdc749060200161136a565b3330146114455760405162461bcd60e51b815260206004820152602660248201527f4e6f6e626c6f636b696e674c7a4170703a2063616c6c6572206d7573742062656044820152650204c7a4170760d41b6064820152608401610bfc565b6110228686868080601f01602080910402602001604051908101604052809392919081815260200183838082843760009201919091525050604080516020601f89018190048102820181019092528781528993509150879087908190840183828082843760009201919091525061284b92505050565b6114c36121a2565b6114cd60006128d2565b565b606660205260009081526040902080546114e8906143fa565b80601f0160208091040260200160405190810160405280929190818152602001828054611514906143fa565b80156115615780601f1061153657610100808354040283529160200191611561565b820191906000526020600020905b81548152906001019060200180831161154457829003601f168201915b505050505081565b6115716121a2565b6127108161ffff1611156115975760405162461bcd60e51b8152600401610bfc90614541565b60408051808201825261ffff8381168083528515156020808501828152898516600081815260f784528890209651875492511515620100000262ffffff1990931696169590951717909455845192835292820192909252918201527fdd9c9685af3e6dcb56d8f4b88d2595d4add6837a150034e7781c46b6dcf8aaab906060015b60405180910390a1505050565b600061163161018c5490565b905090565b606061018e8054610e00906143fa565b61ffff8116600090815260666020526040812080546060929190611669906143fa565b80601f0160208091040260200160405190810160405280929190818152602001828054611695906143fa565b80156116e25780601f106116b7576101008083540402835291602001916116e2565b820191906000526020600020905b8154815290600101906020018083116116c557829003601f168201915b50505050509050805160000361173a5760405162461bcd60e51b815260206004820152601d60248201527f4c7a4170703a206e6f20747275737465642070617468207265636f72640000006044820152606401610bfc565b61175560006014835161174d9190614586565b839190612924565b9392505050565b6000338161176a8286611bca565b9050838110156117ca5760405162461bcd60e51b815260206004820152602560248201527f45524332303a2064656372656173656420616c6c6f77616e63652062656c6f77604482015264207a65726f60d81b6064820152608401610bfc565b610f7c82868684036121fc565b6000806118548b8b8b8b8b8080601f01602080910402602001604051908101604052809392919081815260200183838082843760009201919091525050604080516020601f8d018190048102820181019092528b81528e93508d9250908c908c9081908401838280828437600092019190915250612a3192505050565b91509150995099975050505050505050565b61186e6121a2565b81813060405160200161188393929190614599565b60408051601f1981840301815291815261ffff85166000908152606660205220906118ae9082614605565b507f8c0400cfe2d1199b1a725c78960bcc2a344d869b80590d0f2bd005db15a572ce83838360405161161893929190614523565b600033610efe81858561239b565b6118f86121a2565b606980546001600160a01b0319166001600160a01b0383169081179091556040519081527f5db758e995a17ec1ad84bdef7e8c3293a0bd6179bcce400dff5d4c3d87db726b9060200161136a565b61194e6121a2565b6065546040516332fb62e760e21b81526001600160a01b039091169063cbed8b9c9061198690889088908890889088906004016146c4565b600060405180830381600087803b1580156119a057600080fd5b505af11580156112ad573d6000803e3d6000fd5b61ffff861660009081526097602052604080822090516119d7908890889061442e565b90815260408051602092819003830190206001600160401b03871660009081529252902054905080611a575760405162461bcd60e51b815260206004820152602360248201527f4e6f6e626c6f636b696e674c7a4170703a206e6f2073746f726564206d65737360448201526261676560e81b6064820152608401610bfc565b808383604051611a6892919061442e565b604051809103902014611ac75760405162461bcd60e51b815260206004820152602160248201527f4e6f6e626c6f636b696e674c7a4170703a20696e76616c6964207061796c6f616044820152601960fa1b6064820152608401610bfc565b61ffff87166000908152609760205260408082209051611aea908990899061442e565b90815260408051602092819003830181206001600160401b038916600090815290845282902093909355601f88018290048202830182019052868252611b82918991899089908190840183828082843760009201919091525050604080516020601f8a018190048102820181019092528881528a93509150889088908190840183828082843760009201919091525061284b92505050565b7fc264d91f3adc5588250e1551f547752ca0cfa8f6b530d243b9f9f4cab10ea8e58787878785604051611bb99594939291906146fd565b60405180910390a150505050505050565b6001600160a01b03918216600090815261018b6020908152604080832093909416825291909152205490565b600054610100900460ff1615808015611c165750600054600160ff909116105b80611c305750303b158015611c30575060005460ff166001145b611c935760405162461bcd60e51b815260206004820152602e60248201527f496e697469616c697a61626c653a20636f6e747261637420697320616c72656160448201526d191e481a5b9a5d1a585b1a5e995960921b6064820152608401610bfc565b6000805460ff191660011790558015611cb6576000805461ff0019166101001790555b611cc285858585612ace565b8015610ee9576000805461ff0019169055604051600181527f7f26b83ff96e1f2b6a682f133852f6798a09c465da95921460cefb3847402498906020015b60405180910390a15050505050565b611d176121a2565b60008111611d5f5760405162461bcd60e51b81526020600482015260156024820152744c7a4170703a20696e76616c6964206d696e47617360581b6044820152606401610bfc565b61ffff83811660008181526067602090815260408083209487168084529482529182902085905581519283528201929092529081018290527f9d5c7c0b934da8fefa9c7760c98383778a12dfbfc0c3b3106518f43fb9508ac090606001611618565b611dc96121a2565b60c980548215156101000261ff00199091161790556040517f1584ad594a70cbe1e6515592e1272a987d922b097ead875069cebe8b40c004a49061136a90831515815260200190565b333014611e615760405162461bcd60e51b815260206004820152601f60248201527f4f4654436f72653a2063616c6c6572206d757374206265204f4654436f7265006044820152606401610bfc565b611e6c308686612b22565b9350846001600160a01b03168a61ffff167fbf551ec93859b170f9b2141bd9298bf3f64322c6f7beb2543a0cb669834118bf86604051611eae91815260200190565b60405180910390a3604051633fe79aed60e11b81526001600160a01b03861690637fcf35da908390611ef2908e908e908e908e908e908d908d908d90600401614738565b600060405180830381600088803b158015611f0c57600080fd5b5087f1158015611f20573d6000803e3d6000fd5b505050505050505050505050505050565b611f396121a2565b61ffff83166000908152606660205260409020611f57828483614793565b507ffa41487ad5d6728f0b19276fa1eddc16558578f5109fc39d2dc33c3230470dab83838360405161161893929190614523565b61ffff828116600090815260f76020908152604080832081518083019092525493841681526201000090930460ff1615801591840191909152909190611ff057805161271090611fdf9061ffff1685614852565b611fe9919061487f565b9150612016565b60f85461ffff16156120115760f85461271090611fdf9061ffff1685614852565b600091505b5092915050565b6120256121a2565b6001600160a01b03811661208a5760405162461bcd60e51b815260206004820152602660248201527f4f776e61626c653a206e6577206f776e657220697320746865207a65726f206160448201526564647265737360d01b6064820152608401610bfc565b612093816128d2565b50565b606554604051633d7b2f6f60e21b815261ffff808716600483015285166024820152306044820152606481018390526060916001600160a01b03169063f5ecbdbc90608401600060405180830381865afa1580156120f8573d6000803e3d6000fd5b505050506040513d6000823e601f3d908101601f191682016040526121209190810190614893565b95945050505050565b60008061218c5a60966366ad5c8a60e01b898989896040516024016121519493929190614900565b60408051601f198184030181529190526020810180516001600160e01b03166001600160e01b03199093169290921790915230929190612b74565b9150915081611022576110228686868685612bfe565b6033546001600160a01b031633146114cd5760405162461bcd60e51b815260206004820181905260248201527f4f776e61626c653a2063616c6c6572206973206e6f7420746865206f776e65726044820152606401610bfc565b6001600160a01b03831661225e5760405162461bcd60e51b8152602060048201526024808201527f45524332303a20617070726f76652066726f6d20746865207a65726f206164646044820152637265737360e01b6064820152608401610bfc565b6001600160a01b0382166122bf5760405162461bcd60e51b815260206004820152602260248201527f45524332303a20617070726f766520746f20746865207a65726f206164647265604482015261737360f01b6064820152608401610bfc565b6001600160a01b03838116600081815261018b602090815260408083209487168084529482529182902085905590518481527f8c5be1e5ebec7d5bd14f71427d1e84f3dd0314c0f7b2291e5b200ac8c7c3b925910160405180910390a3505050565b600061232d8484611bca565b9050600019811461239557818110156123885760405162461bcd60e51b815260206004820152601d60248201527f45524332303a20696e73756666696369656e7420616c6c6f77616e63650000006044820152606401610bfc565b61239584848484036121fc565b50505050565b6001600160a01b0383166123ff5760405162461bcd60e51b815260206004820152602560248201527f45524332303a207472616e736665722066726f6d20746865207a65726f206164604482015264647265737360d81b6064820152608401610bfc565b6001600160a01b0382166124615760405162461bcd60e51b815260206004820152602360248201527f45524332303a207472616e7366657220746f20746865207a65726f206164647260448201526265737360e81b6064820152608401610bfc565b6001600160a01b038316600090815261018a6020526040902054818110156124da5760405162461bcd60e51b815260206004820152602660248201527f45524332303a207472616e7366657220616d6f756e7420657863656564732062604482015265616c616e636560d01b6064820152608401610bfc565b6001600160a01b03808516600081815261018a602052604080822086860390559286168082529083902080548601905591517fddf252ad1be2c89b69c2b068fc378daa952ba7f163c4a11628f55a4df523b3ef9061253b9086815260200190565b60405180910390a3612395565b6000806125558484611f8b565b90506125618184614586565b915080156125895760f8546125879086906201000090046001600160a01b031683612b22565b505b935093915050565b600061259f87828481612c91565b6125a885612d10565b5090506125b788888884612d3a565b9050600081116126055760405162461bcd60e51b815260206004820152601960248201527813d19510dbdc994e88185b5bdd5b9d081d1bdbc81cdb585b1b603a1b6044820152606401610bfc565b60006126508761261484612d6c565b6040805160006020820152602181019390935260c09190911b6001600160c01b0319166041830152805160298184030181526049909201905290565b9050612660888287878734612ddc565b86896001600160a01b03168961ffff167fd81fc9b8523134ed613870ed029d6170cbb73aa6a6bc311b9a642689fb9df59a856040516126a191815260200190565b60405180910390a450979650505050505050565b60008060006126c78761261488612d6c565b60655460405163040a7bb160e41b81529192506001600160a01b0316906340a7bb1090612700908b90309086908b908b9060040161493e565b6040805180830381865afa15801561271c573d6000803e3d6000fd5b505050506040513d601f19601f820116820180604052508101906127409190614992565b92509250509550959350505050565b6000612767896001846001600160401b038916612c91565b61277087612d10565b50905061277f8a8a8a84612d3a565b9050600081116127cd5760405162461bcd60e51b815260206004820152601960248201527813d19510dbdc994e88185b5bdd5b9d081d1bdbc81cdb585b1b603a1b6044820152606401610bfc565b60006127e4338a6127dd85612d6c565b8a8a612f65565b90506127f48a8287878734612ddc565b888b6001600160a01b03168b61ffff167fd81fc9b8523134ed613870ed029d6170cbb73aa6a6bc311b9a642689fb9df59a8560405161283591815260200190565b60405180910390a4509998505050505050505050565b60006128578282612fa6565b905060ff81166128725761286d85858585613002565b610ee9565b60001960ff82160161288a5761286d85858585613092565b60405162461bcd60e51b815260206004820152601c60248201527f4f4654436f72653a20756e6b6e6f776e207061636b65742074797065000000006044820152606401610bfc565b603380546001600160a01b038381166001600160a01b0319831681179093556040519116919082907f8be0079c531659141344cd1fd0a4f28419497f9722a3daafe3b4186f6b6457e090600090a35050565b60608161293281601f6144e7565b10156129715760405162461bcd60e51b815260206004820152600e60248201526d736c6963655f6f766572666c6f7760901b6044820152606401610bfc565b61297b82846144e7565b845110156129bf5760405162461bcd60e51b8152602060048201526011602482015270736c6963655f6f75744f66426f756e647360781b6044820152606401610bfc565b6060821580156129de5760405191506000825260208201604052612a28565b6040519150601f8416801560200281840101858101878315602002848b0101015b81831015612a175780518352602092830192016129ff565b5050858452601f01601f1916604052505b50949350505050565b6000806000612a44338a6127dd8b612d6c565b60655460405163040a7bb160e41b81529192506001600160a01b0316906340a7bb1090612a7d908d90309086908b908b9060040161493e565b6040805180830381865afa158015612a99573d6000803e3d6000fd5b505050506040513d601f19601f82011682018060405250810190612abd9190614992565b925092505097509795505050505050565b600054610100900460ff16612af55760405162461bcd60e51b8152600401610bfc906149b6565b612afd6132a0565b612b06816132d0565b612b0f82613319565b612b198484613356565b61239582613398565b600033306001600160a01b03861614801590612b505750806001600160a01b0316856001600160a01b031614155b15612b6057612b60858285612321565b612b6b85858561239b565b50909392505050565b6000606060008060008661ffff166001600160401b03811115612b9957612b99613ef7565b6040519080825280601f01601f191660200182016040528015612bc3576020820181803683370190505b50905060008087516020890160008d8df191503d925086831115612be5578692505b828152826000602083013e909890975095505050505050565b8180519060200120609760008761ffff1661ffff16815260200190815260200160002085604051612c2f9190614a01565b9081526040805191829003602090810183206001600160401b0388166000908152915220919091557fe183f33de2837795525b4792ca4cd60535bd77c53b7e7030060bfcf5734d6b0c90611d009087908790879087908790614a1d565b505050565b60c954610100900460ff1615612cb257612cad84848484613448565b612395565b8151156123955760405162461bcd60e51b815260206004820152602660248201527f4f4654436f72653a205f61646170746572506172616d73206d7573742062652060448201526532b6b83a3c9760d11b6064820152608401610bfc565b600080612d1d6101bc5490565b612d279084614a6f565b9050612d338184614586565b9150915091565b6000336001600160a01b0386168114612d5857612d58868285612321565b612d628684613527565b5090949350505050565b600080612d796101bc5490565b612d83908461487f565b90506001600160401b03811115610dea5760405162461bcd60e51b815260206004820152601a60248201527f4f4654436f72653a20616d6f756e745344206f766572666c6f770000000000006044820152606401610bfc565b61ffff861660009081526066602052604081208054612dfa906143fa565b80601f0160208091040260200160405190810160405280929190818152602001828054612e26906143fa565b8015612e735780601f10612e4857610100808354040283529160200191612e73565b820191906000526020600020905b815481529060010190602001808311612e5657829003601f168201915b505050505090508051600003612ee45760405162461bcd60e51b815260206004820152603060248201527f4c7a4170703a2064657374696e6174696f6e20636861696e206973206e6f742060448201526f61207472757374656420736f7572636560801b6064820152608401610bfc565b612eef87875161365e565b60655460405162c5803160e81b81526001600160a01b039091169063c5803100908490612f2a908b9086908c908c908c908c90600401614a83565b6000604051808303818588803b158015612f4357600080fd5b505af1158015612f57573d6000803e3d6000fd5b505050505050505050505050565b6060600185856001600160a01b0389168587604051602001612f8c96959493929190614aea565b604051602081830303815290604052905095945050505050565b6000612fb38260016144e7565b83511015612ff95760405162461bcd60e51b8152602060048201526013602482015272746f55696e74385f6f75744f66426f756e647360681b6044820152606401610bfc565b50016001015190565b60008061300e836136cf565b90925090506001600160a01b0382166130275761dead91505b600061303282613754565b905061303f878483613773565b9050826001600160a01b03168761ffff167fbf551ec93859b170f9b2141bd9298bf3f64322c6f7beb2543a0cb669834118bf8360405161308191815260200190565b60405180910390a350505050505050565b60008060008060006130a38661377f565b94509450945094509450600060ca60008b61ffff1661ffff168152602001908152602001600020896040516130d89190614a01565b90815260408051602092819003830190206001600160401b038b166000908152925281205460ff16915061310b85613754565b9050816131795761311d8b3083613773565b61ffff8c16600090815260ca6020526040908190209051919250600191613145908d90614a01565b90815260408051602092819003830190206001600160401b038d16600090815292529020805460ff19169115159190911790555b6001600160a01b0386163b6131d0576040516001600160a01b03871681527f9aedf5fdba8716db3b6705ca00150643309995d4f818a249ed6dde6677e7792d9060200160405180910390a150505050505050612395565b8a8a8a8a8a8a868a60008a6131ee578b6001600160401b03166131f0565b5a5b90506000806132225a609663eaffd49a60e01b8e8e8e8d8d8d8d8d604051602401612151989796959493929190614b4b565b91509150811561327b578751602089012060405161ffff8d16907fb8890edbfc1c74692f527444645f95489c3703cc2df42e4a366f5d06fa6cd8849061326d908e908e908690614bbf565b60405180910390a250613288565b6132888b8b8b8b85612bfe565b50505050505050505050505050505050505050505050565b600054610100900460ff166132c75760405162461bcd60e51b8152600401610bfc906149b6565b6114cd336128d2565b600054610100900460ff166132f75760405162461bcd60e51b8152600401610bfc906149b6565b606580546001600160a01b0319166001600160a01b0392909216919091179055565b600054610100900460ff166133405760405162461bcd60e51b8152600401610bfc906149b6565b60c9805460ff191660ff92909216919091179055565b600054610100900460ff1661337d5760405162461bcd60e51b8152600401610bfc906149b6565b61018d61338a8382614605565b5061018e612c8c8282614605565b600054610100900460ff166133bf5760405162461bcd60e51b8152600401610bfc906149b6565b601260ff821681101561342b5760405162461bcd60e51b815260206004820152602e60248201527f4f4654576974684665653a20736861726564446563696d616c73206d7573742060448201526d6265203c3d20646563696d616c7360901b6064820152608401610bfc565b6134358282614bed565b61344090600a614cea565b6101bc555050565b600061345383613836565b61ffff8087166000908152606760209081526040808320938916835292905290812054919250906134859084906144e7565b9050600081116134d75760405162461bcd60e51b815260206004820152601a60248201527f4c7a4170703a206d696e4761734c696d6974206e6f74207365740000000000006044820152606401610bfc565b808210156110225760405162461bcd60e51b815260206004820152601b60248201527f4c7a4170703a20676173206c696d697420697320746f6f206c6f7700000000006044820152606401610bfc565b6001600160a01b0382166135875760405162461bcd60e51b815260206004820152602160248201527f45524332303a206275726e2066726f6d20746865207a65726f206164647265736044820152607360f81b6064820152608401610bfc565b6001600160a01b038216600090815261018a6020526040902054818110156135fc5760405162461bcd60e51b815260206004820152602260248201527f45524332303a206275726e20616d6f756e7420657863656564732062616c616e604482015261636560f01b6064820152608401610bfc565b6001600160a01b038316600081815261018a60209081526040808320868603905561018c80548790039055518581529192917fddf252ad1be2c89b69c2b068fc378daa952ba7f163c4a11628f55a4df523b3ef910160405180910390a3505050565b61ffff82166000908152606860205260408120549081900361367f57506127105b80821115612c8c5760405162461bcd60e51b815260206004820181905260248201527f4c7a4170703a207061796c6f61642073697a6520697320746f6f206c617267656044820152606401610bfc565b600080806136dd8482612fa6565b60ff161480156136ee575082516029145b6137355760405162461bcd60e51b815260206004820152601860248201527713d19510dbdc994e881a5b9d985b1a59081c185e5b1bd85960421b6044820152606401610bfc565b61374083600d613892565b915061374d8360216138f7565b9050915091565b60006137606101bc5490565b610dea906001600160401b038416614852565b60006120168383613954565b6000808060608160016137928783612fa6565b60ff16146137dd5760405162461bcd60e51b815260206004820152601860248201527713d19510dbdc994e881a5b9d985b1a59081c185e5b1bd85960421b6044820152606401610bfc565b6137e886600d613892565b93506137f58660216138f7565b9250613802866029613a17565b945061380f8660496138f7565b905061382b60518088516138239190614586565b889190612924565b915091939590929450565b600060228251101561388a5760405162461bcd60e51b815260206004820152601c60248201527f4c7a4170703a20696e76616c69642061646170746572506172616d73000000006044820152606401610bfc565b506022015190565b600061389f8260146144e7565b835110156138e75760405162461bcd60e51b8152602060048201526015602482015274746f416464726573735f6f75744f66426f756e647360581b6044820152606401610bfc565b500160200151600160601b900490565b60006139048260086144e7565b8351101561394b5760405162461bcd60e51b8152602060048201526014602482015273746f55696e7436345f6f75744f66426f756e647360601b6044820152606401610bfc565b50016008015190565b6001600160a01b0382166139aa5760405162461bcd60e51b815260206004820152601f60248201527f45524332303a206d696e7420746f20746865207a65726f2061646472657373006044820152606401610bfc565b8061018c60008282546139bd91906144e7565b90915550506001600160a01b038216600081815261018a60209081526040808320805486019055518481527fddf252ad1be2c89b69c2b068fc378daa952ba7f163c4a11628f55a4df523b3ef910160405180910390a35050565b6000613a248260206144e7565b83511015613a6c5760405162461bcd60e51b8152602060048201526015602482015274746f427974657333325f6f75744f66426f756e647360581b6044820152606401610bfc565b50016020015190565b803561ffff81168114613a8757600080fd5b919050565b60008083601f840112613a9e57600080fd5b5081356001600160401b03811115613ab557600080fd5b602083019150836020828501011115613acd57600080fd5b9250929050565b80356001600160401b0381168114613a8757600080fd5b60008060008060008060808789031215613b0457600080fd5b613b0d87613a75565b955060208701356001600160401b0380821115613b2957600080fd5b613b358a838b01613a8c565b9097509550859150613b4960408a01613ad4565b94506060890135915080821115613b5f57600080fd5b50613b6c89828a01613a8c565b979a9699509497509295939492505050565b600060208284031215613b9057600080fd5b81356001600160e01b03198116811461175557600080fd5b60005b83811015613bc3578181015183820152602001613bab565b50506000910152565b60008151808452613be4816020860160208601613ba8565b601f01601f19169290920160200192915050565b6020815260006117556020830184613bcc565b600060208284031215613c1d57600080fd5b61175582613a75565b6001600160a01b038116811461209357600080fd5b60008060408385031215613c4e57600080fd5b8235613c5981613c26565b946020939093013593505050565b60008060408385031215613c7a57600080fd5b613c5983613a75565b600080600060608486031215613c9857600080fd5b8335613ca381613c26565b92506020840135613cb381613c26565b929592945050506040919091013590565b600060608284031215613cd657600080fd5b50919050565b60008060008060008060c08789031215613cf557600080fd5b8635613d0081613c26565b9550613d0e60208801613a75565b945060408701359350606087013592506080870135915060a08701356001600160401b03811115613d3e57600080fd5b613d4a89828a01613cc4565b9150509295509295509295565b80358015158114613a8757600080fd5b60008060008060008060a08789031215613d8057600080fd5b613d8987613a75565b95506020870135945060408701359350613da560608801613d57565b925060808701356001600160401b03811115613dc057600080fd5b613b6c89828a01613a8c565b600080600060408486031215613de157600080fd5b613dea84613a75565b925060208401356001600160401b03811115613e0557600080fd5b613e1186828701613a8c565b9497909650939450505050565b60008060008060008060008060006101008a8c031215613e3d57600080fd5b8935613e4881613c26565b9850613e5660208b01613a75565b975060408a0135965060608a0135955060808a0135945060a08a01356001600160401b0380821115613e8757600080fd5b613e938d838e01613a8c565b9096509450849150613ea760c08d01613ad4565b935060e08c0135915080821115613ebd57600080fd5b50613eca8c828d01613cc4565b9150509295985092959850929598565b600060208284031215613eec57600080fd5b813561175581613c26565b634e487b7160e01b600052604160045260246000fd5b604051601f8201601f191681016001600160401b0381118282101715613f3557613f35613ef7565b604052919050565b60006001600160401b03821115613f5657613f56613ef7565b50601f01601f191660200190565b6000613f77613f7284613f3d565b613f0d565b9050828152838383011115613f8b57600080fd5b828260208301376000602084830101529392505050565b600080600060608486031215613fb757600080fd5b613fc084613a75565b925060208401356001600160401b03811115613fdb57600080fd5b8401601f81018613613fec57600080fd5b613ffb86823560208401613f64565b92505061400a60408501613ad4565b90509250925092565b60008060006060848603121561402857600080fd5b61403184613a75565b925061403f60208501613d57565b915061400a60408501613a75565b6000806040838503121561406057600080fd5b61406983613a75565b915061407760208401613a75565b90509250929050565b600080600080600080600080600060e08a8c03121561409e57600080fd5b6140a78a613a75565b985060208a0135975060408a0135965060608a01356001600160401b03808211156140d157600080fd5b6140dd8d838e01613a8c565b90985096508691506140f160808d01613ad4565b95506140ff60a08d01613d57565b945060c08c013591508082111561411557600080fd5b506141228c828d01613a8c565b915080935050809150509295985092959850929598565b60008060008060006080868803121561415157600080fd5b61415a86613a75565b945061416860208701613a75565b93506040860135925060608601356001600160401b0381111561418a57600080fd5b61419688828901613a8c565b969995985093965092949392505050565b600080604083850312156141ba57600080fd5b82356141c581613c26565b915060208301356141d581613c26565b809150509250929050565b600082601f8301126141f157600080fd5b61175583833560208501613f64565b6000806000806080858703121561421657600080fd5b84356001600160401b038082111561422d57600080fd5b614239888389016141e0565b9550602087013591508082111561424f57600080fd5b5061425c878288016141e0565b935050604085013560ff8116811461427357600080fd5b9150606085013561428381613c26565b939692955090935050565b6000806000606084860312156142a357600080fd5b6142ac84613a75565b92506142ba60208501613a75565b9150604084013590509250925092565b6000602082840312156142dc57600080fd5b61175582613d57565b6000806000806000806000806000806101008b8d03121561430557600080fd5b61430e8b613a75565b995060208b01356001600160401b038082111561432a57600080fd5b6143368e838f01613a8c565b909b50995089915061434a60408e01613ad4565b985060608d0135975060808d0135915061436382613c26565b90955060a08c0135945060c08c0135908082111561438057600080fd5b5061438d8d828e01613a8c565b9150809450508092505060e08b013590509295989b9194979a5092959850565b600080600080608085870312156143c357600080fd5b6143cc85613a75565b93506143da60208601613a75565b925060408501356143ea81613c26565b9396929550929360600135925050565b600181811c9082168061440e57607f821691505b602082108103613cd657634e487b7160e01b600052602260045260246000fd5b8183823760009101908152919050565b6000808335601e1984360301811261445557600080fd5b8301803591506001600160401b0382111561446f57600080fd5b602001915036819003821315613acd57600080fd5b6020808252602d908201527f426173654f4654576974684665653a20616d6f756e74206973206c657373207460408201526c1a185b881b5a5b905b5bdd5b9d609a1b606082015260800190565b634e487b7160e01b600052601160045260246000fd5b80820180821115610dea57610dea6144d1565b81835281816020850137506000828201602090810191909152601f909101601f19169091010190565b61ffff841681526040602082015260006121206040830184866144fa565b60208082526025908201527f4665653a20666565206270206d757374206265203c3d2042505f44454e4f4d496040820152642720aa27a960d91b606082015260800190565b81810381811115610dea57610dea6144d1565b8284823760609190911b6bffffffffffffffffffffffff19169101908152601401919050565b601f821115612c8c57600081815260208120601f850160051c810160208610156145e65750805b601f850160051c820191505b81811015611022578281556001016145f2565b81516001600160401b0381111561461e5761461e613ef7565b6146328161462c84546143fa565b846145bf565b602080601f831160018114614667576000841561464f5750858301515b600019600386901b1c1916600185901b178555611022565b600085815260208120601f198616915b8281101561469657888601518255948401946001909101908401614677565b50858210156146b45787850151600019600388901b60f8161c191681555b5050505050600190811b01905550565b600061ffff8088168352808716602084015250846040830152608060608301526146f26080830184866144fa565b979650505050505050565b61ffff8616815260806020820152600061471b6080830186886144fa565b6001600160401b0394909416604083015250606001529392505050565b61ffff8916815260c06020820152600061475660c08301898b6144fa565b6001600160401b038816604084015286606084015285608084015282810360a08401526147848185876144fa565b9b9a5050505050505050505050565b6001600160401b038311156147aa576147aa613ef7565b6147be836147b883546143fa565b836145bf565b6000601f8411600181146147f257600085156147da5750838201355b600019600387901b1c1916600186901b178355610ee9565b600083815260209020601f19861690835b828110156148235786850135825560209485019460019092019101614803565b50868210156148405760001960f88860031b161c19848701351681555b505060018560011b0183555050505050565b8082028115828204841417610dea57610dea6144d1565b634e487b7160e01b600052601260045260246000fd5b60008261488e5761488e614869565b500490565b6000602082840312156148a557600080fd5b81516001600160401b038111156148bb57600080fd5b8201601f810184136148cc57600080fd5b80516148da613f7282613f3d565b8181528560208385010111156148ef57600080fd5b612120826020830160208601613ba8565b61ffff8516815260806020820152600061491d6080830186613bcc565b6001600160401b038516604084015282810360608401526146f28185613bcc565b61ffff861681526001600160a01b038516602082015260a06040820181905260009061496c90830186613bcc565b841515606084015282810360808401526149868185613bcc565b98975050505050505050565b600080604083850312156149a557600080fd5b505080516020909101519092909150565b6020808252602b908201527f496e697469616c697a61626c653a20636f6e7472616374206973206e6f74206960408201526a6e697469616c697a696e6760a81b606082015260800190565b60008251614a13818460208701613ba8565b9190910192915050565b61ffff8616815260a060208201526000614a3a60a0830187613bcc565b6001600160401b03861660408401528281036060840152614a5b8186613bcc565b905082810360808401526149868185613bcc565b600082614a7e57614a7e614869565b500690565b61ffff8716815260c060208201526000614aa060c0830188613bcc565b8281036040840152614ab28188613bcc565b6001600160a01b0387811660608601528616608085015283810360a08501529050614add8185613bcc565b9998505050505050505050565b60ff60f81b8760f81b16815285600182015260006001600160401b0360c01b808760c01b166021840152856029840152808560c01b166049840152508251614b39816051850160208701613ba8565b91909101605101979650505050505050565b600061010061ffff8b168352806020840152614b698184018b613bcc565b6001600160401b038a166040850152606084018990526001600160a01b038816608085015260a0840187905283810360c08501529050614ba98186613bcc565b9150508260e08301529998505050505050505050565b606081526000614bd26060830186613bcc565b6001600160401b039490941660208301525060400152919050565b60ff8281168282160390811115610dea57610dea6144d1565b600181815b80851115614c41578160001904821115614c2757614c276144d1565b80851615614c3457918102915b93841c9390800290614c0b565b509250929050565b600082614c5857506001610dea565b81614c6557506000610dea565b8160018114614c7b5760028114614c8557614ca1565b6001915050610dea565b60ff841115614c9657614c966144d1565b50506001821b610dea565b5060208310610133831016604e8410600b8410161715614cc4575081810a610dea565b614cce8383614c06565b8060001904821115614ce257614ce26144d1565b029392505050565b600061175560ff841683614c4956fea2646970667358221220fe1b2aee9e6b0e972beda31ef658cf84a71dab7a2d0a50b44a0415ccb267d4bc64736f6c63430008120033",
  "devdoc": {
    "events": {
      "Approval(address,address,uint256)": {
        "details": "Emitted when the allowance of a `spender` for an `owner` is set by a call to {approve}. `value` is the new allowance."
      },
      "Initialized(uint8)": {
        "details": "Triggered when the contract has been initialized or reinitialized."
      },
      "ReceiveFromChain(uint16,address,uint256)": {
        "details": "Emitted when `_amount` tokens are received from `_srcChainId` into the `_toAddress` on the local chain. `_nonce` is the inbound nonce."
      },
      "SendToChain(uint16,address,bytes32,uint256)": {
        "details": "Emitted when `_amount` tokens are moved from the `_sender` to (`_dstChainId`, `_toAddress`) `_nonce` is the outbound nonce"
      },
      "Transfer(address,address,uint256)": {
        "details": "Emitted when `value` tokens are moved from one account (`from`) to another (`to`). Note that `value` may be zero."
      }
    },
    "kind": "dev",
    "methods": {
      "allowance(address,address)": {
        "details": "See {IERC20-allowance}."
      },
      "approve(address,uint256)": {
        "details": "See {IERC20-approve}. NOTE: If `amount` is the maximum `uint256`, the allowance is not updated on `transferFrom`. This is semantically equivalent to an infinite approval. Requirements: - `spender` cannot be the zero address."
      },
      "balanceOf(address)": {
        "details": "See {IERC20-balanceOf}."
      },
      "circulatingSupply()": {
        "details": "returns the circulating amount of tokens on current chain"
      },
      "decimals()": {
        "details": "Returns the number of decimals used to get its user representation. For example, if `decimals` equals `2`, a balance of `505` tokens should be displayed to a user as `5.05` (`505 / 10 ** 2`). Tokens usually opt for a value of 18, imitating the relationship between Ether and Wei. This is the default value returned by this function, unless it's overridden. NOTE: This information is only used for _display_ purposes: it in no way affects any of the arithmetic of the contract, including {IERC20-balanceOf} and {IERC20-transfer}."
      },
      "decreaseAllowance(address,uint256)": {
        "details": "Atomically decreases the allowance granted to `spender` by the caller. This is an alternative to {approve} that can be used as a mitigation for problems described in {IERC20-approve}. Emits an {Approval} event indicating the updated allowance. Requirements: - `spender` cannot be the zero address. - `spender` must have allowance for the caller of at least `subtractedValue`."
      },
      "estimateSendFee(uint16,bytes32,uint256,bool,bytes)": {
        "details": "estimate send token `_tokenId` to (`_dstChainId`, `_toAddress`) _dstChainId - L0 defined chain id to send tokens too _toAddress - dynamic bytes array which contains the address to whom you are sending tokens to on the dstChain _amount - amount of the tokens to transfer _useZro - indicates to use zro to pay L0 fees _adapterParam - flexible bytes array to indicate messaging adapter services in L0"
      },
      "increaseAllowance(address,uint256)": {
        "details": "Atomically increases the allowance granted to `spender` by the caller. This is an alternative to {approve} that can be used as a mitigation for problems described in {IERC20-approve}. Emits an {Approval} event indicating the updated allowance. Requirements: - `spender` cannot be the zero address."
      },
      "name()": {
        "details": "Returns the name of the token."
      },
      "owner()": {
        "details": "Returns the address of the current owner."
      },
      "renounceOwnership()": {
        "details": "Leaves the contract without owner. It will not be possible to call `onlyOwner` functions. Can only be called by the current owner. NOTE: Renouncing ownership will leave the contract without an owner, thereby disabling any functionality that is only available to the owner."
      },
      "sendFrom(address,uint16,bytes32,uint256,uint256,(address,address,bytes))": {
        "details": "send `_amount` amount of token to (`_dstChainId`, `_toAddress`) from `_from` `_from` the owner of token `_dstChainId` the destination chain identifier `_toAddress` can be any size depending on the `dstChainId`. `_amount` the quantity of tokens in wei `_minAmount` the minimum amount of tokens to receive on dstChain `_refundAddress` the address LayerZero refunds if too much message fee is sent `_zroPaymentAddress` set to address(0x0) if not paying in ZRO (LayerZero Token) `_adapterParams` is a flexible bytes array to indicate messaging adapter services"
      },
      "symbol()": {
        "details": "Returns the symbol of the token, usually a shorter version of the name."
      },
      "token()": {
        "details": "returns the address of the ERC20 token"
      },
      "totalSupply()": {
        "details": "See {IERC20-totalSupply}."
      },
      "transfer(address,uint256)": {
        "details": "See {IERC20-transfer}. Requirements: - `to` cannot be the zero address. - the caller must have a balance of at least `amount`."
      },
      "transferFrom(address,address,uint256)": {
        "details": "See {IERC20-transferFrom}. Emits an {Approval} event indicating the updated allowance. This is not required by the EIP. See the note at the beginning of {ERC20}. NOTE: Does not update the allowance if the current allowance is the maximum `uint256`. Requirements: - `from` and `to` cannot be the zero address. - `from` must have a balance of at least `amount`. - the caller must have allowance for ``from``'s tokens of at least `amount`."
      },
      "transferOwnership(address)": {
        "details": "Transfers ownership of the contract to a new account (`newOwner`). Can only be called by the current owner."
      }
    },
    "version": 1
  },
  "userdoc": {
    "kind": "user",
    "methods": {},
    "version": 1
  },
  "storageLayout": {
    "storage": [
      {
        "astId": 566,
        "contract": "contracts/contracts-upgradable/examples/BeamBridge.sol:BeamOFT",
        "label": "_initialized",
        "offset": 0,
        "slot": "0",
        "type": "t_uint8"
      },
      {
        "astId": 569,
        "contract": "contracts/contracts-upgradable/examples/BeamBridge.sol:BeamOFT",
        "label": "_initializing",
        "offset": 1,
        "slot": "0",
        "type": "t_bool"
      },
      {
        "astId": 5978,
        "contract": "contracts/contracts-upgradable/examples/BeamBridge.sol:BeamOFT",
        "label": "__gap",
        "offset": 0,
        "slot": "1",
        "type": "t_array(t_uint256)50_storage"
      },
      {
        "astId": 419,
        "contract": "contracts/contracts-upgradable/examples/BeamBridge.sol:BeamOFT",
        "label": "_owner",
        "offset": 0,
        "slot": "51",
        "type": "t_address"
      },
      {
        "astId": 539,
        "contract": "contracts/contracts-upgradable/examples/BeamBridge.sol:BeamOFT",
        "label": "__gap",
        "offset": 0,
        "slot": "52",
        "type": "t_array(t_uint256)49_storage"
      },
      {
        "astId": 14491,
        "contract": "contracts/contracts-upgradable/examples/BeamBridge.sol:BeamOFT",
        "label": "lzEndpoint",
        "offset": 0,
        "slot": "101",
        "type": "t_contract(ILayerZeroEndpointUpgradeable)15447"
      },
      {
        "astId": 14495,
        "contract": "contracts/contracts-upgradable/examples/BeamBridge.sol:BeamOFT",
        "label": "trustedRemoteLookup",
        "offset": 0,
        "slot": "102",
        "type": "t_mapping(t_uint16,t_bytes_storage)"
      },
      {
        "astId": 14501,
        "contract": "contracts/contracts-upgradable/examples/BeamBridge.sol:BeamOFT",
        "label": "minDstGasLookup",
        "offset": 0,
        "slot": "103",
        "type": "t_mapping(t_uint16,t_mapping(t_uint16,t_uint256))"
      },
      {
        "astId": 14505,
        "contract": "contracts/contracts-upgradable/examples/BeamBridge.sol:BeamOFT",
        "label": "payloadSizeLimitLookup",
        "offset": 0,
        "slot": "104",
        "type": "t_mapping(t_uint16,t_uint256)"
      },
      {
        "astId": 14507,
        "contract": "contracts/contracts-upgradable/examples/BeamBridge.sol:BeamOFT",
        "label": "precrime",
        "offset": 0,
        "slot": "105",
        "type": "t_address"
      },
      {
        "astId": 15039,
        "contract": "contracts/contracts-upgradable/examples/BeamBridge.sol:BeamOFT",
        "label": "__gap",
        "offset": 0,
        "slot": "106",
        "type": "t_array(t_uint256)45_storage"
      },
      {
        "astId": 15082,
        "contract": "contracts/contracts-upgradable/examples/BeamBridge.sol:BeamOFT",
        "label": "failedMessages",
        "offset": 0,
        "slot": "151",
        "type": "t_mapping(t_uint16,t_mapping(t_bytes_memory_ptr,t_mapping(t_uint64,t_bytes32)))"
      },
      {
        "astId": 15301,
        "contract": "contracts/contracts-upgradable/examples/BeamBridge.sol:BeamOFT",
        "label": "__gap",
        "offset": 0,
        "slot": "152",
        "type": "t_array(t_uint256)49_storage"
      },
      {
        "astId": 16254,
        "contract": "contracts/contracts-upgradable/examples/BeamBridge.sol:BeamOFT",
        "label": "sharedDecimals",
        "offset": 0,
        "slot": "201",
        "type": "t_uint8"
      },
      {
        "astId": 16256,
        "contract": "contracts/contracts-upgradable/examples/BeamBridge.sol:BeamOFT",
        "label": "useCustomAdapterParams",
        "offset": 1,
        "slot": "201",
        "type": "t_bool"
      },
      {
        "astId": 16264,
        "contract": "contracts/contracts-upgradable/examples/BeamBridge.sol:BeamOFT",
        "label": "creditedPackets",
        "offset": 0,
        "slot": "202",
        "type": "t_mapping(t_uint16,t_mapping(t_bytes_memory_ptr,t_mapping(t_uint64,t_bool)))"
      },
      {
        "astId": 17259,
        "contract": "contracts/contracts-upgradable/examples/BeamBridge.sol:BeamOFT",
        "label": "__gap",
        "offset": 0,
        "slot": "203",
        "type": "t_array(t_uint256)44_storage"
      },
      {
        "astId": 18628,
        "contract": "contracts/contracts-upgradable/examples/BeamBridge.sol:BeamOFT",
        "label": "chainIdToFeeBps",
        "offset": 0,
        "slot": "247",
        "type": "t_mapping(t_uint16,t_struct(FeeConfig)18637_storage)"
      },
      {
        "astId": 18630,
        "contract": "contracts/contracts-upgradable/examples/BeamBridge.sol:BeamOFT",
        "label": "defaultFeeBp",
        "offset": 0,
        "slot": "248",
        "type": "t_uint16"
      },
      {
        "astId": 18632,
        "contract": "contracts/contracts-upgradable/examples/BeamBridge.sol:BeamOFT",
        "label": "feeOwner",
        "offset": 2,
        "slot": "248",
        "type": "t_address"
      },
      {
        "astId": 18855,
        "contract": "contracts/contracts-upgradable/examples/BeamBridge.sol:BeamOFT",
        "label": "__gap",
        "offset": 0,
        "slot": "249",
        "type": "t_array(t_uint256)45_storage"
      },
      {
        "astId": 6445,
        "contract": "contracts/contracts-upgradable/examples/BeamBridge.sol:BeamOFT",
        "label": "__gap",
        "offset": 0,
        "slot": "294",
        "type": "t_array(t_uint256)50_storage"
      },
      {
        "astId": 18614,
        "contract": "contracts/contracts-upgradable/examples/BeamBridge.sol:BeamOFT",
        "label": "__gap",
        "offset": 0,
        "slot": "344",
        "type": "t_array(t_uint256)50_storage"
      },
      {
        "astId": 2647,
        "contract": "contracts/contracts-upgradable/examples/BeamBridge.sol:BeamOFT",
        "label": "_balances",
        "offset": 0,
        "slot": "394",
        "type": "t_mapping(t_address,t_uint256)"
      },
      {
        "astId": 2653,
        "contract": "contracts/contracts-upgradable/examples/BeamBridge.sol:BeamOFT",
        "label": "_allowances",
        "offset": 0,
        "slot": "395",
        "type": "t_mapping(t_address,t_mapping(t_address,t_uint256))"
      },
      {
        "astId": 2655,
        "contract": "contracts/contracts-upgradable/examples/BeamBridge.sol:BeamOFT",
        "label": "_totalSupply",
        "offset": 0,
        "slot": "396",
        "type": "t_uint256"
      },
      {
        "astId": 2657,
        "contract": "contracts/contracts-upgradable/examples/BeamBridge.sol:BeamOFT",
        "label": "_name",
        "offset": 0,
        "slot": "397",
        "type": "t_string_storage"
      },
      {
        "astId": 2659,
        "contract": "contracts/contracts-upgradable/examples/BeamBridge.sol:BeamOFT",
        "label": "_symbol",
        "offset": 0,
        "slot": "398",
        "type": "t_string_storage"
      },
      {
        "astId": 3239,
        "contract": "contracts/contracts-upgradable/examples/BeamBridge.sol:BeamOFT",
        "label": "__gap",
        "offset": 0,
        "slot": "399",
        "type": "t_array(t_uint256)45_storage"
      },
      {
        "astId": 19385,
        "contract": "contracts/contracts-upgradable/examples/BeamBridge.sol:BeamOFT",
        "label": "ld2sdRate",
        "offset": 0,
        "slot": "444",
        "type": "t_uint256"
      }
    ],
    "types": {
      "t_address": {
        "encoding": "inplace",
        "label": "address",
        "numberOfBytes": "20"
      },
      "t_array(t_uint256)44_storage": {
        "base": "t_uint256",
        "encoding": "inplace",
        "label": "uint256[44]",
        "numberOfBytes": "1408"
      },
      "t_array(t_uint256)45_storage": {
        "base": "t_uint256",
        "encoding": "inplace",
        "label": "uint256[45]",
        "numberOfBytes": "1440"
      },
      "t_array(t_uint256)49_storage": {
        "base": "t_uint256",
        "encoding": "inplace",
        "label": "uint256[49]",
        "numberOfBytes": "1568"
      },
      "t_array(t_uint256)50_storage": {
        "base": "t_uint256",
        "encoding": "inplace",
        "label": "uint256[50]",
        "numberOfBytes": "1600"
      },
      "t_bool": {
        "encoding": "inplace",
        "label": "bool",
        "numberOfBytes": "1"
      },
      "t_bytes32": {
        "encoding": "inplace",
        "label": "bytes32",
        "numberOfBytes": "32"
      },
      "t_bytes_memory_ptr": {
        "encoding": "bytes",
        "label": "bytes",
        "numberOfBytes": "32"
      },
      "t_bytes_storage": {
        "encoding": "bytes",
        "label": "bytes",
        "numberOfBytes": "32"
      },
      "t_contract(ILayerZeroEndpointUpgradeable)15447": {
        "encoding": "inplace",
        "label": "contract ILayerZeroEndpointUpgradeable",
        "numberOfBytes": "20"
      },
      "t_mapping(t_address,t_mapping(t_address,t_uint256))": {
        "encoding": "mapping",
        "key": "t_address",
        "label": "mapping(address => mapping(address => uint256))",
        "numberOfBytes": "32",
        "value": "t_mapping(t_address,t_uint256)"
      },
      "t_mapping(t_address,t_uint256)": {
        "encoding": "mapping",
        "key": "t_address",
        "label": "mapping(address => uint256)",
        "numberOfBytes": "32",
        "value": "t_uint256"
      },
      "t_mapping(t_bytes_memory_ptr,t_mapping(t_uint64,t_bool))": {
        "encoding": "mapping",
        "key": "t_bytes_memory_ptr",
        "label": "mapping(bytes => mapping(uint64 => bool))",
        "numberOfBytes": "32",
        "value": "t_mapping(t_uint64,t_bool)"
      },
      "t_mapping(t_bytes_memory_ptr,t_mapping(t_uint64,t_bytes32))": {
        "encoding": "mapping",
        "key": "t_bytes_memory_ptr",
        "label": "mapping(bytes => mapping(uint64 => bytes32))",
        "numberOfBytes": "32",
        "value": "t_mapping(t_uint64,t_bytes32)"
      },
      "t_mapping(t_uint16,t_bytes_storage)": {
        "encoding": "mapping",
        "key": "t_uint16",
        "label": "mapping(uint16 => bytes)",
        "numberOfBytes": "32",
        "value": "t_bytes_storage"
      },
      "t_mapping(t_uint16,t_mapping(t_bytes_memory_ptr,t_mapping(t_uint64,t_bool)))": {
        "encoding": "mapping",
        "key": "t_uint16",
        "label": "mapping(uint16 => mapping(bytes => mapping(uint64 => bool)))",
        "numberOfBytes": "32",
        "value": "t_mapping(t_bytes_memory_ptr,t_mapping(t_uint64,t_bool))"
      },
      "t_mapping(t_uint16,t_mapping(t_bytes_memory_ptr,t_mapping(t_uint64,t_bytes32)))": {
        "encoding": "mapping",
        "key": "t_uint16",
        "label": "mapping(uint16 => mapping(bytes => mapping(uint64 => bytes32)))",
        "numberOfBytes": "32",
        "value": "t_mapping(t_bytes_memory_ptr,t_mapping(t_uint64,t_bytes32))"
      },
      "t_mapping(t_uint16,t_mapping(t_uint16,t_uint256))": {
        "encoding": "mapping",
        "key": "t_uint16",
        "label": "mapping(uint16 => mapping(uint16 => uint256))",
        "numberOfBytes": "32",
        "value": "t_mapping(t_uint16,t_uint256)"
      },
      "t_mapping(t_uint16,t_struct(FeeConfig)18637_storage)": {
        "encoding": "mapping",
        "key": "t_uint16",
        "label": "mapping(uint16 => struct FeeUpgradeable.FeeConfig)",
        "numberOfBytes": "32",
        "value": "t_struct(FeeConfig)18637_storage"
      },
      "t_mapping(t_uint16,t_uint256)": {
        "encoding": "mapping",
        "key": "t_uint16",
        "label": "mapping(uint16 => uint256)",
        "numberOfBytes": "32",
        "value": "t_uint256"
      },
      "t_mapping(t_uint64,t_bool)": {
        "encoding": "mapping",
        "key": "t_uint64",
        "label": "mapping(uint64 => bool)",
        "numberOfBytes": "32",
        "value": "t_bool"
      },
      "t_mapping(t_uint64,t_bytes32)": {
        "encoding": "mapping",
        "key": "t_uint64",
        "label": "mapping(uint64 => bytes32)",
        "numberOfBytes": "32",
        "value": "t_bytes32"
      },
      "t_string_storage": {
        "encoding": "bytes",
        "label": "string",
        "numberOfBytes": "32"
      },
      "t_struct(FeeConfig)18637_storage": {
        "encoding": "inplace",
        "label": "struct FeeUpgradeable.FeeConfig",
        "members": [
          {
            "astId": 18634,
            "contract": "contracts/contracts-upgradable/examples/BeamBridge.sol:BeamOFT",
            "label": "feeBP",
            "offset": 0,
            "slot": "0",
            "type": "t_uint16"
          },
          {
            "astId": 18636,
            "contract": "contracts/contracts-upgradable/examples/BeamBridge.sol:BeamOFT",
            "label": "enabled",
            "offset": 2,
            "slot": "0",
            "type": "t_bool"
          }
        ],
        "numberOfBytes": "32"
      },
      "t_uint16": {
        "encoding": "inplace",
        "label": "uint16",
        "numberOfBytes": "2"
      },
      "t_uint256": {
        "encoding": "inplace",
        "label": "uint256",
        "numberOfBytes": "32"
      },
      "t_uint64": {
        "encoding": "inplace",
        "label": "uint64",
        "numberOfBytes": "8"
      },
      "t_uint8": {
        "encoding": "inplace",
        "label": "uint8",
        "numberOfBytes": "1"
      }
    }
  }
}