{
  "address": "0x6a83d5880Bca551efb2d885d517437c9079474D7",
  "abi": [
    {
      "inputs": [
        {
          "internalType": "string",
          "name": "_name",
          "type": "string"
        },
        {
          "internalType": "string",
          "name": "_symbol",
          "type": "string"
        },
        {
          "internalType": "string",
          "name": "_baseUri",
          "type": "string"
        },
        {
          "internalType": "uint256",
          "name": "_minGasToTransfer",
          "type": "uint256"
        },
        {
          "internalType": "address",
          "name": "_lzEndpoint",
          "type": "address"
        }
      ],
      "stateMutability": "nonpayable",
      "type": "constructor"
    },
    {
      "anonymous": false,
      "inputs": [
        {
          "indexed": true,
          "internalType": "address",
          "name": "owner",
          "type": "address"
        },
        {
          "indexed": true,
          "internalType": "address",
          "name": "approved",
          "type": "address"
        },
        {
          "indexed": true,
          "internalType": "uint256",
          "name": "tokenId",
          "type": "uint256"
        }
      ],
      "name": "Approval",
      "type": "event"
    },
    {
      "anonymous": false,
      "inputs": [
        {
          "indexed": true,
          "internalType": "address",
          "name": "owner",
          "type": "address"
        },
        {
          "indexed": true,
          "internalType": "address",
          "name": "operator",
          "type": "address"
        },
        {
          "indexed": false,
          "internalType": "bool",
          "name": "approved",
          "type": "bool"
        }
      ],
      "name": "ApprovalForAll",
      "type": "event"
    },
    {
      "anonymous": false,
      "inputs": [
        {
          "indexed": false,
          "internalType": "bytes32",
          "name": "_hashedPayload",
          "type": "bytes32"
        }
      ],
      "name": "CreditCleared",
      "type": "event"
    },
    {
      "anonymous": false,
      "inputs": [
        {
          "indexed": false,
          "internalType": "bytes32",
          "name": "_hashedPayload",
          "type": "bytes32"
        },
        {
          "indexed": false,
          "internalType": "bytes",
          "name": "_payload",
          "type": "bytes"
        }
      ],
      "name": "CreditStored",
      "type": "event"
    },
    {
      "anonymous": false,
      "inputs": [
        {
          "indexed": false,
          "internalType": "uint16",
          "name": "_srcChainId",
          "type": "uint16"
        },
        {
          "indexed": false,
          "internalType": "bytes",
          "name": "_srcAddress",
          "type": "bytes"
        },
        {
          "indexed": false,
          "internalType": "uint64",
          "name": "_nonce",
          "type": "uint64"
        },
        {
          "indexed": false,
          "internalType": "bytes",
          "name": "_payload",
          "type": "bytes"
        },
        {
          "indexed": false,
          "internalType": "bytes",
          "name": "_reason",
          "type": "bytes"
        }
      ],
      "name": "MessageFailed",
      "type": "event"
    },
    {
      "anonymous": false,
      "inputs": [
        {
          "indexed": true,
          "internalType": "address",
          "name": "previousOwner",
          "type": "address"
        },
        {
          "indexed": true,
          "internalType": "address",
          "name": "newOwner",
          "type": "address"
        }
      ],
      "name": "OwnershipTransferred",
      "type": "event"
    },
    {
      "anonymous": false,
      "inputs": [
        {
          "indexed": true,
          "internalType": "uint16",
          "name": "_srcChainId",
          "type": "uint16"
        },
        {
          "indexed": true,
          "internalType": "bytes",
          "name": "_srcAddress",
          "type": "bytes"
        },
        {
          "indexed": true,
          "internalType": "address",
          "name": "_toAddress",
          "type": "address"
        },
        {
          "indexed": false,
          "internalType": "uint256[]",
          "name": "_tokenIds",
          "type": "uint256[]"
        }
      ],
      "name": "ReceiveFromChain",
      "type": "event"
    },
    {
      "anonymous": false,
      "inputs": [
        {
          "indexed": false,
          "internalType": "uint16",
          "name": "_srcChainId",
          "type": "uint16"
        },
        {
          "indexed": false,
          "internalType": "bytes",
          "name": "_srcAddress",
          "type": "bytes"
        },
        {
          "indexed": false,
          "internalType": "uint64",
          "name": "_nonce",
          "type": "uint64"
        },
        {
          "indexed": false,
          "internalType": "bytes32",
          "name": "_payloadHash",
          "type": "bytes32"
        }
      ],
      "name": "RetryMessageSuccess",
      "type": "event"
    },
    {
      "anonymous": false,
      "inputs": [
        {
          "indexed": true,
          "internalType": "bytes32",
          "name": "role",
          "type": "bytes32"
        },
        {
          "indexed": true,
          "internalType": "bytes32",
          "name": "previousAdminRole",
          "type": "bytes32"
        },
        {
          "indexed": true,
          "internalType": "bytes32",
          "name": "newAdminRole",
          "type": "bytes32"
        }
      ],
      "name": "RoleAdminChanged",
      "type": "event"
    },
    {
      "anonymous": false,
      "inputs": [
        {
          "indexed": true,
          "internalType": "bytes32",
          "name": "role",
          "type": "bytes32"
        },
        {
          "indexed": true,
          "internalType": "address",
          "name": "account",
          "type": "address"
        },
        {
          "indexed": true,
          "internalType": "address",
          "name": "sender",
          "type": "address"
        }
      ],
      "name": "RoleGranted",
      "type": "event"
    },
    {
      "anonymous": false,
      "inputs": [
        {
          "indexed": true,
          "internalType": "bytes32",
          "name": "role",
          "type": "bytes32"
        },
        {
          "indexed": true,
          "internalType": "address",
          "name": "account",
          "type": "address"
        },
        {
          "indexed": true,
          "internalType": "address",
          "name": "sender",
          "type": "address"
        }
      ],
      "name": "RoleRevoked",
      "type": "event"
    },
    {
      "anonymous": false,
      "inputs": [
        {
          "indexed": true,
          "internalType": "uint16",
          "name": "_dstChainId",
          "type": "uint16"
        },
        {
          "indexed": true,
          "internalType": "address",
          "name": "_from",
          "type": "address"
        },
        {
          "indexed": true,
          "internalType": "bytes",
          "name": "_toAddress",
          "type": "bytes"
        },
        {
          "indexed": false,
          "internalType": "uint256[]",
          "name": "_tokenIds",
          "type": "uint256[]"
        }
      ],
      "name": "SendToChain",
      "type": "event"
    },
    {
      "anonymous": false,
      "inputs": [
        {
          "indexed": false,
          "internalType": "uint16",
          "name": "_dstChainId",
          "type": "uint16"
        },
        {
          "indexed": false,
          "internalType": "uint256",
          "name": "_dstChainIdToBatchLimit",
          "type": "uint256"
        }
      ],
      "name": "SetDstChainIdToBatchLimit",
      "type": "event"
    },
    {
      "anonymous": false,
      "inputs": [
        {
          "indexed": false,
          "internalType": "uint16",
          "name": "_dstChainId",
          "type": "uint16"
        },
        {
          "indexed": false,
          "internalType": "uint256",
          "name": "_dstChainIdToTransferGas",
          "type": "uint256"
        }
      ],
      "name": "SetDstChainIdToTransferGas",
      "type": "event"
    },
    {
      "anonymous": false,
      "inputs": [
        {
          "indexed": false,
          "internalType": "uint16",
          "name": "_dstChainId",
          "type": "uint16"
        },
        {
          "indexed": false,
          "internalType": "uint16",
          "name": "_type",
          "type": "uint16"
        },
        {
          "indexed": false,
          "internalType": "uint256",
          "name": "_minDstGas",
          "type": "uint256"
        }
      ],
      "name": "SetMinDstGas",
      "type": "event"
    },
    {
      "anonymous": false,
      "inputs": [
        {
          "indexed": false,
          "internalType": "uint256",
          "name": "_minGasToTransferAndStore",
          "type": "uint256"
        }
      ],
      "name": "SetMinGasToTransferAndStore",
      "type": "event"
    },
    {
      "anonymous": false,
      "inputs": [
        {
          "indexed": false,
          "internalType": "address",
          "name": "precrime",
          "type": "address"
        }
      ],
      "name": "SetPrecrime",
      "type": "event"
    },
    {
      "anonymous": false,
      "inputs": [
        {
          "indexed": false,
          "internalType": "uint16",
          "name": "_remoteChainId",
          "type": "uint16"
        },
        {
          "indexed": false,
          "internalType": "bytes",
          "name": "_path",
          "type": "bytes"
        }
      ],
      "name": "SetTrustedRemote",
      "type": "event"
    },
    {
      "anonymous": false,
      "inputs": [
        {
          "indexed": false,
          "internalType": "uint16",
          "name": "_remoteChainId",
          "type": "uint16"
        },
        {
          "indexed": false,
          "internalType": "bytes",
          "name": "_remoteAddress",
          "type": "bytes"
        }
      ],
      "name": "SetTrustedRemoteAddress",
      "type": "event"
    },
    {
      "anonymous": false,
      "inputs": [
        {
          "indexed": true,
          "internalType": "address",
          "name": "from",
          "type": "address"
        },
        {
          "indexed": true,
          "internalType": "address",
          "name": "to",
          "type": "address"
        },
        {
          "indexed": true,
          "internalType": "uint256",
          "name": "tokenId",
          "type": "uint256"
        }
      ],
      "name": "Transfer",
      "type": "event"
    },
    {
      "inputs": [],
      "name": "DEFAULT_ADMIN_ROLE",
      "outputs": [
        {
          "internalType": "bytes32",
          "name": "",
          "type": "bytes32"
        }
      ],
      "stateMutability": "view",
      "type": "function"
    },
    {
      "inputs": [],
      "name": "DEFAULT_PAYLOAD_SIZE_LIMIT",
      "outputs": [
        {
          "internalType": "uint256",
          "name": "",
          "type": "uint256"
        }
      ],
      "stateMutability": "view",
      "type": "function"
    },
    {
      "inputs": [],
      "name": "FUNCTION_TYPE_SEND",
      "outputs": [
        {
          "internalType": "uint16",
          "name": "",
          "type": "uint16"
        }
      ],
      "stateMutability": "view",
      "type": "function"
    },
    {
      "inputs": [],
      "name": "MINTER_ROLE",
      "outputs": [
        {
          "internalType": "bytes32",
          "name": "",
          "type": "bytes32"
        }
      ],
      "stateMutability": "view",
      "type": "function"
    },
    {
      "inputs": [
        {
          "internalType": "address",
          "name": "to",
          "type": "address"
        },
        {
          "internalType": "uint256",
          "name": "tokenId",
          "type": "uint256"
        }
      ],
      "name": "approve",
      "outputs": [],
      "stateMutability": "nonpayable",
      "type": "function"
    },
    {
      "inputs": [
        {
          "internalType": "address",
          "name": "owner",
          "type": "address"
        }
      ],
      "name": "balanceOf",
      "outputs": [
        {
          "internalType": "uint256",
          "name": "",
          "type": "uint256"
        }
      ],
      "stateMutability": "view",
      "type": "function"
    },
    {
      "inputs": [
        {
          "internalType": "uint256",
          "name": "tokenId",
          "type": "uint256"
        }
      ],
      "name": "burn",
      "outputs": [],
      "stateMutability": "nonpayable",
      "type": "function"
    },
    {
      "inputs": [
        {
          "internalType": "bytes",
          "name": "_payload",
          "type": "bytes"
        }
      ],
      "name": "clearCredits",
      "outputs": [],
      "stateMutability": "nonpayable",
      "type": "function"
    },
    {
      "inputs": [
        {
          "internalType": "uint16",
          "name": "",
          "type": "uint16"
        }
      ],
      "name": "dstChainIdToBatchLimit",
      "outputs": [
        {
          "internalType": "uint256",
          "name": "",
          "type": "uint256"
        }
      ],
      "stateMutability": "view",
      "type": "function"
    },
    {
      "inputs": [
        {
          "internalType": "uint16",
          "name": "",
          "type": "uint16"
        }
      ],
      "name": "dstChainIdToTransferGas",
      "outputs": [
        {
          "internalType": "uint256",
          "name": "",
          "type": "uint256"
        }
      ],
      "stateMutability": "view",
      "type": "function"
    },
    {
      "inputs": [
        {
          "internalType": "uint16",
          "name": "_dstChainId",
          "type": "uint16"
        },
        {
          "internalType": "bytes",
          "name": "_toAddress",
          "type": "bytes"
        },
        {
          "internalType": "uint256[]",
          "name": "_tokenIds",
          "type": "uint256[]"
        },
        {
          "internalType": "bool",
          "name": "_useZro",
          "type": "bool"
        },
        {
          "internalType": "bytes",
          "name": "_adapterParams",
          "type": "bytes"
        }
      ],
      "name": "estimateSendBatchFee",
      "outputs": [
        {
          "internalType": "uint256",
          "name": "nativeFee",
          "type": "uint256"
        },
        {
          "internalType": "uint256",
          "name": "zroFee",
          "type": "uint256"
        }
      ],
      "stateMutability": "view",
      "type": "function"
    },
    {
      "inputs": [
        {
          "internalType": "uint16",
          "name": "_dstChainId",
          "type": "uint16"
        },
        {
          "internalType": "bytes",
          "name": "_toAddress",
          "type": "bytes"
        },
        {
          "internalType": "uint256",
          "name": "_tokenId",
          "type": "uint256"
        },
        {
          "internalType": "bool",
          "name": "_useZro",
          "type": "bool"
        },
        {
          "internalType": "bytes",
          "name": "_adapterParams",
          "type": "bytes"
        }
      ],
      "name": "estimateSendFee",
      "outputs": [
        {
          "internalType": "uint256",
          "name": "nativeFee",
          "type": "uint256"
        },
        {
          "internalType": "uint256",
          "name": "zroFee",
          "type": "uint256"
        }
      ],
      "stateMutability": "view",
      "type": "function"
    },
    {
      "inputs": [
        {
          "internalType": "uint16",
          "name": "",
          "type": "uint16"
        },
        {
          "internalType": "bytes",
          "name": "",
          "type": "bytes"
        },
        {
          "internalType": "uint64",
          "name": "",
          "type": "uint64"
        }
      ],
      "name": "failedMessages",
      "outputs": [
        {
          "internalType": "bytes32",
          "name": "",
          "type": "bytes32"
        }
      ],
      "stateMutability": "view",
      "type": "function"
    },
    {
      "inputs": [
        {
          "internalType": "uint16",
          "name": "_srcChainId",
          "type": "uint16"
        },
        {
          "internalType": "bytes",
          "name": "_srcAddress",
          "type": "bytes"
        }
      ],
      "name": "forceResumeReceive",
      "outputs": [],
      "stateMutability": "nonpayable",
      "type": "function"
    },
    {
      "inputs": [
        {
          "internalType": "uint256",
          "name": "tokenId",
          "type": "uint256"
        }
      ],
      "name": "getApproved",
      "outputs": [
        {
          "internalType": "address",
          "name": "",
          "type": "address"
        }
      ],
      "stateMutability": "view",
      "type": "function"
    },
    {
      "inputs": [
        {
          "internalType": "uint16",
          "name": "_version",
          "type": "uint16"
        },
        {
          "internalType": "uint16",
          "name": "_chainId",
          "type": "uint16"
        },
        {
          "internalType": "address",
          "name": "",
          "type": "address"
        },
        {
          "internalType": "uint256",
          "name": "_configType",
          "type": "uint256"
        }
      ],
      "name": "getConfig",
      "outputs": [
        {
          "internalType": "bytes",
          "name": "",
          "type": "bytes"
        }
      ],
      "stateMutability": "view",
      "type": "function"
    },
    {
      "inputs": [
        {
          "internalType": "bytes32",
          "name": "role",
          "type": "bytes32"
        }
      ],
      "name": "getRoleAdmin",
      "outputs": [
        {
          "internalType": "bytes32",
          "name": "",
          "type": "bytes32"
        }
      ],
      "stateMutability": "view",
      "type": "function"
    },
    {
      "inputs": [
        {
          "internalType": "uint16",
          "name": "_remoteChainId",
          "type": "uint16"
        }
      ],
      "name": "getTrustedRemoteAddress",
      "outputs": [
        {
          "internalType": "bytes",
          "name": "",
          "type": "bytes"
        }
      ],
      "stateMutability": "view",
      "type": "function"
    },
    {
      "inputs": [
        {
          "internalType": "bytes32",
          "name": "role",
          "type": "bytes32"
        },
        {
          "internalType": "address",
          "name": "account",
          "type": "address"
        }
      ],
      "name": "grantRole",
      "outputs": [],
      "stateMutability": "nonpayable",
      "type": "function"
    },
    {
      "inputs": [
        {
          "internalType": "bytes32",
          "name": "role",
          "type": "bytes32"
        },
        {
          "internalType": "address",
          "name": "account",
          "type": "address"
        }
      ],
      "name": "hasRole",
      "outputs": [
        {
          "internalType": "bool",
          "name": "",
          "type": "bool"
        }
      ],
      "stateMutability": "view",
      "type": "function"
    },
    {
      "inputs": [
        {
          "internalType": "address",
          "name": "owner",
          "type": "address"
        },
        {
          "internalType": "address",
          "name": "operator",
          "type": "address"
        }
      ],
      "name": "isApprovedForAll",
      "outputs": [
        {
          "internalType": "bool",
          "name": "",
          "type": "bool"
        }
      ],
      "stateMutability": "view",
      "type": "function"
    },
    {
      "inputs": [
        {
          "internalType": "uint16",
          "name": "_srcChainId",
          "type": "uint16"
        },
        {
          "internalType": "bytes",
          "name": "_srcAddress",
          "type": "bytes"
        }
      ],
      "name": "isTrustedRemote",
      "outputs": [
        {
          "internalType": "bool",
          "name": "",
          "type": "bool"
        }
      ],
      "stateMutability": "view",
      "type": "function"
    },
    {
      "inputs": [],
      "name": "lzEndpoint",
      "outputs": [
        {
          "internalType": "contract ILayerZeroEndpoint",
          "name": "",
          "type": "address"
        }
      ],
      "stateMutability": "view",
      "type": "function"
    },
    {
      "inputs": [
        {
          "internalType": "uint16",
          "name": "_srcChainId",
          "type": "uint16"
        },
        {
          "internalType": "bytes",
          "name": "_srcAddress",
          "type": "bytes"
        },
        {
          "internalType": "uint64",
          "name": "_nonce",
          "type": "uint64"
        },
        {
          "internalType": "bytes",
          "name": "_payload",
          "type": "bytes"
        }
      ],
      "name": "lzReceive",
      "outputs": [],
      "stateMutability": "nonpayable",
      "type": "function"
    },
    {
      "inputs": [
        {
          "internalType": "uint16",
          "name": "",
          "type": "uint16"
        },
        {
          "internalType": "uint16",
          "name": "",
          "type": "uint16"
        }
      ],
      "name": "minDstGasLookup",
      "outputs": [
        {
          "internalType": "uint256",
          "name": "",
          "type": "uint256"
        }
      ],
      "stateMutability": "view",
      "type": "function"
    },
    {
      "inputs": [],
      "name": "minGasToTransferAndStore",
      "outputs": [
        {
          "internalType": "uint256",
          "name": "",
          "type": "uint256"
        }
      ],
      "stateMutability": "view",
      "type": "function"
    },
    {
      "inputs": [
        {
          "internalType": "address",
          "name": "to",
          "type": "address"
        },
        {
          "internalType": "uint256",
          "name": "tokenId",
          "type": "uint256"
        }
      ],
      "name": "mint",
      "outputs": [],
      "stateMutability": "nonpayable",
      "type": "function"
    },
    {
      "inputs": [
        {
          "internalType": "address",
          "name": "to",
          "type": "address"
        },
        {
          "internalType": "uint256[]",
          "name": "tokenIds",
          "type": "uint256[]"
        }
      ],
      "name": "mintBatch",
      "outputs": [],
      "stateMutability": "nonpayable",
      "type": "function"
    },
    {
      "inputs": [
        {
          "internalType": "address[]",
          "name": "recipients",
          "type": "address[]"
        },
        {
          "internalType": "uint256[]",
          "name": "tokenIds",
          "type": "uint256[]"
        }
      ],
      "name": "mintMulti",
      "outputs": [],
      "stateMutability": "nonpayable",
      "type": "function"
    },
    {
      "inputs": [],
      "name": "name",
      "outputs": [
        {
          "internalType": "string",
          "name": "",
          "type": "string"
        }
      ],
      "stateMutability": "view",
      "type": "function"
    },
    {
      "inputs": [
        {
          "internalType": "uint16",
          "name": "_srcChainId",
          "type": "uint16"
        },
        {
          "internalType": "bytes",
          "name": "_srcAddress",
          "type": "bytes"
        },
        {
          "internalType": "uint64",
          "name": "_nonce",
          "type": "uint64"
        },
        {
          "internalType": "bytes",
          "name": "_payload",
          "type": "bytes"
        }
      ],
      "name": "nonblockingLzReceive",
      "outputs": [],
      "stateMutability": "nonpayable",
      "type": "function"
    },
    {
      "inputs": [],
      "name": "owner",
      "outputs": [
        {
          "internalType": "address",
          "name": "",
          "type": "address"
        }
      ],
      "stateMutability": "view",
      "type": "function"
    },
    {
      "inputs": [
        {
          "internalType": "uint256",
          "name": "tokenId",
          "type": "uint256"
        }
      ],
      "name": "ownerOf",
      "outputs": [
        {
          "internalType": "address",
          "name": "",
          "type": "address"
        }
      ],
      "stateMutability": "view",
      "type": "function"
    },
    {
      "inputs": [
        {
          "internalType": "uint16",
          "name": "",
          "type": "uint16"
        }
      ],
      "name": "payloadSizeLimitLookup",
      "outputs": [
        {
          "internalType": "uint256",
          "name": "",
          "type": "uint256"
        }
      ],
      "stateMutability": "view",
      "type": "function"
    },
    {
      "inputs": [],
      "name": "precrime",
      "outputs": [
        {
          "internalType": "address",
          "name": "",
          "type": "address"
        }
      ],
      "stateMutability": "view",
      "type": "function"
    },
    {
      "inputs": [],
      "name": "renounceOwnership",
      "outputs": [],
      "stateMutability": "nonpayable",
      "type": "function"
    },
    {
      "inputs": [
        {
          "internalType": "bytes32",
          "name": "role",
          "type": "bytes32"
        },
        {
          "internalType": "address",
          "name": "account",
          "type": "address"
        }
      ],
      "name": "renounceRole",
      "outputs": [],
      "stateMutability": "nonpayable",
      "type": "function"
    },
    {
      "inputs": [
        {
          "internalType": "uint16",
          "name": "_srcChainId",
          "type": "uint16"
        },
        {
          "internalType": "bytes",
          "name": "_srcAddress",
          "type": "bytes"
        },
        {
          "internalType": "uint64",
          "name": "_nonce",
          "type": "uint64"
        },
        {
          "internalType": "bytes",
          "name": "_payload",
          "type": "bytes"
        }
      ],
      "name": "retryMessage",
      "outputs": [],
      "stateMutability": "payable",
      "type": "function"
    },
    {
      "inputs": [
        {
          "internalType": "bytes32",
          "name": "role",
          "type": "bytes32"
        },
        {
          "internalType": "address",
          "name": "account",
          "type": "address"
        }
      ],
      "name": "revokeRole",
      "outputs": [],
      "stateMutability": "nonpayable",
      "type": "function"
    },
    {
      "inputs": [
        {
          "internalType": "uint256",
          "name": "tokenId",
          "type": "uint256"
        },
        {
          "internalType": "uint256",
          "name": "salePrice",
          "type": "uint256"
        }
      ],
      "name": "royaltyInfo",
      "outputs": [
        {
          "internalType": "address",
          "name": "",
          "type": "address"
        },
        {
          "internalType": "uint256",
          "name": "",
          "type": "uint256"
        }
      ],
      "stateMutability": "view",
      "type": "function"
    },
    {
      "inputs": [
        {
          "internalType": "address",
          "name": "from",
          "type": "address"
        },
        {
          "internalType": "address",
          "name": "to",
          "type": "address"
        },
        {
          "internalType": "uint256",
          "name": "tokenId",
          "type": "uint256"
        }
      ],
      "name": "safeTransferFrom",
      "outputs": [],
      "stateMutability": "nonpayable",
      "type": "function"
    },
    {
      "inputs": [
        {
          "internalType": "address",
          "name": "from",
          "type": "address"
        },
        {
          "internalType": "address",
          "name": "to",
          "type": "address"
        },
        {
          "internalType": "uint256",
          "name": "tokenId",
          "type": "uint256"
        },
        {
          "internalType": "bytes",
          "name": "data",
          "type": "bytes"
        }
      ],
      "name": "safeTransferFrom",
      "outputs": [],
      "stateMutability": "nonpayable",
      "type": "function"
    },
    {
      "inputs": [
        {
          "internalType": "address",
          "name": "_from",
          "type": "address"
        },
        {
          "internalType": "uint16",
          "name": "_dstChainId",
          "type": "uint16"
        },
        {
          "internalType": "bytes",
          "name": "_toAddress",
          "type": "bytes"
        },
        {
          "internalType": "uint256[]",
          "name": "_tokenIds",
          "type": "uint256[]"
        },
        {
          "internalType": "address payable",
          "name": "_refundAddress",
          "type": "address"
        },
        {
          "internalType": "address",
          "name": "_zroPaymentAddress",
          "type": "address"
        },
        {
          "internalType": "bytes",
          "name": "_adapterParams",
          "type": "bytes"
        }
      ],
      "name": "sendBatchFrom",
      "outputs": [],
      "stateMutability": "payable",
      "type": "function"
    },
    {
      "inputs": [
        {
          "internalType": "address",
          "name": "_from",
          "type": "address"
        },
        {
          "internalType": "uint16",
          "name": "_dstChainId",
          "type": "uint16"
        },
        {
          "internalType": "bytes",
          "name": "_toAddress",
          "type": "bytes"
        },
        {
          "internalType": "uint256",
          "name": "_tokenId",
          "type": "uint256"
        },
        {
          "internalType": "address payable",
          "name": "_refundAddress",
          "type": "address"
        },
        {
          "internalType": "address",
          "name": "_zroPaymentAddress",
          "type": "address"
        },
        {
          "internalType": "bytes",
          "name": "_adapterParams",
          "type": "bytes"
        }
      ],
      "name": "sendFrom",
      "outputs": [],
      "stateMutability": "payable",
      "type": "function"
    },
    {
      "inputs": [
        {
          "internalType": "address",
          "name": "operator",
          "type": "address"
        },
        {
          "internalType": "bool",
          "name": "approved",
          "type": "bool"
        }
      ],
      "name": "setApprovalForAll",
      "outputs": [],
      "stateMutability": "nonpayable",
      "type": "function"
    },
    {
      "inputs": [
        {
          "internalType": "string",
          "name": "_baseUri",
          "type": "string"
        }
      ],
      "name": "setBaseURI",
      "outputs": [],
      "stateMutability": "nonpayable",
      "type": "function"
    },
    {
      "inputs": [
        {
          "internalType": "uint16",
          "name": "_version",
          "type": "uint16"
        },
        {
          "internalType": "uint16",
          "name": "_chainId",
          "type": "uint16"
        },
        {
          "internalType": "uint256",
          "name": "_configType",
          "type": "uint256"
        },
        {
          "internalType": "bytes",
          "name": "_config",
          "type": "bytes"
        }
      ],
      "name": "setConfig",
      "outputs": [],
      "stateMutability": "nonpayable",
      "type": "function"
    },
    {
      "inputs": [
        {
          "internalType": "uint16",
          "name": "_dstChainId",
          "type": "uint16"
        },
        {
          "internalType": "uint256",
          "name": "_dstChainIdToBatchLimit",
          "type": "uint256"
        }
      ],
      "name": "setDstChainIdToBatchLimit",
      "outputs": [],
      "stateMutability": "nonpayable",
      "type": "function"
    },
    {
      "inputs": [
        {
          "internalType": "uint16",
          "name": "_dstChainId",
          "type": "uint16"
        },
        {
          "internalType": "uint256",
          "name": "_dstChainIdToTransferGas",
          "type": "uint256"
        }
      ],
      "name": "setDstChainIdToTransferGas",
      "outputs": [],
      "stateMutability": "nonpayable",
      "type": "function"
    },
    {
      "inputs": [
        {
          "internalType": "uint16",
          "name": "_dstChainId",
          "type": "uint16"
        },
        {
          "internalType": "uint16",
          "name": "_packetType",
          "type": "uint16"
        },
        {
          "internalType": "uint256",
          "name": "_minGas",
          "type": "uint256"
        }
      ],
      "name": "setMinDstGas",
      "outputs": [],
      "stateMutability": "nonpayable",
      "type": "function"
    },
    {
      "inputs": [
        {
          "internalType": "uint256",
          "name": "_minGasToTransferAndStore",
          "type": "uint256"
        }
      ],
      "name": "setMinGasToTransferAndStore",
      "outputs": [],
      "stateMutability": "nonpayable",
      "type": "function"
    },
    {
      "inputs": [
        {
          "internalType": "uint16",
          "name": "_dstChainId",
          "type": "uint16"
        },
        {
          "internalType": "uint256",
          "name": "_size",
          "type": "uint256"
        }
      ],
      "name": "setPayloadSizeLimit",
      "outputs": [],
      "stateMutability": "nonpayable",
      "type": "function"
    },
    {
      "inputs": [
        {
          "internalType": "address",
          "name": "_precrime",
          "type": "address"
        }
      ],
      "name": "setPrecrime",
      "outputs": [],
      "stateMutability": "nonpayable",
      "type": "function"
    },
    {
      "inputs": [
        {
          "internalType": "uint16",
          "name": "_version",
          "type": "uint16"
        }
      ],
      "name": "setReceiveVersion",
      "outputs": [],
      "stateMutability": "nonpayable",
      "type": "function"
    },
    {
      "inputs": [
        {
          "internalType": "uint16",
          "name": "_version",
          "type": "uint16"
        }
      ],
      "name": "setSendVersion",
      "outputs": [],
      "stateMutability": "nonpayable",
      "type": "function"
    },
    {
      "inputs": [
        {
          "internalType": "uint16",
          "name": "_remoteChainId",
          "type": "uint16"
        },
        {
          "internalType": "bytes",
          "name": "_path",
          "type": "bytes"
        }
      ],
      "name": "setTrustedRemote",
      "outputs": [],
      "stateMutability": "nonpayable",
      "type": "function"
    },
    {
      "inputs": [
        {
          "internalType": "uint16",
          "name": "_remoteChainId",
          "type": "uint16"
        },
        {
          "internalType": "bytes",
          "name": "_remoteAddress",
          "type": "bytes"
        }
      ],
      "name": "setTrustedRemoteAddress",
      "outputs": [],
      "stateMutability": "nonpayable",
      "type": "function"
    },
    {
      "inputs": [
        {
          "internalType": "bytes32",
          "name": "",
          "type": "bytes32"
        }
      ],
      "name": "storedCredits",
      "outputs": [
        {
          "internalType": "uint16",
          "name": "srcChainId",
          "type": "uint16"
        },
        {
          "internalType": "address",
          "name": "toAddress",
          "type": "address"
        },
        {
          "internalType": "uint256",
          "name": "index",
          "type": "uint256"
        },
        {
          "internalType": "bool",
          "name": "creditsRemain",
          "type": "bool"
        }
      ],
      "stateMutability": "view",
      "type": "function"
    },
    {
      "inputs": [
        {
          "internalType": "bytes4",
          "name": "interfaceId",
          "type": "bytes4"
        }
      ],
      "name": "supportsInterface",
      "outputs": [
        {
          "internalType": "bool",
          "name": "",
          "type": "bool"
        }
      ],
      "stateMutability": "view",
      "type": "function"
    },
    {
      "inputs": [],
      "name": "symbol",
      "outputs": [
        {
          "internalType": "string",
          "name": "",
          "type": "string"
        }
      ],
      "stateMutability": "view",
      "type": "function"
    },
    {
      "inputs": [
        {
          "internalType": "uint256",
          "name": "index",
          "type": "uint256"
        }
      ],
      "name": "tokenByIndex",
      "outputs": [
        {
          "internalType": "uint256",
          "name": "",
          "type": "uint256"
        }
      ],
      "stateMutability": "view",
      "type": "function"
    },
    {
      "inputs": [
        {
          "internalType": "address",
          "name": "owner",
          "type": "address"
        },
        {
          "internalType": "uint256",
          "name": "index",
          "type": "uint256"
        }
      ],
      "name": "tokenOfOwnerByIndex",
      "outputs": [
        {
          "internalType": "uint256",
          "name": "",
          "type": "uint256"
        }
      ],
      "stateMutability": "view",
      "type": "function"
    },
    {
      "inputs": [
        {
          "internalType": "uint256",
          "name": "tokenId",
          "type": "uint256"
        }
      ],
      "name": "tokenURI",
      "outputs": [
        {
          "internalType": "string",
          "name": "",
          "type": "string"
        }
      ],
      "stateMutability": "view",
      "type": "function"
    },
    {
      "inputs": [],
      "name": "totalSupply",
      "outputs": [
        {
          "internalType": "uint256",
          "name": "",
          "type": "uint256"
        }
      ],
      "stateMutability": "view",
      "type": "function"
    },
    {
      "inputs": [
        {
          "internalType": "address",
          "name": "from",
          "type": "address"
        },
        {
          "internalType": "address",
          "name": "to",
          "type": "address"
        },
        {
          "internalType": "uint256[]",
          "name": "tokenIds",
          "type": "uint256[]"
        }
      ],
      "name": "transferBatch",
      "outputs": [],
      "stateMutability": "nonpayable",
      "type": "function"
    },
    {
      "inputs": [
        {
          "internalType": "address",
          "name": "from",
          "type": "address"
        },
        {
          "internalType": "address",
          "name": "to",
          "type": "address"
        },
        {
          "internalType": "uint256",
          "name": "tokenId",
          "type": "uint256"
        }
      ],
      "name": "transferFrom",
      "outputs": [],
      "stateMutability": "nonpayable",
      "type": "function"
    },
    {
      "inputs": [
        {
          "internalType": "address",
          "name": "from",
          "type": "address"
        },
        {
          "internalType": "address[]",
          "name": "recipients",
          "type": "address[]"
        },
        {
          "internalType": "uint256[]",
          "name": "tokenIds",
          "type": "uint256[]"
        }
      ],
      "name": "transferMulti",
      "outputs": [],
      "stateMutability": "nonpayable",
      "type": "function"
    },
    {
      "inputs": [
        {
          "internalType": "address",
          "name": "newOwner",
          "type": "address"
        }
      ],
      "name": "transferOwnership",
      "outputs": [],
      "stateMutability": "nonpayable",
      "type": "function"
    },
    {
      "inputs": [
        {
          "internalType": "uint16",
          "name": "",
          "type": "uint16"
        }
      ],
      "name": "trustedRemoteLookup",
      "outputs": [
        {
          "internalType": "bytes",
          "name": "",
          "type": "bytes"
        }
      ],
      "stateMutability": "view",
      "type": "function"
    }
  ],
  "transactionHash": "0x9e3f2a8e9e26332a6b41e8fde8f09ffc67ee85f8cdc061d89d14169f891d872c",
  "args": [
    "Snakes on a chain",
    "SNAKE",
    "https://snake-on-a-chain-euppi.ondigitalocean.app/token/",
    100000,
    "0xae92d5aD7583AD66E49A0c67BAd18F6ba52dDDc1"
  ],
  "numDeployments": 1,
  "solcInputHash": "b947803fd36c4a419e9c0cea5c6782ab",
  "bytecode": "0x60a06040523480156200001157600080fd5b50604051620061c0380380620061c0833981016040819052620000349162000421565b84848383838383838080620000493362000157565b6001600160a01b031660805250600160095581620000ba5760405162461bcd60e51b8152602060048201526024808201527f6d696e476173546f5472616e73666572416e6453746f7265206d7573742062656044820152630203e20360e41b60648201526084015b60405180910390fd5b50600a55600e620000cc83826200056f565b50600f620000db82826200056f565b50505050505050620001006000801b620000fa6200015360201b60201c565b620001a7565b6200012c7f9f2df0fed2c77648de5860a4cc508cd0818c85b8b8a1ab4ceeef8d981c8956a633620001a7565b620001393360c8620001b7565b60186200014784826200056f565b5050505050506200063b565b3390565b600080546001600160a01b038381166001600160a01b0319831681178455604051919092169283917f8be0079c531659141344cd1fd0a4f28419497f9722a3daafe3b4186f6b6457e09190a35050565b620001b38282620002b8565b5050565b6127106001600160601b0382161115620002275760405162461bcd60e51b815260206004820152602a60248201527f455243323938313a20726f79616c7479206665652077696c6c206578636565646044820152692073616c65507269636560b01b6064820152608401620000b1565b6001600160a01b0382166200027f5760405162461bcd60e51b815260206004820152601960248201527f455243323938313a20696e76616c6964207265636569766572000000000000006044820152606401620000b1565b604080518082019091526001600160a01b039092168083526001600160601b039091166020909201829052600160a01b90910217600755565b60008281526006602090815260408083206001600160a01b038516845290915290205460ff16620001b35760008281526006602090815260408083206001600160a01b03851684529091529020805460ff19166001179055620003183390565b6001600160a01b0316816001600160a01b0316837f2f8788117e7eff1d82e926ec794901d17c78024a50270940304540a733656f0d60405160405180910390a45050565b634e487b7160e01b600052604160045260246000fd5b600082601f8301126200038457600080fd5b81516001600160401b0380821115620003a157620003a16200035c565b604051601f8301601f19908116603f01168101908282118183101715620003cc57620003cc6200035c565b81604052838152602092508683858801011115620003e957600080fd5b600091505b838210156200040d5785820183015181830184015290820190620003ee565b600093810190920192909252949350505050565b600080600080600060a086880312156200043a57600080fd5b85516001600160401b03808211156200045257600080fd5b6200046089838a0162000372565b965060208801519150808211156200047757600080fd5b6200048589838a0162000372565b955060408801519150808211156200049c57600080fd5b50620004ab8882890162000372565b60608801516080890151919550935090506001600160a01b0381168114620004d257600080fd5b809150509295509295909350565b600181811c90821680620004f557607f821691505b6020821081036200051657634e487b7160e01b600052602260045260246000fd5b50919050565b601f8211156200056a57600081815260208120601f850160051c81016020861015620005455750805b601f850160051c820191505b81811015620005665782815560010162000551565b5050505b505050565b81516001600160401b038111156200058b576200058b6200035c565b620005a3816200059c8454620004e0565b846200051c565b602080601f831160018114620005db5760008415620005c25750858301515b600019600386901b1c1916600185901b17855562000566565b600085815260208120601f198616915b828110156200060c57888601518255948401946001909101908401620005eb565b50858210156200062b5787850151600019600388901b60f8161c191681555b5050505050600190811b01905550565b608051615b316200068f60003960008181610b6901528181610dcf015281816110c10152818161134501528181611724015281816123b601528181612862015281816129950152613d460152615b316000f3fe6080604052600436106103f95760003560e01c8063715018a611610213578063b353aaa711610123578063d5391393116100ab578063eb8d72b71161007a578063eb8d72b714610d1f578063f235364114610d3f578063f2fde38b14610d5f578063f5ecbdbc14610d7f578063fa25f9b614610d9f57600080fd5b8063d539139314610c74578063d547741f14610c96578063df2a5b3b14610cb6578063e985e9c514610cd657600080fd5b8063c4461834116100f2578063c446183414610beb578063c87b56dd14610c01578063cbed8b9c14610c21578063d12473a514610c41578063d1deba1f14610c6157600080fd5b8063b353aaa714610b57578063b88d4fde14610b8b578063baf3292d14610bab578063c042314514610bcb57600080fd5b806395d89b41116101a6578063a217fddf11610175578063a217fddf14610ac7578063a22cb46514610adc578063a6c3d16514610afc578063ab3ffb9314610b1c578063af3fb21c14610b2f57600080fd5b806395d89b4114610a5257806398d2fb5514610a675780639ea5d6b114610a875780639f38369a14610aa757600080fd5b80638da5cb5b116101e25780638da5cb5b146109d45780638ffa1f2a146109f257806391d1485414610a12578063950c8a7414610a3257600080fd5b8063715018a6146109475780637533d7881461095c57806375ceb3411461097c5780638cfd8f5c1461099c57600080fd5b806336568abe1161030e57806348288190116102a157806355f804b31161027057806355f804b3146108785780635b8c41e6146108985780636352211e146108e757806366ad5c8a1461090757806370a082311461092757600080fd5b806348288190146108025780634ac3f4ff146108185780634f6ccce714610845578063519056361461086557600080fd5b806342842e0e116102dd57806342842e0e1461078257806342966c68146107a257806342d65a8d146107c257806346e4959d146107e257600080fd5b806336568abe146106f55780633d8b38f6146107155780633f1f4fa41461073557806340c10f191461076257600080fd5b806310ddb13711610391578063248a9ca311610360578063248a9ca3146106115780632a205e3d146106415780632a55205a146106765780632f2ff15d146106b55780632f745c59146106d557600080fd5b806310ddb1371461052f57806318160ddd1461054f57806322a3ecf91461056e57806323b872dd146105f157600080fd5b8063081812fc116103cd578063081812fc14610497578063095ea7b3146104cf5780630b4cad4c146104ef5780630df374831461050f57600080fd5b80621d3567146103fe57806301ffc9a71461042057806306fdde031461045557806307e0db1714610477575b600080fd5b34801561040a57600080fd5b5061041e61041936600461461d565b610dcc565b005b34801561042c57600080fd5b5061044061043b3660046146c6565b610ffd565b60405190151581526020015b60405180910390f35b34801561046157600080fd5b5061046a61100e565b60405161044c9190614733565b34801561048357600080fd5b5061041e610492366004614746565b6110a0565b3480156104a357600080fd5b506104b76104b2366004614761565b611129565b6040516001600160a01b03909116815260200161044c565b3480156104db57600080fd5b5061041e6104ea36600461479a565b611150565b3480156104fb57600080fd5b5061041e61050a366004614761565b611265565b34801561051b57600080fd5b5061041e61052a3660046147c6565b611305565b34801561053b57600080fd5b5061041e61054a366004614746565b611324565b34801561055b57600080fd5b506016545b60405190815260200161044c565b34801561057a57600080fd5b506105c2610589366004614761565b600d6020526000908152604090208054600182015460029092015461ffff821692620100009092046001600160a01b0316919060ff1684565b6040805161ffff90951685526001600160a01b039093166020850152918301521515606082015260800161044c565b3480156105fd57600080fd5b5061041e61060c3660046147e2565b61137c565b34801561061d57600080fd5b5061056061062c366004614761565b60009081526006602052604090206001015490565b34801561064d57600080fd5b5061066161065c3660046148fe565b6113ae565b6040805192835260208301919091520161044c565b34801561068257600080fd5b5061069661069136600461498c565b6113d4565b604080516001600160a01b03909316835260208301919091520161044c565b3480156106c157600080fd5b5061041e6106d03660046149ae565b611482565b3480156106e157600080fd5b506105606106f036600461479a565b6114a7565b34801561070157600080fd5b5061041e6107103660046149ae565b61153d565b34801561072157600080fd5b506104406107303660046149de565b6115bb565b34801561074157600080fd5b50610560610750366004614746565b60036020526000908152604090205481565b34801561076e57600080fd5b5061041e61077d36600461479a565b611687565b34801561078e57600080fd5b5061041e61079d3660046147e2565b6116b9565b3480156107ae57600080fd5b5061041e6107bd366004614761565b6116d4565b3480156107ce57600080fd5b5061041e6107dd3660046149de565b611705565b3480156107ee57600080fd5b5061041e6107fd366004614b1d565b61178b565b34801561080e57600080fd5b50610560600a5481565b34801561082457600080fd5b50610560610833366004614746565b600b6020526000908152604090205481565b34801561085157600080fd5b50610560610860366004614761565b61187d565b61041e610873366004614b80565b611910565b34801561088457600080fd5b5061041e610893366004614c39565b611927565b3480156108a457600080fd5b506105606108b3366004614c81565b6005602090815260009384526040808520845180860184018051928152908401958401959095209452929052825290205481565b3480156108f357600080fd5b506104b7610902366004614761565b61193e565b34801561091357600080fd5b5061041e61092236600461461d565b61199e565b34801561093357600080fd5b50610560610942366004614cde565b611a7a565b34801561095357600080fd5b5061041e611b00565b34801561096857600080fd5b5061046a610977366004614746565b611b14565b34801561098857600080fd5b5061041e610997366004614cfb565b611bae565b3480156109a857600080fd5b506105606109b7366004614d40565b600260209081526000928352604080842090915290825290205481565b3480156109e057600080fd5b506000546001600160a01b03166104b7565b3480156109fe57600080fd5b5061041e610a0d366004614d73565b611c53565b348015610a1e57600080fd5b50610440610a2d3660046149ae565b611e9b565b348015610a3e57600080fd5b506004546104b7906001600160a01b031681565b348015610a5e57600080fd5b5061046a611ec6565b348015610a7357600080fd5b5061041e610a82366004614da7565b611ed5565b348015610a9357600080fd5b5061041e610aa23660046147c6565b611faa565b348015610ab357600080fd5b5061046a610ac2366004614746565b612061565b348015610ad357600080fd5b50610560600081565b348015610ae857600080fd5b5061041e610af7366004614e1c565b612177565b348015610b0857600080fd5b5061041e610b173660046149de565b612182565b61041e610b2a366004614e48565b61220b565b348015610b3b57600080fd5b50610b44600181565b60405161ffff909116815260200161044c565b348015610b6357600080fd5b506104b77f000000000000000000000000000000000000000000000000000000000000000081565b348015610b9757600080fd5b5061041e610ba6366004614efd565b61221a565b348015610bb757600080fd5b5061041e610bc6366004614cde565b61224c565b348015610bd757600080fd5b5061041e610be6366004614f68565b6122a2565b348015610bf757600080fd5b5061056061271081565b348015610c0d57600080fd5b5061046a610c1c366004614761565b612330565b348015610c2d57600080fd5b5061041e610c3c366004614fbf565b612397565b348015610c4d57600080fd5b5061041e610c5c3660046147c6565b61242c565b61041e610c6f36600461461d565b6124dc565b348015610c8057600080fd5b50610560600080516020615adc83398151915281565b348015610ca257600080fd5b5061041e610cb13660046149ae565b6126f2565b348015610cc257600080fd5b5061041e610cd136600461502d565b612717565b348015610ce257600080fd5b50610440610cf1366004615069565b6001600160a01b03918216600090815260136020908152604080832093909416825291909152205460ff1690565b348015610d2b57600080fd5b5061041e610d3a3660046149de565b6127c9565b348015610d4b57600080fd5b50610661610d5a366004615097565b612823565b348015610d6b57600080fd5b5061041e610d7a366004614cde565b6128ee565b348015610d8b57600080fd5b5061046a610d9a366004615110565b612964565b348015610dab57600080fd5b50610560610dba366004614746565b600c6020526000908152604090205481565b337f00000000000000000000000000000000000000000000000000000000000000006001600160a01b031614610e495760405162461bcd60e51b815260206004820152601e60248201527f4c7a4170703a20696e76616c696420656e64706f696e742063616c6c6572000060448201526064015b60405180910390fd5b61ffff861660009081526001602052604081208054610e679061515d565b80601f0160208091040260200160405190810160405280929190818152602001828054610e939061515d565b8015610ee05780601f10610eb557610100808354040283529160200191610ee0565b820191906000526020600020905b815481529060010190602001808311610ec357829003601f168201915b50505050509050805186869050148015610efb575060008151115b8015610f23575080516020820120604051610f199088908890615197565b6040518091039020145b610f7e5760405162461bcd60e51b815260206004820152602660248201527f4c7a4170703a20696e76616c696420736f757263652073656e64696e6720636f6044820152651b9d1c9858dd60d21b6064820152608401610e40565b610ff48787878080601f01602080910402602001604051908101604052809392919081815260200183838082843760009201919091525050604080516020601f8a018190048102820181019092528881528a935091508890889081908401838280828437600092019190915250612a1792505050565b50505050505050565b600061100882612a90565b92915050565b6060600e805461101d9061515d565b80601f01602080910402602001604051908101604052809291908181526020018280546110499061515d565b80156110965780601f1061106b57610100808354040283529160200191611096565b820191906000526020600020905b81548152906001019060200180831161107957829003601f168201915b5050505050905090565b6110a8612aad565b6040516307e0db1760e01b815261ffff821660048201527f00000000000000000000000000000000000000000000000000000000000000006001600160a01b0316906307e0db17906024015b600060405180830381600087803b15801561110e57600080fd5b505af1158015611122573d6000803e3d6000fd5b5050505050565b600061113482612b07565b506000908152601260205260409020546001600160a01b031690565b600061115b8261193e565b9050806001600160a01b0316836001600160a01b0316036111c85760405162461bcd60e51b815260206004820152602160248201527f4552433732313a20617070726f76616c20746f2063757272656e74206f776e656044820152603960f91b6064820152608401610e40565b336001600160a01b03821614806111e457506111e48133610cf1565b6112565760405162461bcd60e51b815260206004820152603d60248201527f4552433732313a20617070726f76652063616c6c6572206973206e6f7420746f60448201527f6b656e206f776e6572206f7220617070726f76656420666f7220616c6c0000006064820152608401610e40565b6112608383612b57565b505050565b61126d612aad565b600081116112c95760405162461bcd60e51b8152602060048201526024808201527f6d696e476173546f5472616e73666572416e6453746f7265206d7573742062656044820152630203e20360e41b6064820152608401610e40565b600a8190556040518181527ffebbc4f8bb9ec2313950c718d43123124b15778efda4c1f1d529de2995b4f34d906020015b60405180910390a150565b61130d612aad565b61ffff909116600090815260036020526040902055565b61132c612aad565b6040516310ddb13760e01b815261ffff821660048201527f00000000000000000000000000000000000000000000000000000000000000006001600160a01b0316906310ddb137906024016110f4565b611387335b82612bc5565b6113a35760405162461bcd60e51b8152600401610e40906151a7565b611260838383612c43565b6000806113c687876113bf88612db4565b8787612823565b915091509550959350505050565b60008281526008602090815260408083208151808301909252546001600160a01b038116808352600160a01b9091046001600160601b03169282019290925282916114495750604080518082019091526007546001600160a01b0381168252600160a01b90046001600160601b031660208201525b602081015160009061271090611468906001600160601b03168761520a565b6114729190615221565b91519350909150505b9250929050565b60008281526006602052604090206001015461149d81612dff565b6112608383612e09565b60006114b283611a7a565b82106115145760405162461bcd60e51b815260206004820152602b60248201527f455243373231456e756d657261626c653a206f776e657220696e646578206f7560448201526a74206f6620626f756e647360a81b6064820152608401610e40565b506001600160a01b03919091166000908152601460209081526040808320938352929052205490565b6001600160a01b03811633146115ad5760405162461bcd60e51b815260206004820152602f60248201527f416363657373436f6e74726f6c3a2063616e206f6e6c792072656e6f756e636560448201526e103937b632b9903337b91039b2b63360891b6064820152608401610e40565b6115b78282612e8f565b5050565b61ffff8316600090815260016020526040812080548291906115dc9061515d565b80601f01602080910402602001604051908101604052809291908181526020018280546116089061515d565b80156116555780601f1061162a57610100808354040283529160200191611655565b820191906000526020600020905b81548152906001019060200180831161163857829003601f168201915b50505050509050838360405161166c929190615197565b60405180910390208180519060200120149150509392505050565b600080516020615adc83398151915261169f81612dff565b611260838360405180602001604052806000815250612ef6565b6112608383836040518060200160405280600081525061221a565b6116dd33611381565b6116f95760405162461bcd60e51b8152600401610e40906151a7565b61170281612f29565b50565b61170d612aad565b6040516342d65a8d60e01b81526001600160a01b037f000000000000000000000000000000000000000000000000000000000000000016906342d65a8d9061175d9086908690869060040161526c565b600060405180830381600087803b15801561177757600080fd5b505af1158015610ff4573d6000803e3d6000fd5b600080516020615adc8339815191526117a381612dff565b600083511180156117b5575081518351145b6118015760405162461bcd60e51b815260206004820152601d60248201527f4552433732313a20696e707574206c656e677468206d69736d617463680000006044820152606401610e40565b60005b82518161ffff16101561187757611865848261ffff168151811061182a5761182a61528a565b6020026020010151848361ffff16815181106118485761184861528a565b602002602001015160405180602001604052806000815250612ef6565b8061186f816152a0565b915050611804565b50505050565b600061188860165490565b82106118eb5760405162461bcd60e51b815260206004820152602c60248201527f455243373231456e756d657261626c653a20676c6f62616c20696e646578206f60448201526b7574206f6620626f756e647360a01b6064820152608401610e40565b601682815481106118fe576118fe61528a565b90600052602060002001549050919050565b610ff487878761191f88612db4565b878787612f32565b600061193281612dff565b60186112608382615307565b6000818152601060205260408120546001600160a01b0316806110085760405162461bcd60e51b8152602060048201526018602482015277115490cdcc8c4e881a5b9d985b1a59081d1bdad95b88125160421b6044820152606401610e40565b3330146119fc5760405162461bcd60e51b815260206004820152602660248201527f4e6f6e626c6f636b696e674c7a4170703a2063616c6c6572206d7573742062656044820152650204c7a4170760d41b6064820152608401610e40565b611a728686868080601f01602080910402602001604051908101604052809392919081815260200183838082843760009201919091525050604080516020601f89018190048102820181019092528781528993509150879087908190840183828082843760009201919091525061310692505050565b505050505050565b60006001600160a01b038216611ae45760405162461bcd60e51b815260206004820152602960248201527f4552433732313a2061646472657373207a65726f206973206e6f7420612076616044820152683634b21037bbb732b960b91b6064820152608401610e40565b506001600160a01b031660009081526011602052604090205490565b611b08612aad565b611b12600061325d565b565b60016020526000908152604090208054611b2d9061515d565b80601f0160208091040260200160405190810160405280929190818152602001828054611b599061515d565b8015611ba65780601f10611b7b57610100808354040283529160200191611ba6565b820191906000526020600020905b815481529060010190602001808311611b8957829003601f168201915b505050505081565b600080516020615adc833981519152611bc681612dff565b6000825111611c175760405162461bcd60e51b815260206004820152601f60248201527f4552433732313a20746f6b656e4964732063616e277420626520656d707479006044820152606401610e40565b60005b82518161ffff16101561187757611c4184848361ffff16815181106118485761184861528a565b80611c4b816152a0565b915050611c1a565b611c5b6132ad565b80516020808301919091206000818152600d90925260409091206002015460ff16611cbc5760405162461bcd60e51b81526020600482015260116024820152701b9bc818dc99591a5d1cc81cdd1bdc9959607a1b6044820152606401610e40565b600082806020019051810190611cd2919061540b565b6000848152600d602052604081208054600190910154929450909250611d0e9161ffff8216916201000090046001600160a01b03169085613306565b6000848152600d60205260409020600101549091508111611d835760405162461bcd60e51b815260206004820152602960248201527f6e6f7420656e6f7567682067617320746f2070726f6365737320637265646974604482015268103a3930b739b332b960b91b6064820152608401610e40565b81518103611dfa576000838152600d602052604080822080546001600160b01b031916815560018101929092556002909101805460ff19169055517fd7be02b8dd0d27bd0517a9cb4d7469ce27df4313821ae5ec1ff69acc594ba23390611ded9085815260200190565b60405180910390a1611e8e565b604080516080810182526000858152600d6020818152848320805461ffff80821687526001600160a01b03620100008084048216868a019081529989018b8152600160608b01818152998f90529790965297519851169096026001600160b01b03199091169690951695909517939093178455915191830191909155516002909101805491151560ff199092169190911790555b5050506117026001600955565b60009182526006602090815260408084206001600160a01b0393909316845291905290205460ff1690565b6060600f805461101d9061515d565b60008251118015611ee7575080518251145b611f335760405162461bcd60e51b815260206004820152601d60248201527f4552433732313a20696e707574206c656e677468206d69736d617463680000006044820152606401610e40565b60005b81518161ffff16101561187757611f9884848361ffff1681518110611f5d57611f5d61528a565b6020026020010151848461ffff1681518110611f7b57611f7b61528a565b60200260200101516040518060200160405280600081525061221a565b80611fa2816152a0565b915050611f36565b611fb2612aad565b6000811161200d5760405162461bcd60e51b815260206004820152602260248201527f647374436861696e4964546f42617463684c696d6974206d757374206265203e604482015261020360f41b6064820152608401610e40565b61ffff82166000818152600b6020908152604091829020849055815192835282018390527f7315f7654d594ead24a30160ed9ba2d23247f543016b918343591e93d7afdb6d91015b60405180910390a15050565b61ffff81166000908152600160205260408120805460609291906120849061515d565b80601f01602080910402602001604051908101604052809291908181526020018280546120b09061515d565b80156120fd5780601f106120d2576101008083540402835291602001916120fd565b820191906000526020600020905b8154815290600101906020018083116120e057829003601f168201915b5050505050905080516000036121555760405162461bcd60e51b815260206004820152601d60248201527f4c7a4170703a206e6f20747275737465642070617468207265636f72640000006044820152606401610e40565b61217060006014835161216891906154c5565b839190613352565b9392505050565b6115b733838361345f565b61218a612aad565b81813060405160200161219f939291906154d8565b60408051601f1981840301815291815261ffff85166000908152600160205220906121ca9082615307565b507f8c0400cfe2d1199b1a725c78960bcc2a344d869b80590d0f2bd005db15a572ce8383836040516121fe9392919061526c565b60405180910390a1505050565b610ff487878787878787612f32565b6122243383612bc5565b6122405760405162461bcd60e51b8152600401610e40906151a7565b6118778484848461352d565b612254612aad565b600480546001600160a01b0319166001600160a01b0383169081179091556040519081527f5db758e995a17ec1ad84bdef7e8c3293a0bd6179bcce400dff5d4c3d87db726b906020016112fa565b60008151116122f35760405162461bcd60e51b815260206004820152601f60248201527f4552433732313a20746f6b656e4964732063616e277420626520656d707479006044820152606401610e40565b60005b81518161ffff1610156118775761231e8484848461ffff1681518110611f7b57611f7b61528a565b80612328816152a0565b9150506122f6565b606061233b82612b07565b60006018805461234a9061515d565b9050116123665760405180602001604052806000815250611008565b601861237183613560565b6040516020016123829291906154fe565b60405160208183030381529060405292915050565b61239f612aad565b6040516332fb62e760e21b81526001600160a01b037f0000000000000000000000000000000000000000000000000000000000000000169063cbed8b9c906123f39088908890889088908890600401615595565b600060405180830381600087803b15801561240d57600080fd5b505af1158015612421573d6000803e3d6000fd5b505050505050505050565b612434612aad565b600081116124905760405162461bcd60e51b815260206004820152602360248201527f647374436861696e4964546f5472616e73666572476173206d7573742062652060448201526203e20360ec1b6064820152608401610e40565b61ffff82166000818152600c6020908152604091829020849055815192835282018390527fc46df2983228ac2d9754e94a0d565e6671665dc8ad38602bc8e544f0685a29fb9101612055565b61ffff861660009081526005602052604080822090516124ff9088908890615197565b90815260408051602092819003830190206001600160401b0387166000908152925290205490508061257f5760405162461bcd60e51b815260206004820152602360248201527f4e6f6e626c6f636b696e674c7a4170703a206e6f2073746f726564206d65737360448201526261676560e81b6064820152608401610e40565b808383604051612590929190615197565b6040518091039020146125ef5760405162461bcd60e51b815260206004820152602160248201527f4e6f6e626c6f636b696e674c7a4170703a20696e76616c6964207061796c6f616044820152601960fa1b6064820152608401610e40565b61ffff871660009081526005602052604080822090516126129089908990615197565b90815260408051602092819003830181206001600160401b038916600090815290845282902093909355601f880182900482028301820190528682526126aa918991899089908190840183828082843760009201919091525050604080516020601f8a018190048102820181019092528881528a93509150889088908190840183828082843760009201919091525061310692505050565b7fc264d91f3adc5588250e1551f547752ca0cfa8f6b530d243b9f9f4cab10ea8e587878787856040516126e19594939291906155ce565b60405180910390a150505050505050565b60008281526006602052604090206001015461270d81612dff565b6112608383612e8f565b61271f612aad565b600081116127675760405162461bcd60e51b81526020600482015260156024820152744c7a4170703a20696e76616c6964206d696e47617360581b6044820152606401610e40565b61ffff83811660008181526002602090815260408083209487168084529482529182902085905581519283528201929092529081018290527f9d5c7c0b934da8fefa9c7760c98383778a12dfbfc0c3b3106518f43fb9508ac0906060016121fe565b6127d1612aad565b61ffff831660009081526001602052604090206127ef828483615609565b507ffa41487ad5d6728f0b19276fa1eddc16558578f5109fc39d2dc33c3230470dab8383836040516121fe9392919061526c565b6000806000868660405160200161283b929190615703565b60408051601f198184030181529082905263040a7bb160e41b825291506001600160a01b037f000000000000000000000000000000000000000000000000000000000000000016906340a7bb109061289f908b90309086908b908b90600401615731565b6040805180830381865afa1580156128bb573d6000803e3d6000fd5b505050506040513d601f19601f820116820180604052508101906128df9190615785565b92509250509550959350505050565b6128f6612aad565b6001600160a01b03811661295b5760405162461bcd60e51b815260206004820152602660248201527f4f776e61626c653a206e6577206f776e657220697320746865207a65726f206160448201526564647265737360d01b6064820152608401610e40565b6117028161325d565b604051633d7b2f6f60e21b815261ffff808616600483015284166024820152306044820152606481018290526060907f00000000000000000000000000000000000000000000000000000000000000006001600160a01b03169063f5ecbdbc90608401600060405180830381865afa1580156129e4573d6000803e3d6000fd5b505050506040513d6000823e601f3d908101601f19168201604052612a0c91908101906157a9565b90505b949350505050565b600080612a7a5a60966366ad5c8a60e01b89898989604051602401612a3f94939291906157dd565b60408051601f198184030181529190526020810180516001600160e01b03166001600160e01b031990931692909217909152309291906135f2565b9150915081611a7257611a72868686868561367c565b60006001600160e01b031982161580611008575061100882613719565b6000546001600160a01b03163314611b125760405162461bcd60e51b815260206004820181905260248201527f4f776e61626c653a2063616c6c6572206973206e6f7420746865206f776e65726044820152606401610e40565b612b108161373e565b6117025760405162461bcd60e51b8152602060048201526018602482015277115490cdcc8c4e881a5b9d985b1a59081d1bdad95b88125160421b6044820152606401610e40565b600081815260126020526040902080546001600160a01b0319166001600160a01b0384169081179091558190612b8c8261193e565b6001600160a01b03167f8c5be1e5ebec7d5bd14f71427d1e84f3dd0314c0f7b2291e5b200ac8c7c3b92560405160405180910390a45050565b600080612bd18361193e565b9050806001600160a01b0316846001600160a01b03161480612c1857506001600160a01b0380821660009081526013602090815260408083209388168352929052205460ff165b80612a0f5750836001600160a01b0316612c3184611129565b6001600160a01b031614949350505050565b826001600160a01b0316612c568261193e565b6001600160a01b031614612c7c5760405162461bcd60e51b8152600401610e409061581b565b6001600160a01b038216612cde5760405162461bcd60e51b8152602060048201526024808201527f4552433732313a207472616e7366657220746f20746865207a65726f206164646044820152637265737360e01b6064820152608401610e40565b612ceb838383600161375b565b826001600160a01b0316612cfe8261193e565b6001600160a01b031614612d245760405162461bcd60e51b8152600401610e409061581b565b600081815260126020908152604080832080546001600160a01b03199081169091556001600160a01b0387811680865260118552838620805460001901905590871680865283862080546001019055868652601090945282852080549092168417909155905184937fddf252ad1be2c89b69c2b068fc378daa952ba7f163c4a11628f55a4df523b3ef91a4505050565b60408051600180825281830190925260609160009190602080830190803683370190505090508281600081518110612dee57612dee61528a565b602090810291909101015292915050565b6117028133613767565b612e138282611e9b565b6115b75760008281526006602090815260408083206001600160a01b03851684529091529020805460ff19166001179055612e4b3390565b6001600160a01b0316816001600160a01b0316837f2f8788117e7eff1d82e926ec794901d17c78024a50270940304540a733656f0d60405160405180910390a45050565b612e998282611e9b565b156115b75760008281526006602090815260408083206001600160a01b0385168085529252808320805460ff1916905551339285917ff6391f5c32d9c69d2a47ea670b442974b53935d1edc7fd64eb21e047a839171b9190a45050565b612f0083836137c0565b612f0d600084848461393b565b6112605760405162461bcd60e51b8152600401610e4090615860565b61170281613a39565b6000845111612f795760405162461bcd60e51b8152602060048201526013602482015272746f6b656e4964735b5d20697320656d70747960681b6044820152606401610e40565b835160011480612f9d575061ffff86166000908152600b6020526040902054845111155b612ff45760405162461bcd60e51b815260206004820152602260248201527f62617463682073697a65206578636565647320647374206261746368206c696d6044820152611a5d60f21b6064820152608401610e40565b60005b8451811015613037576130258888888885815181106130185761301861528a565b6020026020010151613a53565b8061302f816158b2565b915050612ff7565b506000858560405160200161304d929190615703565b6040516020818303038152906040529050613092876001848851600c60008d61ffff1661ffff1681526020019081526020016000205461308d919061520a565b613b3e565b6130a0878286868634613c1d565b856040516130ae91906158cb565b6040518091039020886001600160a01b03168861ffff167fe1b87c47fdeb4f9cbadbca9df3af7aba453bb6e501075d0440d88125b711522a886040516130f491906158e7565b60405180910390a45050505050505050565b6000808280602001905181019061311d919061540b565b60148201519193509150600061313588838386613306565b905082518110156132095784516020808701919091206040805160808101825261ffff808d1682526001600160a01b038088168387019081528385018881526001606086018181526000898152600d909a529887902095518654935190941662010000026001600160b01b03199093169390941692909217178355519082015592516002909301805493151560ff199094169390931790925590517f10e0b70d256bccc84b7027506978bd8b68984a870788b93b479def144c839ad7906131ff90839089906158fa565b60405180910390a1505b816001600160a01b03168760405161322191906158cb565b60405180910390208961ffff167f5b821db8a46f8ecbe1941ba2f51cfeea9643268b56631f70d45e2a745d990265866040516130f491906158e7565b600080546001600160a01b038381166001600160a01b0319831681178455604051919092169283917f8be0079c531659141344cd1fd0a4f28419497f9722a3daafe3b4186f6b6457e09190a35050565b6002600954036132ff5760405162461bcd60e51b815260206004820152601f60248201527f5265656e7472616e637947756172643a207265656e7472616e742063616c6c006044820152606401610e40565b6002600955565b6000825b8251811015612a0c57600a545a10612a0c5761334086868584815181106133335761333361528a565b6020026020010151613dc2565b8061334a816158b2565b91505061330a565b60608161336081601f615913565b101561339f5760405162461bcd60e51b815260206004820152600e60248201526d736c6963655f6f766572666c6f7760901b6044820152606401610e40565b6133a98284615913565b845110156133ed5760405162461bcd60e51b8152602060048201526011602482015270736c6963655f6f75744f66426f756e647360781b6044820152606401610e40565b60608215801561340c5760405191506000825260208201604052613456565b6040519150601f8416801560200281840101858101878315602002848b0101015b8183101561344557805183526020928301920161342d565b5050858452601f01601f1916604052505b50949350505050565b816001600160a01b0316836001600160a01b0316036134c05760405162461bcd60e51b815260206004820152601960248201527f4552433732313a20617070726f766520746f2063616c6c6572000000000000006044820152606401610e40565b6001600160a01b03838116600081815260136020908152604080832094871680845294825291829020805460ff191686151590811790915591519182527f17307eab39ab6107e8899845ad3d59bd9653f200f220920489ca2b5937696c31910160405180910390a3505050565b613538848484612c43565b6135448484848461393b565b6118775760405162461bcd60e51b8152600401610e4090615860565b6060600061356d83613e22565b60010190506000816001600160401b0381111561358c5761358c614823565b6040519080825280601f01601f1916602001820160405280156135b6576020820181803683370190505b5090508181016020015b600019016f181899199a1a9b1b9c1cb0b131b232b360811b600a86061a8153600a85049450846135c057509392505050565b6000606060008060008661ffff166001600160401b0381111561361757613617614823565b6040519080825280601f01601f191660200182016040528015613641576020820181803683370190505b50905060008087516020890160008d8df191503d925086831115613663578692505b828152826000602083013e909890975095505050505050565b8180519060200120600560008761ffff1661ffff168152602001908152602001600020856040516136ad91906158cb565b9081526040805191829003602090810183206001600160401b0388166000908152915220919091557fe183f33de2837795525b4792ca4cd60535bd77c53b7e7030060bfcf5734d6b0c9061370a9087908790879087908790615926565b60405180910390a15050505050565b60006001600160e01b0319821663780e9d6360e01b1480611008575061100882613efa565b6000908152601060205260409020546001600160a01b0316151590565b61187784848484613f05565b6137718282611e9b565b6115b75761377e81614032565b613789836020614044565b60405160200161379a929190615978565b60408051601f198184030181529082905262461bcd60e51b8252610e4091600401614733565b6001600160a01b0382166138165760405162461bcd60e51b815260206004820181905260248201527f4552433732313a206d696e7420746f20746865207a65726f20616464726573736044820152606401610e40565b61381f8161373e565b1561386c5760405162461bcd60e51b815260206004820152601c60248201527f4552433732313a20746f6b656e20616c7265616479206d696e746564000000006044820152606401610e40565b61387a60008383600161375b565b6138838161373e565b156138d05760405162461bcd60e51b815260206004820152601c60248201527f4552433732313a20746f6b656e20616c7265616479206d696e746564000000006044820152606401610e40565b6001600160a01b038216600081815260116020908152604080832080546001019055848352601090915280822080546001600160a01b0319168417905551839291907fddf252ad1be2c89b69c2b068fc378daa952ba7f163c4a11628f55a4df523b3ef908290a45050565b60006001600160a01b0384163b15613a3157604051630a85bd0160e11b81526001600160a01b0385169063150b7a029061397f9033908990889088906004016159ed565b6020604051808303816000875af19250505080156139ba575060408051601f3d908101601f191682019092526139b791810190615a2a565b60015b613a17573d8080156139e8576040519150601f19603f3d011682016040523d82523d6000602084013e6139ed565b606091505b508051600003613a0f5760405162461bcd60e51b8152600401610e4090615860565b805181602001fd5b6001600160e01b031916630a85bd0160e11b149050612a0f565b506001612a0f565b613a42816141df565b600090815260086020526040812055565b613a5c33611381565b613abf5760405162461bcd60e51b815260206004820152602e60248201527f4f4e46543732313a2073656e642063616c6c6572206973206e6f74206f776e6560448201526d1c881b9bdc88185c1c1c9bdd995960921b6064820152608401610e40565b836001600160a01b0316613ad28261193e565b6001600160a01b031614613b335760405162461bcd60e51b815260206004820152602260248201527f4f4e46543732313a2073656e642066726f6d20696e636f7272656374206f776e60448201526132b960f11b6064820152608401610e40565b611877843083612c43565b6000613b4983614282565b61ffff808716600090815260026020908152604080832093891683529290529081205491925090613b7b908490615913565b905060008111613bcd5760405162461bcd60e51b815260206004820152601a60248201527f4c7a4170703a206d696e4761734c696d6974206e6f74207365740000000000006044820152606401610e40565b80821015611a725760405162461bcd60e51b815260206004820152601b60248201527f4c7a4170703a20676173206c696d697420697320746f6f206c6f7700000000006044820152606401610e40565b61ffff861660009081526001602052604081208054613c3b9061515d565b80601f0160208091040260200160405190810160405280929190818152602001828054613c679061515d565b8015613cb45780601f10613c8957610100808354040283529160200191613cb4565b820191906000526020600020905b815481529060010190602001808311613c9757829003601f168201915b505050505090508051600003613d255760405162461bcd60e51b815260206004820152603060248201527f4c7a4170703a2064657374696e6174696f6e20636861696e206973206e6f742060448201526f61207472757374656420736f7572636560801b6064820152608401610e40565b613d308787516142de565b60405162c5803160e81b81526001600160a01b037f0000000000000000000000000000000000000000000000000000000000000000169063c5803100908490613d87908b9086908c908c908c908c90600401615a47565b6000604051808303818588803b158015613da057600080fd5b505af1158015613db4573d6000803e3d6000fd5b505050505050505050505050565b613dcb8161373e565b1580613df75750613ddb8161373e565b8015613df7575030613dec8261193e565b6001600160a01b0316145b613e0057600080fd5b613e098161373e565b613e1757611260828261434f565b611260308383612c43565b60008072184f03e93ff9f4daa797ed6e38ed64bf6a1f0160401b8310613e615772184f03e93ff9f4daa797ed6e38ed64bf6a1f0160401b830492506040015b6d04ee2d6d415b85acef81000000008310613e8d576d04ee2d6d415b85acef8100000000830492506020015b662386f26fc100008310613eab57662386f26fc10000830492506010015b6305f5e1008310613ec3576305f5e100830492506008015b6127108310613ed757612710830492506004015b60648310613ee9576064830492506002015b600a83106110085760010192915050565b600061100882614369565b6001811115613f745760405162461bcd60e51b815260206004820152603560248201527f455243373231456e756d657261626c653a20636f6e7365637574697665207472604482015274185b9cd9995c9cc81b9bdd081cdd5c1c1bdc9d1959605a1b6064820152608401610e40565b816001600160a01b038516613fd057613fcb81601680546000838152601760205260408120829055600182018355919091527fd833147d7dc355ba459fc788f669e58cfaf9dc25ddcd0702e87d69c7b51242890155565b613ff3565b836001600160a01b0316856001600160a01b031614613ff357613ff385826143a9565b6001600160a01b03841661400f5761400a81614446565b611122565b846001600160a01b0316846001600160a01b0316146111225761112284826144f5565b60606110086001600160a01b03831660145b6060600061405383600261520a565b61405e906002615913565b6001600160401b0381111561407557614075614823565b6040519080825280601f01601f19166020018201604052801561409f576020820181803683370190505b509050600360fc1b816000815181106140ba576140ba61528a565b60200101906001600160f81b031916908160001a905350600f60fb1b816001815181106140e9576140e961528a565b60200101906001600160f81b031916908160001a905350600061410d84600261520a565b614118906001615913565b90505b6001811115614190576f181899199a1a9b1b9c1cb0b131b232b360811b85600f166010811061414c5761414c61528a565b1a60f81b8282815181106141625761416261528a565b60200101906001600160f81b031916908160001a90535060049490941c9361418981615aae565b905061411b565b5083156121705760405162461bcd60e51b815260206004820181905260248201527f537472696e67733a20686578206c656e67746820696e73756666696369656e746044820152606401610e40565b60006141ea8261193e565b90506141fa81600084600161375b565b6142038261193e565b600083815260126020908152604080832080546001600160a01b03199081169091556001600160a01b0385168085526011845282852080546000190190558785526010909352818420805490911690555192935084927fddf252ad1be2c89b69c2b068fc378daa952ba7f163c4a11628f55a4df523b3ef908390a45050565b60006022825110156142d65760405162461bcd60e51b815260206004820152601c60248201527f4c7a4170703a20696e76616c69642061646170746572506172616d73000000006044820152606401610e40565b506022015190565b61ffff8216600090815260036020526040812054908190036142ff57506127105b808211156112605760405162461bcd60e51b815260206004820181905260248201527f4c7a4170703a207061796c6f61642073697a6520697320746f6f206c617267656044820152606401610e40565b6115b7828260405180602001604052806000815250612ef6565b60006001600160e01b031982166380ac58cd60e01b148061439a57506001600160e01b03198216635b5e139f60e01b145b80611008575061100882614539565b600060016143b684611a7a565b6143c091906154c5565b600083815260156020526040902054909150808214614413576001600160a01b03841660009081526014602090815260408083208584528252808320548484528184208190558352601590915290208190555b5060009182526015602090815260408084208490556001600160a01b039094168352601481528383209183525290812055565b601654600090614458906001906154c5565b600083815260176020526040812054601680549394509092849081106144805761448061528a565b9060005260206000200154905080601683815481106144a1576144a161528a565b60009182526020808320909101929092558281526017909152604080822084905585825281205560168054806144d9576144d9615ac5565b6001900381819060005260206000200160009055905550505050565b600061450083611a7a565b6001600160a01b039093166000908152601460209081526040808320868452825280832085905593825260159052919091209190915550565b60006001600160e01b031982166322bac5d960e01b148061100857506110088260006001600160e01b0319821663152a902d60e11b148061100857506110088260006001600160e01b03198216637965db0b60e01b148061100857506301ffc9a760e01b6001600160e01b0319831614611008565b803561ffff811681146145c057600080fd5b919050565b60008083601f8401126145d757600080fd5b5081356001600160401b038111156145ee57600080fd5b60208301915083602082850101111561147b57600080fd5b80356001600160401b03811681146145c057600080fd5b6000806000806000806080878903121561463657600080fd5b61463f876145ae565b955060208701356001600160401b038082111561465b57600080fd5b6146678a838b016145c5565b909750955085915061467b60408a01614606565b9450606089013591508082111561469157600080fd5b5061469e89828a016145c5565b979a9699509497509295939492505050565b6001600160e01b03198116811461170257600080fd5b6000602082840312156146d857600080fd5b8135612170816146b0565b60005b838110156146fe5781810151838201526020016146e6565b50506000910152565b6000815180845261471f8160208601602086016146e3565b601f01601f19169290920160200192915050565b6020815260006121706020830184614707565b60006020828403121561475857600080fd5b612170826145ae565b60006020828403121561477357600080fd5b5035919050565b6001600160a01b038116811461170257600080fd5b80356145c08161477a565b600080604083850312156147ad57600080fd5b82356147b88161477a565b946020939093013593505050565b600080604083850312156147d957600080fd5b6147b8836145ae565b6000806000606084860312156147f757600080fd5b83356148028161477a565b925060208401356148128161477a565b929592945050506040919091013590565b634e487b7160e01b600052604160045260246000fd5b604051601f8201601f191681016001600160401b038111828210171561486157614861614823565b604052919050565b60006001600160401b0382111561488257614882614823565b50601f01601f191660200190565b60006148a361489e84614869565b614839565b90508281528383830111156148b757600080fd5b828260208301376000602084830101529392505050565b600082601f8301126148df57600080fd5b61217083833560208501614890565b803580151581146145c057600080fd5b600080600080600060a0868803121561491657600080fd5b61491f866145ae565b945060208601356001600160401b038082111561493b57600080fd5b61494789838a016148ce565b95506040880135945061495c606089016148ee565b9350608088013591508082111561497257600080fd5b5061497f888289016148ce565b9150509295509295909350565b6000806040838503121561499f57600080fd5b50508035926020909101359150565b600080604083850312156149c157600080fd5b8235915060208301356149d38161477a565b809150509250929050565b6000806000604084860312156149f357600080fd5b6149fc846145ae565b925060208401356001600160401b03811115614a1757600080fd5b614a23868287016145c5565b9497909650939450505050565b60006001600160401b03821115614a4957614a49614823565b5060051b60200190565b600082601f830112614a6457600080fd5b81356020614a7461489e83614a30565b82815260059290921b84018101918181019086841115614a9357600080fd5b8286015b84811015614ab7578035614aaa8161477a565b8352918301918301614a97565b509695505050505050565b600082601f830112614ad357600080fd5b81356020614ae361489e83614a30565b82815260059290921b84018101918181019086841115614b0257600080fd5b8286015b84811015614ab75780358352918301918301614b06565b60008060408385031215614b3057600080fd5b82356001600160401b0380821115614b4757600080fd5b614b5386838701614a53565b93506020850135915080821115614b6957600080fd5b50614b7685828601614ac2565b9150509250929050565b600080600080600080600060e0888a031215614b9b57600080fd5b8735614ba68161477a565b9650614bb4602089016145ae565b955060408801356001600160401b0380821115614bd057600080fd5b614bdc8b838c016148ce565b965060608a0135955060808a01359150614bf58261477a565b90935060a089013590614c078261477a565b90925060c08901359080821115614c1d57600080fd5b50614c2a8a828b016148ce565b91505092959891949750929550565b600060208284031215614c4b57600080fd5b81356001600160401b03811115614c6157600080fd5b8201601f81018413614c7257600080fd5b612a0f84823560208401614890565b600080600060608486031215614c9657600080fd5b614c9f846145ae565b925060208401356001600160401b03811115614cba57600080fd5b614cc6868287016148ce565b925050614cd560408501614606565b90509250925092565b600060208284031215614cf057600080fd5b81356121708161477a565b60008060408385031215614d0e57600080fd5b8235614d198161477a565b915060208301356001600160401b03811115614d3457600080fd5b614b7685828601614ac2565b60008060408385031215614d5357600080fd5b614d5c836145ae565b9150614d6a602084016145ae565b90509250929050565b600060208284031215614d8557600080fd5b81356001600160401b03811115614d9b57600080fd5b612a0f848285016148ce565b600080600060608486031215614dbc57600080fd5b8335614dc78161477a565b925060208401356001600160401b0380821115614de357600080fd5b614def87838801614a53565b93506040860135915080821115614e0557600080fd5b50614e1286828701614ac2565b9150509250925092565b60008060408385031215614e2f57600080fd5b8235614e3a8161477a565b9150614d6a602084016148ee565b600080600080600080600060e0888a031215614e6357600080fd5b8735614e6e8161477a565b9650614e7c602089016145ae565b955060408801356001600160401b0380821115614e9857600080fd5b614ea48b838c016148ce565b965060608a0135915080821115614eba57600080fd5b614ec68b838c01614ac2565b955060808a01359150614ed88261477a565b819450614ee760a08b0161478f565b935060c08a0135915080821115614c1d57600080fd5b60008060008060808587031215614f1357600080fd5b8435614f1e8161477a565b93506020850135614f2e8161477a565b92506040850135915060608501356001600160401b03811115614f5057600080fd5b614f5c878288016148ce565b91505092959194509250565b600080600060608486031215614f7d57600080fd5b8335614f888161477a565b92506020840135614f988161477a565b915060408401356001600160401b03811115614fb357600080fd5b614e1286828701614ac2565b600080600080600060808688031215614fd757600080fd5b614fe0866145ae565b9450614fee602087016145ae565b93506040860135925060608601356001600160401b0381111561501057600080fd5b61501c888289016145c5565b969995985093965092949392505050565b60008060006060848603121561504257600080fd5b61504b846145ae565b9250615059602085016145ae565b9150604084013590509250925092565b6000806040838503121561507c57600080fd5b82356150878161477a565b915060208301356149d38161477a565b600080600080600060a086880312156150af57600080fd5b6150b8866145ae565b945060208601356001600160401b03808211156150d457600080fd5b6150e089838a016148ce565b955060408801359150808211156150f657600080fd5b61510289838a01614ac2565b945061495c606089016148ee565b6000806000806080858703121561512657600080fd5b61512f856145ae565b935061513d602086016145ae565b9250604085013561514d8161477a565b9396929550929360600135925050565b600181811c9082168061517157607f821691505b60208210810361519157634e487b7160e01b600052602260045260246000fd5b50919050565b8183823760009101908152919050565b6020808252602d908201527f4552433732313a2063616c6c6572206973206e6f7420746f6b656e206f776e6560408201526c1c881bdc88185c1c1c9bdd9959609a1b606082015260800190565b634e487b7160e01b600052601160045260246000fd5b8082028115828204841417611008576110086151f4565b60008261523e57634e487b7160e01b600052601260045260246000fd5b500490565b81835281816020850137506000828201602090810191909152601f909101601f19169091010190565b61ffff84168152604060208201526000612a0c604083018486615243565b634e487b7160e01b600052603260045260246000fd5b600061ffff8083168181036152b7576152b76151f4565b6001019392505050565b601f82111561126057600081815260208120601f850160051c810160208610156152e85750805b601f850160051c820191505b81811015611a72578281556001016152f4565b81516001600160401b0381111561532057615320614823565b6153348161532e845461515d565b846152c1565b602080601f83116001811461536957600084156153515750858301515b600019600386901b1c1916600185901b178555611a72565b600085815260208120601f198616915b8281101561539857888601518255948401946001909101908401615379565b50858210156153b65787850151600019600388901b60f8161c191681555b5050505050600190811b01905550565b600082601f8301126153d757600080fd5b81516153e561489e82614869565b8181528460208386010111156153fa57600080fd5b612a0f8260208301602087016146e3565b6000806040838503121561541e57600080fd5b82516001600160401b038082111561543557600080fd5b615441868387016153c6565b935060209150818501518181111561545857600080fd5b85019050601f8101861361546b57600080fd5b805161547961489e82614a30565b81815260059190911b8201830190838101908883111561549857600080fd5b928401925b828410156154b65783518252928401929084019061549d565b80955050505050509250929050565b81810381811115611008576110086151f4565b8284823760609190911b6bffffffffffffffffffffffff19169101908152601401919050565b600080845461550c8161515d565b60018281168015615524576001811461553957615568565b60ff1984168752821515830287019450615568565b8860005260208060002060005b8581101561555f5781548a820152908401908201615546565b50505082870194505b50505050835161557c8183602088016146e3565b64173539b7b760d91b9101908152600501949350505050565b600061ffff8088168352808716602084015250846040830152608060608301526155c3608083018486615243565b979650505050505050565b61ffff861681526080602082015260006155ec608083018688615243565b6001600160401b0394909416604083015250606001529392505050565b6001600160401b0383111561562057615620614823565b6156348361562e835461515d565b836152c1565b6000601f84116001811461566857600085156156505750838201355b600019600387901b1c1916600186901b178355611122565b600083815260209020601f19861690835b828110156156995786850135825560209485019460019092019101615679565b50868210156156b65760001960f88860031b161c19848701351681555b505060018560011b0183555050505050565b600081518084526020808501945080840160005b838110156156f8578151875295820195908201906001016156dc565b509495945050505050565b6040815260006157166040830185614707565b828103602084015261572881856156c8565b95945050505050565b61ffff861681526001600160a01b038516602082015260a06040820181905260009061575f90830186614707565b841515606084015282810360808401526157798185614707565b98975050505050505050565b6000806040838503121561579857600080fd5b505080516020909101519092909150565b6000602082840312156157bb57600080fd5b81516001600160401b038111156157d157600080fd5b612a0f848285016153c6565b61ffff851681526080602082015260006157fa6080830186614707565b6001600160401b038516604084015282810360608401526155c38185614707565b60208082526025908201527f4552433732313a207472616e736665722066726f6d20696e636f72726563742060408201526437bbb732b960d91b606082015260800190565b60208082526032908201527f4552433732313a207472616e7366657220746f206e6f6e20455243373231526560408201527131b2b4bb32b91034b6b83632b6b2b73a32b960711b606082015260800190565b6000600182016158c4576158c46151f4565b5060010190565b600082516158dd8184602087016146e3565b9190910192915050565b60208152600061217060208301846156c8565b828152604060208201526000612a0f6040830184614707565b80820180821115611008576110086151f4565b61ffff8616815260a06020820152600061594360a0830187614707565b6001600160401b038616604084015282810360608401526159648186614707565b905082810360808401526157798185614707565b7f416363657373436f6e74726f6c3a206163636f756e74200000000000000000008152600083516159b08160178501602088016146e3565b7001034b99036b4b9b9b4b733903937b6329607d1b60179184019182015283516159e18160288401602088016146e3565b01602801949350505050565b6001600160a01b0385811682528416602082015260408101839052608060608201819052600090615a2090830184614707565b9695505050505050565b600060208284031215615a3c57600080fd5b8151612170816146b0565b61ffff8716815260c060208201526000615a6460c0830188614707565b8281036040840152615a768188614707565b6001600160a01b0387811660608601528616608085015283810360a08501529050615aa18185614707565b9998505050505050505050565b600081615abd57615abd6151f4565b506000190190565b634e487b7160e01b600052603160045260246000fdfe9f2df0fed2c77648de5860a4cc508cd0818c85b8b8a1ab4ceeef8d981c8956a6a26469706673582212203fae7dbb3c5a11404e6ba42ca842a8500f5ed8b20bbb679f26046065ef6065ed64736f6c63430008120033",
  "devdoc": {
    "events": {
      "Approval(address,address,uint256)": {
        "details": "Emitted when `owner` enables `approved` to manage the `tokenId` token."
      },
      "ApprovalForAll(address,address,bool)": {
        "details": "Emitted when `owner` enables or disables (`approved`) `operator` to manage all of its assets."
      },
      "CreditCleared(bytes32)": {
        "details": "Emitted when `_hashedPayload` has been completely delivered"
      },
      "CreditStored(bytes32,bytes)": {
        "details": "Emitted when `_payload` was received from lz, but not enough gas to deliver all tokenIds"
      },
      "RoleAdminChanged(bytes32,bytes32,bytes32)": {
        "details": "Emitted when `newAdminRole` is set as ``role``'s admin role, replacing `previousAdminRole` `DEFAULT_ADMIN_ROLE` is the starting admin for all roles, despite {RoleAdminChanged} not being emitted signaling this. _Available since v3.1._"
      },
      "RoleGranted(bytes32,address,address)": {
        "details": "Emitted when `account` is granted `role`. `sender` is the account that originated the contract call, an admin role bearer except when using {AccessControl-_setupRole}."
      },
      "RoleRevoked(bytes32,address,address)": {
        "details": "Emitted when `account` is revoked `role`. `sender` is the account that originated the contract call:   - if using `revokeRole`, it is the admin role bearer   - if using `renounceRole`, it is the role bearer (i.e. `account`)"
      },
      "SendToChain(uint16,address,bytes,uint256[])": {
        "details": "Emitted when `_tokenIds[]` are moved from the `_sender` to (`_dstChainId`, `_toAddress`) `_nonce` is the outbound nonce from"
      },
      "Transfer(address,address,uint256)": {
        "details": "Emitted when `tokenId` token is transferred from `from` to `to`."
      }
    },
    "kind": "dev",
    "methods": {
      "approve(address,uint256)": {
        "details": "See {IERC721-approve}."
      },
      "balanceOf(address)": {
        "details": "See {IERC721-balanceOf}."
      },
      "burn(uint256)": {
        "details": "Burns `tokenId`. See {ERC721-_burn}. Requirements: - The caller must own `tokenId` or be an approved operator."
      },
      "estimateSendBatchFee(uint16,bytes,uint256[],bool,bytes)": {
        "details": "estimate send token `_tokenId` to (`_dstChainId`, `_toAddress`) _dstChainId - L0 defined chain id to send tokens too _toAddress - dynamic bytes array which contains the address to whom you are sending tokens to on the dstChain _tokenIds[] - token Ids to transfer _useZro - indicates to use zro to pay L0 fees _adapterParams - flexible bytes array to indicate messaging adapter services in L0"
      },
      "estimateSendFee(uint16,bytes,uint256,bool,bytes)": {
        "details": "estimate send token `_tokenId` to (`_dstChainId`, `_toAddress`) _dstChainId - L0 defined chain id to send tokens too _toAddress - dynamic bytes array which contains the address to whom you are sending tokens to on the dstChain _tokenId - token Id to transfer _useZro - indicates to use zro to pay L0 fees _adapterParams - flexible bytes array to indicate messaging adapter services in L0"
      },
      "getApproved(uint256)": {
        "details": "See {IERC721-getApproved}."
      },
      "getRoleAdmin(bytes32)": {
        "details": "Returns the admin role that controls `role`. See {grantRole} and {revokeRole}. To change a role's admin, use {_setRoleAdmin}."
      },
      "grantRole(bytes32,address)": {
        "details": "Grants `role` to `account`. If `account` had not been already granted `role`, emits a {RoleGranted} event. Requirements: - the caller must have ``role``'s admin role. May emit a {RoleGranted} event."
      },
      "hasRole(bytes32,address)": {
        "details": "Returns `true` if `account` has been granted `role`."
      },
      "isApprovedForAll(address,address)": {
        "details": "See {IERC721-isApprovedForAll}."
      },
      "mint(address,uint256)": {
        "details": "Public minting method, Minter-role only."
      },
      "mintBatch(address,uint256[])": {
        "details": "Batch-Mint (same recipient)."
      },
      "mintMulti(address[],uint256[])": {
        "details": "Multi-recipient minting."
      },
      "name()": {
        "details": "See {IERC721Metadata-name}."
      },
      "owner()": {
        "details": "Returns the address of the current owner."
      },
      "ownerOf(uint256)": {
        "details": "See {IERC721-ownerOf}."
      },
      "renounceOwnership()": {
        "details": "Leaves the contract without owner. It will not be possible to call `onlyOwner` functions. Can only be called by the current owner. NOTE: Renouncing ownership will leave the contract without an owner, thereby disabling any functionality that is only available to the owner."
      },
      "renounceRole(bytes32,address)": {
        "details": "Revokes `role` from the calling account. Roles are often managed via {grantRole} and {revokeRole}: this function's purpose is to provide a mechanism for accounts to lose their privileges if they are compromised (such as when a trusted device is misplaced). If the calling account had been revoked `role`, emits a {RoleRevoked} event. Requirements: - the caller must be `account`. May emit a {RoleRevoked} event."
      },
      "revokeRole(bytes32,address)": {
        "details": "Revokes `role` from `account`. If `account` had been granted `role`, emits a {RoleRevoked} event. Requirements: - the caller must have ``role``'s admin role. May emit a {RoleRevoked} event."
      },
      "royaltyInfo(uint256,uint256)": {
        "details": "Returns how much royalty is owed and to whom, based on a sale price that may be denominated in any unit of exchange. The royalty amount is denominated and should be paid in that same unit of exchange."
      },
      "safeTransferFrom(address,address,uint256)": {
        "details": "See {IERC721-safeTransferFrom}."
      },
      "safeTransferFrom(address,address,uint256,bytes)": {
        "details": "See {IERC721-safeTransferFrom}."
      },
      "sendBatchFrom(address,uint16,bytes,uint256[],address,address,bytes)": {
        "details": "send tokens `_tokenIds[]` to (`_dstChainId`, `_toAddress`) from `_from` `_toAddress` can be any size depending on the `dstChainId`. `_zroPaymentAddress` set to address(0x0) if not paying in ZRO (LayerZero Token) `_adapterParams` is a flexible bytes array to indicate messaging adapter services"
      },
      "sendFrom(address,uint16,bytes,uint256,address,address,bytes)": {
        "details": "send token `_tokenId` to (`_dstChainId`, `_toAddress`) from `_from` `_toAddress` can be any size depending on the `dstChainId`. `_zroPaymentAddress` set to address(0x0) if not paying in ZRO (LayerZero Token) `_adapterParams` is a flexible bytes array to indicate messaging adapter services"
      },
      "setApprovalForAll(address,bool)": {
        "details": "See {IERC721-setApprovalForAll}."
      },
      "setBaseURI(string)": {
        "details": "Set new metadata host."
      },
      "supportsInterface(bytes4)": {
        "details": "See {IERC165-supportsInterface}."
      },
      "symbol()": {
        "details": "See {IERC721Metadata-symbol}."
      },
      "tokenByIndex(uint256)": {
        "details": "See {IERC721Enumerable-tokenByIndex}."
      },
      "tokenOfOwnerByIndex(address,uint256)": {
        "details": "See {IERC721Enumerable-tokenOfOwnerByIndex}."
      },
      "tokenURI(uint256)": {
        "details": "See {IERC721Metadata-tokenURI}. Override uses `baseUri` variable and attaches \".json\" extension to URI."
      },
      "totalSupply()": {
        "details": "See {IERC721Enumerable-totalSupply}."
      },
      "transferBatch(address,address,uint256[])": {
        "details": "Batch-Transfer (same recipient)."
      },
      "transferFrom(address,address,uint256)": {
        "details": "See {IERC721-transferFrom}."
      },
      "transferMulti(address,address[],uint256[])": {
        "details": "Multi-recipient transfer."
      },
      "transferOwnership(address)": {
        "details": "Transfers ownership of the contract to a new account (`newOwner`). Can only be called by the current owner."
      }
    },
    "version": 1
  },
  "userdoc": {
    "kind": "user",
    "methods": {},
    "version": 1
  },
  "storageLayout": {
    "storage": [
      {
        "astId": 4812,
        "contract": "contracts/token/onft/extension/ExtendedONFT721.sol:ExtendedONFT721",
        "label": "_owner",
        "offset": 0,
        "slot": "0",
        "type": "t_address"
      },
      {
        "astId": 21920,
        "contract": "contracts/token/onft/extension/ExtendedONFT721.sol:ExtendedONFT721",
        "label": "trustedRemoteLookup",
        "offset": 0,
        "slot": "1",
        "type": "t_mapping(t_uint16,t_bytes_storage)"
      },
      {
        "astId": 21926,
        "contract": "contracts/token/onft/extension/ExtendedONFT721.sol:ExtendedONFT721",
        "label": "minDstGasLookup",
        "offset": 0,
        "slot": "2",
        "type": "t_mapping(t_uint16,t_mapping(t_uint16,t_uint256))"
      },
      {
        "astId": 21930,
        "contract": "contracts/token/onft/extension/ExtendedONFT721.sol:ExtendedONFT721",
        "label": "payloadSizeLimitLookup",
        "offset": 0,
        "slot": "3",
        "type": "t_mapping(t_uint16,t_uint256)"
      },
      {
        "astId": 21932,
        "contract": "contracts/token/onft/extension/ExtendedONFT721.sol:ExtendedONFT721",
        "label": "precrime",
        "offset": 0,
        "slot": "4",
        "type": "t_address"
      },
      {
        "astId": 22469,
        "contract": "contracts/token/onft/extension/ExtendedONFT721.sol:ExtendedONFT721",
        "label": "failedMessages",
        "offset": 0,
        "slot": "5",
        "type": "t_mapping(t_uint16,t_mapping(t_bytes_memory_ptr,t_mapping(t_uint64,t_bytes32)))"
      },
      {
        "astId": 4440,
        "contract": "contracts/token/onft/extension/ExtendedONFT721.sol:ExtendedONFT721",
        "label": "_roles",
        "offset": 0,
        "slot": "6",
        "type": "t_mapping(t_bytes32,t_struct(RoleData)4435_storage)"
      },
      {
        "astId": 9243,
        "contract": "contracts/token/onft/extension/ExtendedONFT721.sol:ExtendedONFT721",
        "label": "_defaultRoyaltyInfo",
        "offset": 0,
        "slot": "7",
        "type": "t_struct(RoyaltyInfo)9240_storage"
      },
      {
        "astId": 9248,
        "contract": "contracts/token/onft/extension/ExtendedONFT721.sol:ExtendedONFT721",
        "label": "_tokenRoyaltyInfo",
        "offset": 0,
        "slot": "8",
        "type": "t_mapping(t_uint256,t_struct(RoyaltyInfo)9240_storage)"
      },
      {
        "astId": 5055,
        "contract": "contracts/token/onft/extension/ExtendedONFT721.sol:ExtendedONFT721",
        "label": "_status",
        "offset": 0,
        "slot": "9",
        "type": "t_uint256"
      },
      {
        "astId": 32709,
        "contract": "contracts/token/onft/extension/ExtendedONFT721.sol:ExtendedONFT721",
        "label": "minGasToTransferAndStore",
        "offset": 0,
        "slot": "10",
        "type": "t_uint256"
      },
      {
        "astId": 32713,
        "contract": "contracts/token/onft/extension/ExtendedONFT721.sol:ExtendedONFT721",
        "label": "dstChainIdToBatchLimit",
        "offset": 0,
        "slot": "11",
        "type": "t_mapping(t_uint16,t_uint256)"
      },
      {
        "astId": 32717,
        "contract": "contracts/token/onft/extension/ExtendedONFT721.sol:ExtendedONFT721",
        "label": "dstChainIdToTransferGas",
        "offset": 0,
        "slot": "12",
        "type": "t_mapping(t_uint16,t_uint256)"
      },
      {
        "astId": 32722,
        "contract": "contracts/token/onft/extension/ExtendedONFT721.sol:ExtendedONFT721",
        "label": "storedCredits",
        "offset": 0,
        "slot": "13",
        "type": "t_mapping(t_bytes32,t_struct(StoredCredit)32707_storage)"
      },
      {
        "astId": 7703,
        "contract": "contracts/token/onft/extension/ExtendedONFT721.sol:ExtendedONFT721",
        "label": "_name",
        "offset": 0,
        "slot": "14",
        "type": "t_string_storage"
      },
      {
        "astId": 7705,
        "contract": "contracts/token/onft/extension/ExtendedONFT721.sol:ExtendedONFT721",
        "label": "_symbol",
        "offset": 0,
        "slot": "15",
        "type": "t_string_storage"
      },
      {
        "astId": 7709,
        "contract": "contracts/token/onft/extension/ExtendedONFT721.sol:ExtendedONFT721",
        "label": "_owners",
        "offset": 0,
        "slot": "16",
        "type": "t_mapping(t_uint256,t_address)"
      },
      {
        "astId": 7713,
        "contract": "contracts/token/onft/extension/ExtendedONFT721.sol:ExtendedONFT721",
        "label": "_balances",
        "offset": 0,
        "slot": "17",
        "type": "t_mapping(t_address,t_uint256)"
      },
      {
        "astId": 7717,
        "contract": "contracts/token/onft/extension/ExtendedONFT721.sol:ExtendedONFT721",
        "label": "_tokenApprovals",
        "offset": 0,
        "slot": "18",
        "type": "t_mapping(t_uint256,t_address)"
      },
      {
        "astId": 7723,
        "contract": "contracts/token/onft/extension/ExtendedONFT721.sol:ExtendedONFT721",
        "label": "_operatorApprovals",
        "offset": 0,
        "slot": "19",
        "type": "t_mapping(t_address,t_mapping(t_address,t_bool))"
      },
      {
        "astId": 8783,
        "contract": "contracts/token/onft/extension/ExtendedONFT721.sol:ExtendedONFT721",
        "label": "_ownedTokens",
        "offset": 0,
        "slot": "20",
        "type": "t_mapping(t_address,t_mapping(t_uint256,t_uint256))"
      },
      {
        "astId": 8787,
        "contract": "contracts/token/onft/extension/ExtendedONFT721.sol:ExtendedONFT721",
        "label": "_ownedTokensIndex",
        "offset": 0,
        "slot": "21",
        "type": "t_mapping(t_uint256,t_uint256)"
      },
      {
        "astId": 8790,
        "contract": "contracts/token/onft/extension/ExtendedONFT721.sol:ExtendedONFT721",
        "label": "_allTokens",
        "offset": 0,
        "slot": "22",
        "type": "t_array(t_uint256)dyn_storage"
      },
      {
        "astId": 8794,
        "contract": "contracts/token/onft/extension/ExtendedONFT721.sol:ExtendedONFT721",
        "label": "_allTokensIndex",
        "offset": 0,
        "slot": "23",
        "type": "t_mapping(t_uint256,t_uint256)"
      },
      {
        "astId": 34505,
        "contract": "contracts/token/onft/extension/ExtendedONFT721.sol:ExtendedONFT721",
        "label": "baseUri",
        "offset": 0,
        "slot": "24",
        "type": "t_string_storage"
      }
    ],
    "types": {
      "t_address": {
        "encoding": "inplace",
        "label": "address",
        "numberOfBytes": "20"
      },
      "t_array(t_uint256)dyn_storage": {
        "base": "t_uint256",
        "encoding": "dynamic_array",
        "label": "uint256[]",
        "numberOfBytes": "32"
      },
      "t_bool": {
        "encoding": "inplace",
        "label": "bool",
        "numberOfBytes": "1"
      },
      "t_bytes32": {
        "encoding": "inplace",
        "label": "bytes32",
        "numberOfBytes": "32"
      },
      "t_bytes_memory_ptr": {
        "encoding": "bytes",
        "label": "bytes",
        "numberOfBytes": "32"
      },
      "t_bytes_storage": {
        "encoding": "bytes",
        "label": "bytes",
        "numberOfBytes": "32"
      },
      "t_mapping(t_address,t_bool)": {
        "encoding": "mapping",
        "key": "t_address",
        "label": "mapping(address => bool)",
        "numberOfBytes": "32",
        "value": "t_bool"
      },
      "t_mapping(t_address,t_mapping(t_address,t_bool))": {
        "encoding": "mapping",
        "key": "t_address",
        "label": "mapping(address => mapping(address => bool))",
        "numberOfBytes": "32",
        "value": "t_mapping(t_address,t_bool)"
      },
      "t_mapping(t_address,t_mapping(t_uint256,t_uint256))": {
        "encoding": "mapping",
        "key": "t_address",
        "label": "mapping(address => mapping(uint256 => uint256))",
        "numberOfBytes": "32",
        "value": "t_mapping(t_uint256,t_uint256)"
      },
      "t_mapping(t_address,t_uint256)": {
        "encoding": "mapping",
        "key": "t_address",
        "label": "mapping(address => uint256)",
        "numberOfBytes": "32",
        "value": "t_uint256"
      },
      "t_mapping(t_bytes32,t_struct(RoleData)4435_storage)": {
        "encoding": "mapping",
        "key": "t_bytes32",
        "label": "mapping(bytes32 => struct AccessControl.RoleData)",
        "numberOfBytes": "32",
        "value": "t_struct(RoleData)4435_storage"
      },
      "t_mapping(t_bytes32,t_struct(StoredCredit)32707_storage)": {
        "encoding": "mapping",
        "key": "t_bytes32",
        "label": "mapping(bytes32 => struct ONFT721Core.StoredCredit)",
        "numberOfBytes": "32",
        "value": "t_struct(StoredCredit)32707_storage"
      },
      "t_mapping(t_bytes_memory_ptr,t_mapping(t_uint64,t_bytes32))": {
        "encoding": "mapping",
        "key": "t_bytes_memory_ptr",
        "label": "mapping(bytes => mapping(uint64 => bytes32))",
        "numberOfBytes": "32",
        "value": "t_mapping(t_uint64,t_bytes32)"
      },
      "t_mapping(t_uint16,t_bytes_storage)": {
        "encoding": "mapping",
        "key": "t_uint16",
        "label": "mapping(uint16 => bytes)",
        "numberOfBytes": "32",
        "value": "t_bytes_storage"
      },
      "t_mapping(t_uint16,t_mapping(t_bytes_memory_ptr,t_mapping(t_uint64,t_bytes32)))": {
        "encoding": "mapping",
        "key": "t_uint16",
        "label": "mapping(uint16 => mapping(bytes => mapping(uint64 => bytes32)))",
        "numberOfBytes": "32",
        "value": "t_mapping(t_bytes_memory_ptr,t_mapping(t_uint64,t_bytes32))"
      },
      "t_mapping(t_uint16,t_mapping(t_uint16,t_uint256))": {
        "encoding": "mapping",
        "key": "t_uint16",
        "label": "mapping(uint16 => mapping(uint16 => uint256))",
        "numberOfBytes": "32",
        "value": "t_mapping(t_uint16,t_uint256)"
      },
      "t_mapping(t_uint16,t_uint256)": {
        "encoding": "mapping",
        "key": "t_uint16",
        "label": "mapping(uint16 => uint256)",
        "numberOfBytes": "32",
        "value": "t_uint256"
      },
      "t_mapping(t_uint256,t_address)": {
        "encoding": "mapping",
        "key": "t_uint256",
        "label": "mapping(uint256 => address)",
        "numberOfBytes": "32",
        "value": "t_address"
      },
      "t_mapping(t_uint256,t_struct(RoyaltyInfo)9240_storage)": {
        "encoding": "mapping",
        "key": "t_uint256",
        "label": "mapping(uint256 => struct ERC2981.RoyaltyInfo)",
        "numberOfBytes": "32",
        "value": "t_struct(RoyaltyInfo)9240_storage"
      },
      "t_mapping(t_uint256,t_uint256)": {
        "encoding": "mapping",
        "key": "t_uint256",
        "label": "mapping(uint256 => uint256)",
        "numberOfBytes": "32",
        "value": "t_uint256"
      },
      "t_mapping(t_uint64,t_bytes32)": {
        "encoding": "mapping",
        "key": "t_uint64",
        "label": "mapping(uint64 => bytes32)",
        "numberOfBytes": "32",
        "value": "t_bytes32"
      },
      "t_string_storage": {
        "encoding": "bytes",
        "label": "string",
        "numberOfBytes": "32"
      },
      "t_struct(RoleData)4435_storage": {
        "encoding": "inplace",
        "label": "struct AccessControl.RoleData",
        "members": [
          {
            "astId": 4432,
            "contract": "contracts/token/onft/extension/ExtendedONFT721.sol:ExtendedONFT721",
            "label": "members",
            "offset": 0,
            "slot": "0",
            "type": "t_mapping(t_address,t_bool)"
          },
          {
            "astId": 4434,
            "contract": "contracts/token/onft/extension/ExtendedONFT721.sol:ExtendedONFT721",
            "label": "adminRole",
            "offset": 0,
            "slot": "1",
            "type": "t_bytes32"
          }
        ],
        "numberOfBytes": "64"
      },
      "t_struct(RoyaltyInfo)9240_storage": {
        "encoding": "inplace",
        "label": "struct ERC2981.RoyaltyInfo",
        "members": [
          {
            "astId": 9237,
            "contract": "contracts/token/onft/extension/ExtendedONFT721.sol:ExtendedONFT721",
            "label": "receiver",
            "offset": 0,
            "slot": "0",
            "type": "t_address"
          },
          {
            "astId": 9239,
            "contract": "contracts/token/onft/extension/ExtendedONFT721.sol:ExtendedONFT721",
            "label": "royaltyFraction",
            "offset": 20,
            "slot": "0",
            "type": "t_uint96"
          }
        ],
        "numberOfBytes": "32"
      },
      "t_struct(StoredCredit)32707_storage": {
        "encoding": "inplace",
        "label": "struct ONFT721Core.StoredCredit",
        "members": [
          {
            "astId": 32700,
            "contract": "contracts/token/onft/extension/ExtendedONFT721.sol:ExtendedONFT721",
            "label": "srcChainId",
            "offset": 0,
            "slot": "0",
            "type": "t_uint16"
          },
          {
            "astId": 32702,
            "contract": "contracts/token/onft/extension/ExtendedONFT721.sol:ExtendedONFT721",
            "label": "toAddress",
            "offset": 2,
            "slot": "0",
            "type": "t_address"
          },
          {
            "astId": 32704,
            "contract": "contracts/token/onft/extension/ExtendedONFT721.sol:ExtendedONFT721",
            "label": "index",
            "offset": 0,
            "slot": "1",
            "type": "t_uint256"
          },
          {
            "astId": 32706,
            "contract": "contracts/token/onft/extension/ExtendedONFT721.sol:ExtendedONFT721",
            "label": "creditsRemain",
            "offset": 0,
            "slot": "2",
            "type": "t_bool"
          }
        ],
        "numberOfBytes": "96"
      },
      "t_uint16": {
        "encoding": "inplace",
        "label": "uint16",
        "numberOfBytes": "2"
      },
      "t_uint256": {
        "encoding": "inplace",
        "label": "uint256",
        "numberOfBytes": "32"
      },
      "t_uint64": {
        "encoding": "inplace",
        "label": "uint64",
        "numberOfBytes": "8"
      },
      "t_uint96": {
        "encoding": "inplace",
        "label": "uint96",
        "numberOfBytes": "12"
      }
    }
  }
}