{
  "address": "0x3F50A015D0483e86403c6AF86c8d85A875D4E3e9",
  "abi": [
    {
      "anonymous": false,
      "inputs": [
        {
          "indexed": true,
          "internalType": "address",
          "name": "owner",
          "type": "address"
        },
        {
          "indexed": true,
          "internalType": "address",
          "name": "spender",
          "type": "address"
        },
        {
          "indexed": false,
          "internalType": "uint256",
          "name": "value",
          "type": "uint256"
        }
      ],
      "name": "Approval",
      "type": "event"
    },
    {
      "anonymous": false,
      "inputs": [
        {
          "indexed": true,
          "internalType": "uint16",
          "name": "_srcChainId",
          "type": "uint16"
        },
        {
          "indexed": false,
          "internalType": "bytes",
          "name": "_srcAddress",
          "type": "bytes"
        },
        {
          "indexed": false,
          "internalType": "uint64",
          "name": "_nonce",
          "type": "uint64"
        },
        {
          "indexed": false,
          "internalType": "bytes32",
          "name": "_hash",
          "type": "bytes32"
        }
      ],
      "name": "CallOFTReceivedSuccess",
      "type": "event"
    },
    {
      "anonymous": false,
      "inputs": [
        {
          "indexed": true,
          "internalType": "address",
          "name": "_dst",
          "type": "address"
        },
        {
          "indexed": false,
          "internalType": "uint256",
          "name": "_amount",
          "type": "uint256"
        }
      ],
      "name": "Deposit",
      "type": "event"
    },
    {
      "anonymous": false,
      "inputs": [
        {
          "indexed": false,
          "internalType": "uint8",
          "name": "version",
          "type": "uint8"
        }
      ],
      "name": "Initialized",
      "type": "event"
    },
    {
      "anonymous": false,
      "inputs": [
        {
          "indexed": false,
          "internalType": "uint16",
          "name": "_srcChainId",
          "type": "uint16"
        },
        {
          "indexed": false,
          "internalType": "bytes",
          "name": "_srcAddress",
          "type": "bytes"
        },
        {
          "indexed": false,
          "internalType": "uint64",
          "name": "_nonce",
          "type": "uint64"
        },
        {
          "indexed": false,
          "internalType": "bytes",
          "name": "_payload",
          "type": "bytes"
        },
        {
          "indexed": false,
          "internalType": "bytes",
          "name": "_reason",
          "type": "bytes"
        }
      ],
      "name": "MessageFailed",
      "type": "event"
    },
    {
      "anonymous": false,
      "inputs": [
        {
          "indexed": false,
          "internalType": "address",
          "name": "_address",
          "type": "address"
        }
      ],
      "name": "NonContractAddress",
      "type": "event"
    },
    {
      "anonymous": false,
      "inputs": [
        {
          "indexed": true,
          "internalType": "address",
          "name": "previousOwner",
          "type": "address"
        },
        {
          "indexed": true,
          "internalType": "address",
          "name": "newOwner",
          "type": "address"
        }
      ],
      "name": "OwnershipTransferred",
      "type": "event"
    },
    {
      "anonymous": false,
      "inputs": [
        {
          "indexed": true,
          "internalType": "uint16",
          "name": "_srcChainId",
          "type": "uint16"
        },
        {
          "indexed": true,
          "internalType": "address",
          "name": "_to",
          "type": "address"
        },
        {
          "indexed": false,
          "internalType": "uint256",
          "name": "_amount",
          "type": "uint256"
        }
      ],
      "name": "ReceiveFromChain",
      "type": "event"
    },
    {
      "anonymous": false,
      "inputs": [
        {
          "indexed": false,
          "internalType": "uint16",
          "name": "_srcChainId",
          "type": "uint16"
        },
        {
          "indexed": false,
          "internalType": "bytes",
          "name": "_srcAddress",
          "type": "bytes"
        },
        {
          "indexed": false,
          "internalType": "uint64",
          "name": "_nonce",
          "type": "uint64"
        },
        {
          "indexed": false,
          "internalType": "bytes32",
          "name": "_payloadHash",
          "type": "bytes32"
        }
      ],
      "name": "RetryMessageSuccess",
      "type": "event"
    },
    {
      "anonymous": false,
      "inputs": [
        {
          "indexed": true,
          "internalType": "uint16",
          "name": "_dstChainId",
          "type": "uint16"
        },
        {
          "indexed": true,
          "internalType": "address",
          "name": "_from",
          "type": "address"
        },
        {
          "indexed": true,
          "internalType": "bytes32",
          "name": "_toAddress",
          "type": "bytes32"
        },
        {
          "indexed": false,
          "internalType": "uint256",
          "name": "_amount",
          "type": "uint256"
        }
      ],
      "name": "SendToChain",
      "type": "event"
    },
    {
      "anonymous": false,
      "inputs": [
        {
          "indexed": false,
          "internalType": "uint16",
          "name": "feeBp",
          "type": "uint16"
        }
      ],
      "name": "SetDefaultFeeBp",
      "type": "event"
    },
    {
      "anonymous": false,
      "inputs": [
        {
          "indexed": false,
          "internalType": "uint16",
          "name": "dstchainId",
          "type": "uint16"
        },
        {
          "indexed": false,
          "internalType": "bool",
          "name": "enabled",
          "type": "bool"
        },
        {
          "indexed": false,
          "internalType": "uint16",
          "name": "feeBp",
          "type": "uint16"
        }
      ],
      "name": "SetFeeBp",
      "type": "event"
    },
    {
      "anonymous": false,
      "inputs": [
        {
          "indexed": false,
          "internalType": "address",
          "name": "feeOwner",
          "type": "address"
        }
      ],
      "name": "SetFeeOwner",
      "type": "event"
    },
    {
      "anonymous": false,
      "inputs": [
        {
          "indexed": false,
          "internalType": "uint16",
          "name": "_dstChainId",
          "type": "uint16"
        },
        {
          "indexed": false,
          "internalType": "uint16",
          "name": "_type",
          "type": "uint16"
        },
        {
          "indexed": false,
          "internalType": "uint256",
          "name": "_minDstGas",
          "type": "uint256"
        }
      ],
      "name": "SetMinDstGas",
      "type": "event"
    },
    {
      "anonymous": false,
      "inputs": [
        {
          "indexed": false,
          "internalType": "address",
          "name": "precrime",
          "type": "address"
        }
      ],
      "name": "SetPrecrime",
      "type": "event"
    },
    {
      "anonymous": false,
      "inputs": [
        {
          "indexed": false,
          "internalType": "uint16",
          "name": "_remoteChainId",
          "type": "uint16"
        },
        {
          "indexed": false,
          "internalType": "bytes",
          "name": "_path",
          "type": "bytes"
        }
      ],
      "name": "SetTrustedRemote",
      "type": "event"
    },
    {
      "anonymous": false,
      "inputs": [
        {
          "indexed": false,
          "internalType": "uint16",
          "name": "_remoteChainId",
          "type": "uint16"
        },
        {
          "indexed": false,
          "internalType": "bytes",
          "name": "_remoteAddress",
          "type": "bytes"
        }
      ],
      "name": "SetTrustedRemoteAddress",
      "type": "event"
    },
    {
      "anonymous": false,
      "inputs": [
        {
          "indexed": false,
          "internalType": "bool",
          "name": "_useCustomAdapterParams",
          "type": "bool"
        }
      ],
      "name": "SetUseCustomAdapterParams",
      "type": "event"
    },
    {
      "anonymous": false,
      "inputs": [
        {
          "indexed": true,
          "internalType": "address",
          "name": "from",
          "type": "address"
        },
        {
          "indexed": true,
          "internalType": "address",
          "name": "to",
          "type": "address"
        },
        {
          "indexed": false,
          "internalType": "uint256",
          "name": "value",
          "type": "uint256"
        }
      ],
      "name": "Transfer",
      "type": "event"
    },
    {
      "anonymous": false,
      "inputs": [
        {
          "indexed": true,
          "internalType": "address",
          "name": "_src",
          "type": "address"
        },
        {
          "indexed": false,
          "internalType": "uint256",
          "name": "_amount",
          "type": "uint256"
        }
      ],
      "name": "Withdrawal",
      "type": "event"
    },
    {
      "inputs": [],
      "name": "BP_DENOMINATOR",
      "outputs": [
        {
          "internalType": "uint256",
          "name": "",
          "type": "uint256"
        }
      ],
      "stateMutability": "view",
      "type": "function"
    },
    {
      "inputs": [],
      "name": "DEFAULT_PAYLOAD_SIZE_LIMIT",
      "outputs": [
        {
          "internalType": "uint256",
          "name": "",
          "type": "uint256"
        }
      ],
      "stateMutability": "view",
      "type": "function"
    },
    {
      "inputs": [],
      "name": "NO_EXTRA_GAS",
      "outputs": [
        {
          "internalType": "uint256",
          "name": "",
          "type": "uint256"
        }
      ],
      "stateMutability": "view",
      "type": "function"
    },
    {
      "inputs": [],
      "name": "PT_SEND",
      "outputs": [
        {
          "internalType": "uint8",
          "name": "",
          "type": "uint8"
        }
      ],
      "stateMutability": "view",
      "type": "function"
    },
    {
      "inputs": [],
      "name": "PT_SEND_AND_CALL",
      "outputs": [
        {
          "internalType": "uint8",
          "name": "",
          "type": "uint8"
        }
      ],
      "stateMutability": "view",
      "type": "function"
    },
    {
      "inputs": [
        {
          "internalType": "address",
          "name": "owner",
          "type": "address"
        },
        {
          "internalType": "address",
          "name": "spender",
          "type": "address"
        }
      ],
      "name": "allowance",
      "outputs": [
        {
          "internalType": "uint256",
          "name": "",
          "type": "uint256"
        }
      ],
      "stateMutability": "view",
      "type": "function"
    },
    {
      "inputs": [
        {
          "internalType": "address",
          "name": "spender",
          "type": "address"
        },
        {
          "internalType": "uint256",
          "name": "amount",
          "type": "uint256"
        }
      ],
      "name": "approve",
      "outputs": [
        {
          "internalType": "bool",
          "name": "",
          "type": "bool"
        }
      ],
      "stateMutability": "nonpayable",
      "type": "function"
    },
    {
      "inputs": [
        {
          "internalType": "address",
          "name": "account",
          "type": "address"
        }
      ],
      "name": "balanceOf",
      "outputs": [
        {
          "internalType": "uint256",
          "name": "",
          "type": "uint256"
        }
      ],
      "stateMutability": "view",
      "type": "function"
    },
    {
      "inputs": [
        {
          "internalType": "uint16",
          "name": "_srcChainId",
          "type": "uint16"
        },
        {
          "internalType": "bytes",
          "name": "_srcAddress",
          "type": "bytes"
        },
        {
          "internalType": "uint64",
          "name": "_nonce",
          "type": "uint64"
        },
        {
          "internalType": "bytes32",
          "name": "_from",
          "type": "bytes32"
        },
        {
          "internalType": "address",
          "name": "_to",
          "type": "address"
        },
        {
          "internalType": "uint256",
          "name": "_amount",
          "type": "uint256"
        },
        {
          "internalType": "bytes",
          "name": "_payload",
          "type": "bytes"
        },
        {
          "internalType": "uint256",
          "name": "_gasForCall",
          "type": "uint256"
        }
      ],
      "name": "callOnOFTReceived",
      "outputs": [],
      "stateMutability": "nonpayable",
      "type": "function"
    },
    {
      "inputs": [
        {
          "internalType": "uint16",
          "name": "",
          "type": "uint16"
        }
      ],
      "name": "chainIdToFeeBps",
      "outputs": [
        {
          "internalType": "uint16",
          "name": "feeBP",
          "type": "uint16"
        },
        {
          "internalType": "bool",
          "name": "enabled",
          "type": "bool"
        }
      ],
      "stateMutability": "view",
      "type": "function"
    },
    {
      "inputs": [],
      "name": "circulatingSupply",
      "outputs": [
        {
          "internalType": "uint256",
          "name": "",
          "type": "uint256"
        }
      ],
      "stateMutability": "view",
      "type": "function"
    },
    {
      "inputs": [
        {
          "internalType": "uint16",
          "name": "",
          "type": "uint16"
        },
        {
          "internalType": "bytes",
          "name": "",
          "type": "bytes"
        },
        {
          "internalType": "uint64",
          "name": "",
          "type": "uint64"
        }
      ],
      "name": "creditedPackets",
      "outputs": [
        {
          "internalType": "bool",
          "name": "",
          "type": "bool"
        }
      ],
      "stateMutability": "view",
      "type": "function"
    },
    {
      "inputs": [],
      "name": "decimals",
      "outputs": [
        {
          "internalType": "uint8",
          "name": "",
          "type": "uint8"
        }
      ],
      "stateMutability": "view",
      "type": "function"
    },
    {
      "inputs": [
        {
          "internalType": "address",
          "name": "spender",
          "type": "address"
        },
        {
          "internalType": "uint256",
          "name": "subtractedValue",
          "type": "uint256"
        }
      ],
      "name": "decreaseAllowance",
      "outputs": [
        {
          "internalType": "bool",
          "name": "",
          "type": "bool"
        }
      ],
      "stateMutability": "nonpayable",
      "type": "function"
    },
    {
      "inputs": [],
      "name": "defaultFeeBp",
      "outputs": [
        {
          "internalType": "uint16",
          "name": "",
          "type": "uint16"
        }
      ],
      "stateMutability": "view",
      "type": "function"
    },
    {
      "inputs": [],
      "name": "deposit",
      "outputs": [],
      "stateMutability": "payable",
      "type": "function"
    },
    {
      "inputs": [
        {
          "internalType": "uint16",
          "name": "_dstChainId",
          "type": "uint16"
        },
        {
          "internalType": "bytes32",
          "name": "_toAddress",
          "type": "bytes32"
        },
        {
          "internalType": "uint256",
          "name": "_amount",
          "type": "uint256"
        },
        {
          "internalType": "bytes",
          "name": "_payload",
          "type": "bytes"
        },
        {
          "internalType": "uint64",
          "name": "_dstGasForCall",
          "type": "uint64"
        },
        {
          "internalType": "bool",
          "name": "_useZro",
          "type": "bool"
        },
        {
          "internalType": "bytes",
          "name": "_adapterParams",
          "type": "bytes"
        }
      ],
      "name": "estimateSendAndCallFee",
      "outputs": [
        {
          "internalType": "uint256",
          "name": "nativeFee",
          "type": "uint256"
        },
        {
          "internalType": "uint256",
          "name": "zroFee",
          "type": "uint256"
        }
      ],
      "stateMutability": "view",
      "type": "function"
    },
    {
      "inputs": [
        {
          "internalType": "uint16",
          "name": "_dstChainId",
          "type": "uint16"
        },
        {
          "internalType": "bytes32",
          "name": "_toAddress",
          "type": "bytes32"
        },
        {
          "internalType": "uint256",
          "name": "_amount",
          "type": "uint256"
        },
        {
          "internalType": "bool",
          "name": "_useZro",
          "type": "bool"
        },
        {
          "internalType": "bytes",
          "name": "_adapterParams",
          "type": "bytes"
        }
      ],
      "name": "estimateSendFee",
      "outputs": [
        {
          "internalType": "uint256",
          "name": "nativeFee",
          "type": "uint256"
        },
        {
          "internalType": "uint256",
          "name": "zroFee",
          "type": "uint256"
        }
      ],
      "stateMutability": "view",
      "type": "function"
    },
    {
      "inputs": [
        {
          "internalType": "uint16",
          "name": "",
          "type": "uint16"
        },
        {
          "internalType": "bytes",
          "name": "",
          "type": "bytes"
        },
        {
          "internalType": "uint64",
          "name": "",
          "type": "uint64"
        }
      ],
      "name": "failedMessages",
      "outputs": [
        {
          "internalType": "bytes32",
          "name": "",
          "type": "bytes32"
        }
      ],
      "stateMutability": "view",
      "type": "function"
    },
    {
      "inputs": [],
      "name": "feeOwner",
      "outputs": [
        {
          "internalType": "address",
          "name": "",
          "type": "address"
        }
      ],
      "stateMutability": "view",
      "type": "function"
    },
    {
      "inputs": [
        {
          "internalType": "uint16",
          "name": "_srcChainId",
          "type": "uint16"
        },
        {
          "internalType": "bytes",
          "name": "_srcAddress",
          "type": "bytes"
        }
      ],
      "name": "forceResumeReceive",
      "outputs": [],
      "stateMutability": "nonpayable",
      "type": "function"
    },
    {
      "inputs": [
        {
          "internalType": "uint16",
          "name": "_version",
          "type": "uint16"
        },
        {
          "internalType": "uint16",
          "name": "_chainId",
          "type": "uint16"
        },
        {
          "internalType": "address",
          "name": "",
          "type": "address"
        },
        {
          "internalType": "uint256",
          "name": "_configType",
          "type": "uint256"
        }
      ],
      "name": "getConfig",
      "outputs": [
        {
          "internalType": "bytes",
          "name": "",
          "type": "bytes"
        }
      ],
      "stateMutability": "view",
      "type": "function"
    },
    {
      "inputs": [
        {
          "internalType": "uint16",
          "name": "_remoteChainId",
          "type": "uint16"
        }
      ],
      "name": "getTrustedRemoteAddress",
      "outputs": [
        {
          "internalType": "bytes",
          "name": "",
          "type": "bytes"
        }
      ],
      "stateMutability": "view",
      "type": "function"
    },
    {
      "inputs": [
        {
          "internalType": "address",
          "name": "spender",
          "type": "address"
        },
        {
          "internalType": "uint256",
          "name": "addedValue",
          "type": "uint256"
        }
      ],
      "name": "increaseAllowance",
      "outputs": [
        {
          "internalType": "bool",
          "name": "",
          "type": "bool"
        }
      ],
      "stateMutability": "nonpayable",
      "type": "function"
    },
    {
      "inputs": [
        {
          "internalType": "string",
          "name": "_name",
          "type": "string"
        },
        {
          "internalType": "string",
          "name": "_symbol",
          "type": "string"
        },
        {
          "internalType": "uint8",
          "name": "_sharedDecimals",
          "type": "uint8"
        },
        {
          "internalType": "address",
          "name": "_lzEndpoint",
          "type": "address"
        }
      ],
      "name": "initialize",
      "outputs": [],
      "stateMutability": "nonpayable",
      "type": "function"
    },
    {
      "inputs": [
        {
          "internalType": "uint16",
          "name": "_srcChainId",
          "type": "uint16"
        },
        {
          "internalType": "bytes",
          "name": "_srcAddress",
          "type": "bytes"
        }
      ],
      "name": "isTrustedRemote",
      "outputs": [
        {
          "internalType": "bool",
          "name": "",
          "type": "bool"
        }
      ],
      "stateMutability": "view",
      "type": "function"
    },
    {
      "inputs": [],
      "name": "lzEndpoint",
      "outputs": [
        {
          "internalType": "contract ILayerZeroEndpointUpgradeable",
          "name": "",
          "type": "address"
        }
      ],
      "stateMutability": "view",
      "type": "function"
    },
    {
      "inputs": [
        {
          "internalType": "uint16",
          "name": "_srcChainId",
          "type": "uint16"
        },
        {
          "internalType": "bytes",
          "name": "_srcAddress",
          "type": "bytes"
        },
        {
          "internalType": "uint64",
          "name": "_nonce",
          "type": "uint64"
        },
        {
          "internalType": "bytes",
          "name": "_payload",
          "type": "bytes"
        }
      ],
      "name": "lzReceive",
      "outputs": [],
      "stateMutability": "nonpayable",
      "type": "function"
    },
    {
      "inputs": [
        {
          "internalType": "uint16",
          "name": "",
          "type": "uint16"
        },
        {
          "internalType": "uint16",
          "name": "",
          "type": "uint16"
        }
      ],
      "name": "minDstGasLookup",
      "outputs": [
        {
          "internalType": "uint256",
          "name": "",
          "type": "uint256"
        }
      ],
      "stateMutability": "view",
      "type": "function"
    },
    {
      "inputs": [],
      "name": "name",
      "outputs": [
        {
          "internalType": "string",
          "name": "",
          "type": "string"
        }
      ],
      "stateMutability": "view",
      "type": "function"
    },
    {
      "inputs": [
        {
          "internalType": "uint16",
          "name": "_srcChainId",
          "type": "uint16"
        },
        {
          "internalType": "bytes",
          "name": "_srcAddress",
          "type": "bytes"
        },
        {
          "internalType": "uint64",
          "name": "_nonce",
          "type": "uint64"
        },
        {
          "internalType": "bytes",
          "name": "_payload",
          "type": "bytes"
        }
      ],
      "name": "nonblockingLzReceive",
      "outputs": [],
      "stateMutability": "nonpayable",
      "type": "function"
    },
    {
      "inputs": [],
      "name": "owner",
      "outputs": [
        {
          "internalType": "address",
          "name": "",
          "type": "address"
        }
      ],
      "stateMutability": "view",
      "type": "function"
    },
    {
      "inputs": [
        {
          "internalType": "uint16",
          "name": "",
          "type": "uint16"
        }
      ],
      "name": "payloadSizeLimitLookup",
      "outputs": [
        {
          "internalType": "uint256",
          "name": "",
          "type": "uint256"
        }
      ],
      "stateMutability": "view",
      "type": "function"
    },
    {
      "inputs": [],
      "name": "precrime",
      "outputs": [
        {
          "internalType": "address",
          "name": "",
          "type": "address"
        }
      ],
      "stateMutability": "view",
      "type": "function"
    },
    {
      "inputs": [
        {
          "internalType": "uint16",
          "name": "_dstChainId",
          "type": "uint16"
        },
        {
          "internalType": "uint256",
          "name": "_amount",
          "type": "uint256"
        }
      ],
      "name": "quoteOFTFee",
      "outputs": [
        {
          "internalType": "uint256",
          "name": "fee",
          "type": "uint256"
        }
      ],
      "stateMutability": "view",
      "type": "function"
    },
    {
      "inputs": [],
      "name": "renounceOwnership",
      "outputs": [],
      "stateMutability": "nonpayable",
      "type": "function"
    },
    {
      "inputs": [
        {
          "internalType": "uint16",
          "name": "_srcChainId",
          "type": "uint16"
        },
        {
          "internalType": "bytes",
          "name": "_srcAddress",
          "type": "bytes"
        },
        {
          "internalType": "uint64",
          "name": "_nonce",
          "type": "uint64"
        },
        {
          "internalType": "bytes",
          "name": "_payload",
          "type": "bytes"
        }
      ],
      "name": "retryMessage",
      "outputs": [],
      "stateMutability": "payable",
      "type": "function"
    },
    {
      "inputs": [
        {
          "internalType": "address",
          "name": "_from",
          "type": "address"
        },
        {
          "internalType": "uint16",
          "name": "_dstChainId",
          "type": "uint16"
        },
        {
          "internalType": "bytes32",
          "name": "_toAddress",
          "type": "bytes32"
        },
        {
          "internalType": "uint256",
          "name": "_amount",
          "type": "uint256"
        },
        {
          "internalType": "uint256",
          "name": "_minAmount",
          "type": "uint256"
        },
        {
          "internalType": "bytes",
          "name": "_payload",
          "type": "bytes"
        },
        {
          "internalType": "uint64",
          "name": "_dstGasForCall",
          "type": "uint64"
        },
        {
          "components": [
            {
              "internalType": "address payable",
              "name": "refundAddress",
              "type": "address"
            },
            {
              "internalType": "address",
              "name": "zroPaymentAddress",
              "type": "address"
            },
            {
              "internalType": "bytes",
              "name": "adapterParams",
              "type": "bytes"
            }
          ],
          "internalType": "struct ICommonOFTUpgradeable.LzCallParams",
          "name": "_callParams",
          "type": "tuple"
        }
      ],
      "name": "sendAndCall",
      "outputs": [],
      "stateMutability": "payable",
      "type": "function"
    },
    {
      "inputs": [
        {
          "internalType": "address",
          "name": "_from",
          "type": "address"
        },
        {
          "internalType": "uint16",
          "name": "_dstChainId",
          "type": "uint16"
        },
        {
          "internalType": "bytes32",
          "name": "_toAddress",
          "type": "bytes32"
        },
        {
          "internalType": "uint256",
          "name": "_amount",
          "type": "uint256"
        },
        {
          "internalType": "uint256",
          "name": "_minAmount",
          "type": "uint256"
        },
        {
          "components": [
            {
              "internalType": "address payable",
              "name": "refundAddress",
              "type": "address"
            },
            {
              "internalType": "address",
              "name": "zroPaymentAddress",
              "type": "address"
            },
            {
              "internalType": "bytes",
              "name": "adapterParams",
              "type": "bytes"
            }
          ],
          "internalType": "struct ICommonOFTUpgradeable.LzCallParams",
          "name": "_callParams",
          "type": "tuple"
        }
      ],
      "name": "sendFrom",
      "outputs": [],
      "stateMutability": "payable",
      "type": "function"
    },
    {
      "inputs": [
        {
          "internalType": "uint16",
          "name": "_version",
          "type": "uint16"
        },
        {
          "internalType": "uint16",
          "name": "_chainId",
          "type": "uint16"
        },
        {
          "internalType": "uint256",
          "name": "_configType",
          "type": "uint256"
        },
        {
          "internalType": "bytes",
          "name": "_config",
          "type": "bytes"
        }
      ],
      "name": "setConfig",
      "outputs": [],
      "stateMutability": "nonpayable",
      "type": "function"
    },
    {
      "inputs": [
        {
          "internalType": "uint16",
          "name": "_feeBp",
          "type": "uint16"
        }
      ],
      "name": "setDefaultFeeBp",
      "outputs": [],
      "stateMutability": "nonpayable",
      "type": "function"
    },
    {
      "inputs": [
        {
          "internalType": "uint16",
          "name": "_dstChainId",
          "type": "uint16"
        },
        {
          "internalType": "bool",
          "name": "_enabled",
          "type": "bool"
        },
        {
          "internalType": "uint16",
          "name": "_feeBp",
          "type": "uint16"
        }
      ],
      "name": "setFeeBp",
      "outputs": [],
      "stateMutability": "nonpayable",
      "type": "function"
    },
    {
      "inputs": [
        {
          "internalType": "address",
          "name": "_feeOwner",
          "type": "address"
        }
      ],
      "name": "setFeeOwner",
      "outputs": [],
      "stateMutability": "nonpayable",
      "type": "function"
    },
    {
      "inputs": [
        {
          "internalType": "uint16",
          "name": "_dstChainId",
          "type": "uint16"
        },
        {
          "internalType": "uint16",
          "name": "_packetType",
          "type": "uint16"
        },
        {
          "internalType": "uint256",
          "name": "_minGas",
          "type": "uint256"
        }
      ],
      "name": "setMinDstGas",
      "outputs": [],
      "stateMutability": "nonpayable",
      "type": "function"
    },
    {
      "inputs": [
        {
          "internalType": "uint16",
          "name": "_dstChainId",
          "type": "uint16"
        },
        {
          "internalType": "uint256",
          "name": "_size",
          "type": "uint256"
        }
      ],
      "name": "setPayloadSizeLimit",
      "outputs": [],
      "stateMutability": "nonpayable",
      "type": "function"
    },
    {
      "inputs": [
        {
          "internalType": "address",
          "name": "_precrime",
          "type": "address"
        }
      ],
      "name": "setPrecrime",
      "outputs": [],
      "stateMutability": "nonpayable",
      "type": "function"
    },
    {
      "inputs": [
        {
          "internalType": "uint16",
          "name": "_version",
          "type": "uint16"
        }
      ],
      "name": "setReceiveVersion",
      "outputs": [],
      "stateMutability": "nonpayable",
      "type": "function"
    },
    {
      "inputs": [
        {
          "internalType": "uint16",
          "name": "_version",
          "type": "uint16"
        }
      ],
      "name": "setSendVersion",
      "outputs": [],
      "stateMutability": "nonpayable",
      "type": "function"
    },
    {
      "inputs": [
        {
          "internalType": "uint16",
          "name": "_srcChainId",
          "type": "uint16"
        },
        {
          "internalType": "bytes",
          "name": "_path",
          "type": "bytes"
        }
      ],
      "name": "setTrustedRemote",
      "outputs": [],
      "stateMutability": "nonpayable",
      "type": "function"
    },
    {
      "inputs": [
        {
          "internalType": "uint16",
          "name": "_remoteChainId",
          "type": "uint16"
        },
        {
          "internalType": "bytes",
          "name": "_remoteAddress",
          "type": "bytes"
        }
      ],
      "name": "setTrustedRemoteAddress",
      "outputs": [],
      "stateMutability": "nonpayable",
      "type": "function"
    },
    {
      "inputs": [
        {
          "internalType": "bool",
          "name": "_useCustomAdapterParams",
          "type": "bool"
        }
      ],
      "name": "setUseCustomAdapterParams",
      "outputs": [],
      "stateMutability": "nonpayable",
      "type": "function"
    },
    {
      "inputs": [],
      "name": "sharedDecimals",
      "outputs": [
        {
          "internalType": "uint8",
          "name": "",
          "type": "uint8"
        }
      ],
      "stateMutability": "view",
      "type": "function"
    },
    {
      "inputs": [
        {
          "internalType": "bytes4",
          "name": "interfaceId",
          "type": "bytes4"
        }
      ],
      "name": "supportsInterface",
      "outputs": [
        {
          "internalType": "bool",
          "name": "",
          "type": "bool"
        }
      ],
      "stateMutability": "view",
      "type": "function"
    },
    {
      "inputs": [],
      "name": "symbol",
      "outputs": [
        {
          "internalType": "string",
          "name": "",
          "type": "string"
        }
      ],
      "stateMutability": "view",
      "type": "function"
    },
    {
      "inputs": [],
      "name": "token",
      "outputs": [
        {
          "internalType": "address",
          "name": "",
          "type": "address"
        }
      ],
      "stateMutability": "view",
      "type": "function"
    },
    {
      "inputs": [],
      "name": "totalSupply",
      "outputs": [
        {
          "internalType": "uint256",
          "name": "",
          "type": "uint256"
        }
      ],
      "stateMutability": "view",
      "type": "function"
    },
    {
      "inputs": [
        {
          "internalType": "address",
          "name": "to",
          "type": "address"
        },
        {
          "internalType": "uint256",
          "name": "amount",
          "type": "uint256"
        }
      ],
      "name": "transfer",
      "outputs": [
        {
          "internalType": "bool",
          "name": "",
          "type": "bool"
        }
      ],
      "stateMutability": "nonpayable",
      "type": "function"
    },
    {
      "inputs": [
        {
          "internalType": "address",
          "name": "from",
          "type": "address"
        },
        {
          "internalType": "address",
          "name": "to",
          "type": "address"
        },
        {
          "internalType": "uint256",
          "name": "amount",
          "type": "uint256"
        }
      ],
      "name": "transferFrom",
      "outputs": [
        {
          "internalType": "bool",
          "name": "",
          "type": "bool"
        }
      ],
      "stateMutability": "nonpayable",
      "type": "function"
    },
    {
      "inputs": [
        {
          "internalType": "address",
          "name": "newOwner",
          "type": "address"
        }
      ],
      "name": "transferOwnership",
      "outputs": [],
      "stateMutability": "nonpayable",
      "type": "function"
    },
    {
      "inputs": [
        {
          "internalType": "uint16",
          "name": "",
          "type": "uint16"
        }
      ],
      "name": "trustedRemoteLookup",
      "outputs": [
        {
          "internalType": "bytes",
          "name": "",
          "type": "bytes"
        }
      ],
      "stateMutability": "view",
      "type": "function"
    },
    {
      "inputs": [],
      "name": "useCustomAdapterParams",
      "outputs": [
        {
          "internalType": "bool",
          "name": "",
          "type": "bool"
        }
      ],
      "stateMutability": "view",
      "type": "function"
    },
    {
      "inputs": [
        {
          "internalType": "uint256",
          "name": "_amount",
          "type": "uint256"
        }
      ],
      "name": "withdraw",
      "outputs": [],
      "stateMutability": "nonpayable",
      "type": "function"
    },
    {
      "stateMutability": "payable",
      "type": "receive"
    }
  ],
  "transactionHash": "0xc73677a753d63d1dd6cd0830d91f14ca48cb550bf3b0e5b1a7173dc4e2a78726",
  "args": [],
  "numDeployments": 1,
  "solcInputHash": "7a8facad904a16d264fcd94efa9d6bb9",
  "bytecode": "0x60806040523480156200001157600080fd5b506200001c62000022565b620000e4565b600054610100900460ff16156200008f5760405162461bcd60e51b815260206004820152602760248201527f496e697469616c697a61626c653a20636f6e747261637420697320696e697469604482015266616c697a696e6760c81b606482015260840160405180910390fd5b60005460ff9081161015620000e2576000805460ff191660ff9081179091556040519081527f7f26b83ff96e1f2b6a682f133852f6798a09c465da95921460cefb38474024989060200160405180910390a15b565b61528880620000f46000396000f3fe6080604052600436106103b05760003560e01c80639358928b116101e7578063cbed8b9c1161010d578063eab45d9c116100a0578063ed629c5c1161006f578063ed629c5c14610b7a578063f2fde38b14610b99578063f5ecbdbc14610bb9578063fc0c546a14610bd957600080fd5b8063eab45d9c14610afa578063eaffd49a14610b1a578063eb8d72b714610b3a578063ecd8f21214610b5a57600080fd5b8063dd62ed3e116100dc578063dd62ed3e14610a85578063de7ea79d14610aa5578063df2a5b3b14610ac5578063e6a20ae614610ae557600080fd5b8063cbed8b9c14610a1c578063d0e30db014610a3c578063d1deba1f14610a44578063d888296814610a5757600080fd5b8063a6c3d16511610185578063b9818be111610154578063b9818be114610980578063baf3292d146109a6578063c44618341461094a578063c83330ce146109c657600080fd5b8063a6c3d1651461090a578063a9059cbb1461092a578063abe685cd1461094a578063b353aaa71461096057600080fd5b80639bdb9812116101c15780639bdb9812146108585780639f38369a146108aa578063a457c2d7146108ca578063a4c51df5146108ea57600080fd5b80639358928b1461080e578063950c8a741461082357806395d89b411461084357600080fd5b80633f1f4fa4116102d757806366ad5c8a1161026a57806379c0ad4b1161023957806379c0ad4b1461076a578063857749b01461078a5780638cfd8f5c146107a45780638da5cb5b146107dc57600080fd5b806366ad5c8a146106de57806370a08231146106fe578063715018a6146107355780637533d7881461074a57600080fd5b80634b104eff116102a65780634b104eff1461063a5780634c42899a1461065a5780635a359dc51461066f5780635b8c41e61461068f57600080fd5b80633f1f4fa4146105c557806342d65a8d146105f25780634477051514610612578063455ba27d1461062757600080fd5b806318160ddd1161034f578063313ce5671161031e578063313ce5671461052e578063365260b41461055057806339509351146105855780633d8b38f6146105a557600080fd5b806318160ddd146104bb57806323b872dd146104db5780632cdf0b95146104fb5780632e1a7d4d1461050e57600080fd5b806307e0db171161038b57806307e0db171461043b578063095ea7b31461045b5780630df374831461047b57806310ddb1371461049b57600080fd5b80621d3567146103c457806301ffc9a7146103e457806306fdde031461041957600080fd5b366103bf576103bd610bec565b005b600080fd5b3480156103d057600080fd5b506103bd6103df366004614147565b610c2d565b3480156103f057600080fd5b506104046103ff3660046141da565b610e49565b60405190151581526020015b60405180910390f35b34801561042557600080fd5b5061042e610e80565b604051610410919061425c565b34801561044757600080fd5b506103bd61045636600461426f565b610f13565b34801561046757600080fd5b5061040461047636600461429f565b610f80565b34801561048757600080fd5b506103bd6104963660046142cb565b610f98565b3480156104a757600080fd5b506103bd6104b636600461426f565b610fb7565b3480156104c757600080fd5b5061018c545b604051908152602001610410565b3480156104e757600080fd5b506104046104f63660046142e7565b610ff3565b6103bd61050936600461433a565b611017565b34801561051a57600080fd5b506103bd6105293660046143b5565b6110ba565b34801561053a57600080fd5b5060125b60405160ff9091168152602001610410565b34801561055c57600080fd5b5061057061056b3660046143de565b611270565b60408051928352602083019190915201610410565b34801561059157600080fd5b506104046105a036600461429f565b6112c5565b3480156105b157600080fd5b506104046105c0366004614443565b6112e7565b3480156105d157600080fd5b506104cd6105e036600461426f565b60686020526000908152604090205481565b3480156105fe57600080fd5b506103bd61060d366004614443565b6113b3565b34801561061e57600080fd5b506104cd600081565b6103bd610635366004614495565b61141d565b34801561064657600080fd5b506103bd610655366004614551565b6114fe565b34801561066657600080fd5b5061053e600081565b34801561067b57600080fd5b506103bd61068a36600461426f565b6115bb565b34801561069b57600080fd5b506104cd6106aa366004614619565b6097602090815260009384526040808520845180860184018051928152908401958401959095209452929052825290205481565b3480156106ea57600080fd5b506103bd6106f9366004614147565b61162d565b34801561070a57600080fd5b506104cd610719366004614551565b6001600160a01b0316600090815261018a602052604090205490565b34801561074157600080fd5b506103bd611701565b34801561075657600080fd5b5061042e61076536600461426f565b611715565b34801561077657600080fd5b506103bd61078536600461468a565b6117af565b34801561079657600080fd5b5060c95461053e9060ff1681565b3480156107b057600080fd5b506104cd6107bf3660046146c4565b606760209081526000928352604080842090915290825290205481565b3480156107e857600080fd5b506033546001600160a01b03165b6040516001600160a01b039091168152602001610410565b34801561081a57600080fd5b506104cd61186b565b34801561082f57600080fd5b506069546107f6906001600160a01b031681565b34801561084f57600080fd5b5061042e61187c565b34801561086457600080fd5b50610404610873366004614619565b60ca602090815260009384526040808520845180860184018051928152908401958401959095209452929052825290205460ff1681565b3480156108b657600080fd5b5061042e6108c536600461426f565b61188c565b3480156108d657600080fd5b506104046108e536600461429f565b6119a3565b3480156108f657600080fd5b506105706109053660046146f7565b611a1e565b34801561091657600080fd5b506103bd610925366004614443565b611aad565b34801561093657600080fd5b5061040461094536600461429f565b611b33565b34801561095657600080fd5b506104cd61271081565b34801561096c57600080fd5b506065546107f6906001600160a01b031681565b34801561098c57600080fd5b5060f8546107f6906201000090046001600160a01b031681565b3480156109b257600080fd5b506103bd6109c1366004614551565b611b41565b3480156109d257600080fd5b50610a026109e136600461426f565b60f76020526000908152604090205461ffff81169062010000900460ff1682565b6040805161ffff9093168352901515602083015201610410565b348015610a2857600080fd5b506103bd610a373660046147b0565b611b97565b6103bd610bec565b6103bd610a52366004614147565b611c05565b348015610a6357600080fd5b5060f854610a729061ffff1681565b60405161ffff9091168152602001610410565b348015610a9157600080fd5b506104cd610aa036600461481e565b611e1b565b348015610ab157600080fd5b506103bd610ac0366004614877565b611e47565b348015610ad157600080fd5b506103bd610ae0366004614905565b611f60565b348015610af157600080fd5b5061053e600181565b348015610b0657600080fd5b506103bd610b15366004614941565b612012565b348015610b2657600080fd5b506103bd610b3536600461495c565b612063565b348015610b4657600080fd5b506103bd610b55366004614443565b612182565b348015610b6657600080fd5b506104cd610b753660046142cb565b6121dc565b348015610b8657600080fd5b5060c95461040490610100900460ff1681565b348015610ba557600080fd5b506103bd610bb4366004614551565b61226e565b348015610bc557600080fd5b5061042e610bd4366004614a24565b6122e7565b348015610be557600080fd5b50306107f6565b610bf6333461237a565b60405134815233907fe1fffcc4923d04b559f4d29a8bfc6cda04eb5b0d3c460751c2402c5c5cc9109c9060200160405180910390a2565b6065546001600160a01b0316336001600160a01b031614610c955760405162461bcd60e51b815260206004820152601e60248201527f4c7a4170703a20696e76616c696420656e64706f696e742063616c6c6572000060448201526064015b60405180910390fd5b61ffff861660009081526066602052604081208054610cb390614a71565b80601f0160208091040260200160405190810160405280929190818152602001828054610cdf90614a71565b8015610d2c5780601f10610d0157610100808354040283529160200191610d2c565b820191906000526020600020905b815481529060010190602001808311610d0f57829003601f168201915b50505050509050805186869050148015610d47575060008151115b8015610d6f575080516020820120604051610d659088908890614aa6565b6040518091039020145b610dca5760405162461bcd60e51b815260206004820152602660248201527f4c7a4170703a20696e76616c696420736f757263652073656e64696e6720636f6044820152651b9d1c9858dd60d21b6064820152608401610c8c565b610e408787878080601f01602080910402602001604051908101604052809392919081815260200183838082843760009201919091525050604080516020601f8a018190048102820181019092528881528a93509150889088908190840183828082843760009201919091525061245c92505050565b50505050505050565b60006001600160e01b03198216630d30953d60e31b1480610e7a57506301ffc9a760e01b6001600160e01b03198316145b92915050565b606061018d8054610e9090614a71565b80601f0160208091040260200160405190810160405280929190818152602001828054610ebc90614a71565b8015610f095780601f10610ede57610100808354040283529160200191610f09565b820191906000526020600020905b815481529060010190602001808311610eec57829003601f168201915b5050505050905090565b610f1b6124d5565b6065546040516307e0db1760e01b815261ffff831660048201526001600160a01b03909116906307e0db17906024015b600060405180830381600087803b158015610f6557600080fd5b505af1158015610f79573d6000803e3d6000fd5b5050505050565b600033610f8e81858561252f565b5060019392505050565b610fa06124d5565b61ffff909116600090815260686020526040902055565b610fbf6124d5565b6065546040516310ddb13760e01b815261ffff831660048201526001600160a01b03909116906310ddb13790602401610f4b565b600033611001858285612655565b61100c8585856126cf565b506001949350505050565b61102286868561289f565b509250611090868686866110396020870187614551565b6110496040880160208901614551565b6110566040890189614ab6565b8080601f0160208091040260200160405190810160405280939291908181526020018383808284376000920191909152506128e892505050565b9250818310156110b25760405162461bcd60e51b8152600401610c8c90614afc565b505050505050565b60026101bd54141561110e5760405162461bcd60e51b815260206004820152601f60248201527f5265656e7472616e637947756172643a207265656e7472616e742063616c6c006044820152606401610c8c565b60026101bd5533600090815261018a60205260409020548111156111845760405162461bcd60e51b815260206004820152602760248201527f4e61746976654f4654576974684665653a20496e73756666696369656e74206260448201526630b630b731b29760c91b6064820152608401610c8c565b61118e33826129de565b604051600090339083908381818185875af1925050503d80600081146111d0576040519150601f19603f3d011682016040523d82523d6000602084013e6111d5565b606091505b50509050806112315760405162461bcd60e51b815260206004820152602260248201527f4e61746976654f4654576974684665653a206661696c656420746f20756e7772604482015261061760f41b6064820152608401610c8c565b60405182815233907f7fcf532c15f0a6db0bd6d0e038bea71d30d808c7d98cb3bf7268a95bf5081b659060200160405180910390a2505060016101bd55565b6000806112b68888888888888080601f016020809104026020016040519081016040528093929190818152602001838380828437600092019190915250612b2c92505050565b91509150965096945050505050565b600033610f8e8185856112d88383611e1b565b6112e29190614b5f565b61252f565b61ffff83166000908152606660205260408120805482919061130890614a71565b80601f016020809104026020016040519081016040528092919081815260200182805461133490614a71565b80156113815780601f1061135657610100808354040283529160200191611381565b820191906000526020600020905b81548152906001019060200180831161136457829003601f168201915b505050505090508383604051611398929190614aa6565b60405180910390208180519060200120149150509392505050565b6113bb6124d5565b6065546040516342d65a8d60e01b81526001600160a01b03909116906342d65a8d906113ef90869086908690600401614ba0565b600060405180830381600087803b15801561140957600080fd5b505af1158015610e40573d6000803e3d6000fd5b61142889898861289f565b50809650506114d18989898988888080601f0160208091040260200160405190810160405280939291908181526020018383808284376000920191909152508a925061147a9150506020890189614551565b61148a60408a0160208b01614551565b61149760408b018b614ab6565b8080601f016020809104026020016040519081016040528093929190818152602001838380828437600092019190915250612bc692505050565b9550848610156114f35760405162461bcd60e51b8152600401610c8c90614afc565b505050505050505050565b6115066124d5565b6001600160a01b03811661155c5760405162461bcd60e51b815260206004820152601a60248201527f4665653a206665654f776e65722063616e6e6f742062652030780000000000006044820152606401610c8c565b60f8805462010000600160b01b031916620100006001600160a01b038416908102919091179091556040519081527f047912631afa564eebd3db2efe191a0dec62da1fede6bbbc1ffc89d87845b1b5906020015b60405180910390a150565b6115c36124d5565b6127108161ffff1611156115e95760405162461bcd60e51b8152600401610c8c90614bbe565b60f8805461ffff191661ffff83169081179091556040519081527fd26030ef4a8c225ee12b646eb4466acb41fb96b6cd4660b22d0ba0124e7bdc74906020016115b0565b33301461168b5760405162461bcd60e51b815260206004820152602660248201527f4e6f6e626c6f636b696e674c7a4170703a2063616c6c6572206d7573742062656044820152650204c7a4170760d41b6064820152608401610c8c565b6110b28686868080601f01602080910402602001604051908101604052809392919081815260200183838082843760009201919091525050604080516020601f890181900481028201810190925287815289935091508790879081908401838280828437600092019190915250612c9492505050565b6117096124d5565b6117136000612d1b565b565b6066602052600090815260409020805461172e90614a71565b80601f016020809104026020016040519081016040528092919081815260200182805461175a90614a71565b80156117a75780601f1061177c576101008083540402835291602001916117a7565b820191906000526020600020905b81548152906001019060200180831161178a57829003601f168201915b505050505081565b6117b76124d5565b6127108161ffff1611156117dd5760405162461bcd60e51b8152600401610c8c90614bbe565b60408051808201825261ffff8381168083528515156020808501828152898516600081815260f784528890209651875492511515620100000262ffffff1990931696169590951717909455845192835292820192909252918201527fdd9c9685af3e6dcb56d8f4b88d2595d4add6837a150034e7781c46b6dcf8aaab906060015b60405180910390a1505050565b600061187761018c5490565b905090565b606061018e8054610e9090614a71565b61ffff81166000908152606660205260408120805460609291906118af90614a71565b80601f01602080910402602001604051908101604052809291908181526020018280546118db90614a71565b80156119285780601f106118fd57610100808354040283529160200191611928565b820191906000526020600020905b81548152906001019060200180831161190b57829003601f168201915b505050505090508051600014156119815760405162461bcd60e51b815260206004820152601d60248201527f4c7a4170703a206e6f20747275737465642070617468207265636f72640000006044820152606401610c8c565b61199c6000601483516119949190614c03565b839190612d6d565b9392505050565b600033816119b18286611e1b565b905083811015611a115760405162461bcd60e51b815260206004820152602560248201527f45524332303a2064656372656173656420616c6c6f77616e63652062656c6f77604482015264207a65726f60d81b6064820152608401610c8c565b61100c828686840361252f565b600080611a9b8b8b8b8b8b8080601f01602080910402602001604051908101604052809392919081815260200183838082843760009201919091525050604080516020601f8d018190048102820181019092528b81528e93508d9250908c908c9081908401838280828437600092019190915250612e7a92505050565b91509150995099975050505050505050565b611ab56124d5565b818130604051602001611aca93929190614c1a565b60408051601f1981840301815291815261ffff85166000908152606660209081529190208251611aff93919290910190613fc4565b507f8c0400cfe2d1199b1a725c78960bcc2a344d869b80590d0f2bd005db15a572ce83838360405161185e93929190614ba0565b600033610f8e8185856126cf565b611b496124d5565b606980546001600160a01b0319166001600160a01b0383169081179091556040519081527f5db758e995a17ec1ad84bdef7e8c3293a0bd6179bcce400dff5d4c3d87db726b906020016115b0565b611b9f6124d5565b6065546040516332fb62e760e21b81526001600160a01b039091169063cbed8b9c90611bd79088908890889088908890600401614c40565b600060405180830381600087803b158015611bf157600080fd5b505af11580156114f3573d6000803e3d6000fd5b61ffff86166000908152609760205260408082209051611c289088908890614aa6565b90815260408051602092819003830190206001600160401b03871660009081529252902054905080611ca85760405162461bcd60e51b815260206004820152602360248201527f4e6f6e626c6f636b696e674c7a4170703a206e6f2073746f726564206d65737360448201526261676560e81b6064820152608401610c8c565b808383604051611cb9929190614aa6565b604051809103902014611d185760405162461bcd60e51b815260206004820152602160248201527f4e6f6e626c6f636b696e674c7a4170703a20696e76616c6964207061796c6f616044820152601960fa1b6064820152608401610c8c565b61ffff87166000908152609760205260408082209051611d3b9089908990614aa6565b90815260408051602092819003830181206001600160401b038916600090815290845282902093909355601f88018290048202830182019052868252611dd3918991899089908190840183828082843760009201919091525050604080516020601f8a018190048102820181019092528881528a935091508890889081908401838280828437600092019190915250612c9492505050565b7fc264d91f3adc5588250e1551f547752ca0cfa8f6b530d243b9f9f4cab10ea8e58787878785604051611e0a959493929190614c79565b60405180910390a150505050505050565b6001600160a01b03918216600090815261018b6020908152604080832093909416825291909152205490565b600054610100900460ff1615808015611e675750600054600160ff909116105b80611e815750303b158015611e81575060005460ff166001145b611ee45760405162461bcd60e51b815260206004820152602e60248201527f496e697469616c697a61626c653a20636f6e747261637420697320616c72656160448201526d191e481a5b9a5d1a585b1a5e995960921b6064820152608401610c8c565b6000805460ff191660011790558015611f07576000805461ff0019166101001790555b611f1385858585612f1e565b8015610f79576000805461ff0019169055604051600181527f7f26b83ff96e1f2b6a682f133852f6798a09c465da95921460cefb3847402498906020015b60405180910390a15050505050565b611f686124d5565b60008111611fb05760405162461bcd60e51b81526020600482015260156024820152744c7a4170703a20696e76616c6964206d696e47617360581b6044820152606401610c8c565b61ffff83811660008181526067602090815260408083209487168084529482529182902085905581519283528201929092529081018290527f9d5c7c0b934da8fefa9c7760c98383778a12dfbfc0c3b3106518f43fb9508ac09060600161185e565b61201a6124d5565b60c980548215156101000261ff00199091161790556040517f1584ad594a70cbe1e6515592e1272a987d922b097ead875069cebe8b40c004a4906115b090831515815260200190565b3330146120b25760405162461bcd60e51b815260206004820152601f60248201527f4f4654436f72653a2063616c6c6572206d757374206265204f4654436f7265006044820152606401610c8c565b6120bd308686612f62565b9350846001600160a01b03168a61ffff167fbf551ec93859b170f9b2141bd9298bf3f64322c6f7beb2543a0cb669834118bf866040516120ff91815260200190565b60405180910390a3604051633fe79aed60e11b81526001600160a01b03861690637fcf35da908390612143908e908e908e908e908e908d908d908d90600401614cb4565b600060405180830381600088803b15801561215d57600080fd5b5087f1158015612171573d6000803e3d6000fd5b505050505050505050505050505050565b61218a6124d5565b61ffff831660009081526066602052604090206121a8908383614048565b507ffa41487ad5d6728f0b19276fa1eddc16558578f5109fc39d2dc33c3230470dab83838360405161185e93929190614ba0565b61ffff828116600090815260f76020908152604080832081518083019092525493841681526201000090930460ff1615801591840191909152909190612241578051612710906122309061ffff1685614d0f565b61223a9190614d44565b9150612267565b60f85461ffff16156122625760f854612710906122309061ffff1685614d0f565b600091505b5092915050565b6122766124d5565b6001600160a01b0381166122db5760405162461bcd60e51b815260206004820152602660248201527f4f776e61626c653a206e6577206f776e657220697320746865207a65726f206160448201526564647265737360d01b6064820152608401610c8c565b6122e481612d1b565b50565b606554604051633d7b2f6f60e21b815261ffff808716600483015285166024820152306044820152606481018390526060916001600160a01b03169063f5ecbdbc90608401600060405180830381865afa158015612349573d6000803e3d6000fd5b505050506040513d6000823e601f3d908101601f191682016040526123719190810190614d58565b95945050505050565b6001600160a01b0382166123d05760405162461bcd60e51b815260206004820152601f60248201527f45524332303a206d696e7420746f20746865207a65726f2061646472657373006044820152606401610c8c565b8061018c60008282546123e39190614b5f565b90915550506001600160a01b038216600090815261018a602052604081208054839290612411908490614b5f565b90915550506040518181526001600160a01b038316906000907fddf252ad1be2c89b69c2b068fc378daa952ba7f163c4a11628f55a4df523b3ef9060200160405180910390a35b5050565b6000806124bf5a60966366ad5c8a60e01b898989896040516024016124849493929190614dc5565b60408051601f198184030181529190526020810180516001600160e01b03166001600160e01b03199093169290921790915230929190612fb4565b91509150816110b2576110b2868686868561303e565b6033546001600160a01b031633146117135760405162461bcd60e51b815260206004820181905260248201527f4f776e61626c653a2063616c6c6572206973206e6f7420746865206f776e65726044820152606401610c8c565b6001600160a01b0383166125915760405162461bcd60e51b8152602060048201526024808201527f45524332303a20617070726f76652066726f6d20746865207a65726f206164646044820152637265737360e01b6064820152608401610c8c565b6001600160a01b0382166125f25760405162461bcd60e51b815260206004820152602260248201527f45524332303a20617070726f766520746f20746865207a65726f206164647265604482015261737360f01b6064820152608401610c8c565b6001600160a01b03838116600081815261018b602090815260408083209487168084529482529182902085905590518481527f8c5be1e5ebec7d5bd14f71427d1e84f3dd0314c0f7b2291e5b200ac8c7c3b92591015b60405180910390a3505050565b60006126618484611e1b565b905060001981146126c957818110156126bc5760405162461bcd60e51b815260206004820152601d60248201527f45524332303a20696e73756666696369656e7420616c6c6f77616e63650000006044820152606401610c8c565b6126c9848484840361252f565b50505050565b6001600160a01b0383166127335760405162461bcd60e51b815260206004820152602560248201527f45524332303a207472616e736665722066726f6d20746865207a65726f206164604482015264647265737360d81b6064820152608401610c8c565b6001600160a01b0382166127955760405162461bcd60e51b815260206004820152602360248201527f45524332303a207472616e7366657220746f20746865207a65726f206164647260448201526265737360e81b6064820152608401610c8c565b6001600160a01b038316600090815261018a60205260409020548181101561280e5760405162461bcd60e51b815260206004820152602660248201527f45524332303a207472616e7366657220616d6f756e7420657863656564732062604482015265616c616e636560d01b6064820152608401610c8c565b6001600160a01b03808516600090815261018a6020526040808220858503905591851681529081208054849290612846908490614b5f565b92505081905550826001600160a01b0316846001600160a01b03167fddf252ad1be2c89b69c2b068fc378daa952ba7f163c4a11628f55a4df523b3ef8460405161289291815260200190565b60405180910390a36126c9565b6000806128ac84846121dc565b90506128b88184614c03565b915080156128e05760f8546128de9086906201000090046001600160a01b031683612f62565b505b935093915050565b60006128f6878284816130cc565b6128ff8561314b565b5090508061291f5760405162461bcd60e51b8152600401610c8c90614e03565b600061292b8983613175565b905060006129788861293c8561319f565b6040805160006020820152602181019390935260c09190911b6001600160c01b0319166041830152805160298184030181526049909201905290565b905061298889828888888761320f565b878a6001600160a01b03168a61ffff167fd81fc9b8523134ed613870ed029d6170cbb73aa6a6bc311b9a642689fb9df59a866040516129c991815260200190565b60405180910390a45050979650505050505050565b6001600160a01b038216612a3e5760405162461bcd60e51b815260206004820152602160248201527f45524332303a206275726e2066726f6d20746865207a65726f206164647265736044820152607360f81b6064820152608401610c8c565b6001600160a01b038216600090815261018a602052604090205481811015612ab35760405162461bcd60e51b815260206004820152602260248201527f45524332303a206275726e20616d6f756e7420657863656564732062616c616e604482015261636560f01b6064820152608401610c8c565b6001600160a01b038316600090815261018a60205260408120838303905561018c8054849290612ae4908490614c03565b90915550506040518281526000906001600160a01b038516907fddf252ad1be2c89b69c2b068fc378daa952ba7f163c4a11628f55a4df523b3ef90602001612648565b505050565b6000806000612b3e8761293c8861319f565b60655460405163040a7bb160e41b81529192506001600160a01b0316906340a7bb1090612b77908b90309086908b908b90600401614e45565b6040805180830381865afa158015612b93573d6000803e3d6000fd5b505050506040513d601f19601f82011682018060405250810190612bb79190614e99565b92509250509550959350505050565b6000612bde896001846001600160401b0389166130cc565b612be78761314b565b50905080612c075760405162461bcd60e51b8152600401610c8c90614e03565b6000612c138b83613175565b90506000612c2c338b612c258661319f565b8b8b613399565b9050612c3c8b828888888761320f565b898c6001600160a01b03168c61ffff167fd81fc9b8523134ed613870ed029d6170cbb73aa6a6bc311b9a642689fb9df59a86604051612c7d91815260200190565b60405180910390a450509998505050505050505050565b6000612ca082826133da565b905060ff8116612cbb57612cb685858585613436565b610f79565b60ff811660011415612cd357612cb6858585856134c6565b60405162461bcd60e51b815260206004820152601c60248201527f4f4654436f72653a20756e6b6e6f776e207061636b65742074797065000000006044820152606401610c8c565b603380546001600160a01b038381166001600160a01b0319831681179093556040519116919082907f8be0079c531659141344cd1fd0a4f28419497f9722a3daafe3b4186f6b6457e090600090a35050565b606081612d7b81601f614b5f565b1015612dba5760405162461bcd60e51b815260206004820152600e60248201526d736c6963655f6f766572666c6f7760901b6044820152606401610c8c565b612dc48284614b5f565b84511015612e085760405162461bcd60e51b8152602060048201526011602482015270736c6963655f6f75744f66426f756e647360781b6044820152606401610c8c565b606082158015612e275760405191506000825260208201604052612e71565b6040519150601f8416801560200281840101858101878315602002848b0101015b81831015612e60578051835260209283019201612e48565b5050858452601f01601f1916604052505b50949350505050565b6000806000612e94338a612e8d8b61319f565b8a8a613399565b60655460405163040a7bb160e41b81529192506001600160a01b0316906340a7bb1090612ecd908d90309086908b908b90600401614e45565b6040805180830381865afa158015612ee9573d6000803e3d6000fd5b505050506040513d601f19601f82011682018060405250810190612f0d9190614e99565b925092505097509795505050505050565b600054610100900460ff16612f455760405162461bcd60e51b8152600401610c8c90614ebd565b612f4f82826136d4565b612f598484613715565b6126c982613746565b600033306001600160a01b03861614801590612f905750806001600160a01b0316856001600160a01b031614155b15612fa057612fa0858285612655565b612fab8585856126cf565b50909392505050565b6000606060008060008661ffff166001600160401b03811115612fd957612fd961456e565b6040519080825280601f01601f191660200182016040528015613003576020820181803683370190505b50905060008087516020890160008d8df191503d925086831115613025578692505b828152826000602083013e909890975095505050505050565b8180519060200120609760008761ffff1661ffff1681526020019081526020016000208560405161306f9190614f08565b9081526040805191829003602090810183206001600160401b0388166000908152915220919091557fe183f33de2837795525b4792ca4cd60535bd77c53b7e7030060bfcf5734d6b0c90611f519087908790879087908790614f24565b60c954610100900460ff16156130ed576130e8848484846137f6565b6126c9565b8151156126c95760405162461bcd60e51b815260206004820152602660248201527f4f4654436f72653a205f61646170746572506172616d73206d7573742062652060448201526532b6b83a3c9760d11b6064820152608401610c8c565b6000806131586101bc5490565b6131629084614f76565b905061316e8184614c03565b9150915091565b6000336001600160a01b038416146131965761319183836138d5565b61199c565b61199c82613974565b6000806131ac6101bc5490565b6131b69084614d44565b90506001600160401b03811115610e7a5760405162461bcd60e51b815260206004820152601a60248201527f4f4654436f72653a20616d6f756e745344206f766572666c6f770000000000006044820152606401610c8c565b61ffff86166000908152606660205260408120805461322d90614a71565b80601f016020809104026020016040519081016040528092919081815260200182805461325990614a71565b80156132a65780601f1061327b576101008083540402835291602001916132a6565b820191906000526020600020905b81548152906001019060200180831161328957829003601f168201915b505050505090508051600014156133185760405162461bcd60e51b815260206004820152603060248201527f4c7a4170703a2064657374696e6174696f6e20636861696e206973206e6f742060448201526f61207472757374656420736f7572636560801b6064820152608401610c8c565b6133238787516139f5565b60655460405162c5803160e81b81526001600160a01b039091169063c580310090849061335e908b9086908c908c908c908c90600401614f8a565b6000604051808303818588803b15801561337757600080fd5b505af115801561338b573d6000803e3d6000fd5b505050505050505050505050565b6060600185856001600160a01b03891685876040516020016133c096959493929190614ff1565b604051602081830303815290604052905095945050505050565b60006133e7826001614b5f565b8351101561342d5760405162461bcd60e51b8152602060048201526013602482015272746f55696e74385f6f75744f66426f756e647360681b6044820152606401610c8c565b50016001015190565b60008061344283613a63565b90925090506001600160a01b03821661345b5761dead91505b600061346682613ae8565b9050613473878483613b07565b9050826001600160a01b03168761ffff167fbf551ec93859b170f9b2141bd9298bf3f64322c6f7beb2543a0cb669834118bf836040516134b591815260200190565b60405180910390a350505050505050565b60008060008060006134d786613bc4565b94509450945094509450600060ca60008b61ffff1661ffff1681526020019081526020016000208960405161350c9190614f08565b90815260408051602092819003830190206001600160401b038b166000908152925281205460ff16915061353f85613ae8565b9050816135ad576135518b3083613b07565b61ffff8c16600090815260ca6020526040908190209051919250600191613579908d90614f08565b90815260408051602092819003830190206001600160401b038d16600090815292529020805460ff19169115159190911790555b6001600160a01b0386163b613604576040516001600160a01b03871681527f9aedf5fdba8716db3b6705ca00150643309995d4f818a249ed6dde6677e7792d9060200160405180910390a1505050505050506126c9565b8a8a8a8a8a8a868a60008a613622578b6001600160401b0316613624565b5a5b90506000806136565a609663eaffd49a60e01b8e8e8e8d8d8d8d8d604051602401612484989796959493929190615052565b9150915081156136af578751602089012060405161ffff8d16907fb8890edbfc1c74692f527444645f95489c3703cc2df42e4a366f5d06fa6cd884906136a1908e908e9086906150c6565b60405180910390a2506136bc565b6136bc8b8b8b8b8561303e565b50505050505050505050505050505050505050505050565b600054610100900460ff166136fb5760405162461bcd60e51b8152600401610c8c90614ebd565b6137058282613c7b565b61370d613cb4565b612458613ce3565b600054610100900460ff1661373c5760405162461bcd60e51b8152600401610c8c90614ebd565b6124588282613d0a565b600054610100900460ff1661376d5760405162461bcd60e51b8152600401610c8c90614ebd565b601260ff82168110156137d95760405162461bcd60e51b815260206004820152602e60248201527f4f4654576974684665653a20736861726564446563696d616c73206d7573742060448201526d6265203c3d20646563696d616c7360901b6064820152608401610c8c565b6137e382826150f4565b6137ee90600a6151fb565b6101bc555050565b600061380183613d5a565b61ffff808716600090815260676020908152604080832093891683529290529081205491925090613833908490614b5f565b9050600081116138855760405162461bcd60e51b815260206004820152601a60248201527f4c7a4170703a206d696e4761734c696d6974206e6f74207365740000000000006044820152606401610c8c565b808210156110b25760405162461bcd60e51b815260206004820152601b60248201527f4c7a4170703a20676173206c696d697420697320746f6f206c6f7700000000006044820152606401610c8c565b6001600160a01b038216600090815261018a60205260408120548281101561395a57826139023483614b5f565b10156139205760405162461bcd60e51b8152600401610c8c9061520a565b600061392c8285614c03565b9050613938338261237a565b6139433330836126cf565b81935080346139529190614c03565b92505061395e565b3491505b613969843385612655565b6122678430856126cf565b33600090815261018a6020526040812054828110156139e057826139983483614b5f565b10156139b65760405162461bcd60e51b8152600401610c8c9061520a565b60006139c28285614c03565b90506139ce338261237a565b6139d88134614c03565b9250506139e4565b3491505b6139ef3330856126cf565b50919050565b61ffff821660009081526068602052604090205480613a1357506127105b80821115612b275760405162461bcd60e51b815260206004820181905260248201527f4c7a4170703a207061796c6f61642073697a6520697320746f6f206c617267656044820152606401610c8c565b60008080613a7184826133da565b60ff16148015613a82575082516029145b613ac95760405162461bcd60e51b815260206004820152601860248201527713d19510dbdc994e881a5b9d985b1a59081c185e5b1bd85960421b6044820152606401610c8c565b613ad483600d613db6565b9150613ae1836021613e1b565b9050915091565b6000613af46101bc5490565b610e7a906001600160401b038416614d0f565b6000613b1330836129de565b6000836001600160a01b03168360405160006040518083038185875af1925050503d8060008114613b60576040519150601f19603f3d011682016040523d82523d6000602084013e613b65565b606091505b5050905080612fab5760405162461bcd60e51b815260206004820152602560248201527f4e61746976654f4654576974684665653a206661696c656420746f205f637265604482015264646974546f60d81b6064820152608401610c8c565b600080806060816001613bd787836133da565b60ff1614613c225760405162461bcd60e51b815260206004820152601860248201527713d19510dbdc994e881a5b9d985b1a59081c185e5b1bd85960421b6044820152606401610c8c565b613c2d86600d613db6565b9350613c3a866021613e1b565b9250613c47866029613e78565b9450613c54866049613e1b565b9050613c706051808851613c689190614c03565b889190612d6d565b915091939590929450565b600054610100900460ff16613ca25760405162461bcd60e51b8152600401610c8c90614ebd565b613cab81613ed6565b61245882613f0e565b600054610100900460ff16613cdb5760405162461bcd60e51b8152600401610c8c90614ebd565b611713613f4b565b600054610100900460ff166117135760405162461bcd60e51b8152600401610c8c90614ebd565b600054610100900460ff16613d315760405162461bcd60e51b8152600401610c8c90614ebd565b8151613d459061018d906020850190613fc4565b508051612b279061018e906020840190613fc4565b6000602282511015613dae5760405162461bcd60e51b815260206004820152601c60248201527f4c7a4170703a20696e76616c69642061646170746572506172616d73000000006044820152606401610c8c565b506022015190565b6000613dc3826014614b5f565b83511015613e0b5760405162461bcd60e51b8152602060048201526015602482015274746f416464726573735f6f75744f66426f756e647360581b6044820152606401610c8c565b500160200151600160601b900490565b6000613e28826008614b5f565b83511015613e6f5760405162461bcd60e51b8152602060048201526014602482015273746f55696e7436345f6f75744f66426f756e647360601b6044820152606401610c8c565b50016008015190565b6000613e85826020614b5f565b83511015613ecd5760405162461bcd60e51b8152602060048201526015602482015274746f427974657333325f6f75744f66426f756e647360581b6044820152606401610c8c565b50016020015190565b600054610100900460ff16613efd5760405162461bcd60e51b8152600401610c8c90614ebd565b613f05613f4b565b6122e481613f7b565b600054610100900460ff16613f355760405162461bcd60e51b8152600401610c8c90614ebd565b60c9805460ff191660ff92909216919091179055565b600054610100900460ff16613f725760405162461bcd60e51b8152600401610c8c90614ebd565b61171333612d1b565b600054610100900460ff16613fa25760405162461bcd60e51b8152600401610c8c90614ebd565b606580546001600160a01b0319166001600160a01b0392909216919091179055565b828054613fd090614a71565b90600052602060002090601f016020900481019282613ff25760008555614038565b82601f1061400b57805160ff1916838001178555614038565b82800160010185558215614038579182015b8281111561403857825182559160200191906001019061401d565b506140449291506140bc565b5090565b82805461405490614a71565b90600052602060002090601f0160209004810192826140765760008555614038565b82601f1061408f5782800160ff19823516178555614038565b82800160010185558215614038579182015b828111156140385782358255916020019190600101906140a1565b5b8082111561404457600081556001016140bd565b803561ffff811681146140e357600080fd5b919050565b60008083601f8401126140fa57600080fd5b5081356001600160401b0381111561411157600080fd5b60208301915083602082850101111561412957600080fd5b9250929050565b80356001600160401b03811681146140e357600080fd5b6000806000806000806080878903121561416057600080fd5b614169876140d1565b955060208701356001600160401b038082111561418557600080fd5b6141918a838b016140e8565b90975095508591506141a560408a01614130565b945060608901359150808211156141bb57600080fd5b506141c889828a016140e8565b979a9699509497509295939492505050565b6000602082840312156141ec57600080fd5b81356001600160e01b03198116811461199c57600080fd5b60005b8381101561421f578181015183820152602001614207565b838111156126c95750506000910152565b60008151808452614248816020860160208601614204565b601f01601f19169290920160200192915050565b60208152600061199c6020830184614230565b60006020828403121561428157600080fd5b61199c826140d1565b6001600160a01b03811681146122e457600080fd5b600080604083850312156142b257600080fd5b82356142bd8161428a565b946020939093013593505050565b600080604083850312156142de57600080fd5b6142bd836140d1565b6000806000606084860312156142fc57600080fd5b83356143078161428a565b925060208401356143178161428a565b929592945050506040919091013590565b6000606082840312156139ef57600080fd5b60008060008060008060c0878903121561435357600080fd5b863561435e8161428a565b955061436c602088016140d1565b945060408701359350606087013592506080870135915060a08701356001600160401b0381111561439c57600080fd5b6143a889828a01614328565b9150509295509295509295565b6000602082840312156143c757600080fd5b5035919050565b803580151581146140e357600080fd5b60008060008060008060a087890312156143f757600080fd5b614400876140d1565b9550602087013594506040870135935061441c606088016143ce565b925060808701356001600160401b0381111561443757600080fd5b6141c889828a016140e8565b60008060006040848603121561445857600080fd5b614461846140d1565b925060208401356001600160401b0381111561447c57600080fd5b614488868287016140e8565b9497909650939450505050565b60008060008060008060008060006101008a8c0312156144b457600080fd5b89356144bf8161428a565b98506144cd60208b016140d1565b975060408a0135965060608a0135955060808a0135945060a08a01356001600160401b03808211156144fe57600080fd5b61450a8d838e016140e8565b909650945084915061451e60c08d01614130565b935060e08c013591508082111561453457600080fd5b506145418c828d01614328565b9150509295985092959850929598565b60006020828403121561456357600080fd5b813561199c8161428a565b634e487b7160e01b600052604160045260246000fd5b604051601f8201601f191681016001600160401b03811182821017156145ac576145ac61456e565b604052919050565b60006001600160401b038211156145cd576145cd61456e565b50601f01601f191660200190565b60006145ee6145e9846145b4565b614584565b905082815283838301111561460257600080fd5b828260208301376000602084830101529392505050565b60008060006060848603121561462e57600080fd5b614637846140d1565b925060208401356001600160401b0381111561465257600080fd5b8401601f8101861361466357600080fd5b614672868235602084016145db565b92505061468160408501614130565b90509250925092565b60008060006060848603121561469f57600080fd5b6146a8846140d1565b92506146b6602085016143ce565b9150614681604085016140d1565b600080604083850312156146d757600080fd5b6146e0836140d1565b91506146ee602084016140d1565b90509250929050565b600080600080600080600080600060e08a8c03121561471557600080fd5b61471e8a6140d1565b985060208a0135975060408a0135965060608a01356001600160401b038082111561474857600080fd5b6147548d838e016140e8565b909850965086915061476860808d01614130565b955061477660a08d016143ce565b945060c08c013591508082111561478c57600080fd5b506147998c828d016140e8565b915080935050809150509295985092959850929598565b6000806000806000608086880312156147c857600080fd5b6147d1866140d1565b94506147df602087016140d1565b93506040860135925060608601356001600160401b0381111561480157600080fd5b61480d888289016140e8565b969995985093965092949392505050565b6000806040838503121561483157600080fd5b823561483c8161428a565b9150602083013561484c8161428a565b809150509250929050565b600082601f83011261486857600080fd5b61199c838335602085016145db565b6000806000806080858703121561488d57600080fd5b84356001600160401b03808211156148a457600080fd5b6148b088838901614857565b955060208701359150808211156148c657600080fd5b506148d387828801614857565b935050604085013560ff811681146148ea57600080fd5b915060608501356148fa8161428a565b939692955090935050565b60008060006060848603121561491a57600080fd5b614923846140d1565b9250614931602085016140d1565b9150604084013590509250925092565b60006020828403121561495357600080fd5b61199c826143ce565b6000806000806000806000806000806101008b8d03121561497c57600080fd5b6149858b6140d1565b995060208b01356001600160401b03808211156149a157600080fd5b6149ad8e838f016140e8565b909b5099508991506149c160408e01614130565b985060608d0135975060808d013591506149da8261428a565b90955060a08c0135945060c08c013590808211156149f757600080fd5b50614a048d828e016140e8565b9150809450508092505060e08b013590509295989b9194979a5092959850565b60008060008060808587031215614a3a57600080fd5b614a43856140d1565b9350614a51602086016140d1565b92506040850135614a618161428a565b9396929550929360600135925050565b600181811c90821680614a8557607f821691505b602082108114156139ef57634e487b7160e01b600052602260045260246000fd5b8183823760009101908152919050565b6000808335601e19843603018112614acd57600080fd5b8301803591506001600160401b03821115614ae757600080fd5b60200191503681900382131561412957600080fd5b6020808252602d908201527f426173654f4654576974684665653a20616d6f756e74206973206c657373207460408201526c1a185b881b5a5b905b5bdd5b9d609a1b606082015260800190565b634e487b7160e01b600052601160045260246000fd5b60008219821115614b7257614b72614b49565b500190565b81835281816020850137506000828201602090810191909152601f909101601f19169091010190565b61ffff84168152604060208201526000612371604083018486614b77565b60208082526025908201527f4665653a20666565206270206d757374206265203c3d2042505f44454e4f4d496040820152642720aa27a960d91b606082015260800190565b600082821015614c1557614c15614b49565b500390565b8284823760609190911b6bffffffffffffffffffffffff19169101908152601401919050565b600061ffff808816835280871660208401525084604083015260806060830152614c6e608083018486614b77565b979650505050505050565b61ffff86168152608060208201526000614c97608083018688614b77565b6001600160401b0394909416604083015250606001529392505050565b61ffff8916815260c060208201526000614cd260c08301898b614b77565b6001600160401b038816604084015286606084015285608084015282810360a0840152614d00818587614b77565b9b9a5050505050505050505050565b6000816000190483118215151615614d2957614d29614b49565b500290565b634e487b7160e01b600052601260045260246000fd5b600082614d5357614d53614d2e565b500490565b600060208284031215614d6a57600080fd5b81516001600160401b03811115614d8057600080fd5b8201601f81018413614d9157600080fd5b8051614d9f6145e9826145b4565b818152856020838501011115614db457600080fd5b612371826020830160208601614204565b61ffff85168152608060208201526000614de26080830186614230565b6001600160401b03851660408401528281036060840152614c6e8185614230565b60208082526022908201527f4e61746976654f4654576974684665653a20616d6f756e7420746f6f20736d616040820152611b1b60f21b606082015260800190565b61ffff861681526001600160a01b038516602082015260a060408201819052600090614e7390830186614230565b84151560608401528281036080840152614e8d8185614230565b98975050505050505050565b60008060408385031215614eac57600080fd5b505080516020909101519092909150565b6020808252602b908201527f496e697469616c697a61626c653a20636f6e7472616374206973206e6f74206960408201526a6e697469616c697a696e6760a81b606082015260800190565b60008251614f1a818460208701614204565b9190910192915050565b61ffff8616815260a060208201526000614f4160a0830187614230565b6001600160401b03861660408401528281036060840152614f628186614230565b90508281036080840152614e8d8185614230565b600082614f8557614f85614d2e565b500690565b61ffff8716815260c060208201526000614fa760c0830188614230565b8281036040840152614fb98188614230565b6001600160a01b0387811660608601528616608085015283810360a08501529050614fe48185614230565b9998505050505050505050565b60ff60f81b8760f81b16815285600182015260006001600160401b0360c01b808760c01b166021840152856029840152808560c01b166049840152508251615040816051850160208701614204565b91909101605101979650505050505050565b600061010061ffff8b1683528060208401526150708184018b614230565b6001600160401b038a166040850152606084018990526001600160a01b038816608085015260a0840187905283810360c085015290506150b08186614230565b9150508260e08301529998505050505050505050565b6060815260006150d96060830186614230565b6001600160401b039490941660208301525060400152919050565b600060ff821660ff84168082101561510e5761510e614b49565b90039392505050565b600181815b8085111561515257816000190482111561513857615138614b49565b8085161561514557918102915b93841c939080029061511c565b509250929050565b60008261516957506001610e7a565b8161517657506000610e7a565b816001811461518c5760028114615196576151b2565b6001915050610e7a565b60ff8411156151a7576151a7614b49565b50506001821b610e7a565b5060208310610133831016604e8410600b84101617156151d5575081810a610e7a565b6151df8383615117565b80600019048211156151f3576151f3614b49565b029392505050565b600061199c60ff84168361515a565b60208082526028908201527f4e61746976654f4654576974684665653a20496e73756666696369656e74206d60408201526773672e76616c756560c01b60608201526080019056fea26469706673582212204147d223118c955e73d4bdb0825f5acdd57b98d1bc7dc26dc5de1e721bdf1fd664736f6c634300080c0033",
  "devdoc": {
    "kind": "dev",
    "methods": {
      "allowance(address,address)": {
        "details": "See {IERC20-allowance}."
      },
      "approve(address,uint256)": {
        "details": "See {IERC20-approve}. NOTE: If `amount` is the maximum `uint256`, the allowance is not updated on `transferFrom`. This is semantically equivalent to an infinite approval. Requirements: - `spender` cannot be the zero address."
      },
      "balanceOf(address)": {
        "details": "See {IERC20-balanceOf}."
      },
      "circulatingSupply()": {
        "details": "returns the circulating amount of tokens on current chain"
      },
      "decimals()": {
        "details": "Returns the number of decimals used to get its user representation. For example, if `decimals` equals `2`, a balance of `505` tokens should be displayed to a user as `5.05` (`505 / 10 ** 2`). Tokens usually opt for a value of 18, imitating the relationship between Ether and Wei. This is the value {ERC20} uses, unless this function is overridden; NOTE: This information is only used for _display_ purposes: it in no way affects any of the arithmetic of the contract, including {IERC20-balanceOf} and {IERC20-transfer}."
      },
      "decreaseAllowance(address,uint256)": {
        "details": "Atomically decreases the allowance granted to `spender` by the caller. This is an alternative to {approve} that can be used as a mitigation for problems described in {IERC20-approve}. Emits an {Approval} event indicating the updated allowance. Requirements: - `spender` cannot be the zero address. - `spender` must have allowance for the caller of at least `subtractedValue`."
      },
      "estimateSendFee(uint16,bytes32,uint256,bool,bytes)": {
        "details": "estimate send token `_tokenId` to (`_dstChainId`, `_toAddress`) _dstChainId - L0 defined chain id to send tokens too _toAddress - dynamic bytes array which contains the address to whom you are sending tokens to on the dstChain _amount - amount of the tokens to transfer _useZro - indicates to use zro to pay L0 fees _adapterParam - flexible bytes array to indicate messaging adapter services in L0"
      },
      "increaseAllowance(address,uint256)": {
        "details": "Atomically increases the allowance granted to `spender` by the caller. This is an alternative to {approve} that can be used as a mitigation for problems described in {IERC20-approve}. Emits an {Approval} event indicating the updated allowance. Requirements: - `spender` cannot be the zero address."
      },
      "name()": {
        "details": "Returns the name of the token."
      },
      "owner()": {
        "details": "Returns the address of the current owner."
      },
      "renounceOwnership()": {
        "details": "Leaves the contract without owner. It will not be possible to call `onlyOwner` functions anymore. Can only be called by the current owner. NOTE: Renouncing ownership will leave the contract without an owner, thereby removing any functionality that is only available to the owner."
      },
      "sendFrom(address,uint16,bytes32,uint256,uint256,(address,address,bytes))": {
        "details": "send `_amount` amount of token to (`_dstChainId`, `_toAddress`) from `_from` `_from` the owner of token `_dstChainId` the destination chain identifier `_toAddress` can be any size depending on the `dstChainId`. `_amount` the quantity of tokens in wei `_minAmount` the minimum amount of tokens to receive on dstChain `_refundAddress` the address LayerZero refunds if too much message fee is sent `_zroPaymentAddress` set to address(0x0) if not paying in ZRO (LayerZero Token) `_adapterParams` is a flexible bytes array to indicate messaging adapter services"
      },
      "symbol()": {
        "details": "Returns the symbol of the token, usually a shorter version of the name."
      },
      "token()": {
        "details": "returns the address of the ERC20 token"
      },
      "totalSupply()": {
        "details": "See {IERC20-totalSupply}."
      },
      "transfer(address,uint256)": {
        "details": "See {IERC20-transfer}. Requirements: - `to` cannot be the zero address. - the caller must have a balance of at least `amount`."
      },
      "transferFrom(address,address,uint256)": {
        "details": "See {IERC20-transferFrom}. Emits an {Approval} event indicating the updated allowance. This is not required by the EIP. See the note at the beginning of {ERC20}. NOTE: Does not update the allowance if the current allowance is the maximum `uint256`. Requirements: - `from` and `to` cannot be the zero address. - `from` must have a balance of at least `amount`. - the caller must have allowance for ``from``'s tokens of at least `amount`."
      },
      "transferOwnership(address)": {
        "details": "Transfers ownership of the contract to a new account (`newOwner`). Can only be called by the current owner."
      }
    },
    "version": 1
  },
  "userdoc": {
    "kind": "user",
    "methods": {},
    "version": 1
  },
  "storageLayout": {
    "storage": [
      {
        "astId": 138,
        "contract": "contracts/contracts-upgradable/token/oft/v2/fee/NativeOFTWithFeeUpgradeable.sol:NativeOFTWithFeeUpgradeable",
        "label": "_initialized",
        "offset": 0,
        "slot": "0",
        "type": "t_uint8"
      },
      {
        "astId": 141,
        "contract": "contracts/contracts-upgradable/token/oft/v2/fee/NativeOFTWithFeeUpgradeable.sol:NativeOFTWithFeeUpgradeable",
        "label": "_initializing",
        "offset": 1,
        "slot": "0",
        "type": "t_bool"
      },
      {
        "astId": 4132,
        "contract": "contracts/contracts-upgradable/token/oft/v2/fee/NativeOFTWithFeeUpgradeable.sol:NativeOFTWithFeeUpgradeable",
        "label": "__gap",
        "offset": 0,
        "slot": "1",
        "type": "t_array(t_uint256)50_storage"
      },
      {
        "astId": 10,
        "contract": "contracts/contracts-upgradable/token/oft/v2/fee/NativeOFTWithFeeUpgradeable.sol:NativeOFTWithFeeUpgradeable",
        "label": "_owner",
        "offset": 0,
        "slot": "51",
        "type": "t_address"
      },
      {
        "astId": 130,
        "contract": "contracts/contracts-upgradable/token/oft/v2/fee/NativeOFTWithFeeUpgradeable.sol:NativeOFTWithFeeUpgradeable",
        "label": "__gap",
        "offset": 0,
        "slot": "52",
        "type": "t_array(t_uint256)49_storage"
      },
      {
        "astId": 11647,
        "contract": "contracts/contracts-upgradable/token/oft/v2/fee/NativeOFTWithFeeUpgradeable.sol:NativeOFTWithFeeUpgradeable",
        "label": "lzEndpoint",
        "offset": 0,
        "slot": "101",
        "type": "t_contract(ILayerZeroEndpointUpgradeable)11578"
      },
      {
        "astId": 11651,
        "contract": "contracts/contracts-upgradable/token/oft/v2/fee/NativeOFTWithFeeUpgradeable.sol:NativeOFTWithFeeUpgradeable",
        "label": "trustedRemoteLookup",
        "offset": 0,
        "slot": "102",
        "type": "t_mapping(t_uint16,t_bytes_storage)"
      },
      {
        "astId": 11657,
        "contract": "contracts/contracts-upgradable/token/oft/v2/fee/NativeOFTWithFeeUpgradeable.sol:NativeOFTWithFeeUpgradeable",
        "label": "minDstGasLookup",
        "offset": 0,
        "slot": "103",
        "type": "t_mapping(t_uint16,t_mapping(t_uint16,t_uint256))"
      },
      {
        "astId": 11661,
        "contract": "contracts/contracts-upgradable/token/oft/v2/fee/NativeOFTWithFeeUpgradeable.sol:NativeOFTWithFeeUpgradeable",
        "label": "payloadSizeLimitLookup",
        "offset": 0,
        "slot": "104",
        "type": "t_mapping(t_uint16,t_uint256)"
      },
      {
        "astId": 11663,
        "contract": "contracts/contracts-upgradable/token/oft/v2/fee/NativeOFTWithFeeUpgradeable.sol:NativeOFTWithFeeUpgradeable",
        "label": "precrime",
        "offset": 0,
        "slot": "105",
        "type": "t_address"
      },
      {
        "astId": 12195,
        "contract": "contracts/contracts-upgradable/token/oft/v2/fee/NativeOFTWithFeeUpgradeable.sol:NativeOFTWithFeeUpgradeable",
        "label": "__gap",
        "offset": 0,
        "slot": "106",
        "type": "t_array(t_uint256)45_storage"
      },
      {
        "astId": 12238,
        "contract": "contracts/contracts-upgradable/token/oft/v2/fee/NativeOFTWithFeeUpgradeable.sol:NativeOFTWithFeeUpgradeable",
        "label": "failedMessages",
        "offset": 0,
        "slot": "151",
        "type": "t_mapping(t_uint16,t_mapping(t_bytes_memory_ptr,t_mapping(t_uint64,t_bytes32)))"
      },
      {
        "astId": 12457,
        "contract": "contracts/contracts-upgradable/token/oft/v2/fee/NativeOFTWithFeeUpgradeable.sol:NativeOFTWithFeeUpgradeable",
        "label": "__gap",
        "offset": 0,
        "slot": "152",
        "type": "t_array(t_uint256)49_storage"
      },
      {
        "astId": 14439,
        "contract": "contracts/contracts-upgradable/token/oft/v2/fee/NativeOFTWithFeeUpgradeable.sol:NativeOFTWithFeeUpgradeable",
        "label": "sharedDecimals",
        "offset": 0,
        "slot": "201",
        "type": "t_uint8"
      },
      {
        "astId": 14441,
        "contract": "contracts/contracts-upgradable/token/oft/v2/fee/NativeOFTWithFeeUpgradeable.sol:NativeOFTWithFeeUpgradeable",
        "label": "useCustomAdapterParams",
        "offset": 1,
        "slot": "201",
        "type": "t_bool"
      },
      {
        "astId": 14449,
        "contract": "contracts/contracts-upgradable/token/oft/v2/fee/NativeOFTWithFeeUpgradeable.sol:NativeOFTWithFeeUpgradeable",
        "label": "creditedPackets",
        "offset": 0,
        "slot": "202",
        "type": "t_mapping(t_uint16,t_mapping(t_bytes_memory_ptr,t_mapping(t_uint64,t_bool)))"
      },
      {
        "astId": 15441,
        "contract": "contracts/contracts-upgradable/token/oft/v2/fee/NativeOFTWithFeeUpgradeable.sol:NativeOFTWithFeeUpgradeable",
        "label": "__gap",
        "offset": 0,
        "slot": "203",
        "type": "t_array(t_uint256)44_storage"
      },
      {
        "astId": 16247,
        "contract": "contracts/contracts-upgradable/token/oft/v2/fee/NativeOFTWithFeeUpgradeable.sol:NativeOFTWithFeeUpgradeable",
        "label": "chainIdToFeeBps",
        "offset": 0,
        "slot": "247",
        "type": "t_mapping(t_uint16,t_struct(FeeConfig)16256_storage)"
      },
      {
        "astId": 16249,
        "contract": "contracts/contracts-upgradable/token/oft/v2/fee/NativeOFTWithFeeUpgradeable.sol:NativeOFTWithFeeUpgradeable",
        "label": "defaultFeeBp",
        "offset": 0,
        "slot": "248",
        "type": "t_uint16"
      },
      {
        "astId": 16251,
        "contract": "contracts/contracts-upgradable/token/oft/v2/fee/NativeOFTWithFeeUpgradeable.sol:NativeOFTWithFeeUpgradeable",
        "label": "feeOwner",
        "offset": 2,
        "slot": "248",
        "type": "t_address"
      },
      {
        "astId": 16474,
        "contract": "contracts/contracts-upgradable/token/oft/v2/fee/NativeOFTWithFeeUpgradeable.sol:NativeOFTWithFeeUpgradeable",
        "label": "__gap",
        "offset": 0,
        "slot": "249",
        "type": "t_array(t_uint256)45_storage"
      },
      {
        "astId": 4402,
        "contract": "contracts/contracts-upgradable/token/oft/v2/fee/NativeOFTWithFeeUpgradeable.sol:NativeOFTWithFeeUpgradeable",
        "label": "__gap",
        "offset": 0,
        "slot": "294",
        "type": "t_array(t_uint256)50_storage"
      },
      {
        "astId": 16233,
        "contract": "contracts/contracts-upgradable/token/oft/v2/fee/NativeOFTWithFeeUpgradeable.sol:NativeOFTWithFeeUpgradeable",
        "label": "__gap",
        "offset": 0,
        "slot": "344",
        "type": "t_array(t_uint256)50_storage"
      },
      {
        "astId": 1783,
        "contract": "contracts/contracts-upgradable/token/oft/v2/fee/NativeOFTWithFeeUpgradeable.sol:NativeOFTWithFeeUpgradeable",
        "label": "_balances",
        "offset": 0,
        "slot": "394",
        "type": "t_mapping(t_address,t_uint256)"
      },
      {
        "astId": 1789,
        "contract": "contracts/contracts-upgradable/token/oft/v2/fee/NativeOFTWithFeeUpgradeable.sol:NativeOFTWithFeeUpgradeable",
        "label": "_allowances",
        "offset": 0,
        "slot": "395",
        "type": "t_mapping(t_address,t_mapping(t_address,t_uint256))"
      },
      {
        "astId": 1791,
        "contract": "contracts/contracts-upgradable/token/oft/v2/fee/NativeOFTWithFeeUpgradeable.sol:NativeOFTWithFeeUpgradeable",
        "label": "_totalSupply",
        "offset": 0,
        "slot": "396",
        "type": "t_uint256"
      },
      {
        "astId": 1793,
        "contract": "contracts/contracts-upgradable/token/oft/v2/fee/NativeOFTWithFeeUpgradeable.sol:NativeOFTWithFeeUpgradeable",
        "label": "_name",
        "offset": 0,
        "slot": "397",
        "type": "t_string_storage"
      },
      {
        "astId": 1795,
        "contract": "contracts/contracts-upgradable/token/oft/v2/fee/NativeOFTWithFeeUpgradeable.sol:NativeOFTWithFeeUpgradeable",
        "label": "_symbol",
        "offset": 0,
        "slot": "398",
        "type": "t_string_storage"
      },
      {
        "astId": 2374,
        "contract": "contracts/contracts-upgradable/token/oft/v2/fee/NativeOFTWithFeeUpgradeable.sol:NativeOFTWithFeeUpgradeable",
        "label": "__gap",
        "offset": 0,
        "slot": "399",
        "type": "t_array(t_uint256)45_storage"
      },
      {
        "astId": 17461,
        "contract": "contracts/contracts-upgradable/token/oft/v2/fee/NativeOFTWithFeeUpgradeable.sol:NativeOFTWithFeeUpgradeable",
        "label": "ld2sdRate",
        "offset": 0,
        "slot": "444",
        "type": "t_uint256"
      },
      {
        "astId": 296,
        "contract": "contracts/contracts-upgradable/token/oft/v2/fee/NativeOFTWithFeeUpgradeable.sol:NativeOFTWithFeeUpgradeable",
        "label": "_status",
        "offset": 0,
        "slot": "445",
        "type": "t_uint256"
      },
      {
        "astId": 340,
        "contract": "contracts/contracts-upgradable/token/oft/v2/fee/NativeOFTWithFeeUpgradeable.sol:NativeOFTWithFeeUpgradeable",
        "label": "__gap",
        "offset": 0,
        "slot": "446",
        "type": "t_array(t_uint256)49_storage"
      }
    ],
    "types": {
      "t_address": {
        "encoding": "inplace",
        "label": "address",
        "numberOfBytes": "20"
      },
      "t_array(t_uint256)44_storage": {
        "base": "t_uint256",
        "encoding": "inplace",
        "label": "uint256[44]",
        "numberOfBytes": "1408"
      },
      "t_array(t_uint256)45_storage": {
        "base": "t_uint256",
        "encoding": "inplace",
        "label": "uint256[45]",
        "numberOfBytes": "1440"
      },
      "t_array(t_uint256)49_storage": {
        "base": "t_uint256",
        "encoding": "inplace",
        "label": "uint256[49]",
        "numberOfBytes": "1568"
      },
      "t_array(t_uint256)50_storage": {
        "base": "t_uint256",
        "encoding": "inplace",
        "label": "uint256[50]",
        "numberOfBytes": "1600"
      },
      "t_bool": {
        "encoding": "inplace",
        "label": "bool",
        "numberOfBytes": "1"
      },
      "t_bytes32": {
        "encoding": "inplace",
        "label": "bytes32",
        "numberOfBytes": "32"
      },
      "t_bytes_memory_ptr": {
        "encoding": "bytes",
        "label": "bytes",
        "numberOfBytes": "32"
      },
      "t_bytes_storage": {
        "encoding": "bytes",
        "label": "bytes",
        "numberOfBytes": "32"
      },
      "t_contract(ILayerZeroEndpointUpgradeable)11578": {
        "encoding": "inplace",
        "label": "contract ILayerZeroEndpointUpgradeable",
        "numberOfBytes": "20"
      },
      "t_mapping(t_address,t_mapping(t_address,t_uint256))": {
        "encoding": "mapping",
        "key": "t_address",
        "label": "mapping(address => mapping(address => uint256))",
        "numberOfBytes": "32",
        "value": "t_mapping(t_address,t_uint256)"
      },
      "t_mapping(t_address,t_uint256)": {
        "encoding": "mapping",
        "key": "t_address",
        "label": "mapping(address => uint256)",
        "numberOfBytes": "32",
        "value": "t_uint256"
      },
      "t_mapping(t_bytes_memory_ptr,t_mapping(t_uint64,t_bool))": {
        "encoding": "mapping",
        "key": "t_bytes_memory_ptr",
        "label": "mapping(bytes => mapping(uint64 => bool))",
        "numberOfBytes": "32",
        "value": "t_mapping(t_uint64,t_bool)"
      },
      "t_mapping(t_bytes_memory_ptr,t_mapping(t_uint64,t_bytes32))": {
        "encoding": "mapping",
        "key": "t_bytes_memory_ptr",
        "label": "mapping(bytes => mapping(uint64 => bytes32))",
        "numberOfBytes": "32",
        "value": "t_mapping(t_uint64,t_bytes32)"
      },
      "t_mapping(t_uint16,t_bytes_storage)": {
        "encoding": "mapping",
        "key": "t_uint16",
        "label": "mapping(uint16 => bytes)",
        "numberOfBytes": "32",
        "value": "t_bytes_storage"
      },
      "t_mapping(t_uint16,t_mapping(t_bytes_memory_ptr,t_mapping(t_uint64,t_bool)))": {
        "encoding": "mapping",
        "key": "t_uint16",
        "label": "mapping(uint16 => mapping(bytes => mapping(uint64 => bool)))",
        "numberOfBytes": "32",
        "value": "t_mapping(t_bytes_memory_ptr,t_mapping(t_uint64,t_bool))"
      },
      "t_mapping(t_uint16,t_mapping(t_bytes_memory_ptr,t_mapping(t_uint64,t_bytes32)))": {
        "encoding": "mapping",
        "key": "t_uint16",
        "label": "mapping(uint16 => mapping(bytes => mapping(uint64 => bytes32)))",
        "numberOfBytes": "32",
        "value": "t_mapping(t_bytes_memory_ptr,t_mapping(t_uint64,t_bytes32))"
      },
      "t_mapping(t_uint16,t_mapping(t_uint16,t_uint256))": {
        "encoding": "mapping",
        "key": "t_uint16",
        "label": "mapping(uint16 => mapping(uint16 => uint256))",
        "numberOfBytes": "32",
        "value": "t_mapping(t_uint16,t_uint256)"
      },
      "t_mapping(t_uint16,t_struct(FeeConfig)16256_storage)": {
        "encoding": "mapping",
        "key": "t_uint16",
        "label": "mapping(uint16 => struct FeeUpgradeable.FeeConfig)",
        "numberOfBytes": "32",
        "value": "t_struct(FeeConfig)16256_storage"
      },
      "t_mapping(t_uint16,t_uint256)": {
        "encoding": "mapping",
        "key": "t_uint16",
        "label": "mapping(uint16 => uint256)",
        "numberOfBytes": "32",
        "value": "t_uint256"
      },
      "t_mapping(t_uint64,t_bool)": {
        "encoding": "mapping",
        "key": "t_uint64",
        "label": "mapping(uint64 => bool)",
        "numberOfBytes": "32",
        "value": "t_bool"
      },
      "t_mapping(t_uint64,t_bytes32)": {
        "encoding": "mapping",
        "key": "t_uint64",
        "label": "mapping(uint64 => bytes32)",
        "numberOfBytes": "32",
        "value": "t_bytes32"
      },
      "t_string_storage": {
        "encoding": "bytes",
        "label": "string",
        "numberOfBytes": "32"
      },
      "t_struct(FeeConfig)16256_storage": {
        "encoding": "inplace",
        "label": "struct FeeUpgradeable.FeeConfig",
        "members": [
          {
            "astId": 16253,
            "contract": "contracts/contracts-upgradable/token/oft/v2/fee/NativeOFTWithFeeUpgradeable.sol:NativeOFTWithFeeUpgradeable",
            "label": "feeBP",
            "offset": 0,
            "slot": "0",
            "type": "t_uint16"
          },
          {
            "astId": 16255,
            "contract": "contracts/contracts-upgradable/token/oft/v2/fee/NativeOFTWithFeeUpgradeable.sol:NativeOFTWithFeeUpgradeable",
            "label": "enabled",
            "offset": 2,
            "slot": "0",
            "type": "t_bool"
          }
        ],
        "numberOfBytes": "32"
      },
      "t_uint16": {
        "encoding": "inplace",
        "label": "uint16",
        "numberOfBytes": "2"
      },
      "t_uint256": {
        "encoding": "inplace",
        "label": "uint256",
        "numberOfBytes": "32"
      },
      "t_uint64": {
        "encoding": "inplace",
        "label": "uint64",
        "numberOfBytes": "8"
      },
      "t_uint8": {
        "encoding": "inplace",
        "label": "uint8",
        "numberOfBytes": "1"
      }
    }
  }
}